{
  "contractName": "FantomPiratesGame",
  "abi": [
    {
      "inputs": [
        {
          "internalType": "address",
          "name": "_ship_contract_address",
          "type": "address"
        }
      ],
      "stateMutability": "nonpayable",
      "type": "constructor"
    },
    {
      "anonymous": false,
      "inputs": [
        {
          "indexed": true,
          "internalType": "address",
          "name": "owner",
          "type": "address"
        },
        {
          "indexed": true,
          "internalType": "address",
          "name": "approved",
          "type": "address"
        },
        {
          "indexed": true,
          "internalType": "uint256",
          "name": "tokenId",
          "type": "uint256"
        }
      ],
      "name": "Approval",
      "type": "event"
    },
    {
      "anonymous": false,
      "inputs": [
        {
          "indexed": true,
          "internalType": "address",
          "name": "owner",
          "type": "address"
        },
        {
          "indexed": true,
          "internalType": "address",
          "name": "operator",
          "type": "address"
        },
        {
          "indexed": false,
          "internalType": "bool",
          "name": "approved",
          "type": "bool"
        }
      ],
      "name": "ApprovalForAll",
      "type": "event"
    },
    {
      "anonymous": false,
      "inputs": [
        {
          "indexed": true,
          "internalType": "address",
          "name": "owner",
          "type": "address"
        },
        {
          "indexed": false,
          "internalType": "uint256",
          "name": "id",
          "type": "uint256"
        },
        {
          "indexed": false,
          "internalType": "uint256",
          "name": "level",
          "type": "uint256"
        }
      ],
      "name": "Leveled",
      "type": "event"
    },
    {
      "anonymous": false,
      "inputs": [
        {
          "indexed": true,
          "internalType": "address",
          "name": "owner",
          "type": "address"
        },
        {
          "indexed": false,
          "internalType": "uint256",
          "name": "pirate_id",
          "type": "uint256"
        }
      ],
      "name": "PirateCreated",
      "type": "event"
    },
    {
      "anonymous": false,
      "inputs": [
        {
          "indexed": true,
          "internalType": "address",
          "name": "owner",
          "type": "address"
        },
        {
          "indexed": false,
          "internalType": "uint256",
          "name": "ship_id",
          "type": "uint256"
        }
      ],
      "name": "ShipCreated",
      "type": "event"
    },
    {
      "anonymous": false,
      "inputs": [
        {
          "indexed": true,
          "internalType": "address",
          "name": "from",
          "type": "address"
        },
        {
          "indexed": true,
          "internalType": "address",
          "name": "to",
          "type": "address"
        },
        {
          "indexed": true,
          "internalType": "uint256",
          "name": "tokenId",
          "type": "uint256"
        }
      ],
      "name": "Transfer",
      "type": "event"
    },
    {
      "inputs": [],
      "name": "_gold_contract",
      "outputs": [
        {
          "internalType": "contract ERC20",
          "name": "",
          "type": "address"
        }
      ],
      "stateMutability": "view",
      "type": "function",
      "constant": true
    },
    {
      "inputs": [],
      "name": "_ships_contract",
      "outputs": [
        {
          "internalType": "contract FantomPiratesShip",
          "name": "",
          "type": "address"
        }
      ],
      "stateMutability": "view",
      "type": "function",
      "constant": true
    },
    {
      "inputs": [
        {
          "internalType": "address",
          "name": "to",
          "type": "address"
        },
        {
          "internalType": "uint256",
          "name": "tokenId",
          "type": "uint256"
        }
      ],
      "name": "approve",
      "outputs": [],
      "stateMutability": "nonpayable",
      "type": "function"
    },
    {
      "inputs": [
        {
          "internalType": "address",
          "name": "owner",
          "type": "address"
        }
      ],
      "name": "balanceOf",
      "outputs": [
        {
          "internalType": "uint256",
          "name": "",
          "type": "uint256"
        }
      ],
      "stateMutability": "view",
      "type": "function",
      "constant": true
    },
    {
      "inputs": [],
      "name": "donations",
      "outputs": [
        {
          "internalType": "uint256",
          "name": "",
          "type": "uint256"
        }
      ],
      "stateMutability": "view",
      "type": "function",
      "constant": true
    },
    {
      "inputs": [
        {
          "internalType": "uint256",
          "name": "tokenId",
          "type": "uint256"
        }
      ],
      "name": "getApproved",
      "outputs": [
        {
          "internalType": "address",
          "name": "",
          "type": "address"
        }
      ],
      "stateMutability": "view",
      "type": "function",
      "constant": true
    },
    {
      "inputs": [
        {
          "internalType": "uint256",
          "name": "",
          "type": "uint256"
        }
      ],
      "name": "gold",
      "outputs": [
        {
          "internalType": "uint256",
          "name": "",
          "type": "uint256"
        }
      ],
      "stateMutability": "view",
      "type": "function",
      "constant": true
    },
    {
      "inputs": [],
      "name": "gold_for_pet",
      "outputs": [
        {
          "internalType": "uint256",
          "name": "",
          "type": "uint256"
        }
      ],
      "stateMutability": "view",
      "type": "function",
      "constant": true
    },
    {
      "inputs": [],
      "name": "gold_for_ship",
      "outputs": [
        {
          "internalType": "uint256",
          "name": "",
          "type": "uint256"
        }
      ],
      "stateMutability": "view",
      "type": "function",
      "constant": true
    },
    {
      "inputs": [
        {
          "internalType": "address",
          "name": "owner",
          "type": "address"
        },
        {
          "internalType": "address",
          "name": "operator",
          "type": "address"
        }
      ],
      "name": "isApprovedForAll",
      "outputs": [
        {
          "internalType": "bool",
          "name": "",
          "type": "bool"
        }
      ],
      "stateMutability": "view",
      "type": "function",
      "constant": true
    },
    {
      "inputs": [
        {
          "internalType": "uint256",
          "name": "",
          "type": "uint256"
        }
      ],
      "name": "level",
      "outputs": [
        {
          "internalType": "uint256",
          "name": "",
          "type": "uint256"
        }
      ],
      "stateMutability": "view",
      "type": "function",
      "constant": true
    },
    {
      "inputs": [],
      "name": "name",
      "outputs": [
        {
          "internalType": "string",
          "name": "",
          "type": "string"
        }
      ],
      "stateMutability": "view",
      "type": "function",
      "constant": true
    },
    {
      "inputs": [],
      "name": "next_pet_id",
      "outputs": [
        {
          "internalType": "uint256",
          "name": "",
          "type": "uint256"
        }
      ],
      "stateMutability": "view",
      "type": "function",
      "constant": true
    },
    {
      "inputs": [],
      "name": "next_pirate_id",
      "outputs": [
        {
          "internalType": "uint256",
          "name": "",
          "type": "uint256"
        }
      ],
      "stateMutability": "view",
      "type": "function",
      "constant": true
    },
    {
      "inputs": [],
      "name": "next_ship_id",
      "outputs": [
        {
          "internalType": "uint256",
          "name": "",
          "type": "uint256"
        }
      ],
      "stateMutability": "view",
      "type": "function",
      "constant": true
    },
    {
      "inputs": [],
      "name": "owner",
      "outputs": [
        {
          "internalType": "address",
          "name": "",
          "type": "address"
        }
      ],
      "stateMutability": "view",
      "type": "function",
      "constant": true
    },
    {
      "inputs": [
        {
          "internalType": "uint256",
          "name": "tokenId",
          "type": "uint256"
        }
      ],
      "name": "ownerOf",
      "outputs": [
        {
          "internalType": "address",
          "name": "",
          "type": "address"
        }
      ],
      "stateMutability": "view",
      "type": "function",
      "constant": true
    },
    {
      "inputs": [
        {
          "internalType": "uint256",
          "name": "",
          "type": "uint256"
        }
      ],
      "name": "pet",
      "outputs": [
        {
          "internalType": "uint256",
          "name": "",
          "type": "uint256"
        }
      ],
      "stateMutability": "view",
      "type": "function",
      "constant": true
    },
    {
      "inputs": [
        {
          "internalType": "uint256",
          "name": "",
          "type": "uint256"
        }
      ],
      "name": "quests_log",
      "outputs": [
        {
          "internalType": "uint256",
          "name": "",
          "type": "uint256"
        }
      ],
      "stateMutability": "view",
      "type": "function",
      "constant": true
    },
    {
      "inputs": [
        {
          "internalType": "address",
          "name": "from",
          "type": "address"
        },
        {
          "internalType": "address",
          "name": "to",
          "type": "address"
        },
        {
          "internalType": "uint256",
          "name": "tokenId",
          "type": "uint256"
        }
      ],
      "name": "safeTransferFrom",
      "outputs": [],
      "stateMutability": "nonpayable",
      "type": "function"
    },
    {
      "inputs": [
        {
          "internalType": "address",
          "name": "from",
          "type": "address"
        },
        {
          "internalType": "address",
          "name": "to",
          "type": "address"
        },
        {
          "internalType": "uint256",
          "name": "tokenId",
          "type": "uint256"
        },
        {
          "internalType": "bytes",
          "name": "_data",
          "type": "bytes"
        }
      ],
      "name": "safeTransferFrom",
      "outputs": [],
      "stateMutability": "nonpayable",
      "type": "function"
    },
    {
      "inputs": [
        {
          "internalType": "address",
          "name": "operator",
          "type": "address"
        },
        {
          "internalType": "bool",
          "name": "approved",
          "type": "bool"
        }
      ],
      "name": "setApprovalForAll",
      "outputs": [],
      "stateMutability": "nonpayable",
      "type": "function"
    },
    {
      "inputs": [
        {
          "internalType": "uint256",
          "name": "",
          "type": "uint256"
        }
      ],
      "name": "ship",
      "outputs": [
        {
          "internalType": "uint256",
          "name": "",
          "type": "uint256"
        }
      ],
      "stateMutability": "view",
      "type": "function",
      "constant": true
    },
    {
      "inputs": [
        {
          "internalType": "bytes4",
          "name": "interfaceId",
          "type": "bytes4"
        }
      ],
      "name": "supportsInterface",
      "outputs": [
        {
          "internalType": "bool",
          "name": "",
          "type": "bool"
        }
      ],
      "stateMutability": "view",
      "type": "function",
      "constant": true
    },
    {
      "inputs": [],
      "name": "symbol",
      "outputs": [
        {
          "internalType": "string",
          "name": "",
          "type": "string"
        }
      ],
      "stateMutability": "view",
      "type": "function",
      "constant": true
    },
    {
      "inputs": [
        {
          "internalType": "uint256",
          "name": "index",
          "type": "uint256"
        }
      ],
      "name": "tokenByIndex",
      "outputs": [
        {
          "internalType": "uint256",
          "name": "",
          "type": "uint256"
        }
      ],
      "stateMutability": "view",
      "type": "function",
      "constant": true
    },
    {
      "inputs": [
        {
          "internalType": "address",
          "name": "owner",
          "type": "address"
        },
        {
          "internalType": "uint256",
          "name": "index",
          "type": "uint256"
        }
      ],
      "name": "tokenOfOwnerByIndex",
      "outputs": [
        {
          "internalType": "uint256",
          "name": "",
          "type": "uint256"
        }
      ],
      "stateMutability": "view",
      "type": "function",
      "constant": true
    },
    {
      "inputs": [
        {
          "internalType": "uint256",
          "name": "tokenId",
          "type": "uint256"
        }
      ],
      "name": "tokenURI",
      "outputs": [
        {
          "internalType": "string",
          "name": "",
          "type": "string"
        }
      ],
      "stateMutability": "view",
      "type": "function",
      "constant": true
    },
    {
      "inputs": [],
      "name": "totalSupply",
      "outputs": [
        {
          "internalType": "uint256",
          "name": "",
          "type": "uint256"
        }
      ],
      "stateMutability": "view",
      "type": "function",
      "constant": true
    },
    {
      "inputs": [
        {
          "internalType": "address",
          "name": "from",
          "type": "address"
        },
        {
          "internalType": "address",
          "name": "to",
          "type": "address"
        },
        {
          "internalType": "uint256",
          "name": "tokenId",
          "type": "uint256"
        }
      ],
      "name": "transferFrom",
      "outputs": [],
      "stateMutability": "nonpayable",
      "type": "function"
    },
    {
      "inputs": [
        {
          "internalType": "uint256",
          "name": "",
          "type": "uint256"
        }
      ],
      "name": "xp",
      "outputs": [
        {
          "internalType": "uint256",
          "name": "",
          "type": "uint256"
        }
      ],
      "stateMutability": "view",
      "type": "function",
      "constant": true
    },
    {
      "inputs": [],
      "name": "mintPirate",
      "outputs": [],
      "stateMutability": "payable",
      "type": "function",
      "payable": true
    },
    {
      "inputs": [
        {
          "internalType": "uint256",
          "name": "_pirate_id",
          "type": "uint256"
        }
      ],
      "name": "mintShip",
      "outputs": [],
      "stateMutability": "payable",
      "type": "function",
      "payable": true
    },
    {
      "inputs": [
        {
          "internalType": "uint256",
          "name": "_pirate_id",
          "type": "uint256"
        }
      ],
      "name": "mintPet",
      "outputs": [],
      "stateMutability": "payable",
      "type": "function",
      "payable": true
    },
    {
      "inputs": [
        {
          "internalType": "uint256",
          "name": "_pirate_id",
          "type": "uint256"
        }
      ],
      "name": "doQuest",
      "outputs": [],
      "stateMutability": "payable",
      "type": "function",
      "payable": true
    },
    {
      "inputs": [
        {
          "internalType": "uint256",
          "name": "_pirate_id",
          "type": "uint256"
        }
      ],
      "name": "levelUp",
      "outputs": [],
      "stateMutability": "payable",
      "type": "function",
      "payable": true
    },
    {
      "inputs": [
        {
          "internalType": "uint256",
          "name": "_pirate_level",
          "type": "uint256"
        }
      ],
      "name": "requiredXpForLevel",
      "outputs": [
        {
          "internalType": "uint256",
          "name": "required_xp",
          "type": "uint256"
        }
      ],
      "stateMutability": "pure",
      "type": "function",
      "constant": true
    },
    {
      "inputs": [
        {
          "internalType": "uint256",
          "name": "_amount",
          "type": "uint256"
        }
      ],
      "name": "donate",
      "outputs": [],
      "stateMutability": "payable",
      "type": "function",
      "payable": true
    },
    {
      "inputs": [],
      "name": "withdrawAll",
      "outputs": [],
      "stateMutability": "nonpayable",
      "type": "function"
    }
  ],
  "bytecode": "0x608060405233600a60006101000a81548173ffffffffffffffffffffffffffffffffffffffff021916908373ffffffffffffffffffffffffffffffffffffffff1602179055506000600b556001600c556001600d556001600e553480156200006657600080fd5b50604051620045703803806200457083398181016040528101906200008c91906200023b565b6040518060400160405280600e81526020017f46616e746f6d20506972617465730000000000000000000000000000000000008152506040518060400160405280600281526020017f465000000000000000000000000000000000000000000000000000000000000081525081600090805190602001906200011092919062000174565b5080600190805190602001906200012992919062000174565b50505080601560006101000a81548173ffffffffffffffffffffffffffffffffffffffff021916908373ffffffffffffffffffffffffffffffffffffffff160217905550506200031a565b82805462000182906200029b565b90600052602060002090601f016020900481019282620001a65760008555620001f2565b82601f10620001c157805160ff1916838001178555620001f2565b82800160010185558215620001f2579182015b82811115620001f1578251825591602001919060010190620001d4565b5b50905062000201919062000205565b5090565b5b808211156200022057600081600090555060010162000206565b5090565b600081519050620002358162000300565b92915050565b6000602082840312156200024e57600080fd5b60006200025e8482850162000224565b91505092915050565b600062000274826200027b565b9050919050565b600073ffffffffffffffffffffffffffffffffffffffff82169050919050565b60006002820490506001821680620002b457607f821691505b60208210811415620002cb57620002ca620002d1565b5b50919050565b7f4e487b7100000000000000000000000000000000000000000000000000000000600052602260045260246000fd5b6200030b8162000267565b81146200031757600080fd5b50565b614246806200032a6000396000f3fe6080604052600436106102305760003560e01c806370a082311161012e578063bc8ed775116100ab578063cec8603e1161006f578063cec8603e1461089c578063e8757d19146108a6578063e985e9c5146108d1578063efce079e1461090e578063f14faf6f1461092a57610230565b8063bc8ed775146107b0578063bfb3cd5d146107db578063c05d92c914610818578063c0c0a00e14610834578063c87b56dd1461085f57610230565b806395d89b41116100f257806395d89b41146106cb578063a07d7972146106f6578063a22cb46514610733578063b88d4fde1461075c578063b9c831d11461078557610230565b806370a08231146105f3578063853828b6146106305780638da5cb5b1461064757806393407afe1461067257806394b69ffa1461068e57610230565b806323b872dd116101bc578063474758a211610180578063474758a2146104f85780634f6ccce7146105235780634fd0e8f6146105605780636352211e1461058b5780636604b7fa146105c857610230565b806323b872dd146103ef578063244f643b146104185780632f745c59146104555780633e3962f41461049257806342842e0e146104cf57610230565b8063081812fc11610203578063081812fc14610305578063095ea7b3146103425780630ce90ec21461036b57806318160ddd1461038757806320c69e56146103b257610230565b806301ffc9a71461023557806305c58df21461027257806306fdde03146102af57806307c2df7d146102da575b600080fd5b34801561024157600080fd5b5061025c60048036038101906102579190612e92565b610946565b60405161026991906139cd565b60405180910390f35b34801561027e57600080fd5b5061029960048036038101906102949190612ee4565b6109c0565b6040516102a69190613d40565b60405180910390f35b3480156102bb57600080fd5b506102c46109d8565b6040516102d19190613a1e565b60405180910390f35b3480156102e657600080fd5b506102ef610a6a565b6040516102fc9190613d40565b60405180910390f35b34801561031157600080fd5b5061032c60048036038101906103279190612ee4565b610a70565b604051610339919061393d565b60405180910390f35b34801561034e57600080fd5b5061036960048036038101906103649190612e56565b610af5565b005b61038560048036038101906103809190612ee4565b610c0d565b005b34801561039357600080fd5b5061039c610d80565b6040516103a99190613d40565b60405180910390f35b3480156103be57600080fd5b506103d960048036038101906103d49190612ee4565b610d8d565b6040516103e69190613d40565b60405180910390f35b3480156103fb57600080fd5b5061041660048036038101906104119190612d50565b610da5565b005b34801561042457600080fd5b5061043f600480360381019061043a9190612ee4565b610e05565b60405161044c9190613d40565b60405180910390f35b34801561046157600080fd5b5061047c60048036038101906104779190612e56565b610e1d565b6040516104899190613d40565b60405180910390f35b34801561049e57600080fd5b506104b960048036038101906104b49190612ee4565b610ec2565b6040516104c69190613d40565b60405180910390f35b3480156104db57600080fd5b506104f660048036038101906104f19190612d50565b610eda565b005b34801561050457600080fd5b5061050d610efa565b60405161051a9190613a03565b60405180910390f35b34801561052f57600080fd5b5061054a60048036038101906105459190612ee4565b610f20565b6040516105579190613d40565b60405180910390f35b34801561056c57600080fd5b50610575610fb7565b6040516105829190613d40565b60405180910390f35b34801561059757600080fd5b506105b260048036038101906105ad9190612ee4565b610fbd565b6040516105bf919061393d565b60405180910390f35b3480156105d457600080fd5b506105dd61106f565b6040516105ea9190613d40565b60405180910390f35b3480156105ff57600080fd5b5061061a60048036038101906106159190612ceb565b611075565b6040516106279190613d40565b60405180910390f35b34801561063c57600080fd5b5061064561112d565b005b34801561065357600080fd5b5061065c6111f2565b604051610669919061393d565b60405180910390f35b61068c60048036038101906106879190612ee4565b611218565b005b34801561069a57600080fd5b506106b560048036038101906106b09190612ee4565b611468565b6040516106c29190613d40565b60405180910390f35b3480156106d757600080fd5b506106e0611480565b6040516106ed9190613a1e565b60405180910390f35b34801561070257600080fd5b5061071d60048036038101906107189190612ee4565b611512565b60405161072a9190613d40565b60405180910390f35b34801561073f57600080fd5b5061075a60048036038101906107559190612e1a565b61152a565b005b34801561076857600080fd5b50610783600480360381019061077e9190612d9f565b6116ab565b005b34801561079157600080fd5b5061079a61170d565b6040516107a791906139e8565b60405180910390f35b3480156107bc57600080fd5b506107c5611733565b6040516107d29190613d40565b60405180910390f35b3480156107e757600080fd5b5061080260048036038101906107fd9190612ee4565b611739565b60405161080f9190613d40565b60405180910390f35b610832600480360381019061082d9190612ee4565b611786565b005b34801561084057600080fd5b506108496118f9565b6040516108569190613d40565b60405180910390f35b34801561086b57600080fd5b5061088660048036038101906108819190612ee4565b6118ff565b6040516108939190613a1e565b60405180910390f35b6108a46119a6565b005b3480156108b257600080fd5b506108bb611ab6565b6040516108c89190613d40565b60405180910390f35b3480156108dd57600080fd5b506108f860048036038101906108f39190612d14565b611abc565b60405161090591906139cd565b60405180910390f35b61092860048036038101906109239190612ee4565b611b50565b005b610944600480360381019061093f9190612ee4565b611ba9565b005b60007f780e9d63000000000000000000000000000000000000000000000000000000007bffffffffffffffffffffffffffffffffffffffffffffffffffffffff1916827bffffffffffffffffffffffffffffffffffffffffffffffffffffffff191614806109b957506109b882611bc5565b5b9050919050565b600f6020528060005260406000206000915090505481565b6060600080546109e79061403b565b80601f0160208091040260200160405190810160405280929190818152602001828054610a139061403b565b8015610a605780601f10610a3557610100808354040283529160200191610a60565b820191906000526020600020905b815481529060010190602001808311610a4357829003601f168201915b5050505050905090565b6105dc81565b6000610a7b82611ca7565b610aba576040517f08c379a0000000000000000000000000000000000000000000000000000000008152600401610ab190613c40565b60405180910390fd5b6004600083815260200190815260200160002060009054906101000a900473ffffffffffffffffffffffffffffffffffffffff169050919050565b6000610b0082610fbd565b90508073ffffffffffffffffffffffffffffffffffffffff168373ffffffffffffffffffffffffffffffffffffffff161415610b71576040517f08c379a0000000000000000000000000000000000000000000000000000000008152600401610b6890613ca0565b60405180910390fd5b8073ffffffffffffffffffffffffffffffffffffffff16610b90611d13565b73ffffffffffffffffffffffffffffffffffffffff161480610bbf5750610bbe81610bb9611d13565b611abc565b5b610bfe576040517f08c379a0000000000000000000000000000000000000000000000000000000008152600401610bf590613ba0565b60405180910390fd5b610c088383611d1b565b505050565b610c173382611dd4565b610c56576040517f08c379a0000000000000000000000000000000000000000000000000000000008152600401610c4d90613b80565b60405180910390fd5b6000600f60008381526020019081526020016000205490506000610c85600183610c809190613e28565b611739565b90508060106000858152602001908152602001600020541015610cdd576040517f08c379a0000000000000000000000000000000000000000000000000000000008152600401610cd490613b40565b60405180910390fd5b80601060008581526020019081526020016000206000828254610d009190613f09565b92505081905550600182610d149190613e28565b600f6000858152602001908152602001600020819055503373ffffffffffffffffffffffffffffffffffffffff167f91a6b71cc6aa45b97e340e84e003ab44a6c33cdf081ab3c4f86e74ef47bf71c28484604051610d73929190613d5b565b60405180910390a2505050565b6000600880549050905090565b60136020528060005260406000206000915090505481565b610db6610db0611d13565b82611dd4565b610df5576040517f08c379a0000000000000000000000000000000000000000000000000000000008152600401610dec90613ce0565b60405180910390fd5b610e00838383611eb2565b505050565b60126020528060005260406000206000915090505481565b6000610e2883611075565b8210610e69576040517f08c379a0000000000000000000000000000000000000000000000000000000008152600401610e6090613a80565b60405180910390fd5b600660008473ffffffffffffffffffffffffffffffffffffffff1673ffffffffffffffffffffffffffffffffffffffff168152602001908152602001600020600083815260200190815260200160002054905092915050565b60116020528060005260406000206000915090505481565b610ef5838383604051806020016040528060008152506116ab565b505050565b601560009054906101000a900473ffffffffffffffffffffffffffffffffffffffff1681565b6000610f2a610d80565b8210610f6b576040517f08c379a0000000000000000000000000000000000000000000000000000000008152600401610f6290613d00565b60405180910390fd5b60088281548110610fa5577f4e487b7100000000000000000000000000000000000000000000000000000000600052603260045260246000fd5b90600052602060002001549050919050565b600c5481565b6000806002600084815260200190815260200160002060009054906101000a900473ffffffffffffffffffffffffffffffffffffffff169050600073ffffffffffffffffffffffffffffffffffffffff168173ffffffffffffffffffffffffffffffffffffffff161415611066576040517f08c379a000000000000000000000000000000000000000000000000000000000815260040161105d90613be0565b60405180910390fd5b80915050919050565b600d5481565b60008073ffffffffffffffffffffffffffffffffffffffff168273ffffffffffffffffffffffffffffffffffffffff1614156110e6576040517f08c379a00000000000000000000000000000000000000000000000000000000081526004016110dd90613bc0565b60405180910390fd5b600360008373ffffffffffffffffffffffffffffffffffffffff1673ffffffffffffffffffffffffffffffffffffffff168152602001908152602001600020549050919050565b600a60009054906101000a900473ffffffffffffffffffffffffffffffffffffffff1673ffffffffffffffffffffffffffffffffffffffff163373ffffffffffffffffffffffffffffffffffffffff161461118757600080fd5b600a60009054906101000a900473ffffffffffffffffffffffffffffffffffffffff1673ffffffffffffffffffffffffffffffffffffffff166108fc479081150290604051600060405180830381858888f193505050501580156111ef573d6000803e3d6000fd5b50565b600a60009054906101000a900473ffffffffffffffffffffffffffffffffffffffff1681565b6000600d549050600061122a33611075565b90506000831415801561123d5750600081115b61127c576040517f08c379a000000000000000000000000000000000000000000000000000000000815260040161127390613ae0565b60405180910390fd5b60006012600085815260200190815260200160002054146112d2576040517f08c379a00000000000000000000000000000000000000000000000000000000081526004016112c990613c00565b60405180910390fd5b6105dc6013600085815260200190815260200160002054101561132a576040517f08c379a000000000000000000000000000000000000000000000000000000000815260040161132190613cc0565b60405180910390fd5b601560009054906101000a900473ffffffffffffffffffffffffffffffffffffffff1673ffffffffffffffffffffffffffffffffffffffff1663367f682d33846040518363ffffffff1660e01b81526004016113879291906139a4565b600060405180830381600087803b1580156113a157600080fd5b505af11580156113b5573d6000803e3d6000fd5b505050506105dc6013600085815260200190815260200160002060008282546113de9190613f09565b925050819055508160126000858152602001908152602001600020819055503373ffffffffffffffffffffffffffffffffffffffff167f423ae04b472429d194e9eaab6ef6b34f42a353ef907309a5aefdbfdaae19222d836040516114439190613d40565b60405180910390a2600d600081548092919061145e9061406d565b9190505550505050565b60106020528060005260406000206000915090505481565b60606001805461148f9061403b565b80601f01602080910402602001604051908101604052809291908181526020018280546114bb9061403b565b80156115085780601f106114dd57610100808354040283529160200191611508565b820191906000526020600020905b8154815290600101906020018083116114eb57829003601f168201915b5050505050905090565b60146020528060005260406000206000915090505481565b611532611d13565b73ffffffffffffffffffffffffffffffffffffffff168273ffffffffffffffffffffffffffffffffffffffff1614156115a0576040517f08c379a000000000000000000000000000000000000000000000000000000000815260040161159790613b20565b60405180910390fd5b80600560006115ad611d13565b73ffffffffffffffffffffffffffffffffffffffff1673ffffffffffffffffffffffffffffffffffffffff16815260200190815260200160002060008473ffffffffffffffffffffffffffffffffffffffff1673ffffffffffffffffffffffffffffffffffffffff16815260200190815260200160002060006101000a81548160ff0219169083151502179055508173ffffffffffffffffffffffffffffffffffffffff1661165a611d13565b73ffffffffffffffffffffffffffffffffffffffff167f17307eab39ab6107e8899845ad3d59bd9653f200f220920489ca2b5937696c318360405161169f91906139cd565b60405180910390a35050565b6116bc6116b6611d13565b83611dd4565b6116fb576040517f08c379a00000000000000000000000000000000000000000000000000000000081526004016116f290613ce0565b60405180910390fd5b6117078484848461210e565b50505050565b601660009054906101000a900473ffffffffffffffffffffffffffffffffffffffff1681565b610bb881565b6000806103e890506000600290505b83811161177c5760fa8161175c9190613eaf565b826117679190613e28565b915080806117749061406d565b915050611748565b5080915050919050565b6000600e549050600061179833611075565b9050600083141580156117ab5750600081115b6117ea576040517f08c379a00000000000000000000000000000000000000000000000000000000081526004016117e190613d20565b60405180910390fd5b6000601460008581526020019081526020016000205414611840576040517f08c379a000000000000000000000000000000000000000000000000000000000815260040161183790613a40565b60405180910390fd5b610bb860136000858152602001908152602001600020541015611898576040517f08c379a000000000000000000000000000000000000000000000000000000000815260040161188f90613cc0565b60405180910390fd5b600e60008154809291906118ab9061406d565b9190505550610bb86013600085815260200190815260200160002060008282546118d59190613f09565b92505081905550816012600085815260200190815260200160002081905550505050565b600e5481565b606061190a82611ca7565b611949576040517f08c379a000000000000000000000000000000000000000000000000000000000815260040161194090613c80565b60405180910390fd5b600061195361216a565b90506000815111611973576040518060200160405280600081525061199e565b8061197d84612181565b60405160200161198e929190613919565b6040516020818303038152906040525b915050919050565b6000600c549050600a6119b833611075565b106119f8576040517f08c379a00000000000000000000000000000000000000000000000000000000081526004016119ef90613a60565b60405180910390fd5b600060106000838152602001908152602001600020819055506001600f60008381526020019081526020016000208190555060006012600083815260200190815260200160002081905550611a4d338261232e565b3373ffffffffffffffffffffffffffffffffffffffff167f681489e2a7c535074cf6a8d776661658c4f160233183873f351e974adbc314ce82604051611a939190613d40565b60405180910390a2600c6000815480929190611aae9061406d565b919050555050565b600b5481565b6000600560008473ffffffffffffffffffffffffffffffffffffffff1673ffffffffffffffffffffffffffffffffffffffff16815260200190815260200160002060008373ffffffffffffffffffffffffffffffffffffffff1673ffffffffffffffffffffffffffffffffffffffff16815260200190815260200160002060009054906101000a900460ff16905092915050565b60fa601060008381526020019081526020016000206000828254611b749190613e28565b925050819055506064601360008381526020019081526020016000206000828254611b9f9190613e28565b9250508190555050565b80600b6000828254611bbb9190613e28565b9250508190555050565b60007f80ac58cd000000000000000000000000000000000000000000000000000000007bffffffffffffffffffffffffffffffffffffffffffffffffffffffff1916827bffffffffffffffffffffffffffffffffffffffffffffffffffffffff19161480611c9057507f5b5e139f000000000000000000000000000000000000000000000000000000007bffffffffffffffffffffffffffffffffffffffffffffffffffffffff1916827bffffffffffffffffffffffffffffffffffffffffffffffffffffffff1916145b80611ca05750611c9f8261234c565b5b9050919050565b60008073ffffffffffffffffffffffffffffffffffffffff166002600084815260200190815260200160002060009054906101000a900473ffffffffffffffffffffffffffffffffffffffff1673ffffffffffffffffffffffffffffffffffffffff1614159050919050565b600033905090565b816004600083815260200190815260200160002060006101000a81548173ffffffffffffffffffffffffffffffffffffffff021916908373ffffffffffffffffffffffffffffffffffffffff160217905550808273ffffffffffffffffffffffffffffffffffffffff16611d8e83610fbd565b73ffffffffffffffffffffffffffffffffffffffff167f8c5be1e5ebec7d5bd14f71427d1e84f3dd0314c0f7b2291e5b200ac8c7c3b92560405160405180910390a45050565b6000611ddf82611ca7565b611e1e576040517f08c379a0000000000000000000000000000000000000000000000000000000008152600401611e1590613b60565b60405180910390fd5b6000611e2983610fbd565b90508073ffffffffffffffffffffffffffffffffffffffff168473ffffffffffffffffffffffffffffffffffffffff161480611e9857508373ffffffffffffffffffffffffffffffffffffffff16611e8084610a70565b73ffffffffffffffffffffffffffffffffffffffff16145b80611ea95750611ea88185611abc565b5b91505092915050565b8273ffffffffffffffffffffffffffffffffffffffff16611ed282610fbd565b73ffffffffffffffffffffffffffffffffffffffff1614611f28576040517f08c379a0000000000000000000000000000000000000000000000000000000008152600401611f1f90613c60565b60405180910390fd5b600073ffffffffffffffffffffffffffffffffffffffff168273ffffffffffffffffffffffffffffffffffffffff161415611f98576040517f08c379a0000000000000000000000000000000000000000000000000000000008152600401611f8f90613b00565b60405180910390fd5b611fa38383836123b6565b611fae600082611d1b565b6001600360008573ffffffffffffffffffffffffffffffffffffffff1673ffffffffffffffffffffffffffffffffffffffff1681526020019081526020016000206000828254611ffe9190613f09565b925050819055506001600360008473ffffffffffffffffffffffffffffffffffffffff1673ffffffffffffffffffffffffffffffffffffffff16815260200190815260200160002060008282546120559190613e28565b92505081905550816002600083815260200190815260200160002060006101000a81548173ffffffffffffffffffffffffffffffffffffffff021916908373ffffffffffffffffffffffffffffffffffffffff160217905550808273ffffffffffffffffffffffffffffffffffffffff168473ffffffffffffffffffffffffffffffffffffffff167fddf252ad1be2c89b69c2b068fc378daa952ba7f163c4a11628f55a4df523b3ef60405160405180910390a4505050565b612119848484611eb2565b612125848484846124ca565b612164576040517f08c379a000000000000000000000000000000000000000000000000000000000815260040161215b90613aa0565b60405180910390fd5b50505050565b606060405180602001604052806000815250905090565b606060008214156121c9576040518060400160405280600181526020017f30000000000000000000000000000000000000000000000000000000000000008152509050612329565b600082905060005b600082146121fb5780806121e49061406d565b915050600a826121f49190613e7e565b91506121d1565b60008167ffffffffffffffff81111561223d577f4e487b7100000000000000000000000000000000000000000000000000000000600052604160045260246000fd5b6040519080825280601f01601f19166020018201604052801561226f5781602001600182028036833780820191505090505b5090505b60008514612322576001826122889190613f09565b9150600a8561229791906140b6565b60306122a39190613e28565b60f81b8183815181106122df577f4e487b7100000000000000000000000000000000000000000000000000000000600052603260045260246000fd5b60200101907effffffffffffffffffffffffffffffffffffffffffffffffffffffffffffff1916908160001a905350600a8561231b9190613e7e565b9450612273565b8093505050505b919050565b612348828260405180602001604052806000815250612661565b5050565b60007f01ffc9a7000000000000000000000000000000000000000000000000000000007bffffffffffffffffffffffffffffffffffffffffffffffffffffffff1916827bffffffffffffffffffffffffffffffffffffffffffffffffffffffff1916149050919050565b6123c18383836126bc565b600073ffffffffffffffffffffffffffffffffffffffff168373ffffffffffffffffffffffffffffffffffffffff161415612404576123ff816126c1565b612443565b8173ffffffffffffffffffffffffffffffffffffffff168373ffffffffffffffffffffffffffffffffffffffff161461244257612441838261270a565b5b5b600073ffffffffffffffffffffffffffffffffffffffff168273ffffffffffffffffffffffffffffffffffffffff1614156124865761248181612877565b6124c5565b8273ffffffffffffffffffffffffffffffffffffffff168273ffffffffffffffffffffffffffffffffffffffff16146124c4576124c382826129ba565b5b5b505050565b60006124eb8473ffffffffffffffffffffffffffffffffffffffff16612a39565b15612654578373ffffffffffffffffffffffffffffffffffffffff1663150b7a02612514611d13565b8786866040518563ffffffff1660e01b81526004016125369493929190613958565b602060405180830381600087803b15801561255057600080fd5b505af192505050801561258157506040513d601f19601f8201168201806040525081019061257e9190612ebb565b60015b612604573d80600081146125b1576040519150601f19603f3d011682016040523d82523d6000602084013e6125b6565b606091505b506000815114156125fc576040517f08c379a00000000000000000000000000000000000000000000000000000000081526004016125f390613aa0565b60405180910390fd5b805181602001fd5b63150b7a0260e01b7bffffffffffffffffffffffffffffffffffffffffffffffffffffffff1916817bffffffffffffffffffffffffffffffffffffffffffffffffffffffff191614915050612659565b600190505b949350505050565b61266b8383612a4c565b61267860008484846124ca565b6126b7576040517f08c379a00000000000000000000000000000000000000000000000000000000081526004016126ae90613aa0565b60405180910390fd5b505050565b505050565b6008805490506009600083815260200190815260200160002081905550600881908060018154018082558091505060019003906000526020600020016000909190919091505550565b6000600161271784611075565b6127219190613f09565b9050600060076000848152602001908152602001600020549050818114612806576000600660008673ffffffffffffffffffffffffffffffffffffffff1673ffffffffffffffffffffffffffffffffffffffff168152602001908152602001600020600084815260200190815260200160002054905080600660008773ffffffffffffffffffffffffffffffffffffffff1673ffffffffffffffffffffffffffffffffffffffff168152602001908152602001600020600084815260200190815260200160002081905550816007600083815260200190815260200160002081905550505b6007600084815260200190815260200160002060009055600660008573ffffffffffffffffffffffffffffffffffffffff1673ffffffffffffffffffffffffffffffffffffffff16815260200190815260200160002060008381526020019081526020016000206000905550505050565b6000600160088054905061288b9190613f09565b90506000600960008481526020019081526020016000205490506000600883815481106128e1577f4e487b7100000000000000000000000000000000000000000000000000000000600052603260045260246000fd5b906000526020600020015490508060088381548110612929577f4e487b7100000000000000000000000000000000000000000000000000000000600052603260045260246000fd5b90600052602060002001819055508160096000838152602001908152602001600020819055506009600085815260200190815260200160002060009055600880548061299e577f4e487b7100000000000000000000000000000000000000000000000000000000600052603160045260246000fd5b6001900381819060005260206000200160009055905550505050565b60006129c583611075565b905081600660008573ffffffffffffffffffffffffffffffffffffffff1673ffffffffffffffffffffffffffffffffffffffff168152602001908152602001600020600083815260200190815260200160002081905550806007600084815260200190815260200160002081905550505050565b600080823b905060008111915050919050565b600073ffffffffffffffffffffffffffffffffffffffff168273ffffffffffffffffffffffffffffffffffffffff161415612abc576040517f08c379a0000000000000000000000000000000000000000000000000000000008152600401612ab390613c20565b60405180910390fd5b612ac581611ca7565b15612b05576040517f08c379a0000000000000000000000000000000000000000000000000000000008152600401612afc90613ac0565b60405180910390fd5b612b11600083836123b6565b6001600360008473ffffffffffffffffffffffffffffffffffffffff1673ffffffffffffffffffffffffffffffffffffffff1681526020019081526020016000206000828254612b619190613e28565b92505081905550816002600083815260200190815260200160002060006101000a81548173ffffffffffffffffffffffffffffffffffffffff021916908373ffffffffffffffffffffffffffffffffffffffff160217905550808273ffffffffffffffffffffffffffffffffffffffff16600073ffffffffffffffffffffffffffffffffffffffff167fddf252ad1be2c89b69c2b068fc378daa952ba7f163c4a11628f55a4df523b3ef60405160405180910390a45050565b6000612c2d612c2884613db5565b613d84565b905082815260208101848484011115612c4557600080fd5b612c50848285613ff9565b509392505050565b600081359050612c67816141b4565b92915050565b600081359050612c7c816141cb565b92915050565b600081359050612c91816141e2565b92915050565b600081519050612ca6816141e2565b92915050565b600082601f830112612cbd57600080fd5b8135612ccd848260208601612c1a565b91505092915050565b600081359050612ce5816141f9565b92915050565b600060208284031215612cfd57600080fd5b6000612d0b84828501612c58565b91505092915050565b60008060408385031215612d2757600080fd5b6000612d3585828601612c58565b9250506020612d4685828601612c58565b9150509250929050565b600080600060608486031215612d6557600080fd5b6000612d7386828701612c58565b9350506020612d8486828701612c58565b9250506040612d9586828701612cd6565b9150509250925092565b60008060008060808587031215612db557600080fd5b6000612dc387828801612c58565b9450506020612dd487828801612c58565b9350506040612de587828801612cd6565b925050606085013567ffffffffffffffff811115612e0257600080fd5b612e0e87828801612cac565b91505092959194509250565b60008060408385031215612e2d57600080fd5b6000612e3b85828601612c58565b9250506020612e4c85828601612c6d565b9150509250929050565b60008060408385031215612e6957600080fd5b6000612e7785828601612c58565b9250506020612e8885828601612cd6565b9150509250929050565b600060208284031215612ea457600080fd5b6000612eb284828501612c82565b91505092915050565b600060208284031215612ecd57600080fd5b6000612edb84828501612c97565b91505092915050565b600060208284031215612ef657600080fd5b6000612f0484828501612cd6565b91505092915050565b612f1681613f3d565b82525050565b612f2581613f4f565b82525050565b6000612f3682613de5565b612f408185613dfb565b9350612f50818560208601614008565b612f59816141a3565b840191505092915050565b612f6d81613fb1565b82525050565b612f7c81613fd5565b82525050565b6000612f8d82613df0565b612f978185613e0c565b9350612fa7818560208601614008565b612fb0816141a3565b840191505092915050565b6000612fc682613df0565b612fd08185613e1d565b9350612fe0818560208601614008565b80840191505092915050565b6000612ff9602183613e0c565b91507f596f7572207069726174652063616e206f6e6c79206f776e206f6e652070657460008301527f21000000000000000000000000000000000000000000000000000000000000006020830152604082019050919050565b600061305f602283613e0c565b91507f596f752063616e206f6e6c79206f776e20757020746f2031302070697261746560008301527f73210000000000000000000000000000000000000000000000000000000000006020830152604082019050919050565b60006130c5602b83613e0c565b91507f455243373231456e756d657261626c653a206f776e657220696e646578206f7560008301527f74206f6620626f756e64730000000000000000000000000000000000000000006020830152604082019050919050565b600061312b603283613e0c565b91507f4552433732313a207472616e7366657220746f206e6f6e20455243373231526560008301527f63656976657220696d706c656d656e74657200000000000000000000000000006020830152604082019050919050565b6000613191601c83613e0c565b91507f4552433732313a20746f6b656e20616c7265616479206d696e746564000000006000830152602082019050919050565b60006131d1603083613e0c565b91507f596f75206d757374206f776e206120706972617465206265666f726520796f7560008301527f2063616e206f776e2061207368697021000000000000000000000000000000006020830152604082019050919050565b6000613237602483613e0c565b91507f4552433732313a207472616e7366657220746f20746865207a65726f2061646460008301527f72657373000000000000000000000000000000000000000000000000000000006020830152604082019050919050565b600061329d601983613e0c565b91507f4552433732313a20617070726f766520746f2063616c6c6572000000000000006000830152602082019050919050565b60006132dd603883613e0c565b91507f596f7520646f206e6f742068617665207468652072657175697265642058502060008301527f746f206c6576656c2075702074686973207069726174652e00000000000000006020830152604082019050919050565b6000613343602c83613e0c565b91507f4552433732313a206f70657261746f7220717565727920666f72206e6f6e657860008301527f697374656e7420746f6b656e00000000000000000000000000000000000000006020830152604082019050919050565b60006133a9603183613e0c565b91507f596f75206d757374206f776e20746869732070697261746520696e206f72646560008301527f7220746f206c6576656c206974207570210000000000000000000000000000006020830152604082019050919050565b600061340f603883613e0c565b91507f4552433732313a20617070726f76652063616c6c6572206973206e6f74206f7760008301527f6e6572206e6f7220617070726f76656420666f7220616c6c00000000000000006020830152604082019050919050565b6000613475602a83613e0c565b91507f4552433732313a2062616c616e636520717565727920666f7220746865207a6560008301527f726f2061646472657373000000000000000000000000000000000000000000006020830152604082019050919050565b60006134db602983613e0c565b91507f4552433732313a206f776e657220717565727920666f72206e6f6e657869737460008301527f656e7420746f6b656e00000000000000000000000000000000000000000000006020830152604082019050919050565b6000613541602683613e0c565b91507f596f7572207069726174652063616e206f6e6c79206361707461696e206f6e6560008301527f20736869702100000000000000000000000000000000000000000000000000006020830152604082019050919050565b60006135a7602083613e0c565b91507f4552433732313a206d696e7420746f20746865207a65726f20616464726573736000830152602082019050919050565b60006135e7602c83613e0c565b91507f4552433732313a20617070726f76656420717565727920666f72206e6f6e657860008301527f697374656e7420746f6b656e00000000000000000000000000000000000000006020830152604082019050919050565b600061364d602983613e0c565b91507f4552433732313a207472616e73666572206f6620746f6b656e2074686174206960008301527f73206e6f74206f776e00000000000000000000000000000000000000000000006020830152604082019050919050565b60006136b3602f83613e0c565b91507f4552433732314d657461646174613a2055524920717565727920666f72206e6f60008301527f6e6578697374656e7420746f6b656e00000000000000000000000000000000006020830152604082019050919050565b6000613719602183613e0c565b91507f4552433732313a20617070726f76616c20746f2063757272656e74206f776e6560008301527f72000000000000000000000000000000000000000000000000000000000000006020830152604082019050919050565b600061377f603783613e0c565b91507f596f75722070697261746520646f6573206e6f7420686f6c6420656e6f75676860008301527f20676f6c6420746f2062652062757920612073686970210000000000000000006020830152604082019050919050565b60006137e5603183613e0c565b91507f4552433732313a207472616e736665722063616c6c6572206973206e6f74206f60008301527f776e6572206e6f7220617070726f7665640000000000000000000000000000006020830152604082019050919050565b600061384b602c83613e0c565b91507f455243373231456e756d657261626c653a20676c6f62616c20696e646578206f60008301527f7574206f6620626f756e647300000000000000000000000000000000000000006020830152604082019050919050565b60006138b1602f83613e0c565b91507f596f75206d757374206f776e206120706972617465206265666f726520796f7560008301527f2063616e206f776e2061207065742100000000000000000000000000000000006020830152604082019050919050565b61391381613fa7565b82525050565b60006139258285612fbb565b91506139318284612fbb565b91508190509392505050565b60006020820190506139526000830184612f0d565b92915050565b600060808201905061396d6000830187612f0d565b61397a6020830186612f0d565b613987604083018561390a565b81810360608301526139998184612f2b565b905095945050505050565b60006040820190506139b96000830185612f0d565b6139c6602083018461390a565b9392505050565b60006020820190506139e26000830184612f1c565b92915050565b60006020820190506139fd6000830184612f64565b92915050565b6000602082019050613a186000830184612f73565b92915050565b60006020820190508181036000830152613a388184612f82565b905092915050565b60006020820190508181036000830152613a5981612fec565b9050919050565b60006020820190508181036000830152613a7981613052565b9050919050565b60006020820190508181036000830152613a99816130b8565b9050919050565b60006020820190508181036000830152613ab98161311e565b9050919050565b60006020820190508181036000830152613ad981613184565b9050919050565b60006020820190508181036000830152613af9816131c4565b9050919050565b60006020820190508181036000830152613b198161322a565b9050919050565b60006020820190508181036000830152613b3981613290565b9050919050565b60006020820190508181036000830152613b59816132d0565b9050919050565b60006020820190508181036000830152613b7981613336565b9050919050565b60006020820190508181036000830152613b998161339c565b9050919050565b60006020820190508181036000830152613bb981613402565b9050919050565b60006020820190508181036000830152613bd981613468565b9050919050565b60006020820190508181036000830152613bf9816134ce565b9050919050565b60006020820190508181036000830152613c1981613534565b9050919050565b60006020820190508181036000830152613c398161359a565b9050919050565b60006020820190508181036000830152613c59816135da565b9050919050565b60006020820190508181036000830152613c7981613640565b9050919050565b60006020820190508181036000830152613c99816136a6565b9050919050565b60006020820190508181036000830152613cb98161370c565b9050919050565b60006020820190508181036000830152613cd981613772565b9050919050565b60006020820190508181036000830152613cf9816137d8565b9050919050565b60006020820190508181036000830152613d198161383e565b9050919050565b60006020820190508181036000830152613d39816138a4565b9050919050565b6000602082019050613d55600083018461390a565b92915050565b6000604082019050613d70600083018561390a565b613d7d602083018461390a565b9392505050565b6000604051905081810181811067ffffffffffffffff82111715613dab57613daa614174565b5b8060405250919050565b600067ffffffffffffffff821115613dd057613dcf614174565b5b601f19601f8301169050602081019050919050565b600081519050919050565b600081519050919050565b600082825260208201905092915050565b600082825260208201905092915050565b600081905092915050565b6000613e3382613fa7565b9150613e3e83613fa7565b9250827fffffffffffffffffffffffffffffffffffffffffffffffffffffffffffffffff03821115613e7357613e726140e7565b5b828201905092915050565b6000613e8982613fa7565b9150613e9483613fa7565b925082613ea457613ea3614116565b5b828204905092915050565b6000613eba82613fa7565b9150613ec583613fa7565b9250817fffffffffffffffffffffffffffffffffffffffffffffffffffffffffffffffff0483118215151615613efe57613efd6140e7565b5b828202905092915050565b6000613f1482613fa7565b9150613f1f83613fa7565b925082821015613f3257613f316140e7565b5b828203905092915050565b6000613f4882613f87565b9050919050565b60008115159050919050565b60007fffffffff0000000000000000000000000000000000000000000000000000000082169050919050565b600073ffffffffffffffffffffffffffffffffffffffff82169050919050565b6000819050919050565b6000613fbc82613fc3565b9050919050565b6000613fce82613f87565b9050919050565b6000613fe082613fe7565b9050919050565b6000613ff282613f87565b9050919050565b82818337600083830152505050565b60005b8381101561402657808201518184015260208101905061400b565b83811115614035576000848401525b50505050565b6000600282049050600182168061405357607f821691505b6020821081141561406757614066614145565b5b50919050565b600061407882613fa7565b91507fffffffffffffffffffffffffffffffffffffffffffffffffffffffffffffffff8214156140ab576140aa6140e7565b5b600182019050919050565b60006140c182613fa7565b91506140cc83613fa7565b9250826140dc576140db614116565b5b828206905092915050565b7f4e487b7100000000000000000000000000000000000000000000000000000000600052601160045260246000fd5b7f4e487b7100000000000000000000000000000000000000000000000000000000600052601260045260246000fd5b7f4e487b7100000000000000000000000000000000000000000000000000000000600052602260045260246000fd5b7f4e487b7100000000000000000000000000000000000000000000000000000000600052604160045260246000fd5b6000601f19601f8301169050919050565b6141bd81613f3d565b81146141c857600080fd5b50565b6141d481613f4f565b81146141df57600080fd5b50565b6141eb81613f5b565b81146141f657600080fd5b50565b61420281613fa7565b811461420d57600080fd5b5056fea26469706673582212200274263f4b6bcfa986d4e70d9db30581e7d7798f007a1f457e02aebd0a3cd77164736f6c63430008000033",
  "immutableReferences": {},
  "source": "// SPDX-License-Identifier: MIT\npragma solidity ^0.8.0;\n\nimport \"@openzeppelin/contracts/token/ERC721/ERC721.sol\";\nimport \"@openzeppelin/contracts/token/ERC721/extensions/ERC721Enumerable.sol\";\nimport \"./FantomPiratesShip.sol\";\nimport \"./FantomPiratesGold.sol\";\n\ncontract FantomPiratesGame is ERC721Enumerable {\n\n  address public owner = msg.sender;\n  uint public donations = 0;\n\n  uint public next_pirate_id = 1;\n  uint public next_ship_id = 1;\n  uint public next_pet_id = 1;\n\n  uint constant DAY = 1 days;\n\n  uint constant xp_per_quest = 250;\n  uint constant gold_per_quest = 100;\n\n  uint public constant gold_for_ship = 1500;\n  uint public constant gold_for_pet = 3000;\n  \n  mapping(uint => uint) public level;\n  mapping(uint => uint) public xp;\n  mapping(uint => uint) public quests_log;\n  mapping(uint => uint) public ship;  // pirate_id => ship_id;\n  mapping(uint => uint) public gold;\n  mapping(uint => uint) public pet;   // pirate_id => pet_id;\n\n  FantomPiratesShip public _ships_contract;\n  ERC20 public _gold_contract;\n\n  event PirateCreated(address indexed owner, uint pirate_id);\n  event ShipCreated(address indexed owner, uint ship_id);\n  event Leveled(address indexed owner, uint id, uint level);\n  \n  constructor(address _ship_contract_address) ERC721(\"Fantom Pirates\", \"FP\") {\n    _ships_contract = FantomPiratesShip(_ship_contract_address);\n  }\n\n  function mintPirate() public payable {\n    uint _pirate_id = next_pirate_id;\n    require(balanceOf(msg.sender) < 10, \"You can only own up to 10 pirates!\");\n    xp[_pirate_id] = 0;\n    level[_pirate_id] = 1;\n    ship[_pirate_id] = 0;\n    _safeMint(msg.sender, _pirate_id);\n    emit PirateCreated(msg.sender, _pirate_id);\n    next_pirate_id++;\n  }\n\n  function mintShip(uint256 _pirate_id) public payable {\n    uint _next_ship_id = next_ship_id;\n    uint256 numberOfPiratesOwned = balanceOf(msg.sender);\n    require(_pirate_id != 0 && numberOfPiratesOwned > 0, \"You must own a pirate before you can own a ship!\");\n    require(ship[_pirate_id] == 0, \"Your pirate can only captain one ship!\");\n    require(gold[_pirate_id] >= gold_for_ship, \"Your pirate does not hold enough gold to be buy a ship!\");\n    _ships_contract.mintShip(msg.sender, _next_ship_id);\n    gold[_pirate_id] -= gold_for_ship;\n    ship[_pirate_id] = _next_ship_id;\n    emit ShipCreated(msg.sender, _next_ship_id);\n    next_ship_id++;\n  }\n\n  function mintPet(uint256 _pirate_id) public payable {\n    uint _next_pet_id = next_pet_id;\n    uint256 numberOfPiratesOwned = balanceOf(msg.sender);\n    require(_pirate_id != 0 && numberOfPiratesOwned > 0, \"You must own a pirate before you can own a pet!\");\n    require(pet[_pirate_id] == 0, \"Your pirate can only own one pet!\");\n    require(gold[_pirate_id] >= gold_for_pet, \"Your pirate does not hold enough gold to be buy a ship!\");\n    next_pet_id++;\n    gold[_pirate_id] -= gold_for_pet;\n    ship[_pirate_id] = _next_pet_id;\n  }\n\n  function doQuest(uint _pirate_id) public payable {\n    \n    // **** TODO: Revert this! This is just for testing purposes ****\n\n    // require(block.timestamp > quests_log[_pirate_id], \"You must wait a day before your next quest!\");\n    // quests_log[_pirate_id] = block.timestamp;// + DAY;\n    xp[_pirate_id] += xp_per_quest;\n    gold[_pirate_id] += gold_per_quest;\n  }\n\n  function levelUp(uint _pirate_id) public payable {\n    require(_isApprovedOrOwner(msg.sender, _pirate_id), \"You must own this pirate in order to level it up!\");\n    uint _pirate_level = level[_pirate_id];\n    uint required_xp = requiredXpForLevel(_pirate_level + 1);\n    require(xp[_pirate_id] >= required_xp, \"You do not have the required XP to level up this pirate.\");\n    xp[_pirate_id] -= required_xp;\n    level[_pirate_id] = _pirate_level + 1;\n    emit Leveled(msg.sender, _pirate_id, _pirate_level);\n  }\n\n  function requiredXpForLevel(uint _pirate_level) public pure returns (uint required_xp) {\n    uint _required_xp = 1000;\n    for (uint i = 2; i<=_pirate_level;i++) {\n      _required_xp += (i * xp_per_quest);\n    }\n    return _required_xp;\n  }\n\n  function donate(uint _amount) public payable {\n    donations += _amount;\n  }\n\n  function withdrawAll() public {\n    require(msg.sender == owner);\n    payable(owner).transfer(address(this).balance);\n  }\n}\n",
  "sourcePath": "/Users/joshuacotterell/Documents/Blockchain/Projects/FantomPirates/src/blockchain/contracts/FantomPiratesGame.sol",
  "compiler": {
    "name": "solc",
    "version": "0.8.0+commit.c7dfd78e.Emscripten.clang"
  },
  "schemaVersion": "3.3.4",
  "updatedAt": "2021-11-24T00:15:37.160Z",
  "networkType": "ethereum",
  "devdoc": {
    "kind": "dev",
    "methods": {
      "approve(address,uint256)": {
        "details": "See {IERC721-approve}."
      },
      "balanceOf(address)": {
        "details": "See {IERC721-balanceOf}."
      },
      "getApproved(uint256)": {
        "details": "See {IERC721-getApproved}."
      },
      "isApprovedForAll(address,address)": {
        "details": "See {IERC721-isApprovedForAll}."
      },
      "name()": {
        "details": "See {IERC721Metadata-name}."
      },
      "ownerOf(uint256)": {
        "details": "See {IERC721-ownerOf}."
      },
      "safeTransferFrom(address,address,uint256)": {
        "details": "See {IERC721-safeTransferFrom}."
      },
      "safeTransferFrom(address,address,uint256,bytes)": {
        "details": "See {IERC721-safeTransferFrom}."
      },
      "setApprovalForAll(address,bool)": {
        "details": "See {IERC721-setApprovalForAll}."
      },
      "supportsInterface(bytes4)": {
        "details": "See {IERC165-supportsInterface}."
      },
      "symbol()": {
        "details": "See {IERC721Metadata-symbol}."
      },
      "tokenByIndex(uint256)": {
        "details": "See {IERC721Enumerable-tokenByIndex}."
      },
      "tokenOfOwnerByIndex(address,uint256)": {
        "details": "See {IERC721Enumerable-tokenOfOwnerByIndex}."
      },
      "tokenURI(uint256)": {
        "details": "See {IERC721Metadata-tokenURI}."
      },
      "totalSupply()": {
        "details": "See {IERC721Enumerable-totalSupply}."
      },
      "transferFrom(address,address,uint256)": {
        "details": "See {IERC721-transferFrom}."
      }
    },
    "version": 1
  },
  "userdoc": {
    "kind": "user",
    "methods": {},
    "version": 1
  }
}