{
  "contractName": "FantomPirateKings",
  "abi": [
    {
      "inputs": [],
      "stateMutability": "nonpayable",
      "type": "constructor"
    },
    {
      "anonymous": false,
      "inputs": [
        {
          "components": [
            {
              "internalType": "address payable",
              "name": "wallet",
              "type": "address"
            },
            {
              "internalType": "string",
              "name": "name",
              "type": "string"
            },
            {
              "internalType": "uint256",
              "name": "coronationTimestamp",
              "type": "uint256"
            },
            {
              "internalType": "uint256",
              "name": "pricePaidInWei",
              "type": "uint256"
            }
          ],
          "indexed": false,
          "internalType": "struct FantomPirateKings.King",
          "name": "_king",
          "type": "tuple"
        },
        {
          "indexed": false,
          "internalType": "uint256",
          "name": "_newPrice",
          "type": "uint256"
        }
      ],
      "name": "NewKing",
      "type": "event"
    },
    {
      "stateMutability": "payable",
      "type": "fallback",
      "payable": true
    },
    {
      "inputs": [],
      "name": "currentPriceToBeKing",
      "outputs": [
        {
          "internalType": "uint256",
          "name": "",
          "type": "uint256"
        }
      ],
      "stateMutability": "view",
      "type": "function",
      "constant": true
    },
    {
      "inputs": [],
      "name": "cursePeriodInDays",
      "outputs": [
        {
          "internalType": "uint256",
          "name": "",
          "type": "uint256"
        }
      ],
      "stateMutability": "view",
      "type": "function",
      "constant": true
    },
    {
      "inputs": [],
      "name": "kingdomName",
      "outputs": [
        {
          "internalType": "string",
          "name": "",
          "type": "string"
        }
      ],
      "stateMutability": "view",
      "type": "function",
      "constant": true
    },
    {
      "inputs": [
        {
          "internalType": "uint256",
          "name": "",
          "type": "uint256"
        }
      ],
      "name": "kings",
      "outputs": [
        {
          "internalType": "address payable",
          "name": "wallet",
          "type": "address"
        },
        {
          "internalType": "string",
          "name": "name",
          "type": "string"
        },
        {
          "internalType": "uint256",
          "name": "coronationTimestamp",
          "type": "uint256"
        },
        {
          "internalType": "uint256",
          "name": "pricePaidInWei",
          "type": "uint256"
        }
      ],
      "stateMutability": "view",
      "type": "function",
      "constant": true
    },
    {
      "inputs": [],
      "name": "owner",
      "outputs": [
        {
          "internalType": "address payable",
          "name": "",
          "type": "address"
        }
      ],
      "stateMutability": "view",
      "type": "function",
      "constant": true
    },
    {
      "inputs": [],
      "name": "startPriceToBeKing",
      "outputs": [
        {
          "internalType": "uint256",
          "name": "",
          "type": "uint256"
        }
      ],
      "stateMutability": "view",
      "type": "function",
      "constant": true
    },
    {
      "stateMutability": "payable",
      "type": "receive",
      "payable": true
    },
    {
      "inputs": [
        {
          "internalType": "string",
          "name": "_name",
          "type": "string"
        }
      ],
      "name": "becomeKing",
      "outputs": [],
      "stateMutability": "payable",
      "type": "function",
      "payable": true
    },
    {
      "inputs": [],
      "name": "isSenderOwner",
      "outputs": [
        {
          "internalType": "bool",
          "name": "",
          "type": "bool"
        }
      ],
      "stateMutability": "view",
      "type": "function",
      "constant": true
    },
    {
      "inputs": [],
      "name": "getAllKings",
      "outputs": [
        {
          "components": [
            {
              "internalType": "address payable",
              "name": "wallet",
              "type": "address"
            },
            {
              "internalType": "string",
              "name": "name",
              "type": "string"
            },
            {
              "internalType": "uint256",
              "name": "coronationTimestamp",
              "type": "uint256"
            },
            {
              "internalType": "uint256",
              "name": "pricePaidInWei",
              "type": "uint256"
            }
          ],
          "internalType": "struct FantomPirateKings.King[]",
          "name": "_kings",
          "type": "tuple[]"
        }
      ],
      "stateMutability": "view",
      "type": "function",
      "constant": true
    },
    {
      "inputs": [],
      "name": "getCurrentKingName",
      "outputs": [
        {
          "internalType": "string",
          "name": "",
          "type": "string"
        }
      ],
      "stateMutability": "view",
      "type": "function",
      "constant": true
    },
    {
      "inputs": [],
      "name": "getNameForAddress",
      "outputs": [
        {
          "internalType": "string",
          "name": "",
          "type": "string"
        }
      ],
      "stateMutability": "view",
      "type": "function",
      "constant": true
    },
    {
      "inputs": [
        {
          "internalType": "string",
          "name": "a",
          "type": "string"
        },
        {
          "internalType": "string",
          "name": "b",
          "type": "string"
        }
      ],
      "name": "doStringsMatch",
      "outputs": [
        {
          "internalType": "bool",
          "name": "",
          "type": "bool"
        }
      ],
      "stateMutability": "pure",
      "type": "function",
      "constant": true
    },
    {
      "inputs": [],
      "name": "getNumberOfKings",
      "outputs": [
        {
          "internalType": "uint256",
          "name": "",
          "type": "uint256"
        }
      ],
      "stateMutability": "view",
      "type": "function",
      "constant": true
    },
    {
      "inputs": [
        {
          "internalType": "uint256",
          "name": "_newPrice",
          "type": "uint256"
        }
      ],
      "name": "changeStartPrice",
      "outputs": [],
      "stateMutability": "nonpayable",
      "type": "function"
    },
    {
      "inputs": [
        {
          "internalType": "uint256",
          "name": "_newPeriod",
          "type": "uint256"
        }
      ],
      "name": "changeCursePeriod",
      "outputs": [],
      "stateMutability": "nonpayable",
      "type": "function"
    },
    {
      "inputs": [
        {
          "internalType": "address payable",
          "name": "_newOwner",
          "type": "address"
        }
      ],
      "name": "changeOwner",
      "outputs": [],
      "stateMutability": "nonpayable",
      "type": "function"
    },
    {
      "inputs": [],
      "name": "withdraw",
      "outputs": [],
      "stateMutability": "nonpayable",
      "type": "function"
    }
  ],
  "bytecode": "0x6080604052336000806101000a81548173ffffffffffffffffffffffffffffffffffffffff021916908373ffffffffffffffffffffffffffffffffffffffff1602179055506040518060400160405280601381526020017f46616e746f6d20506972617465204b696e6773000000000000000000000000008152506001908051906020019062000091929190620001ac565b50662386f26fc10000600255600254600355600e600455348015620000b557600080fd5b5060056040518060800160405280600073ffffffffffffffffffffffffffffffffffffffff168152602001604051806020016040528060008152508152602001600081526020016000815250908060018154018082558091505060019003906000526020600020906004020160009091909190915060008201518160000160006101000a81548173ffffffffffffffffffffffffffffffffffffffff021916908373ffffffffffffffffffffffffffffffffffffffff16021790555060208201518160010190805190602001906200018f929190620001ac565b5060408201518160020155606082015181600301555050620002c1565b828054620001ba906200025c565b90600052602060002090601f016020900481019282620001de57600085556200022a565b82601f10620001f957805160ff19168380011785556200022a565b828001600101855582156200022a579182015b82811115620002295782518255916020019190600101906200020c565b5b5090506200023991906200023d565b5090565b5b80821115620002585760008160009055506001016200023e565b5090565b600060028204905060018216806200027557607f821691505b602082108114156200028c576200028b62000292565b5b50919050565b7f4e487b7100000000000000000000000000000000000000000000000000000000600052602260045260246000fd5b611f0680620002d16000396000f3fe6080604052600436106101025760003560e01c80638da5cb5b11610095578063bc00f0ab11610064578063bc00f0ab1461030f578063d11cd4c61461033a578063d18ab91f14610363578063ebb3fd8d1461038e578063fa299e4a146103b957610109565b80638da5cb5b146102505780638f67419d1461027b5780639be5a112146102bb578063a6f9dae1146102e657610109565b80633f617e7f116100d15780633f617e7f146101a657806340f4d768146101d1578063479fe544146101fc57806357eed17b1461022757610109565b80631138142e1461010b5780632d5eceef14610127578063340f3f2a146101525780633ccfd60b1461018f57610109565b3661010957005b005b610125600480360381019061012091906114b2565b6103e4565b005b34801561013357600080fd5b5061013c61072b565b6040516101499190611a36565b60405180910390f35b34801561015e57600080fd5b50610179600480360381019061017491906114f7565b61073e565b6040516101869190611a1b565b60405180910390f35b34801561019b57600080fd5b506101a4610797565b005b3480156101b257600080fd5b506101bb610847565b6040516101c89190611a36565b60405180910390f35b3480156101dd57600080fd5b506101e66109fe565b6040516101f39190611b28565b60405180910390f35b34801561020857600080fd5b50610211610a04565b60405161021e9190611a1b565b60405180910390f35b34801561023357600080fd5b5061024e60048036038101906102499190611563565b610a5b565b005b34801561025c57600080fd5b50610265610aac565b6040516102729190611992565b60405180910390f35b34801561028757600080fd5b506102a2600480360381019061029d9190611563565b610ad0565b6040516102b294939291906119ad565b60405180910390f35b3480156102c757600080fd5b506102d0610bb8565b6040516102dd9190611b28565b60405180910390f35b3480156102f257600080fd5b5061030d60048036038101906103089190611489565b610bbe565b005b34801561031b57600080fd5b50610324610c48565b6040516103319190611b28565b60405180910390f35b34801561034657600080fd5b50610361600480360381019061035c9190611563565b610c4e565b005b34801561036f57600080fd5b50610378610cae565b6040516103859190611b28565b60405180910390f35b34801561039a57600080fd5b506103a3610cbb565b6040516103b09190611a36565b60405180910390f35b3480156103c557600080fd5b506103ce610d49565b6040516103db91906119f9565b60405180910390f35b6103ec610ea4565b6000015173ffffffffffffffffffffffffffffffffffffffff163373ffffffffffffffffffffffffffffffffffffffff16141561045e576040517f08c379a000000000000000000000000000000000000000000000000000000000815260040161045590611a98565b60405180910390fd5b8181600082829050116104a6576040517f08c379a000000000000000000000000000000000000000000000000000000000815260040161049d90611ab8565b60405180910390fd5b6104f382828080601f016020809104026020016040519081016040528093929190818152602001838380828437600081840152601f19601f82011690508083019250505050505050611011565b15610533576040517f08c379a000000000000000000000000000000000000000000000000000000000815260040161052a90611a78565b60405180910390fd5b61053b6111c9565b600354341015610580576040517f08c379a000000000000000000000000000000000000000000000000000000000815260040161057790611a58565b60405180910390fd5b600061058a610ea4565b9050600560405180608001604052803373ffffffffffffffffffffffffffffffffffffffff16815260200187878080601f016020809104026020016040519081016040528093929190818152602001838380828437600081840152601f19601f82011690508083019250505050505050815260200142815260200134815250908060018154018082558091505060019003906000526020600020906004020160009091909190915060008201518160000160006101000a81548173ffffffffffffffffffffffffffffffffffffffff021916908373ffffffffffffffffffffffffffffffffffffffff16021790555060208201518160010190805190602001906106959291906112cc565b50604082015181600201556060820151816003015550506106b5346111ea565b60006014346106c49190611c6b565b9050600081346106d49190611c9c565b90506106e08382611211565b7f86612baf981dd79f56a3738e1ab23b7d7f93ebcbbb4801453feb6ccabe147d06610709610ea4565b60035460405161071a929190611af8565b60405180910390a150505050505050565b6060610735610ea4565b60200151905090565b600081604051602001610751919061197b565b6040516020818303038152906040528051906020012083604051602001610778919061197b565b6040516020818303038152906040528051906020012014905092915050565b61079f610a04565b6107de576040517f08c379a00000000000000000000000000000000000000000000000000000000081526004016107d590611ad8565b60405180910390fd5b60008054906101000a900473ffffffffffffffffffffffffffffffffffffffff1673ffffffffffffffffffffffffffffffffffffffff166108fc479081150290604051600060405180830381858888f19350505050158015610844573d6000803e3d6000fd5b50565b606060005b6005805490508110156109e7573373ffffffffffffffffffffffffffffffffffffffff16600582815481106108aa577f4e487b7100000000000000000000000000000000000000000000000000000000600052603260045260246000fd5b906000526020600020906004020160000160009054906101000a900473ffffffffffffffffffffffffffffffffffffffff1673ffffffffffffffffffffffffffffffffffffffff1614156109d45760058181548110610932577f4e487b7100000000000000000000000000000000000000000000000000000000600052603260045260246000fd5b9060005260206000209060040201600101805461094e90611d5a565b80601f016020809104026020016040519081016040528092919081815260200182805461097a90611d5a565b80156109c75780601f1061099c576101008083540402835291602001916109c7565b820191906000526020600020905b8154815290600101906020018083116109aa57829003601f168201915b50505050509150506109fb565b80806109df90611d8c565b91505061084c565b506040518060200160405280600081525090505b90565b60045481565b60008060009054906101000a900473ffffffffffffffffffffffffffffffffffffffff1673ffffffffffffffffffffffffffffffffffffffff163373ffffffffffffffffffffffffffffffffffffffff1614905090565b610a63610a04565b610aa2576040517f08c379a0000000000000000000000000000000000000000000000000000000008152600401610a9990611ad8565b60405180910390fd5b8060048190555050565b60008054906101000a900473ffffffffffffffffffffffffffffffffffffffff1681565b60058181548110610ae057600080fd5b90600052602060002090600402016000915090508060000160009054906101000a900473ffffffffffffffffffffffffffffffffffffffff1690806001018054610b2990611d5a565b80601f0160208091040260200160405190810160405280929190818152602001828054610b5590611d5a565b8015610ba25780601f10610b7757610100808354040283529160200191610ba2565b820191906000526020600020905b815481529060010190602001808311610b8557829003601f168201915b5050505050908060020154908060030154905084565b60025481565b610bc6610a04565b610c05576040517f08c379a0000000000000000000000000000000000000000000000000000000008152600401610bfc90611ad8565b60405180910390fd5b806000806101000a81548173ffffffffffffffffffffffffffffffffffffffff021916908373ffffffffffffffffffffffffffffffffffffffff16021790555050565b60035481565b610c56610a04565b610c95576040517f08c379a0000000000000000000000000000000000000000000000000000000008152600401610c8c90611ad8565b60405180910390fd5b662386f26fc100008110610cab57806002819055505b50565b6000600580549050905090565b60018054610cc890611d5a565b80601f0160208091040260200160405190810160405280929190818152602001828054610cf490611d5a565b8015610d415780601f10610d1657610100808354040283529160200191610d41565b820191906000526020600020905b815481529060010190602001808311610d2457829003601f168201915b505050505081565b60606005805480602002602001604051908101604052809291908181526020016000905b82821015610e9b57838290600052602060002090600402016040518060800160405290816000820160009054906101000a900473ffffffffffffffffffffffffffffffffffffffff1673ffffffffffffffffffffffffffffffffffffffff1673ffffffffffffffffffffffffffffffffffffffff168152602001600182018054610df690611d5a565b80601f0160208091040260200160405190810160405280929190818152602001828054610e2290611d5a565b8015610e6f5780601f10610e4457610100808354040283529160200191610e6f565b820191906000526020600020905b815481529060010190602001808311610e5257829003601f168201915b505050505081526020016002820154815260200160038201548152505081526020019060010190610d6d565b50505050905090565b610eac611352565b60056001600580549050610ec09190611c9c565b81548110610ef7577f4e487b7100000000000000000000000000000000000000000000000000000000600052603260045260246000fd5b90600052602060002090600402016040518060800160405290816000820160009054906101000a900473ffffffffffffffffffffffffffffffffffffffff1673ffffffffffffffffffffffffffffffffffffffff1673ffffffffffffffffffffffffffffffffffffffff168152602001600182018054610f7690611d5a565b80601f0160208091040260200160405190810160405280929190818152602001828054610fa290611d5a565b8015610fef5780601f10610fc457610100808354040283529160200191610fef565b820191906000526020600020905b815481529060010190602001808311610fd257829003601f168201915b5050505050815260200160028201548152602001600382015481525050905090565b600080600090505b6005805490508110156111be5761110360058281548110611063577f4e487b7100000000000000000000000000000000000000000000000000000000600052603260045260246000fd5b9060005260206000209060040201600101805461107f90611d5a565b80601f01602080910402602001604051908101604052809291908181526020018280546110ab90611d5a565b80156110f85780601f106110cd576101008083540402835291602001916110f8565b820191906000526020600020905b8154815290600101906020018083116110db57829003601f168201915b50505050508461073e565b156111ab5760058181548110611142577f4e487b7100000000000000000000000000000000000000000000000000000000600052603260045260246000fd5b906000526020600020906004020160000160009054906101000a900473ffffffffffffffffffffffffffffffffffffffff1673ffffffffffffffffffffffffffffffffffffffff163373ffffffffffffffffffffffffffffffffffffffff1614159150506111c4565b80806111b690611d8c565b915050611019565b50600090505b919050565b6111d96111d4610ea4565b6112ad565b156111e8576002546003819055505b565b60006003826111f99190611c6b565b905080826112079190611c15565b6003819055505050565b600073ffffffffffffffffffffffffffffffffffffffff16826000015173ffffffffffffffffffffffffffffffffffffffff16141580156112585750611256826112ad565b155b156112a957816000015173ffffffffffffffffffffffffffffffffffffffff166108fc829081150290604051600060405180830381858888f193505050501580156112a7573d6000803e3d6000fd5b505b5050565b600062127500426112be9190611c9c565b826040015111159050919050565b8280546112d890611d5a565b90600052602060002090601f0160209004810192826112fa5760008555611341565b82601f1061131357805160ff1916838001178555611341565b82800160010185558215611341579182015b82811115611340578251825591602001919060010190611325565b5b50905061134e9190611390565b5090565b6040518060800160405280600073ffffffffffffffffffffffffffffffffffffffff1681526020016060815260200160008152602001600081525090565b5b808211156113a9576000816000905550600101611391565b5090565b60006113c06113bb84611b74565b611b43565b9050828152602081018484840111156113d857600080fd5b6113e3848285611d18565b509392505050565b6000813590506113fa81611ea2565b92915050565b60008083601f84011261141257600080fd5b8235905067ffffffffffffffff81111561142b57600080fd5b60208301915083600182028301111561144357600080fd5b9250929050565b600082601f83011261145b57600080fd5b813561146b8482602086016113ad565b91505092915050565b60008135905061148381611eb9565b92915050565b60006020828403121561149b57600080fd5b60006114a9848285016113eb565b91505092915050565b600080602083850312156114c557600080fd5b600083013567ffffffffffffffff8111156114df57600080fd5b6114eb85828601611400565b92509250509250929050565b6000806040838503121561150a57600080fd5b600083013567ffffffffffffffff81111561152457600080fd5b6115308582860161144a565b925050602083013567ffffffffffffffff81111561154d57600080fd5b6115598582860161144a565b9150509250929050565b60006020828403121561157557600080fd5b600061158384828501611474565b91505092915050565b60006115988383611897565b905092915050565b6115a981611cd0565b82525050565b6115b881611cd0565b82525050565b60006115c982611bb4565b6115d38185611bd7565b9350836020820285016115e585611ba4565b8060005b858110156116215784840389528151611602858261158c565b945061160d83611bca565b925060208a019950506001810190506115e9565b50829750879550505050505092915050565b61163c81611ce2565b82525050565b600061164d82611bbf565b6116578185611be8565b9350611667818560208601611d27565b61167081611e91565b840191505092915050565b600061168682611bbf565b6116908185611bf9565b93506116a0818560208601611d27565b6116a981611e91565b840191505092915050565b60006116bf82611bbf565b6116c98185611c0a565b93506116d9818560208601611d27565b80840191505092915050565b60006116f2603a83611bf9565b91507f596f75206e65656420746f20706179206174206c65617374207468652063757260008301527f72656e7420707269636520746f206265636f6d65204b696e67210000000000006020830152604082019050919050565b6000611758601f83611bf9565b91507f4e616d6520666f72204b696e6720697320616c72656164792074616b656e21006000830152602082019050919050565b6000611798602e83611bf9565b91507f5468652063757272656e74204b696e672063616e6e6f74206265636f6d65207460008301527f6865204b696e6720616761696e210000000000000000000000000000000000006020830152604082019050919050565b60006117fe601683611bf9565b91507f496e76616c6964206e616d6520666f72204b696e6721000000000000000000006000830152602082019050919050565b600061183e602b83611bf9565b91507f54686973206973207265737472696374656420746f2074686520636f6e74726160008301527f63742773206f776e6572210000000000000000000000000000000000000000006020830152604082019050919050565b60006080830160008301516118af60008601826115a0565b50602083015184820360208601526118c78282611642565b91505060408301516118dc604086018261195d565b5060608301516118ef606086018261195d565b508091505092915050565b600060808301600083015161191260008601826115a0565b506020830151848203602086015261192a8282611642565b915050604083015161193f604086018261195d565b506060830151611952606086018261195d565b508091505092915050565b61196681611d0e565b82525050565b61197581611d0e565b82525050565b600061198782846116b4565b915081905092915050565b60006020820190506119a760008301846115af565b92915050565b60006080820190506119c260008301876115af565b81810360208301526119d4818661167b565b90506119e3604083018561196c565b6119f0606083018461196c565b95945050505050565b60006020820190508181036000830152611a1381846115be565b905092915050565b6000602082019050611a306000830184611633565b92915050565b60006020820190508181036000830152611a50818461167b565b905092915050565b60006020820190508181036000830152611a71816116e5565b9050919050565b60006020820190508181036000830152611a918161174b565b9050919050565b60006020820190508181036000830152611ab18161178b565b9050919050565b60006020820190508181036000830152611ad1816117f1565b9050919050565b60006020820190508181036000830152611af181611831565b9050919050565b60006040820190508181036000830152611b1281856118fa565b9050611b21602083018461196c565b9392505050565b6000602082019050611b3d600083018461196c565b92915050565b6000604051905081810181811067ffffffffffffffff82111715611b6a57611b69611e62565b5b8060405250919050565b600067ffffffffffffffff821115611b8f57611b8e611e62565b5b601f19601f8301169050602081019050919050565b6000819050602082019050919050565b600081519050919050565b600081519050919050565b6000602082019050919050565b600082825260208201905092915050565b600082825260208201905092915050565b600082825260208201905092915050565b600081905092915050565b6000611c2082611d0e565b9150611c2b83611d0e565b9250827fffffffffffffffffffffffffffffffffffffffffffffffffffffffffffffffff03821115611c6057611c5f611dd5565b5b828201905092915050565b6000611c7682611d0e565b9150611c8183611d0e565b925082611c9157611c90611e04565b5b828204905092915050565b6000611ca782611d0e565b9150611cb283611d0e565b925082821015611cc557611cc4611dd5565b5b828203905092915050565b6000611cdb82611cee565b9050919050565b60008115159050919050565b600073ffffffffffffffffffffffffffffffffffffffff82169050919050565b6000819050919050565b82818337600083830152505050565b60005b83811015611d45578082015181840152602081019050611d2a565b83811115611d54576000848401525b50505050565b60006002820490506001821680611d7257607f821691505b60208210811415611d8657611d85611e33565b5b50919050565b6000611d9782611d0e565b91507fffffffffffffffffffffffffffffffffffffffffffffffffffffffffffffffff821415611dca57611dc9611dd5565b5b600182019050919050565b7f4e487b7100000000000000000000000000000000000000000000000000000000600052601160045260246000fd5b7f4e487b7100000000000000000000000000000000000000000000000000000000600052601260045260246000fd5b7f4e487b7100000000000000000000000000000000000000000000000000000000600052602260045260246000fd5b7f4e487b7100000000000000000000000000000000000000000000000000000000600052604160045260246000fd5b6000601f19601f8301169050919050565b611eab81611cd0565b8114611eb657600080fd5b50565b611ec281611d0e565b8114611ecd57600080fd5b5056fea26469706673582212208e00e362bea635810dd39fc37d4d6596252dc2fc95a54abb6fc8921e9d88982464736f6c63430008000033",
  "immutableReferences": {},
  "source": "// SPDX-License-Identifier: MIT\npragma solidity ^0.8.0;\n\ncontract FantomPirateKings {\n\n  event NewKing(King _king, uint256 _newPrice);\n\n  address payable public owner = payable(msg.sender);\n\n  string public kingdomName = \"Fantom Pirate Kings\";\n\n  uint256 public startPriceToBeKing = 0.01 ether; // 0.01 Fantom\n  uint256 public currentPriceToBeKing = startPriceToBeKing;\n  uint256 public cursePeriodInDays = 14;\n\n  struct King {\n    address payable wallet;\n    string name;\n    uint coronationTimestamp;\n    uint pricePaidInWei;\n  }\n\n  King[] public kings;\n\n  modifier onlyOwner() {\n    require(isSenderOwner(), \"This is restricted to the contract's owner!\");\n    _;\n  }\n\n  modifier onlyKing() {\n    require(msg.sender == getCurrentKing().wallet, \"This is restricted to the current king!\");\n    _;\n  }\n\n  modifier notKing() {\n    require(msg.sender != getCurrentKing().wallet, \"The current King cannot become the King again!\");\n    _; \n  }\n\n  modifier validName(string calldata _name) {\n    require(bytes(_name).length > 0, \"Invalid name for King!\");\n    require(!isNameTaken(_name), \"Name for King is already taken!\");\n    _; \n  }\n\n  constructor() {\n    kings.push(King(payable(0x0), \"\", 0, 0));\n  }\n\n  function becomeKing(string calldata _name) public payable notKing validName(_name) {\n    checkOnCurrentKingCurse();\n    require(msg.value >= currentPriceToBeKing, \"You need to pay at least the current price to become King!\");\n    King memory prevKing = getCurrentKing();\n    kings.push(King(payable(msg.sender), _name, block.timestamp, msg.value));\n    increasePrice(msg.value);\n    \n    uint contractCommission = msg.value / 20; // 5% commission\n    uint prevKingCompensation = msg.value - contractCommission;\n    compensatePreviousKing(prevKing, prevKingCompensation);\n\n    emit NewKing(getCurrentKing(), currentPriceToBeKing);\n  }\n\n  function checkOnCurrentKingCurse() private {\n    if (hasKingSuccumbToCurse(getCurrentKing()))\n      currentPriceToBeKing = startPriceToBeKing;\n  }\n\n  function compensatePreviousKing(King memory prevKing, uint256 amount) private {\n    if (prevKing.wallet != address(0x0) && !hasKingSuccumbToCurse(prevKing))\n      prevKing.wallet.transfer(amount);\n  }\n\n  function increasePrice(uint256 _msgValue) private {\n    uint256 priceIncrease = _msgValue / 3;\n    currentPriceToBeKing = _msgValue + priceIncrease;\n  }\n\n  function isSenderOwner() public view returns (bool) {\n    return msg.sender == owner;\n  }\n\n  function getAllKings() public view returns (King[] memory _kings) {\n    return kings;\n  }\n\n  function getCurrentKing() private view returns (King memory _king) {\n    return kings[kings.length-1];\n  }\n\n  function getCurrentKingName() public view returns (string memory) {\n    return getCurrentKing().name;\n  }\n\n  function getNameForAddress() public view returns (string memory) {\n    for (uint i = 0;i<kings.length;i++) {\n      if (kings[i].wallet == msg.sender) {\n        return kings[i].name;\n      }\n    }\n    return \"\";\n  }\n\n  function isNameTaken(string memory _name) private view returns (bool) {\n    for (uint i = 0;i<kings.length;i++) {\n      if (doStringsMatch(kings[i].name, _name)) {\n        return msg.sender != kings[i].wallet;\n      }\n    }\n    return false;\n  }\n\n  function doStringsMatch(string memory a, string memory b) public pure returns (bool) {\n    return (keccak256(abi.encodePacked((a))) == keccak256(abi.encodePacked((b))));\n  }\n\n  function getNumberOfKings() public view returns (uint) {\n    return kings.length;\n  }\n\n  function hasKingSuccumbToCurse(King memory _king) private view returns (bool) {\n    return _king.coronationTimestamp <= (block.timestamp - 14 days);\n  }\n\n  function changeStartPrice(uint256 _newPrice) public onlyOwner {\n    if (_newPrice >= 0.01 ether) {\n      startPriceToBeKing = _newPrice;\n    }\n  }\n\n  function changeCursePeriod(uint256 _newPeriod) public onlyOwner {\n    cursePeriodInDays = _newPeriod;\n  }\n  \n  function changeOwner(address payable _newOwner) public onlyOwner {\n    owner = _newOwner;\n  }\n\n  function withdraw() public onlyOwner {\n    owner.transfer(address(this).balance);\n  }\n\n  fallback() external payable {}\n\n  receive() external payable {}\n\n}\n",
  "sourcePath": "/Users/joshuacotterell/Documents/Blockchain/Projects/FantomPirates/src/blockchain/contracts/FantomPirateKings.sol",
  "compiler": {
    "name": "solc",
    "version": "0.8.0+commit.c7dfd78e.Emscripten.clang"
  },
  "schemaVersion": "3.4.3",
  "updatedAt": "2021-11-22T12:20:27.306Z",
  "networkType": "ethereum",
  "devdoc": {
    "kind": "dev",
    "methods": {},
    "version": 1
  },
  "userdoc": {
    "kind": "user",
    "methods": {},
    "version": 1
  }
}