{
  "contractName": "FantomPiratesItems",
  "abi": [
    {
      "inputs": [],
      "stateMutability": "nonpayable",
      "type": "constructor"
    },
    {
      "anonymous": false,
      "inputs": [
        {
          "indexed": true,
          "internalType": "address",
          "name": "account",
          "type": "address"
        },
        {
          "indexed": true,
          "internalType": "address",
          "name": "operator",
          "type": "address"
        },
        {
          "indexed": false,
          "internalType": "bool",
          "name": "approved",
          "type": "bool"
        }
      ],
      "name": "ApprovalForAll",
      "type": "event"
    },
    {
      "anonymous": false,
      "inputs": [
        {
          "indexed": true,
          "internalType": "address",
          "name": "operator",
          "type": "address"
        },
        {
          "indexed": true,
          "internalType": "address",
          "name": "from",
          "type": "address"
        },
        {
          "indexed": true,
          "internalType": "address",
          "name": "to",
          "type": "address"
        },
        {
          "indexed": false,
          "internalType": "uint256[]",
          "name": "ids",
          "type": "uint256[]"
        },
        {
          "indexed": false,
          "internalType": "uint256[]",
          "name": "values",
          "type": "uint256[]"
        }
      ],
      "name": "TransferBatch",
      "type": "event"
    },
    {
      "anonymous": false,
      "inputs": [
        {
          "indexed": true,
          "internalType": "address",
          "name": "operator",
          "type": "address"
        },
        {
          "indexed": true,
          "internalType": "address",
          "name": "from",
          "type": "address"
        },
        {
          "indexed": true,
          "internalType": "address",
          "name": "to",
          "type": "address"
        },
        {
          "indexed": false,
          "internalType": "uint256",
          "name": "id",
          "type": "uint256"
        },
        {
          "indexed": false,
          "internalType": "uint256",
          "name": "value",
          "type": "uint256"
        }
      ],
      "name": "TransferSingle",
      "type": "event"
    },
    {
      "anonymous": false,
      "inputs": [
        {
          "indexed": false,
          "internalType": "string",
          "name": "value",
          "type": "string"
        },
        {
          "indexed": true,
          "internalType": "uint256",
          "name": "id",
          "type": "uint256"
        }
      ],
      "name": "URI",
      "type": "event"
    },
    {
      "inputs": [],
      "name": "GOLD",
      "outputs": [
        {
          "internalType": "uint256",
          "name": "",
          "type": "uint256"
        }
      ],
      "stateMutability": "view",
      "type": "function",
      "constant": true
    },
    {
      "inputs": [],
      "name": "PET",
      "outputs": [
        {
          "internalType": "uint256",
          "name": "",
          "type": "uint256"
        }
      ],
      "stateMutability": "view",
      "type": "function",
      "constant": true
    },
    {
      "inputs": [],
      "name": "PIRATE",
      "outputs": [
        {
          "internalType": "uint256",
          "name": "",
          "type": "uint256"
        }
      ],
      "stateMutability": "view",
      "type": "function",
      "constant": true
    },
    {
      "inputs": [],
      "name": "SHIELD",
      "outputs": [
        {
          "internalType": "uint256",
          "name": "",
          "type": "uint256"
        }
      ],
      "stateMutability": "view",
      "type": "function",
      "constant": true
    },
    {
      "inputs": [],
      "name": "SHIP",
      "outputs": [
        {
          "internalType": "uint256",
          "name": "",
          "type": "uint256"
        }
      ],
      "stateMutability": "view",
      "type": "function",
      "constant": true
    },
    {
      "inputs": [],
      "name": "SHIP_PART",
      "outputs": [
        {
          "internalType": "uint256",
          "name": "",
          "type": "uint256"
        }
      ],
      "stateMutability": "view",
      "type": "function",
      "constant": true
    },
    {
      "inputs": [],
      "name": "SWORD",
      "outputs": [
        {
          "internalType": "uint256",
          "name": "",
          "type": "uint256"
        }
      ],
      "stateMutability": "view",
      "type": "function",
      "constant": true
    },
    {
      "inputs": [
        {
          "internalType": "address",
          "name": "account",
          "type": "address"
        },
        {
          "internalType": "uint256",
          "name": "id",
          "type": "uint256"
        }
      ],
      "name": "balanceOf",
      "outputs": [
        {
          "internalType": "uint256",
          "name": "",
          "type": "uint256"
        }
      ],
      "stateMutability": "view",
      "type": "function",
      "constant": true
    },
    {
      "inputs": [
        {
          "internalType": "address[]",
          "name": "accounts",
          "type": "address[]"
        },
        {
          "internalType": "uint256[]",
          "name": "ids",
          "type": "uint256[]"
        }
      ],
      "name": "balanceOfBatch",
      "outputs": [
        {
          "internalType": "uint256[]",
          "name": "",
          "type": "uint256[]"
        }
      ],
      "stateMutability": "view",
      "type": "function",
      "constant": true
    },
    {
      "inputs": [
        {
          "internalType": "address",
          "name": "account",
          "type": "address"
        },
        {
          "internalType": "address",
          "name": "operator",
          "type": "address"
        }
      ],
      "name": "isApprovedForAll",
      "outputs": [
        {
          "internalType": "bool",
          "name": "",
          "type": "bool"
        }
      ],
      "stateMutability": "view",
      "type": "function",
      "constant": true
    },
    {
      "inputs": [],
      "name": "owner",
      "outputs": [
        {
          "internalType": "address",
          "name": "",
          "type": "address"
        }
      ],
      "stateMutability": "view",
      "type": "function",
      "constant": true
    },
    {
      "inputs": [
        {
          "internalType": "address",
          "name": "from",
          "type": "address"
        },
        {
          "internalType": "address",
          "name": "to",
          "type": "address"
        },
        {
          "internalType": "uint256[]",
          "name": "ids",
          "type": "uint256[]"
        },
        {
          "internalType": "uint256[]",
          "name": "amounts",
          "type": "uint256[]"
        },
        {
          "internalType": "bytes",
          "name": "data",
          "type": "bytes"
        }
      ],
      "name": "safeBatchTransferFrom",
      "outputs": [],
      "stateMutability": "nonpayable",
      "type": "function"
    },
    {
      "inputs": [
        {
          "internalType": "address",
          "name": "from",
          "type": "address"
        },
        {
          "internalType": "address",
          "name": "to",
          "type": "address"
        },
        {
          "internalType": "uint256",
          "name": "id",
          "type": "uint256"
        },
        {
          "internalType": "uint256",
          "name": "amount",
          "type": "uint256"
        },
        {
          "internalType": "bytes",
          "name": "data",
          "type": "bytes"
        }
      ],
      "name": "safeTransferFrom",
      "outputs": [],
      "stateMutability": "nonpayable",
      "type": "function"
    },
    {
      "inputs": [
        {
          "internalType": "address",
          "name": "operator",
          "type": "address"
        },
        {
          "internalType": "bool",
          "name": "approved",
          "type": "bool"
        }
      ],
      "name": "setApprovalForAll",
      "outputs": [],
      "stateMutability": "nonpayable",
      "type": "function"
    },
    {
      "inputs": [
        {
          "internalType": "bytes4",
          "name": "interfaceId",
          "type": "bytes4"
        }
      ],
      "name": "supportsInterface",
      "outputs": [
        {
          "internalType": "bool",
          "name": "",
          "type": "bool"
        }
      ],
      "stateMutability": "view",
      "type": "function",
      "constant": true
    },
    {
      "inputs": [
        {
          "internalType": "uint256",
          "name": "",
          "type": "uint256"
        }
      ],
      "name": "uri",
      "outputs": [
        {
          "internalType": "string",
          "name": "",
          "type": "string"
        }
      ],
      "stateMutability": "view",
      "type": "function",
      "constant": true
    }
  ],
  "bytecode": "0x608060405233600360006101000a81548173ffffffffffffffffffffffffffffffffffffffff021916908373ffffffffffffffffffffffffffffffffffffffff1602179055503480156200005257600080fd5b50604051806020016040528060008152506200007d81620001e9640100000000026401000000009004565b50620000b03360006402540be4006040518060200160405280600081525062000205640100000000026401000000009004565b620000e93360016b033b2e3c9fd0803ce80000006040518060200160405280600081525062000205640100000000026401000000009004565b6200011b3360026402540be4006040518060200160405280600081525062000205640100000000026401000000009004565b6200014d3360036402540be4006040518060200160405280600081525062000205640100000000026401000000009004565b6200017f3360046402540be4006040518060200160405280600081525062000205640100000000026401000000009004565b620001b13360056402540be4006040518060200160405280600081525062000205640100000000026401000000009004565b620001e33360066402540be4006040518060200160405280600081525062000205640100000000026401000000009004565b62000ddf565b80600290805190602001906200020192919062000714565b5050565b600073ffffffffffffffffffffffffffffffffffffffff168473ffffffffffffffffffffffffffffffffffffffff16141562000278576040517f08c379a00000000000000000000000000000000000000000000000000000000081526004016200026f9062000aaf565b60405180910390fd5b600062000293620003f7640100000000026401000000009004565b9050620002e781600087620002b788620003ff640100000000026401000000009004565b620002d188620003ff640100000000026401000000009004565b87620004c8640100000000026401000000009004565b8260008086815260200190815260200160002060008773ffffffffffffffffffffffffffffffffffffffff1673ffffffffffffffffffffffffffffffffffffffff168152602001908152602001600020600082825462000348919062000b36565b925050819055508473ffffffffffffffffffffffffffffffffffffffff16600073ffffffffffffffffffffffffffffffffffffffff168273ffffffffffffffffffffffffffffffffffffffff167fc3d58168c5ae7397731d063d5bbf3d657854427343f4c083240f7aacaa2d0f628787604051620003c892919062000ad1565b60405180910390a4620003f081600087878787620004d0640100000000026401000000009004565b5050505050565b600033905090565b60606000600167ffffffffffffffff81111562000445577f4e487b7100000000000000000000000000000000000000000000000000000000600052604160045260246000fd5b604051908082528060200260200182016040528015620004745781602001602082028036833780820191505090505b5090508281600081518110620004b3577f4e487b7100000000000000000000000000000000000000000000000000000000600052603260045260246000fd5b60200260200101818152505080915050919050565b505050505050565b620005058473ffffffffffffffffffffffffffffffffffffffff16620007016401000000000262000ae5176401000000009004565b15620006f9578373ffffffffffffffffffffffffffffffffffffffff1663f23a6e6187878686866040518663ffffffff167c01000000000000000000000000000000000000000000000000000000000281526004016200056a959493929190620009e3565b602060405180830381600087803b1580156200058557600080fd5b505af1925050508015620005b957506040513d601f19601f82011682018060405250810190620005b69190620007db565b60015b6200065157620005c862000d01565b80620005d5575062000614565b806040517f08c379a00000000000000000000000000000000000000000000000000000000081526004016200060b919062000a47565b60405180910390fd5b6040517f08c379a0000000000000000000000000000000000000000000000000000000008152600401620006489062000a6b565b60405180910390fd5b63f23a6e617c0100000000000000000000000000000000000000000000000000000000027bffffffffffffffffffffffffffffffffffffffffffffffffffffffff1916817bffffffffffffffffffffffffffffffffffffffffffffffffffffffff191614620006f7576040517f08c379a0000000000000000000000000000000000000000000000000000000008152600401620006ee9062000a8d565b60405180910390fd5b505b505050505050565b600080823b905060008111915050919050565b828054620007229062000c33565b90600052602060002090601f01602090048101928262000746576000855562000792565b82601f106200076157805160ff191683800117855562000792565b8280016001018555821562000792579182015b828111156200079157825182559160200191906001019062000774565b5b509050620007a19190620007a5565b5090565b5b80821115620007c0576000816000905550600101620007a6565b5090565b600081519050620007d58162000dc5565b92915050565b600060208284031215620007ee57600080fd5b6000620007fe84828501620007c4565b91505092915050565b620008128162000b93565b82525050565b6000620008258262000afe565b62000831818562000b14565b93506200084381856020860162000bfd565b6200084e8162000cc7565b840191505092915050565b6000620008668262000b09565b62000872818562000b25565b93506200088481856020860162000bfd565b6200088f8162000cc7565b840191505092915050565b6000620008a960348362000b25565b91507f455243313135353a207472616e7366657220746f206e6f6e204552433131353560008301527f526563656976657220696d706c656d656e7465720000000000000000000000006020830152604082019050919050565b60006200091160288362000b25565b91507f455243313135353a204552433131353552656365697665722072656a6563746560008301527f6420746f6b656e730000000000000000000000000000000000000000000000006020830152604082019050919050565b60006200097960218362000b25565b91507f455243313135353a206d696e7420746f20746865207a65726f2061646472657360008301527f73000000000000000000000000000000000000000000000000000000000000006020830152604082019050919050565b620009dd8162000bf3565b82525050565b600060a082019050620009fa600083018862000807565b62000a09602083018762000807565b62000a186040830186620009d2565b62000a276060830185620009d2565b818103608083015262000a3b818462000818565b90509695505050505050565b6000602082019050818103600083015262000a63818462000859565b905092915050565b6000602082019050818103600083015262000a86816200089a565b9050919050565b6000602082019050818103600083015262000aa88162000902565b9050919050565b6000602082019050818103600083015262000aca816200096a565b9050919050565b600060408201905062000ae86000830185620009d2565b62000af76020830184620009d2565b9392505050565b600081519050919050565b600081519050919050565b600082825260208201905092915050565b600082825260208201905092915050565b600062000b438262000bf3565b915062000b508362000bf3565b9250827fffffffffffffffffffffffffffffffffffffffffffffffffffffffffffffffff0382111562000b885762000b8762000c69565b5b828201905092915050565b600062000ba08262000bd3565b9050919050565b60007fffffffff0000000000000000000000000000000000000000000000000000000082169050919050565b600073ffffffffffffffffffffffffffffffffffffffff82169050919050565b6000819050919050565b60005b8381101562000c1d57808201518184015260208101905062000c00565b8381111562000c2d576000848401525b50505050565b6000600282049050600182168062000c4c57607f821691505b6020821081141562000c635762000c6262000c98565b5b50919050565b7f4e487b7100000000000000000000000000000000000000000000000000000000600052601160045260246000fd5b7f4e487b7100000000000000000000000000000000000000000000000000000000600052602260045260246000fd5b6000601f19601f8301169050919050565b60007c010000000000000000000000000000000000000000000000000000000082049050919050565b600060443d101562000d135762000dc2565b60046000803e62000d2660005162000cd8565b6308c379a0811462000d39575062000dc2565b60405160043d036004823e80513d602482011167ffffffffffffffff8211171562000d675750505062000dc2565b808201805167ffffffffffffffff81111562000d8857505050505062000dc2565b8060208301013d850181111562000da55750505050505062000dc2565b62000db08262000cc7565b60208401016040528296505050505050505b90565b62000dd08162000ba7565b811462000ddc57600080fd5b50565b6127e78062000def6000396000f3fe608060405234801561001057600080fd5b506004361061011c576000357c0100000000000000000000000000000000000000000000000000000000900480635b2725ed116100b4578063ba82934011610083578063ba829340146102cd578063e985e9c5146102eb578063ecf000c31461031b578063f242432a146103395761011c565b80635b2725ed146102575780638da5cb5b14610275578063a15a877914610293578063a22cb465146102b15761011c565b80632eb2c2d6116100f05780632eb2c2d6146101cf5780633e4bee38146101eb5780634509872e146102095780634e1273f4146102275761011c565b8062fdd58e1461012157806301ffc9a7146101515780630e89341c1461018157806313dc989f146101b1575b600080fd5b61013b600480360381019061013691906119ed565b610355565b60405161014891906122e3565b60405180910390f35b61016b60048036038101906101669190611a95565b61041e565b6040516101789190612166565b60405180910390f35b61019b60048036038101906101969190611ae7565b610500565b6040516101a89190612181565b60405180910390f35b6101b9610594565b6040516101c691906122e3565b60405180910390f35b6101e960048036038101906101e49190611863565b610599565b005b6101f361063a565b60405161020091906122e3565b60405180910390f35b61021161063f565b60405161021e91906122e3565b60405180910390f35b610241600480360381019061023c9190611a29565b610644565b60405161024e919061210d565b60405180910390f35b61025f6107f5565b60405161026c91906122e3565b60405180910390f35b61027d6107fa565b60405161028a9190612030565b60405180910390f35b61029b610820565b6040516102a891906122e3565b60405180910390f35b6102cb60048036038101906102c691906119b1565b610825565b005b6102d56109a6565b6040516102e291906122e3565b60405180910390f35b61030560048036038101906103009190611827565b6109ab565b6040516103129190612166565b60405180910390f35b610323610a3f565b60405161033091906122e3565b60405180910390f35b610353600480360381019061034e9190611922565b610a44565b005b60008073ffffffffffffffffffffffffffffffffffffffff168373ffffffffffffffffffffffffffffffffffffffff1614156103c6576040517f08c379a00000000000000000000000000000000000000000000000000000000081526004016103bd906121e3565b60405180910390fd5b60008083815260200190815260200160002060008473ffffffffffffffffffffffffffffffffffffffff1673ffffffffffffffffffffffffffffffffffffffff16815260200190815260200160002054905092915050565b60007fd9b67a26000000000000000000000000000000000000000000000000000000007bffffffffffffffffffffffffffffffffffffffffffffffffffffffff1916827bffffffffffffffffffffffffffffffffffffffffffffffffffffffff191614806104e957507f0e89341c000000000000000000000000000000000000000000000000000000007bffffffffffffffffffffffffffffffffffffffffffffffffffffffff1916827bffffffffffffffffffffffffffffffffffffffffffffffffffffffff1916145b806104f957506104f882610af8565b5b9050919050565b60606002805461050f9061255d565b80601f016020809104026020016040519081016040528092919081815260200182805461053b9061255d565b80156105885780601f1061055d57610100808354040283529160200191610588565b820191906000526020600020905b81548152906001019060200180831161056b57829003601f168201915b50505050509050919050565b600381565b6105a1610b62565b73ffffffffffffffffffffffffffffffffffffffff168573ffffffffffffffffffffffffffffffffffffffff1614806105e757506105e6856105e1610b62565b6109ab565b5b610626576040517f08c379a000000000000000000000000000000000000000000000000000000000815260040161061d90612243565b60405180910390fd5b6106338585858585610b6a565b5050505050565b600181565b600581565b6060815183511461068a576040517f08c379a0000000000000000000000000000000000000000000000000000000008152600401610681906122a3565b60405180910390fd5b6000835167ffffffffffffffff8111156106cd577f4e487b7100000000000000000000000000000000000000000000000000000000600052604160045260246000fd5b6040519080825280602002602001820160405280156106fb5781602001602082028036833780820191505090505b50905060005b84518110156107ea57610794858281518110610746577f4e487b7100000000000000000000000000000000000000000000000000000000600052603260045260246000fd5b6020026020010151858381518110610787577f4e487b7100000000000000000000000000000000000000000000000000000000600052603260045260246000fd5b6020026020010151610355565b8282815181106107cd577f4e487b7100000000000000000000000000000000000000000000000000000000600052603260045260246000fd5b602002602001018181525050806107e39061258f565b9050610701565b508091505092915050565b600481565b600360009054906101000a900473ffffffffffffffffffffffffffffffffffffffff1681565b600681565b8173ffffffffffffffffffffffffffffffffffffffff16610844610b62565b73ffffffffffffffffffffffffffffffffffffffff16141561089b576040517f08c379a000000000000000000000000000000000000000000000000000000000815260040161089290612283565b60405180910390fd5b80600160006108a8610b62565b73ffffffffffffffffffffffffffffffffffffffff1673ffffffffffffffffffffffffffffffffffffffff16815260200190815260200160002060008473ffffffffffffffffffffffffffffffffffffffff1673ffffffffffffffffffffffffffffffffffffffff16815260200190815260200160002060006101000a81548160ff0219169083151502179055508173ffffffffffffffffffffffffffffffffffffffff16610955610b62565b73ffffffffffffffffffffffffffffffffffffffff167f17307eab39ab6107e8899845ad3d59bd9653f200f220920489ca2b5937696c318360405161099a9190612166565b60405180910390a35050565b600281565b6000600160008473ffffffffffffffffffffffffffffffffffffffff1673ffffffffffffffffffffffffffffffffffffffff16815260200190815260200160002060008373ffffffffffffffffffffffffffffffffffffffff1673ffffffffffffffffffffffffffffffffffffffff16815260200190815260200160002060009054906101000a900460ff16905092915050565b600081565b610a4c610b62565b73ffffffffffffffffffffffffffffffffffffffff168573ffffffffffffffffffffffffffffffffffffffff161480610a925750610a9185610a8c610b62565b6109ab565b5b610ad1576040517f08c379a0000000000000000000000000000000000000000000000000000000008152600401610ac890612203565b60405180910390fd5b610ade8585858585610eca565b5050505050565b600080823b905060008111915050919050565b60007f01ffc9a7000000000000000000000000000000000000000000000000000000007bffffffffffffffffffffffffffffffffffffffffffffffffffffffff1916827bffffffffffffffffffffffffffffffffffffffffffffffffffffffff1916149050919050565b600033905090565b8151835114610bae576040517f08c379a0000000000000000000000000000000000000000000000000000000008152600401610ba5906122c3565b60405180910390fd5b600073ffffffffffffffffffffffffffffffffffffffff168473ffffffffffffffffffffffffffffffffffffffff161415610c1e576040517f08c379a0000000000000000000000000000000000000000000000000000000008152600401610c1590612223565b60405180910390fd5b6000610c28610b62565b9050610c3881878787878761114c565b60005b8451811015610e35576000858281518110610c7f577f4e487b7100000000000000000000000000000000000000000000000000000000600052603260045260246000fd5b602002602001015190506000858381518110610cc4577f4e487b7100000000000000000000000000000000000000000000000000000000600052603260045260246000fd5b60200260200101519050600080600084815260200190815260200160002060008b73ffffffffffffffffffffffffffffffffffffffff1673ffffffffffffffffffffffffffffffffffffffff16815260200190815260200160002054905081811015610d65576040517f08c379a0000000000000000000000000000000000000000000000000000000008152600401610d5c90612263565b60405180910390fd5b81810360008085815260200190815260200160002060008c73ffffffffffffffffffffffffffffffffffffffff1673ffffffffffffffffffffffffffffffffffffffff168152602001908152602001600020819055508160008085815260200190815260200160002060008b73ffffffffffffffffffffffffffffffffffffffff1673ffffffffffffffffffffffffffffffffffffffff1681526020019081526020016000206000828254610e1a9190612451565b9250508190555050505080610e2e9061258f565b9050610c3b565b508473ffffffffffffffffffffffffffffffffffffffff168673ffffffffffffffffffffffffffffffffffffffff168273ffffffffffffffffffffffffffffffffffffffff167f4a39dc06d4c0dbc64b70af90fd698a233a518aa5d07e595d983b8c0526c8f7fb8787604051610eac92919061212f565b60405180910390a4610ec2818787878787611154565b505050505050565b600073ffffffffffffffffffffffffffffffffffffffff168473ffffffffffffffffffffffffffffffffffffffff161415610f3a576040517f08c379a0000000000000000000000000000000000000000000000000000000008152600401610f3190612223565b60405180910390fd5b6000610f44610b62565b9050610f64818787610f558861135c565b610f5e8861135c565b8761114c565b600080600086815260200190815260200160002060008873ffffffffffffffffffffffffffffffffffffffff1673ffffffffffffffffffffffffffffffffffffffff16815260200190815260200160002054905083811015610ffb576040517f08c379a0000000000000000000000000000000000000000000000000000000008152600401610ff290612263565b60405180910390fd5b83810360008087815260200190815260200160002060008973ffffffffffffffffffffffffffffffffffffffff1673ffffffffffffffffffffffffffffffffffffffff168152602001908152602001600020819055508360008087815260200190815260200160002060008873ffffffffffffffffffffffffffffffffffffffff1673ffffffffffffffffffffffffffffffffffffffff16815260200190815260200160002060008282546110b09190612451565b925050819055508573ffffffffffffffffffffffffffffffffffffffff168773ffffffffffffffffffffffffffffffffffffffff168373ffffffffffffffffffffffffffffffffffffffff167fc3d58168c5ae7397731d063d5bbf3d657854427343f4c083240f7aacaa2d0f62888860405161112d9291906122fe565b60405180910390a4611143828888888888611422565b50505050505050565b505050505050565b6111738473ffffffffffffffffffffffffffffffffffffffff16610ae5565b15611354578373ffffffffffffffffffffffffffffffffffffffff1663bc197c8187878686866040518663ffffffff167c01000000000000000000000000000000000000000000000000000000000281526004016111d595949392919061204b565b602060405180830381600087803b1580156111ef57600080fd5b505af192505050801561122057506040513d601f19601f8201168201806040525081019061121d9190611abe565b60015b6112af5761122c61269f565b806112375750611274565b806040517f08c379a000000000000000000000000000000000000000000000000000000000815260040161126b9190612181565b60405180910390fd5b6040517f08c379a00000000000000000000000000000000000000000000000000000000081526004016112a6906121a3565b60405180910390fd5b63bc197c817c0100000000000000000000000000000000000000000000000000000000027bffffffffffffffffffffffffffffffffffffffffffffffffffffffff1916817bffffffffffffffffffffffffffffffffffffffffffffffffffffffff191614611352576040517f08c379a0000000000000000000000000000000000000000000000000000000008152600401611349906121c3565b60405180910390fd5b505b505050505050565b60606000600167ffffffffffffffff8111156113a1577f4e487b7100000000000000000000000000000000000000000000000000000000600052604160045260246000fd5b6040519080825280602002602001820160405280156113cf5781602001602082028036833780820191505090505b509050828160008151811061140d577f4e487b7100000000000000000000000000000000000000000000000000000000600052603260045260246000fd5b60200260200101818152505080915050919050565b6114418473ffffffffffffffffffffffffffffffffffffffff16610ae5565b15611622578373ffffffffffffffffffffffffffffffffffffffff1663f23a6e6187878686866040518663ffffffff167c01000000000000000000000000000000000000000000000000000000000281526004016114a39594939291906120b3565b602060405180830381600087803b1580156114bd57600080fd5b505af19250505080156114ee57506040513d601f19601f820116820180604052508101906114eb9190611abe565b60015b61157d576114fa61269f565b806115055750611542565b806040517f08c379a00000000000000000000000000000000000000000000000000000000081526004016115399190612181565b60405180910390fd5b6040517f08c379a0000000000000000000000000000000000000000000000000000000008152600401611574906121a3565b60405180910390fd5b63f23a6e617c0100000000000000000000000000000000000000000000000000000000027bffffffffffffffffffffffffffffffffffffffffffffffffffffffff1916817bffffffffffffffffffffffffffffffffffffffffffffffffffffffff191614611620576040517f08c379a0000000000000000000000000000000000000000000000000000000008152600401611617906121c3565b60405180910390fd5b505b505050505050565b600061163d61163884612358565b612327565b9050808382526020820190508285602086028201111561165c57600080fd5b60005b8581101561168c57816116728882611740565b84526020840193506020830192505060018101905061165f565b5050509392505050565b60006116a96116a484612384565b612327565b905080838252602082019050828560208602820111156116c857600080fd5b60005b858110156116f857816116de8882611812565b8452602084019350602083019250506001810190506116cb565b5050509392505050565b6000611715611710846123b0565b612327565b90508281526020810184848401111561172d57600080fd5b61173884828561251b565b509392505050565b60008135905061174f81612755565b92915050565b600082601f83011261176657600080fd5b813561177684826020860161162a565b91505092915050565b600082601f83011261179057600080fd5b81356117a0848260208601611696565b91505092915050565b6000813590506117b88161276c565b92915050565b6000813590506117cd81612783565b92915050565b6000815190506117e281612783565b92915050565b600082601f8301126117f957600080fd5b8135611809848260208601611702565b91505092915050565b6000813590506118218161279a565b92915050565b6000806040838503121561183a57600080fd5b600061184885828601611740565b925050602061185985828601611740565b9150509250929050565b600080600080600060a0868803121561187b57600080fd5b600061188988828901611740565b955050602061189a88828901611740565b945050604086013567ffffffffffffffff8111156118b757600080fd5b6118c38882890161177f565b935050606086013567ffffffffffffffff8111156118e057600080fd5b6118ec8882890161177f565b925050608086013567ffffffffffffffff81111561190957600080fd5b611915888289016117e8565b9150509295509295909350565b600080600080600060a0868803121561193a57600080fd5b600061194888828901611740565b955050602061195988828901611740565b945050604061196a88828901611812565b935050606061197b88828901611812565b925050608086013567ffffffffffffffff81111561199857600080fd5b6119a4888289016117e8565b9150509295509295909350565b600080604083850312156119c457600080fd5b60006119d285828601611740565b92505060206119e3858286016117a9565b9150509250929050565b60008060408385031215611a0057600080fd5b6000611a0e85828601611740565b9250506020611a1f85828601611812565b9150509250929050565b60008060408385031215611a3c57600080fd5b600083013567ffffffffffffffff811115611a5657600080fd5b611a6285828601611755565b925050602083013567ffffffffffffffff811115611a7f57600080fd5b611a8b8582860161177f565b9150509250929050565b600060208284031215611aa757600080fd5b6000611ab5848285016117be565b91505092915050565b600060208284031215611ad057600080fd5b6000611ade848285016117d3565b91505092915050565b600060208284031215611af957600080fd5b6000611b0784828501611812565b91505092915050565b6000611b1c8383612012565b60208301905092915050565b611b31816124a7565b82525050565b6000611b42826123f0565b611b4c818561241e565b9350611b57836123e0565b8060005b83811015611b88578151611b6f8882611b10565b9750611b7a83612411565b925050600181019050611b5b565b5085935050505092915050565b611b9e816124b9565b82525050565b6000611baf826123fb565b611bb9818561242f565b9350611bc981856020860161252a565b611bd281612665565b840191505092915050565b6000611be882612406565b611bf28185612440565b9350611c0281856020860161252a565b611c0b81612665565b840191505092915050565b6000611c23603483612440565b91507f455243313135353a207472616e7366657220746f206e6f6e204552433131353560008301527f526563656976657220696d706c656d656e7465720000000000000000000000006020830152604082019050919050565b6000611c89602883612440565b91507f455243313135353a204552433131353552656365697665722072656a6563746560008301527f6420746f6b656e730000000000000000000000000000000000000000000000006020830152604082019050919050565b6000611cef602b83612440565b91507f455243313135353a2062616c616e636520717565727920666f7220746865207a60008301527f65726f20616464726573730000000000000000000000000000000000000000006020830152604082019050919050565b6000611d55602983612440565b91507f455243313135353a2063616c6c6572206973206e6f74206f776e6572206e6f7260008301527f20617070726f76656400000000000000000000000000000000000000000000006020830152604082019050919050565b6000611dbb602583612440565b91507f455243313135353a207472616e7366657220746f20746865207a65726f20616460008301527f64726573730000000000000000000000000000000000000000000000000000006020830152604082019050919050565b6000611e21603283612440565b91507f455243313135353a207472616e736665722063616c6c6572206973206e6f742060008301527f6f776e6572206e6f7220617070726f76656400000000000000000000000000006020830152604082019050919050565b6000611e87602a83612440565b91507f455243313135353a20696e73756666696369656e742062616c616e636520666f60008301527f72207472616e73666572000000000000000000000000000000000000000000006020830152604082019050919050565b6000611eed602983612440565b91507f455243313135353a2073657474696e6720617070726f76616c2073746174757360008301527f20666f722073656c6600000000000000000000000000000000000000000000006020830152604082019050919050565b6000611f53602983612440565b91507f455243313135353a206163636f756e747320616e6420696473206c656e67746860008301527f206d69736d6174636800000000000000000000000000000000000000000000006020830152604082019050919050565b6000611fb9602883612440565b91507f455243313135353a2069647320616e6420616d6f756e7473206c656e6774682060008301527f6d69736d617463680000000000000000000000000000000000000000000000006020830152604082019050919050565b61201b81612511565b82525050565b61202a81612511565b82525050565b60006020820190506120456000830184611b28565b92915050565b600060a0820190506120606000830188611b28565b61206d6020830187611b28565b818103604083015261207f8186611b37565b905081810360608301526120938185611b37565b905081810360808301526120a78184611ba4565b90509695505050505050565b600060a0820190506120c86000830188611b28565b6120d56020830187611b28565b6120e26040830186612021565b6120ef6060830185612021565b81810360808301526121018184611ba4565b90509695505050505050565b600060208201905081810360008301526121278184611b37565b905092915050565b600060408201905081810360008301526121498185611b37565b9050818103602083015261215d8184611b37565b90509392505050565b600060208201905061217b6000830184611b95565b92915050565b6000602082019050818103600083015261219b8184611bdd565b905092915050565b600060208201905081810360008301526121bc81611c16565b9050919050565b600060208201905081810360008301526121dc81611c7c565b9050919050565b600060208201905081810360008301526121fc81611ce2565b9050919050565b6000602082019050818103600083015261221c81611d48565b9050919050565b6000602082019050818103600083015261223c81611dae565b9050919050565b6000602082019050818103600083015261225c81611e14565b9050919050565b6000602082019050818103600083015261227c81611e7a565b9050919050565b6000602082019050818103600083015261229c81611ee0565b9050919050565b600060208201905081810360008301526122bc81611f46565b9050919050565b600060208201905081810360008301526122dc81611fac565b9050919050565b60006020820190506122f86000830184612021565b92915050565b60006040820190506123136000830185612021565b6123206020830184612021565b9392505050565b6000604051905081810181811067ffffffffffffffff8211171561234e5761234d612636565b5b8060405250919050565b600067ffffffffffffffff82111561237357612372612636565b5b602082029050602081019050919050565b600067ffffffffffffffff82111561239f5761239e612636565b5b602082029050602081019050919050565b600067ffffffffffffffff8211156123cb576123ca612636565b5b601f19601f8301169050602081019050919050565b6000819050602082019050919050565b600081519050919050565b600081519050919050565b600081519050919050565b6000602082019050919050565b600082825260208201905092915050565b600082825260208201905092915050565b600082825260208201905092915050565b600061245c82612511565b915061246783612511565b9250827fffffffffffffffffffffffffffffffffffffffffffffffffffffffffffffffff0382111561249c5761249b6125d8565b5b828201905092915050565b60006124b2826124f1565b9050919050565b60008115159050919050565b60007fffffffff0000000000000000000000000000000000000000000000000000000082169050919050565b600073ffffffffffffffffffffffffffffffffffffffff82169050919050565b6000819050919050565b82818337600083830152505050565b60005b8381101561254857808201518184015260208101905061252d565b83811115612557576000848401525b50505050565b6000600282049050600182168061257557607f821691505b6020821081141561258957612588612607565b5b50919050565b600061259a82612511565b91507fffffffffffffffffffffffffffffffffffffffffffffffffffffffffffffffff8214156125cd576125cc6125d8565b5b600182019050919050565b7f4e487b7100000000000000000000000000000000000000000000000000000000600052601160045260246000fd5b7f4e487b7100000000000000000000000000000000000000000000000000000000600052602260045260246000fd5b7f4e487b7100000000000000000000000000000000000000000000000000000000600052604160045260246000fd5b6000601f19601f8301169050919050565b60007c010000000000000000000000000000000000000000000000000000000082049050919050565b600060443d10156126af57612752565b60046000803e6126c0600051612676565b6308c379a081146126d15750612752565b60405160043d036004823e80513d602482011167ffffffffffffffff821117156126fd57505050612752565b808201805167ffffffffffffffff81111561271c575050505050612752565b8060208301013d850181111561273757505050505050612752565b61274082612665565b60208401016040528296505050505050505b90565b61275e816124a7565b811461276957600080fd5b50565b612775816124b9565b811461278057600080fd5b50565b61278c816124c5565b811461279757600080fd5b50565b6127a381612511565b81146127ae57600080fd5b5056fea264697066735822122075be2c7b417ddfa7577b1b8989398a10e309b5830273108832c6ed32cc38ebd364736f6c63430008000033",
  "immutableReferences": {},
  "source": "// SPDX-License-Identifier: MIT\npragma solidity ^0.8.0;\n\nimport \"@openzeppelin/contracts/token/ERC1155/ERC1155.sol\";\n\ncontract FantomPiratesItems is ERC1155 {\n\n  address public owner = msg.sender;\n\n  uint256 public constant PIRATE = 0;\n  uint256 public constant GOLD = 1;\n  uint256 public constant SHIP = 2;\n  uint256 public constant SWORD = 3;\n  uint256 public constant SHIELD = 4;\n  uint256 public constant PET = 5;\n  uint256 public constant SHIP_PART = 6;\n\n  constructor() ERC1155(\"\") {\n\t\t_mint(msg.sender, PIRATE, 10**10, \"\");\n\t\t_mint(msg.sender, GOLD, 10**27, \"\");\n    _mint(msg.sender, SHIP, 10**10, \"\");\n    _mint(msg.sender, SWORD, 10**10, \"\");\n    _mint(msg.sender, SHIELD, 10**10, \"\");\n    _mint(msg.sender, PET, 10**10, \"\");\n    _mint(msg.sender, SHIP_PART, 10**10, \"\");\n  }\n}\n",
  "sourcePath": "/Users/joshuacotterell/Documents/Blockchain/Projects/FantomPirates/blockchain/contracts/FantomPiratesItems.sol",
  "compiler": {
    "name": "solc",
    "version": "0.8.0+commit.c7dfd78e.Emscripten.clang"
  },
  "schemaVersion": "3.3.4",
  "updatedAt": "2021-10-19T10:53:33.222Z",
  "networkType": "ethereum",
  "devdoc": {
    "kind": "dev",
    "methods": {
      "balanceOf(address,uint256)": {
        "details": "See {IERC1155-balanceOf}. Requirements: - `account` cannot be the zero address."
      },
      "balanceOfBatch(address[],uint256[])": {
        "details": "See {IERC1155-balanceOfBatch}. Requirements: - `accounts` and `ids` must have the same length."
      },
      "isApprovedForAll(address,address)": {
        "details": "See {IERC1155-isApprovedForAll}."
      },
      "safeBatchTransferFrom(address,address,uint256[],uint256[],bytes)": {
        "details": "See {IERC1155-safeBatchTransferFrom}."
      },
      "safeTransferFrom(address,address,uint256,uint256,bytes)": {
        "details": "See {IERC1155-safeTransferFrom}."
      },
      "setApprovalForAll(address,bool)": {
        "details": "See {IERC1155-setApprovalForAll}."
      },
      "supportsInterface(bytes4)": {
        "details": "See {IERC165-supportsInterface}."
      },
      "uri(uint256)": {
        "details": "See {IERC1155MetadataURI-uri}. This implementation returns the same URI for *all* token types. It relies on the token type ID substitution mechanism https://eips.ethereum.org/EIPS/eip-1155#metadata[defined in the EIP]. Clients calling this function must replace the `\\{id\\}` substring with the actual token type ID."
      }
    },
    "version": 1
  },
  "userdoc": {
    "kind": "user",
    "methods": {},
    "version": 1
  }
}