{
  "contractName": "FantomPiratesShip",
  "abi": [
    {
      "inputs": [],
      "stateMutability": "nonpayable",
      "type": "constructor"
    },
    {
      "anonymous": false,
      "inputs": [
        {
          "indexed": true,
          "internalType": "address",
          "name": "owner",
          "type": "address"
        },
        {
          "indexed": true,
          "internalType": "address",
          "name": "approved",
          "type": "address"
        },
        {
          "indexed": true,
          "internalType": "uint256",
          "name": "tokenId",
          "type": "uint256"
        }
      ],
      "name": "Approval",
      "type": "event"
    },
    {
      "anonymous": false,
      "inputs": [
        {
          "indexed": true,
          "internalType": "address",
          "name": "owner",
          "type": "address"
        },
        {
          "indexed": true,
          "internalType": "address",
          "name": "operator",
          "type": "address"
        },
        {
          "indexed": false,
          "internalType": "bool",
          "name": "approved",
          "type": "bool"
        }
      ],
      "name": "ApprovalForAll",
      "type": "event"
    },
    {
      "anonymous": false,
      "inputs": [
        {
          "indexed": true,
          "internalType": "address",
          "name": "from",
          "type": "address"
        },
        {
          "indexed": true,
          "internalType": "address",
          "name": "to",
          "type": "address"
        },
        {
          "indexed": true,
          "internalType": "uint256",
          "name": "tokenId",
          "type": "uint256"
        }
      ],
      "name": "Transfer",
      "type": "event"
    },
    {
      "inputs": [
        {
          "internalType": "address",
          "name": "to",
          "type": "address"
        },
        {
          "internalType": "uint256",
          "name": "tokenId",
          "type": "uint256"
        }
      ],
      "name": "approve",
      "outputs": [],
      "stateMutability": "nonpayable",
      "type": "function"
    },
    {
      "inputs": [
        {
          "internalType": "address",
          "name": "owner",
          "type": "address"
        }
      ],
      "name": "balanceOf",
      "outputs": [
        {
          "internalType": "uint256",
          "name": "",
          "type": "uint256"
        }
      ],
      "stateMutability": "view",
      "type": "function",
      "constant": true
    },
    {
      "inputs": [
        {
          "internalType": "uint256",
          "name": "tokenId",
          "type": "uint256"
        }
      ],
      "name": "getApproved",
      "outputs": [
        {
          "internalType": "address",
          "name": "",
          "type": "address"
        }
      ],
      "stateMutability": "view",
      "type": "function",
      "constant": true
    },
    {
      "inputs": [
        {
          "internalType": "address",
          "name": "owner",
          "type": "address"
        },
        {
          "internalType": "address",
          "name": "operator",
          "type": "address"
        }
      ],
      "name": "isApprovedForAll",
      "outputs": [
        {
          "internalType": "bool",
          "name": "",
          "type": "bool"
        }
      ],
      "stateMutability": "view",
      "type": "function",
      "constant": true
    },
    {
      "inputs": [],
      "name": "name",
      "outputs": [
        {
          "internalType": "string",
          "name": "",
          "type": "string"
        }
      ],
      "stateMutability": "view",
      "type": "function",
      "constant": true
    },
    {
      "inputs": [],
      "name": "next_ship_id",
      "outputs": [
        {
          "internalType": "uint256",
          "name": "",
          "type": "uint256"
        }
      ],
      "stateMutability": "view",
      "type": "function",
      "constant": true
    },
    {
      "inputs": [
        {
          "internalType": "uint256",
          "name": "tokenId",
          "type": "uint256"
        }
      ],
      "name": "ownerOf",
      "outputs": [
        {
          "internalType": "address",
          "name": "",
          "type": "address"
        }
      ],
      "stateMutability": "view",
      "type": "function",
      "constant": true
    },
    {
      "inputs": [
        {
          "internalType": "address",
          "name": "from",
          "type": "address"
        },
        {
          "internalType": "address",
          "name": "to",
          "type": "address"
        },
        {
          "internalType": "uint256",
          "name": "tokenId",
          "type": "uint256"
        }
      ],
      "name": "safeTransferFrom",
      "outputs": [],
      "stateMutability": "nonpayable",
      "type": "function"
    },
    {
      "inputs": [
        {
          "internalType": "address",
          "name": "from",
          "type": "address"
        },
        {
          "internalType": "address",
          "name": "to",
          "type": "address"
        },
        {
          "internalType": "uint256",
          "name": "tokenId",
          "type": "uint256"
        },
        {
          "internalType": "bytes",
          "name": "_data",
          "type": "bytes"
        }
      ],
      "name": "safeTransferFrom",
      "outputs": [],
      "stateMutability": "nonpayable",
      "type": "function"
    },
    {
      "inputs": [
        {
          "internalType": "address",
          "name": "operator",
          "type": "address"
        },
        {
          "internalType": "bool",
          "name": "approved",
          "type": "bool"
        }
      ],
      "name": "setApprovalForAll",
      "outputs": [],
      "stateMutability": "nonpayable",
      "type": "function"
    },
    {
      "inputs": [
        {
          "internalType": "bytes4",
          "name": "interfaceId",
          "type": "bytes4"
        }
      ],
      "name": "supportsInterface",
      "outputs": [
        {
          "internalType": "bool",
          "name": "",
          "type": "bool"
        }
      ],
      "stateMutability": "view",
      "type": "function",
      "constant": true
    },
    {
      "inputs": [],
      "name": "symbol",
      "outputs": [
        {
          "internalType": "string",
          "name": "",
          "type": "string"
        }
      ],
      "stateMutability": "view",
      "type": "function",
      "constant": true
    },
    {
      "inputs": [
        {
          "internalType": "uint256",
          "name": "index",
          "type": "uint256"
        }
      ],
      "name": "tokenByIndex",
      "outputs": [
        {
          "internalType": "uint256",
          "name": "",
          "type": "uint256"
        }
      ],
      "stateMutability": "view",
      "type": "function",
      "constant": true
    },
    {
      "inputs": [
        {
          "internalType": "address",
          "name": "owner",
          "type": "address"
        },
        {
          "internalType": "uint256",
          "name": "index",
          "type": "uint256"
        }
      ],
      "name": "tokenOfOwnerByIndex",
      "outputs": [
        {
          "internalType": "uint256",
          "name": "",
          "type": "uint256"
        }
      ],
      "stateMutability": "view",
      "type": "function",
      "constant": true
    },
    {
      "inputs": [
        {
          "internalType": "uint256",
          "name": "tokenId",
          "type": "uint256"
        }
      ],
      "name": "tokenURI",
      "outputs": [
        {
          "internalType": "string",
          "name": "",
          "type": "string"
        }
      ],
      "stateMutability": "view",
      "type": "function",
      "constant": true
    },
    {
      "inputs": [],
      "name": "totalSupply",
      "outputs": [
        {
          "internalType": "uint256",
          "name": "",
          "type": "uint256"
        }
      ],
      "stateMutability": "view",
      "type": "function",
      "constant": true
    },
    {
      "inputs": [
        {
          "internalType": "address",
          "name": "from",
          "type": "address"
        },
        {
          "internalType": "address",
          "name": "to",
          "type": "address"
        },
        {
          "internalType": "uint256",
          "name": "tokenId",
          "type": "uint256"
        }
      ],
      "name": "transferFrom",
      "outputs": [],
      "stateMutability": "nonpayable",
      "type": "function"
    },
    {
      "inputs": [
        {
          "internalType": "address",
          "name": "to",
          "type": "address"
        },
        {
          "internalType": "uint256",
          "name": "tokenId",
          "type": "uint256"
        }
      ],
      "name": "mintShip",
      "outputs": [],
      "stateMutability": "nonpayable",
      "type": "function"
    }
  ],
  "bytecode": "0x60806040523480156200001157600080fd5b506040518060400160405280601381526020017f46616e746f6d20506972617465732053686970000000000000000000000000008152506040518060400160405280600481526020017f7368697000000000000000000000000000000000000000000000000000000000815250816000908051906020019062000096929190620000b8565b508060019080519060200190620000af929190620000b8565b505050620001cd565b828054620000c69062000168565b90600052602060002090601f016020900481019282620000ea576000855562000136565b82601f106200010557805160ff191683800117855562000136565b8280016001018555821562000136579182015b828111156200013557825182559160200191906001019062000118565b5b50905062000145919062000149565b5090565b5b80821115620001645760008160009055506001016200014a565b5090565b600060028204905060018216806200018157607f821691505b602082108114156200019857620001976200019e565b5b50919050565b7f4e487b7100000000000000000000000000000000000000000000000000000000600052602260045260246000fd5b612e6480620001dd6000396000f3fe608060405234801561001057600080fd5b50600436106101165760003560e01c80634f6ccce7116100a257806395d89b411161007157806395d89b4114610305578063a22cb46514610323578063b88d4fde1461033f578063c87b56dd1461035b578063e985e9c51461038b57610116565b80634f6ccce7146102575780636352211e146102875780636604b7fa146102b757806370a08231146102d557610116565b806318160ddd116100e957806318160ddd146101b557806323b872dd146101d35780632f745c59146101ef578063367f682d1461021f57806342842e0e1461023b57610116565b806301ffc9a71461011b57806306fdde031461014b578063081812fc14610169578063095ea7b314610199575b600080fd5b61013560048036038101906101309190612028565b6103bb565b60405161014291906127ec565b60405180910390f35b610153610435565b6040516101609190612807565b60405180910390f35b610183600480360381019061017e919061207a565b6104c7565b6040516101909190612785565b60405180910390f35b6101b360048036038101906101ae9190611fec565b61054c565b005b6101bd610664565b6040516101ca9190612a29565b60405180910390f35b6101ed60048036038101906101e89190611ee6565b610671565b005b61020960048036038101906102049190611fec565b6106d1565b6040516102169190612a29565b60405180910390f35b61023960048036038101906102349190611fec565b610776565b005b61025560048036038101906102509190611ee6565b610784565b005b610271600480360381019061026c919061207a565b6107a4565b60405161027e9190612a29565b60405180910390f35b6102a1600480360381019061029c919061207a565b61083b565b6040516102ae9190612785565b60405180910390f35b6102bf6108ed565b6040516102cc9190612a29565b60405180910390f35b6102ef60048036038101906102ea9190611e81565b6108f3565b6040516102fc9190612a29565b60405180910390f35b61030d6109ab565b60405161031a9190612807565b60405180910390f35b61033d60048036038101906103389190611fb0565b610a3d565b005b61035960048036038101906103549190611f35565b610bbe565b005b6103756004803603810190610370919061207a565b610c20565b6040516103829190612807565b60405180910390f35b6103a560048036038101906103a09190611eaa565b610cc7565b6040516103b291906127ec565b60405180910390f35b60007f780e9d63000000000000000000000000000000000000000000000000000000007bffffffffffffffffffffffffffffffffffffffffffffffffffffffff1916827bffffffffffffffffffffffffffffffffffffffffffffffffffffffff1916148061042e575061042d82610d5b565b5b9050919050565b60606000805461044490612c59565b80601f016020809104026020016040519081016040528092919081815260200182805461047090612c59565b80156104bd5780601f10610492576101008083540402835291602001916104bd565b820191906000526020600020905b8154815290600101906020018083116104a057829003601f168201915b5050505050905090565b60006104d282610e3d565b610511576040517f08c379a000000000000000000000000000000000000000000000000000000000815260040161050890612969565b60405180910390fd5b6004600083815260200190815260200160002060009054906101000a900473ffffffffffffffffffffffffffffffffffffffff169050919050565b60006105578261083b565b90508073ffffffffffffffffffffffffffffffffffffffff168373ffffffffffffffffffffffffffffffffffffffff1614156105c8576040517f08c379a00000000000000000000000000000000000000000000000000000000081526004016105bf906129c9565b60405180910390fd5b8073ffffffffffffffffffffffffffffffffffffffff166105e7610ea9565b73ffffffffffffffffffffffffffffffffffffffff161480610616575061061581610610610ea9565b610cc7565b5b610655576040517f08c379a000000000000000000000000000000000000000000000000000000000815260040161064c906128e9565b60405180910390fd5b61065f8383610eb1565b505050565b6000600880549050905090565b61068261067c610ea9565b82610f6a565b6106c1576040517f08c379a00000000000000000000000000000000000000000000000000000000081526004016106b8906129e9565b60405180910390fd5b6106cc838383611048565b505050565b60006106dc836108f3565b821061071d576040517f08c379a000000000000000000000000000000000000000000000000000000000815260040161071490612829565b60405180910390fd5b600660008473ffffffffffffffffffffffffffffffffffffffff1673ffffffffffffffffffffffffffffffffffffffff168152602001908152602001600020600083815260200190815260200160002054905092915050565b61078082826112a4565b5050565b61079f83838360405180602001604052806000815250610bbe565b505050565b60006107ae610664565b82106107ef576040517f08c379a00000000000000000000000000000000000000000000000000000000081526004016107e690612a09565b60405180910390fd5b60088281548110610829577f4e487b7100000000000000000000000000000000000000000000000000000000600052603260045260246000fd5b90600052602060002001549050919050565b6000806002600084815260200190815260200160002060009054906101000a900473ffffffffffffffffffffffffffffffffffffffff169050600073ffffffffffffffffffffffffffffffffffffffff168173ffffffffffffffffffffffffffffffffffffffff1614156108e4576040517f08c379a00000000000000000000000000000000000000000000000000000000081526004016108db90612929565b60405180910390fd5b80915050919050565b600a5481565b60008073ffffffffffffffffffffffffffffffffffffffff168273ffffffffffffffffffffffffffffffffffffffff161415610964576040517f08c379a000000000000000000000000000000000000000000000000000000000815260040161095b90612909565b60405180910390fd5b600360008373ffffffffffffffffffffffffffffffffffffffff1673ffffffffffffffffffffffffffffffffffffffff168152602001908152602001600020549050919050565b6060600180546109ba90612c59565b80601f01602080910402602001604051908101604052809291908181526020018280546109e690612c59565b8015610a335780601f10610a0857610100808354040283529160200191610a33565b820191906000526020600020905b815481529060010190602001808311610a1657829003601f168201915b5050505050905090565b610a45610ea9565b73ffffffffffffffffffffffffffffffffffffffff168273ffffffffffffffffffffffffffffffffffffffff161415610ab3576040517f08c379a0000000000000000000000000000000000000000000000000000000008152600401610aaa906128a9565b60405180910390fd5b8060056000610ac0610ea9565b73ffffffffffffffffffffffffffffffffffffffff1673ffffffffffffffffffffffffffffffffffffffff16815260200190815260200160002060008473ffffffffffffffffffffffffffffffffffffffff1673ffffffffffffffffffffffffffffffffffffffff16815260200190815260200160002060006101000a81548160ff0219169083151502179055508173ffffffffffffffffffffffffffffffffffffffff16610b6d610ea9565b73ffffffffffffffffffffffffffffffffffffffff167f17307eab39ab6107e8899845ad3d59bd9653f200f220920489ca2b5937696c3183604051610bb291906127ec565b60405180910390a35050565b610bcf610bc9610ea9565b83610f6a565b610c0e576040517f08c379a0000000000000000000000000000000000000000000000000000000008152600401610c05906129e9565b60405180910390fd5b610c1a848484846112c2565b50505050565b6060610c2b82610e3d565b610c6a576040517f08c379a0000000000000000000000000000000000000000000000000000000008152600401610c61906129a9565b60405180910390fd5b6000610c7461131e565b90506000815111610c945760405180602001604052806000815250610cbf565b80610c9e84611335565b604051602001610caf929190612761565b6040516020818303038152906040525b915050919050565b6000600560008473ffffffffffffffffffffffffffffffffffffffff1673ffffffffffffffffffffffffffffffffffffffff16815260200190815260200160002060008373ffffffffffffffffffffffffffffffffffffffff1673ffffffffffffffffffffffffffffffffffffffff16815260200190815260200160002060009054906101000a900460ff16905092915050565b60007f80ac58cd000000000000000000000000000000000000000000000000000000007bffffffffffffffffffffffffffffffffffffffffffffffffffffffff1916827bffffffffffffffffffffffffffffffffffffffffffffffffffffffff19161480610e2657507f5b5e139f000000000000000000000000000000000000000000000000000000007bffffffffffffffffffffffffffffffffffffffffffffffffffffffff1916827bffffffffffffffffffffffffffffffffffffffffffffffffffffffff1916145b80610e365750610e35826114e2565b5b9050919050565b60008073ffffffffffffffffffffffffffffffffffffffff166002600084815260200190815260200160002060009054906101000a900473ffffffffffffffffffffffffffffffffffffffff1673ffffffffffffffffffffffffffffffffffffffff1614159050919050565b600033905090565b816004600083815260200190815260200160002060006101000a81548173ffffffffffffffffffffffffffffffffffffffff021916908373ffffffffffffffffffffffffffffffffffffffff160217905550808273ffffffffffffffffffffffffffffffffffffffff16610f248361083b565b73ffffffffffffffffffffffffffffffffffffffff167f8c5be1e5ebec7d5bd14f71427d1e84f3dd0314c0f7b2291e5b200ac8c7c3b92560405160405180910390a45050565b6000610f7582610e3d565b610fb4576040517f08c379a0000000000000000000000000000000000000000000000000000000008152600401610fab906128c9565b60405180910390fd5b6000610fbf8361083b565b90508073ffffffffffffffffffffffffffffffffffffffff168473ffffffffffffffffffffffffffffffffffffffff16148061102e57508373ffffffffffffffffffffffffffffffffffffffff16611016846104c7565b73ffffffffffffffffffffffffffffffffffffffff16145b8061103f575061103e8185610cc7565b5b91505092915050565b8273ffffffffffffffffffffffffffffffffffffffff166110688261083b565b73ffffffffffffffffffffffffffffffffffffffff16146110be576040517f08c379a00000000000000000000000000000000000000000000000000000000081526004016110b590612989565b60405180910390fd5b600073ffffffffffffffffffffffffffffffffffffffff168273ffffffffffffffffffffffffffffffffffffffff16141561112e576040517f08c379a000000000000000000000000000000000000000000000000000000000815260040161112590612889565b60405180910390fd5b61113983838361154c565b611144600082610eb1565b6001600360008573ffffffffffffffffffffffffffffffffffffffff1673ffffffffffffffffffffffffffffffffffffffff16815260200190815260200160002060008282546111949190612b6f565b925050819055506001600360008473ffffffffffffffffffffffffffffffffffffffff1673ffffffffffffffffffffffffffffffffffffffff16815260200190815260200160002060008282546111eb9190612ae8565b92505081905550816002600083815260200190815260200160002060006101000a81548173ffffffffffffffffffffffffffffffffffffffff021916908373ffffffffffffffffffffffffffffffffffffffff160217905550808273ffffffffffffffffffffffffffffffffffffffff168473ffffffffffffffffffffffffffffffffffffffff167fddf252ad1be2c89b69c2b068fc378daa952ba7f163c4a11628f55a4df523b3ef60405160405180910390a4505050565b6112be828260405180602001604052806000815250611660565b5050565b6112cd848484611048565b6112d9848484846116bb565b611318576040517f08c379a000000000000000000000000000000000000000000000000000000000815260040161130f90612849565b60405180910390fd5b50505050565b606060405180602001604052806000815250905090565b6060600082141561137d576040518060400160405280600181526020017f300000000000000000000000000000000000000000000000000000000000000081525090506114dd565b600082905060005b600082146113af57808061139890612c8b565b915050600a826113a89190612b3e565b9150611385565b60008167ffffffffffffffff8111156113f1577f4e487b7100000000000000000000000000000000000000000000000000000000600052604160045260246000fd5b6040519080825280601f01601f1916602001820160405280156114235781602001600182028036833780820191505090505b5090505b600085146114d65760018261143c9190612b6f565b9150600a8561144b9190612cd4565b60306114579190612ae8565b60f81b818381518110611493577f4e487b7100000000000000000000000000000000000000000000000000000000600052603260045260246000fd5b60200101907effffffffffffffffffffffffffffffffffffffffffffffffffffffffffffff1916908160001a905350600a856114cf9190612b3e565b9450611427565b8093505050505b919050565b60007f01ffc9a7000000000000000000000000000000000000000000000000000000007bffffffffffffffffffffffffffffffffffffffffffffffffffffffff1916827bffffffffffffffffffffffffffffffffffffffffffffffffffffffff1916149050919050565b611557838383611852565b600073ffffffffffffffffffffffffffffffffffffffff168373ffffffffffffffffffffffffffffffffffffffff16141561159a5761159581611857565b6115d9565b8173ffffffffffffffffffffffffffffffffffffffff168373ffffffffffffffffffffffffffffffffffffffff16146115d8576115d783826118a0565b5b5b600073ffffffffffffffffffffffffffffffffffffffff168273ffffffffffffffffffffffffffffffffffffffff16141561161c5761161781611a0d565b61165b565b8273ffffffffffffffffffffffffffffffffffffffff168273ffffffffffffffffffffffffffffffffffffffff161461165a576116598282611b50565b5b5b505050565b61166a8383611bcf565b61167760008484846116bb565b6116b6576040517f08c379a00000000000000000000000000000000000000000000000000000000081526004016116ad90612849565b60405180910390fd5b505050565b60006116dc8473ffffffffffffffffffffffffffffffffffffffff16611d9d565b15611845578373ffffffffffffffffffffffffffffffffffffffff1663150b7a02611705610ea9565b8786866040518563ffffffff1660e01b815260040161172794939291906127a0565b602060405180830381600087803b15801561174157600080fd5b505af192505050801561177257506040513d601f19601f8201168201806040525081019061176f9190612051565b60015b6117f5573d80600081146117a2576040519150601f19603f3d011682016040523d82523d6000602084013e6117a7565b606091505b506000815114156117ed576040517f08c379a00000000000000000000000000000000000000000000000000000000081526004016117e490612849565b60405180910390fd5b805181602001fd5b63150b7a0260e01b7bffffffffffffffffffffffffffffffffffffffffffffffffffffffff1916817bffffffffffffffffffffffffffffffffffffffffffffffffffffffff19161491505061184a565b600190505b949350505050565b505050565b6008805490506009600083815260200190815260200160002081905550600881908060018154018082558091505060019003906000526020600020016000909190919091505550565b600060016118ad846108f3565b6118b79190612b6f565b905060006007600084815260200190815260200160002054905081811461199c576000600660008673ffffffffffffffffffffffffffffffffffffffff1673ffffffffffffffffffffffffffffffffffffffff168152602001908152602001600020600084815260200190815260200160002054905080600660008773ffffffffffffffffffffffffffffffffffffffff1673ffffffffffffffffffffffffffffffffffffffff168152602001908152602001600020600084815260200190815260200160002081905550816007600083815260200190815260200160002081905550505b6007600084815260200190815260200160002060009055600660008573ffffffffffffffffffffffffffffffffffffffff1673ffffffffffffffffffffffffffffffffffffffff16815260200190815260200160002060008381526020019081526020016000206000905550505050565b60006001600880549050611a219190612b6f565b9050600060096000848152602001908152602001600020549050600060088381548110611a77577f4e487b7100000000000000000000000000000000000000000000000000000000600052603260045260246000fd5b906000526020600020015490508060088381548110611abf577f4e487b7100000000000000000000000000000000000000000000000000000000600052603260045260246000fd5b906000526020600020018190555081600960008381526020019081526020016000208190555060096000858152602001908152602001600020600090556008805480611b34577f4e487b7100000000000000000000000000000000000000000000000000000000600052603160045260246000fd5b6001900381819060005260206000200160009055905550505050565b6000611b5b836108f3565b905081600660008573ffffffffffffffffffffffffffffffffffffffff1673ffffffffffffffffffffffffffffffffffffffff168152602001908152602001600020600083815260200190815260200160002081905550806007600084815260200190815260200160002081905550505050565b600073ffffffffffffffffffffffffffffffffffffffff168273ffffffffffffffffffffffffffffffffffffffff161415611c3f576040517f08c379a0000000000000000000000000000000000000000000000000000000008152600401611c3690612949565b60405180910390fd5b611c4881610e3d565b15611c88576040517f08c379a0000000000000000000000000000000000000000000000000000000008152600401611c7f90612869565b60405180910390fd5b611c946000838361154c565b6001600360008473ffffffffffffffffffffffffffffffffffffffff1673ffffffffffffffffffffffffffffffffffffffff1681526020019081526020016000206000828254611ce49190612ae8565b92505081905550816002600083815260200190815260200160002060006101000a81548173ffffffffffffffffffffffffffffffffffffffff021916908373ffffffffffffffffffffffffffffffffffffffff160217905550808273ffffffffffffffffffffffffffffffffffffffff16600073ffffffffffffffffffffffffffffffffffffffff167fddf252ad1be2c89b69c2b068fc378daa952ba7f163c4a11628f55a4df523b3ef60405160405180910390a45050565b600080823b905060008111915050919050565b6000611dc3611dbe84612a75565b612a44565b905082815260208101848484011115611ddb57600080fd5b611de6848285612c17565b509392505050565b600081359050611dfd81612dd2565b92915050565b600081359050611e1281612de9565b92915050565b600081359050611e2781612e00565b92915050565b600081519050611e3c81612e00565b92915050565b600082601f830112611e5357600080fd5b8135611e63848260208601611db0565b91505092915050565b600081359050611e7b81612e17565b92915050565b600060208284031215611e9357600080fd5b6000611ea184828501611dee565b91505092915050565b60008060408385031215611ebd57600080fd5b6000611ecb85828601611dee565b9250506020611edc85828601611dee565b9150509250929050565b600080600060608486031215611efb57600080fd5b6000611f0986828701611dee565b9350506020611f1a86828701611dee565b9250506040611f2b86828701611e6c565b9150509250925092565b60008060008060808587031215611f4b57600080fd5b6000611f5987828801611dee565b9450506020611f6a87828801611dee565b9350506040611f7b87828801611e6c565b925050606085013567ffffffffffffffff811115611f9857600080fd5b611fa487828801611e42565b91505092959194509250565b60008060408385031215611fc357600080fd5b6000611fd185828601611dee565b9250506020611fe285828601611e03565b9150509250929050565b60008060408385031215611fff57600080fd5b600061200d85828601611dee565b925050602061201e85828601611e6c565b9150509250929050565b60006020828403121561203a57600080fd5b600061204884828501611e18565b91505092915050565b60006020828403121561206357600080fd5b600061207184828501611e2d565b91505092915050565b60006020828403121561208c57600080fd5b600061209a84828501611e6c565b91505092915050565b6120ac81612ba3565b82525050565b6120bb81612bb5565b82525050565b60006120cc82612aa5565b6120d68185612abb565b93506120e6818560208601612c26565b6120ef81612dc1565b840191505092915050565b600061210582612ab0565b61210f8185612acc565b935061211f818560208601612c26565b61212881612dc1565b840191505092915050565b600061213e82612ab0565b6121488185612add565b9350612158818560208601612c26565b80840191505092915050565b6000612171602b83612acc565b91507f455243373231456e756d657261626c653a206f776e657220696e646578206f7560008301527f74206f6620626f756e64730000000000000000000000000000000000000000006020830152604082019050919050565b60006121d7603283612acc565b91507f4552433732313a207472616e7366657220746f206e6f6e20455243373231526560008301527f63656976657220696d706c656d656e74657200000000000000000000000000006020830152604082019050919050565b600061223d601c83612acc565b91507f4552433732313a20746f6b656e20616c7265616479206d696e746564000000006000830152602082019050919050565b600061227d602483612acc565b91507f4552433732313a207472616e7366657220746f20746865207a65726f2061646460008301527f72657373000000000000000000000000000000000000000000000000000000006020830152604082019050919050565b60006122e3601983612acc565b91507f4552433732313a20617070726f766520746f2063616c6c6572000000000000006000830152602082019050919050565b6000612323602c83612acc565b91507f4552433732313a206f70657261746f7220717565727920666f72206e6f6e657860008301527f697374656e7420746f6b656e00000000000000000000000000000000000000006020830152604082019050919050565b6000612389603883612acc565b91507f4552433732313a20617070726f76652063616c6c6572206973206e6f74206f7760008301527f6e6572206e6f7220617070726f76656420666f7220616c6c00000000000000006020830152604082019050919050565b60006123ef602a83612acc565b91507f4552433732313a2062616c616e636520717565727920666f7220746865207a6560008301527f726f2061646472657373000000000000000000000000000000000000000000006020830152604082019050919050565b6000612455602983612acc565b91507f4552433732313a206f776e657220717565727920666f72206e6f6e657869737460008301527f656e7420746f6b656e00000000000000000000000000000000000000000000006020830152604082019050919050565b60006124bb602083612acc565b91507f4552433732313a206d696e7420746f20746865207a65726f20616464726573736000830152602082019050919050565b60006124fb602c83612acc565b91507f4552433732313a20617070726f76656420717565727920666f72206e6f6e657860008301527f697374656e7420746f6b656e00000000000000000000000000000000000000006020830152604082019050919050565b6000612561602983612acc565b91507f4552433732313a207472616e73666572206f6620746f6b656e2074686174206960008301527f73206e6f74206f776e00000000000000000000000000000000000000000000006020830152604082019050919050565b60006125c7602f83612acc565b91507f4552433732314d657461646174613a2055524920717565727920666f72206e6f60008301527f6e6578697374656e7420746f6b656e00000000000000000000000000000000006020830152604082019050919050565b600061262d602183612acc565b91507f4552433732313a20617070726f76616c20746f2063757272656e74206f776e6560008301527f72000000000000000000000000000000000000000000000000000000000000006020830152604082019050919050565b6000612693603183612acc565b91507f4552433732313a207472616e736665722063616c6c6572206973206e6f74206f60008301527f776e6572206e6f7220617070726f7665640000000000000000000000000000006020830152604082019050919050565b60006126f9602c83612acc565b91507f455243373231456e756d657261626c653a20676c6f62616c20696e646578206f60008301527f7574206f6620626f756e647300000000000000000000000000000000000000006020830152604082019050919050565b61275b81612c0d565b82525050565b600061276d8285612133565b91506127798284612133565b91508190509392505050565b600060208201905061279a60008301846120a3565b92915050565b60006080820190506127b560008301876120a3565b6127c260208301866120a3565b6127cf6040830185612752565b81810360608301526127e181846120c1565b905095945050505050565b600060208201905061280160008301846120b2565b92915050565b6000602082019050818103600083015261282181846120fa565b905092915050565b6000602082019050818103600083015261284281612164565b9050919050565b60006020820190508181036000830152612862816121ca565b9050919050565b6000602082019050818103600083015261288281612230565b9050919050565b600060208201905081810360008301526128a281612270565b9050919050565b600060208201905081810360008301526128c2816122d6565b9050919050565b600060208201905081810360008301526128e281612316565b9050919050565b600060208201905081810360008301526129028161237c565b9050919050565b60006020820190508181036000830152612922816123e2565b9050919050565b6000602082019050818103600083015261294281612448565b9050919050565b60006020820190508181036000830152612962816124ae565b9050919050565b60006020820190508181036000830152612982816124ee565b9050919050565b600060208201905081810360008301526129a281612554565b9050919050565b600060208201905081810360008301526129c2816125ba565b9050919050565b600060208201905081810360008301526129e281612620565b9050919050565b60006020820190508181036000830152612a0281612686565b9050919050565b60006020820190508181036000830152612a22816126ec565b9050919050565b6000602082019050612a3e6000830184612752565b92915050565b6000604051905081810181811067ffffffffffffffff82111715612a6b57612a6a612d92565b5b8060405250919050565b600067ffffffffffffffff821115612a9057612a8f612d92565b5b601f19601f8301169050602081019050919050565b600081519050919050565b600081519050919050565b600082825260208201905092915050565b600082825260208201905092915050565b600081905092915050565b6000612af382612c0d565b9150612afe83612c0d565b9250827fffffffffffffffffffffffffffffffffffffffffffffffffffffffffffffffff03821115612b3357612b32612d05565b5b828201905092915050565b6000612b4982612c0d565b9150612b5483612c0d565b925082612b6457612b63612d34565b5b828204905092915050565b6000612b7a82612c0d565b9150612b8583612c0d565b925082821015612b9857612b97612d05565b5b828203905092915050565b6000612bae82612bed565b9050919050565b60008115159050919050565b60007fffffffff0000000000000000000000000000000000000000000000000000000082169050919050565b600073ffffffffffffffffffffffffffffffffffffffff82169050919050565b6000819050919050565b82818337600083830152505050565b60005b83811015612c44578082015181840152602081019050612c29565b83811115612c53576000848401525b50505050565b60006002820490506001821680612c7157607f821691505b60208210811415612c8557612c84612d63565b5b50919050565b6000612c9682612c0d565b91507fffffffffffffffffffffffffffffffffffffffffffffffffffffffffffffffff821415612cc957612cc8612d05565b5b600182019050919050565b6000612cdf82612c0d565b9150612cea83612c0d565b925082612cfa57612cf9612d34565b5b828206905092915050565b7f4e487b7100000000000000000000000000000000000000000000000000000000600052601160045260246000fd5b7f4e487b7100000000000000000000000000000000000000000000000000000000600052601260045260246000fd5b7f4e487b7100000000000000000000000000000000000000000000000000000000600052602260045260246000fd5b7f4e487b7100000000000000000000000000000000000000000000000000000000600052604160045260246000fd5b6000601f19601f8301169050919050565b612ddb81612ba3565b8114612de657600080fd5b50565b612df281612bb5565b8114612dfd57600080fd5b50565b612e0981612bc1565b8114612e1457600080fd5b50565b612e2081612c0d565b8114612e2b57600080fd5b5056fea26469706673582212203577cdf3117f5a77adc3cccc95d352c84a669b499e06e31df0df51f688c8c82864736f6c63430008000033",
  "immutableReferences": {},
  "source": "// SPDX-License-Identifier: MIT\npragma solidity ^0.8.0;\n\nimport \"@openzeppelin/contracts/token/ERC721/extensions/ERC721Enumerable.sol\";\n\ncontract FantomPiratesShip is ERC721Enumerable {\n\n  uint public next_ship_id;\n\n  constructor() ERC721(\"Fantom Pirates Ship\", \"ship\") { }\n  \n  function mintShip(address to, uint tokenId) external {\n    _safeMint(to, tokenId);\n  }\n}\n",
  "sourcePath": "/Users/joshuacotterell/Documents/Blockchain/Projects/FantomPirates/src/blockchain/contracts/FantomPiratesShip.sol",
  "compiler": {
    "name": "solc",
    "version": "0.8.0+commit.c7dfd78e.Emscripten.clang"
  },
  "schemaVersion": "3.3.4",
  "updatedAt": "2021-10-27T16:37:37.198Z",
  "networkType": "ethereum",
  "devdoc": {
    "kind": "dev",
    "methods": {
      "approve(address,uint256)": {
        "details": "See {IERC721-approve}."
      },
      "balanceOf(address)": {
        "details": "See {IERC721-balanceOf}."
      },
      "getApproved(uint256)": {
        "details": "See {IERC721-getApproved}."
      },
      "isApprovedForAll(address,address)": {
        "details": "See {IERC721-isApprovedForAll}."
      },
      "name()": {
        "details": "See {IERC721Metadata-name}."
      },
      "ownerOf(uint256)": {
        "details": "See {IERC721-ownerOf}."
      },
      "safeTransferFrom(address,address,uint256)": {
        "details": "See {IERC721-safeTransferFrom}."
      },
      "safeTransferFrom(address,address,uint256,bytes)": {
        "details": "See {IERC721-safeTransferFrom}."
      },
      "setApprovalForAll(address,bool)": {
        "details": "See {IERC721-setApprovalForAll}."
      },
      "supportsInterface(bytes4)": {
        "details": "See {IERC165-supportsInterface}."
      },
      "symbol()": {
        "details": "See {IERC721Metadata-symbol}."
      },
      "tokenByIndex(uint256)": {
        "details": "See {IERC721Enumerable-tokenByIndex}."
      },
      "tokenOfOwnerByIndex(address,uint256)": {
        "details": "See {IERC721Enumerable-tokenOfOwnerByIndex}."
      },
      "tokenURI(uint256)": {
        "details": "See {IERC721Metadata-tokenURI}."
      },
      "totalSupply()": {
        "details": "See {IERC721Enumerable-totalSupply}."
      },
      "transferFrom(address,address,uint256)": {
        "details": "See {IERC721-transferFrom}."
      }
    },
    "version": 1
  },
  "userdoc": {
    "kind": "user",
    "methods": {},
    "version": 1
  }
}