{
  "contractName": "FantomPiratesGame",
  "abi": [
    {
      "inputs": [
        {
          "internalType": "address",
          "name": "_ship_contract_address",
          "type": "address"
        }
      ],
      "stateMutability": "nonpayable",
      "type": "constructor"
    },
    {
      "anonymous": false,
      "inputs": [
        {
          "indexed": true,
          "internalType": "address",
          "name": "owner",
          "type": "address"
        },
        {
          "indexed": true,
          "internalType": "address",
          "name": "approved",
          "type": "address"
        },
        {
          "indexed": true,
          "internalType": "uint256",
          "name": "tokenId",
          "type": "uint256"
        }
      ],
      "name": "Approval",
      "type": "event"
    },
    {
      "anonymous": false,
      "inputs": [
        {
          "indexed": true,
          "internalType": "address",
          "name": "owner",
          "type": "address"
        },
        {
          "indexed": true,
          "internalType": "address",
          "name": "operator",
          "type": "address"
        },
        {
          "indexed": false,
          "internalType": "bool",
          "name": "approved",
          "type": "bool"
        }
      ],
      "name": "ApprovalForAll",
      "type": "event"
    },
    {
      "anonymous": false,
      "inputs": [
        {
          "indexed": true,
          "internalType": "address",
          "name": "owner",
          "type": "address"
        },
        {
          "indexed": false,
          "internalType": "uint256",
          "name": "level",
          "type": "uint256"
        },
        {
          "indexed": false,
          "internalType": "uint256",
          "name": "id",
          "type": "uint256"
        }
      ],
      "name": "Leveled",
      "type": "event"
    },
    {
      "anonymous": false,
      "inputs": [
        {
          "indexed": true,
          "internalType": "address",
          "name": "owner",
          "type": "address"
        },
        {
          "indexed": false,
          "internalType": "uint256",
          "name": "pirate_id",
          "type": "uint256"
        }
      ],
      "name": "PirateCreated",
      "type": "event"
    },
    {
      "anonymous": false,
      "inputs": [
        {
          "indexed": true,
          "internalType": "address",
          "name": "owner",
          "type": "address"
        },
        {
          "indexed": false,
          "internalType": "uint256",
          "name": "ship_id",
          "type": "uint256"
        }
      ],
      "name": "ShipCreated",
      "type": "event"
    },
    {
      "anonymous": false,
      "inputs": [
        {
          "indexed": true,
          "internalType": "address",
          "name": "from",
          "type": "address"
        },
        {
          "indexed": true,
          "internalType": "address",
          "name": "to",
          "type": "address"
        },
        {
          "indexed": true,
          "internalType": "uint256",
          "name": "tokenId",
          "type": "uint256"
        }
      ],
      "name": "Transfer",
      "type": "event"
    },
    {
      "inputs": [],
      "name": "_gold_contract",
      "outputs": [
        {
          "internalType": "contract ERC20",
          "name": "",
          "type": "address"
        }
      ],
      "stateMutability": "view",
      "type": "function"
    },
    {
      "inputs": [],
      "name": "_ships_contract",
      "outputs": [
        {
          "internalType": "contract FantomPiratesShip",
          "name": "",
          "type": "address"
        }
      ],
      "stateMutability": "view",
      "type": "function"
    },
    {
      "inputs": [
        {
          "internalType": "address",
          "name": "to",
          "type": "address"
        },
        {
          "internalType": "uint256",
          "name": "tokenId",
          "type": "uint256"
        }
      ],
      "name": "approve",
      "outputs": [],
      "stateMutability": "nonpayable",
      "type": "function"
    },
    {
      "inputs": [
        {
          "internalType": "address",
          "name": "owner",
          "type": "address"
        }
      ],
      "name": "balanceOf",
      "outputs": [
        {
          "internalType": "uint256",
          "name": "",
          "type": "uint256"
        }
      ],
      "stateMutability": "view",
      "type": "function"
    },
    {
      "inputs": [
        {
          "internalType": "uint256",
          "name": "tokenId",
          "type": "uint256"
        }
      ],
      "name": "getApproved",
      "outputs": [
        {
          "internalType": "address",
          "name": "",
          "type": "address"
        }
      ],
      "stateMutability": "view",
      "type": "function"
    },
    {
      "inputs": [
        {
          "internalType": "address",
          "name": "owner",
          "type": "address"
        },
        {
          "internalType": "address",
          "name": "operator",
          "type": "address"
        }
      ],
      "name": "isApprovedForAll",
      "outputs": [
        {
          "internalType": "bool",
          "name": "",
          "type": "bool"
        }
      ],
      "stateMutability": "view",
      "type": "function"
    },
    {
      "inputs": [
        {
          "internalType": "uint256",
          "name": "",
          "type": "uint256"
        }
      ],
      "name": "level",
      "outputs": [
        {
          "internalType": "uint256",
          "name": "",
          "type": "uint256"
        }
      ],
      "stateMutability": "view",
      "type": "function"
    },
    {
      "inputs": [],
      "name": "name",
      "outputs": [
        {
          "internalType": "string",
          "name": "",
          "type": "string"
        }
      ],
      "stateMutability": "view",
      "type": "function"
    },
    {
      "inputs": [],
      "name": "next_pirate_id",
      "outputs": [
        {
          "internalType": "uint256",
          "name": "",
          "type": "uint256"
        }
      ],
      "stateMutability": "view",
      "type": "function"
    },
    {
      "inputs": [],
      "name": "next_ship_id",
      "outputs": [
        {
          "internalType": "uint256",
          "name": "",
          "type": "uint256"
        }
      ],
      "stateMutability": "view",
      "type": "function"
    },
    {
      "inputs": [],
      "name": "owner",
      "outputs": [
        {
          "internalType": "address",
          "name": "",
          "type": "address"
        }
      ],
      "stateMutability": "view",
      "type": "function"
    },
    {
      "inputs": [
        {
          "internalType": "uint256",
          "name": "tokenId",
          "type": "uint256"
        }
      ],
      "name": "ownerOf",
      "outputs": [
        {
          "internalType": "address",
          "name": "",
          "type": "address"
        }
      ],
      "stateMutability": "view",
      "type": "function"
    },
    {
      "inputs": [
        {
          "internalType": "uint256",
          "name": "",
          "type": "uint256"
        }
      ],
      "name": "quests_log",
      "outputs": [
        {
          "internalType": "uint256",
          "name": "",
          "type": "uint256"
        }
      ],
      "stateMutability": "view",
      "type": "function"
    },
    {
      "inputs": [
        {
          "internalType": "address",
          "name": "from",
          "type": "address"
        },
        {
          "internalType": "address",
          "name": "to",
          "type": "address"
        },
        {
          "internalType": "uint256",
          "name": "tokenId",
          "type": "uint256"
        }
      ],
      "name": "safeTransferFrom",
      "outputs": [],
      "stateMutability": "nonpayable",
      "type": "function"
    },
    {
      "inputs": [
        {
          "internalType": "address",
          "name": "from",
          "type": "address"
        },
        {
          "internalType": "address",
          "name": "to",
          "type": "address"
        },
        {
          "internalType": "uint256",
          "name": "tokenId",
          "type": "uint256"
        },
        {
          "internalType": "bytes",
          "name": "_data",
          "type": "bytes"
        }
      ],
      "name": "safeTransferFrom",
      "outputs": [],
      "stateMutability": "nonpayable",
      "type": "function"
    },
    {
      "inputs": [
        {
          "internalType": "address",
          "name": "operator",
          "type": "address"
        },
        {
          "internalType": "bool",
          "name": "approved",
          "type": "bool"
        }
      ],
      "name": "setApprovalForAll",
      "outputs": [],
      "stateMutability": "nonpayable",
      "type": "function"
    },
    {
      "inputs": [
        {
          "internalType": "uint256",
          "name": "",
          "type": "uint256"
        }
      ],
      "name": "ship",
      "outputs": [
        {
          "internalType": "uint256",
          "name": "",
          "type": "uint256"
        }
      ],
      "stateMutability": "view",
      "type": "function"
    },
    {
      "inputs": [
        {
          "internalType": "bytes4",
          "name": "interfaceId",
          "type": "bytes4"
        }
      ],
      "name": "supportsInterface",
      "outputs": [
        {
          "internalType": "bool",
          "name": "",
          "type": "bool"
        }
      ],
      "stateMutability": "view",
      "type": "function"
    },
    {
      "inputs": [],
      "name": "symbol",
      "outputs": [
        {
          "internalType": "string",
          "name": "",
          "type": "string"
        }
      ],
      "stateMutability": "view",
      "type": "function"
    },
    {
      "inputs": [
        {
          "internalType": "uint256",
          "name": "index",
          "type": "uint256"
        }
      ],
      "name": "tokenByIndex",
      "outputs": [
        {
          "internalType": "uint256",
          "name": "",
          "type": "uint256"
        }
      ],
      "stateMutability": "view",
      "type": "function"
    },
    {
      "inputs": [
        {
          "internalType": "address",
          "name": "owner",
          "type": "address"
        },
        {
          "internalType": "uint256",
          "name": "index",
          "type": "uint256"
        }
      ],
      "name": "tokenOfOwnerByIndex",
      "outputs": [
        {
          "internalType": "uint256",
          "name": "",
          "type": "uint256"
        }
      ],
      "stateMutability": "view",
      "type": "function"
    },
    {
      "inputs": [
        {
          "internalType": "uint256",
          "name": "tokenId",
          "type": "uint256"
        }
      ],
      "name": "tokenURI",
      "outputs": [
        {
          "internalType": "string",
          "name": "",
          "type": "string"
        }
      ],
      "stateMutability": "view",
      "type": "function"
    },
    {
      "inputs": [],
      "name": "totalSupply",
      "outputs": [
        {
          "internalType": "uint256",
          "name": "",
          "type": "uint256"
        }
      ],
      "stateMutability": "view",
      "type": "function"
    },
    {
      "inputs": [
        {
          "internalType": "address",
          "name": "from",
          "type": "address"
        },
        {
          "internalType": "address",
          "name": "to",
          "type": "address"
        },
        {
          "internalType": "uint256",
          "name": "tokenId",
          "type": "uint256"
        }
      ],
      "name": "transferFrom",
      "outputs": [],
      "stateMutability": "nonpayable",
      "type": "function"
    },
    {
      "inputs": [
        {
          "internalType": "uint256",
          "name": "",
          "type": "uint256"
        }
      ],
      "name": "xp",
      "outputs": [
        {
          "internalType": "uint256",
          "name": "",
          "type": "uint256"
        }
      ],
      "stateMutability": "view",
      "type": "function"
    },
    {
      "inputs": [],
      "name": "mintPirate",
      "outputs": [],
      "stateMutability": "payable",
      "type": "function"
    },
    {
      "inputs": [
        {
          "internalType": "uint256",
          "name": "_pirate_id",
          "type": "uint256"
        }
      ],
      "name": "mintShip",
      "outputs": [],
      "stateMutability": "payable",
      "type": "function"
    },
    {
      "inputs": [
        {
          "internalType": "uint256",
          "name": "_pirate_id",
          "type": "uint256"
        }
      ],
      "name": "doQuest",
      "outputs": [],
      "stateMutability": "payable",
      "type": "function"
    }
  ],
  "bytecode": "0x608060405233600a60006101000a81548173ffffffffffffffffffffffffffffffffffffffff021916908373ffffffffffffffffffffffffffffffffffffffff1602179055506001600b556001600c553480156200005c57600080fd5b5060405162003ba438038062003ba4833981810160405281019062000082919062000231565b6040518060400160405280600e81526020017f46616e746f6d20506972617465730000000000000000000000000000000000008152506040518060400160405280600281526020017f46500000000000000000000000000000000000000000000000000000000000008152508160009080519060200190620001069291906200016a565b5080600190805190602001906200011f9291906200016a565b50505080601160006101000a81548173ffffffffffffffffffffffffffffffffffffffff021916908373ffffffffffffffffffffffffffffffffffffffff1602179055505062000310565b828054620001789062000291565b90600052602060002090601f0160209004810192826200019c5760008555620001e8565b82601f10620001b757805160ff1916838001178555620001e8565b82800160010185558215620001e8579182015b82811115620001e7578251825591602001919060010190620001ca565b5b509050620001f79190620001fb565b5090565b5b8082111562000216576000816000905550600101620001fc565b5090565b6000815190506200022b81620002f6565b92915050565b6000602082840312156200024457600080fd5b600062000254848285016200021a565b91505092915050565b60006200026a8262000271565b9050919050565b600073ffffffffffffffffffffffffffffffffffffffff82169050919050565b60006002820490506001821680620002aa57607f821691505b60208210811415620002c157620002c0620002c7565b5b50919050565b7f4e487b7100000000000000000000000000000000000000000000000000000000600052602260045260246000fd5b62000301816200025d565b81146200030d57600080fd5b50565b61388480620003206000396000f3fe6080604052600436106101b75760003560e01c80636352211e116100ec578063a22cb4651161008a578063c87b56dd11610064578063c87b56dd1461065f578063cec8603e1461069c578063e985e9c5146106a6578063efce079e146106e3576101b7565b8063a22cb465146105e2578063b88d4fde1461060b578063b9c831d114610634576101b7565b80638da5cb5b116100c65780638da5cb5b1461053357806393407afe1461055e57806394b69ffa1461057a57806395d89b41146105b7576101b7565b80636352211e1461048e5780636604b7fa146104cb57806370a08231146104f6576101b7565b8063244f643b1161015957806342842e0e1161013357806342842e0e146103d2578063474758a2146103fb5780634f6ccce7146104265780634fd0e8f614610463576101b7565b8063244f643b1461031b5780632f745c59146103585780633e3962f414610395576101b7565b8063081812fc11610195578063081812fc14610261578063095ea7b31461029e57806318160ddd146102c757806323b872dd146102f2576101b7565b806301ffc9a7146101bc57806305c58df2146101f957806306fdde0314610236575b600080fd5b3480156101c857600080fd5b506101e360048036038101906101de919061276b565b6106ff565b6040516101f0919061310e565b60405180910390f35b34801561020557600080fd5b50610220600480360381019061021b91906127bd565b610779565b60405161022d9190613401565b60405180910390f35b34801561024257600080fd5b5061024b610791565b604051610258919061315f565b60405180910390f35b34801561026d57600080fd5b50610288600480360381019061028391906127bd565b610823565b604051610295919061307e565b60405180910390f35b3480156102aa57600080fd5b506102c560048036038101906102c0919061272f565b6108a8565b005b3480156102d357600080fd5b506102dc6109c0565b6040516102e99190613401565b60405180910390f35b3480156102fe57600080fd5b5061031960048036038101906103149190612629565b6109cd565b005b34801561032757600080fd5b50610342600480360381019061033d91906127bd565b610a2d565b60405161034f9190613401565b60405180910390f35b34801561036457600080fd5b5061037f600480360381019061037a919061272f565b610a45565b60405161038c9190613401565b60405180910390f35b3480156103a157600080fd5b506103bc60048036038101906103b791906127bd565b610aea565b6040516103c99190613401565b60405180910390f35b3480156103de57600080fd5b506103f960048036038101906103f49190612629565b610b02565b005b34801561040757600080fd5b50610410610b22565b60405161041d9190613144565b60405180910390f35b34801561043257600080fd5b5061044d600480360381019061044891906127bd565b610b48565b60405161045a9190613401565b60405180910390f35b34801561046f57600080fd5b50610478610bdf565b6040516104859190613401565b60405180910390f35b34801561049a57600080fd5b506104b560048036038101906104b091906127bd565b610be5565b6040516104c2919061307e565b60405180910390f35b3480156104d757600080fd5b506104e0610c97565b6040516104ed9190613401565b60405180910390f35b34801561050257600080fd5b5061051d600480360381019061051891906125c4565b610c9d565b60405161052a9190613401565b60405180910390f35b34801561053f57600080fd5b50610548610d55565b604051610555919061307e565b60405180910390f35b610578600480360381019061057391906127bd565b610d7b565b005b34801561058657600080fd5b506105a1600480360381019061059c91906127bd565b610f9d565b6040516105ae9190613401565b60405180910390f35b3480156105c357600080fd5b506105cc610fb5565b6040516105d9919061315f565b60405180910390f35b3480156105ee57600080fd5b50610609600480360381019061060491906126f3565b611047565b005b34801561061757600080fd5b50610632600480360381019061062d9190612678565b6111c8565b005b34801561064057600080fd5b5061064961122a565b6040516106569190613129565b60405180910390f35b34801561066b57600080fd5b50610686600480360381019061068191906127bd565b611250565b604051610693919061315f565b60405180910390f35b6106a46112f7565b005b3480156106b257600080fd5b506106cd60048036038101906106c891906125ed565b6113ee565b6040516106da919061310e565b60405180910390f35b6106fd60048036038101906106f891906127bd565b611482565b005b60007f780e9d63000000000000000000000000000000000000000000000000000000007bffffffffffffffffffffffffffffffffffffffffffffffffffffffff1916827bffffffffffffffffffffffffffffffffffffffffffffffffffffffff1916148061077257506107718261149e565b5b9050919050565b600d6020528060005260406000206000915090505481565b6060600080546107a090613679565b80601f01602080910402602001604051908101604052809291908181526020018280546107cc90613679565b80156108195780601f106107ee57610100808354040283529160200191610819565b820191906000526020600020905b8154815290600101906020018083116107fc57829003601f168201915b5050505050905090565b600061082e82611580565b61086d576040517f08c379a000000000000000000000000000000000000000000000000000000000815260040161086490613341565b60405180910390fd5b6004600083815260200190815260200160002060009054906101000a900473ffffffffffffffffffffffffffffffffffffffff169050919050565b60006108b382610be5565b90508073ffffffffffffffffffffffffffffffffffffffff168373ffffffffffffffffffffffffffffffffffffffff161415610924576040517f08c379a000000000000000000000000000000000000000000000000000000000815260040161091b906133a1565b60405180910390fd5b8073ffffffffffffffffffffffffffffffffffffffff166109436115ec565b73ffffffffffffffffffffffffffffffffffffffff16148061097257506109718161096c6115ec565b6113ee565b5b6109b1576040517f08c379a00000000000000000000000000000000000000000000000000000000081526004016109a8906132a1565b60405180910390fd5b6109bb83836115f4565b505050565b6000600880549050905090565b6109de6109d86115ec565b826116ad565b610a1d576040517f08c379a0000000000000000000000000000000000000000000000000000000008152600401610a14906133c1565b60405180910390fd5b610a2883838361178b565b505050565b60106020528060005260406000206000915090505481565b6000610a5083610c9d565b8210610a91576040517f08c379a0000000000000000000000000000000000000000000000000000000008152600401610a88906131a1565b60405180910390fd5b600660008473ffffffffffffffffffffffffffffffffffffffff1673ffffffffffffffffffffffffffffffffffffffff168152602001908152602001600020600083815260200190815260200160002054905092915050565b600f6020528060005260406000206000915090505481565b610b1d838383604051806020016040528060008152506111c8565b505050565b601160009054906101000a900473ffffffffffffffffffffffffffffffffffffffff1681565b6000610b526109c0565b8210610b93576040517f08c379a0000000000000000000000000000000000000000000000000000000008152600401610b8a906133e1565b60405180910390fd5b60088281548110610bcd577f4e487b7100000000000000000000000000000000000000000000000000000000600052603260045260246000fd5b90600052602060002001549050919050565b600b5481565b6000806002600084815260200190815260200160002060009054906101000a900473ffffffffffffffffffffffffffffffffffffffff169050600073ffffffffffffffffffffffffffffffffffffffff168173ffffffffffffffffffffffffffffffffffffffff161415610c8e576040517f08c379a0000000000000000000000000000000000000000000000000000000008152600401610c85906132e1565b60405180910390fd5b80915050919050565b600c5481565b60008073ffffffffffffffffffffffffffffffffffffffff168273ffffffffffffffffffffffffffffffffffffffff161415610d0e576040517f08c379a0000000000000000000000000000000000000000000000000000000008152600401610d05906132c1565b60405180910390fd5b600360008373ffffffffffffffffffffffffffffffffffffffff1673ffffffffffffffffffffffffffffffffffffffff168152602001908152602001600020549050919050565b600a60009054906101000a900473ffffffffffffffffffffffffffffffffffffffff1681565b6000600c5490506000610d8d33610c9d565b905060008314158015610da05750600081115b610ddf576040517f08c379a0000000000000000000000000000000000000000000000000000000008152600401610dd690613201565b60405180910390fd5b6000601060008581526020019081526020016000205414610e35576040517f08c379a0000000000000000000000000000000000000000000000000000000008152600401610e2c90613301565b60405180910390fd5b6001600d60008581526020019081526020016000205411610e8b576040517f08c379a0000000000000000000000000000000000000000000000000000000008152600401610e8290613261565b60405180910390fd5b816010600085815260200190815260200160002081905550601160009054906101000a900473ffffffffffffffffffffffffffffffffffffffff1673ffffffffffffffffffffffffffffffffffffffff1663367f682d33846040518363ffffffff1660e01b8152600401610f009291906130e5565b600060405180830381600087803b158015610f1a57600080fd5b505af1158015610f2e573d6000803e3d6000fd5b505050503373ffffffffffffffffffffffffffffffffffffffff167f423ae04b472429d194e9eaab6ef6b34f42a353ef907309a5aefdbfdaae19222d83604051610f789190613401565b60405180910390a2600c6000815480929190610f93906136ab565b9190505550505050565b600e6020528060005260406000206000915090505481565b606060018054610fc490613679565b80601f0160208091040260200160405190810160405280929190818152602001828054610ff090613679565b801561103d5780601f106110125761010080835404028352916020019161103d565b820191906000526020600020905b81548152906001019060200180831161102057829003601f168201915b5050505050905090565b61104f6115ec565b73ffffffffffffffffffffffffffffffffffffffff168273ffffffffffffffffffffffffffffffffffffffff1614156110bd576040517f08c379a00000000000000000000000000000000000000000000000000000000081526004016110b490613241565b60405180910390fd5b80600560006110ca6115ec565b73ffffffffffffffffffffffffffffffffffffffff1673ffffffffffffffffffffffffffffffffffffffff16815260200190815260200160002060008473ffffffffffffffffffffffffffffffffffffffff1673ffffffffffffffffffffffffffffffffffffffff16815260200190815260200160002060006101000a81548160ff0219169083151502179055508173ffffffffffffffffffffffffffffffffffffffff166111776115ec565b73ffffffffffffffffffffffffffffffffffffffff167f17307eab39ab6107e8899845ad3d59bd9653f200f220920489ca2b5937696c31836040516111bc919061310e565b60405180910390a35050565b6111d96111d36115ec565b836116ad565b611218576040517f08c379a000000000000000000000000000000000000000000000000000000000815260040161120f906133c1565b60405180910390fd5b611224848484846119e7565b50505050565b601260009054906101000a900473ffffffffffffffffffffffffffffffffffffffff1681565b606061125b82611580565b61129a576040517f08c379a000000000000000000000000000000000000000000000000000000000815260040161129190613381565b60405180910390fd5b60006112a4611a43565b905060008151116112c457604051806020016040528060008152506112ef565b806112ce84611a5a565b6040516020016112df92919061305a565b6040516020818303038152906040525b915050919050565b6000600b549050600a61130933610c9d565b10611349576040517f08c379a000000000000000000000000000000000000000000000000000000000815260040161134090613181565b60405180910390fd5b6001600d600083815260200190815260200160002081905550600060106000838152602001908152602001600020819055506113853382611c07565b3373ffffffffffffffffffffffffffffffffffffffff167f681489e2a7c535074cf6a8d776661658c4f160233183873f351e974adbc314ce826040516113cb9190613401565b60405180910390a2600b60008154809291906113e6906136ab565b919050555050565b6000600560008473ffffffffffffffffffffffffffffffffffffffff1673ffffffffffffffffffffffffffffffffffffffff16815260200190815260200160002060008373ffffffffffffffffffffffffffffffffffffffff1673ffffffffffffffffffffffffffffffffffffffff16815260200190815260200160002060009054906101000a900460ff16905092915050565b6002600d60008381526020019081526020016000208190555050565b60007f80ac58cd000000000000000000000000000000000000000000000000000000007bffffffffffffffffffffffffffffffffffffffffffffffffffffffff1916827bffffffffffffffffffffffffffffffffffffffffffffffffffffffff1916148061156957507f5b5e139f000000000000000000000000000000000000000000000000000000007bffffffffffffffffffffffffffffffffffffffffffffffffffffffff1916827bffffffffffffffffffffffffffffffffffffffffffffffffffffffff1916145b80611579575061157882611c25565b5b9050919050565b60008073ffffffffffffffffffffffffffffffffffffffff166002600084815260200190815260200160002060009054906101000a900473ffffffffffffffffffffffffffffffffffffffff1673ffffffffffffffffffffffffffffffffffffffff1614159050919050565b600033905090565b816004600083815260200190815260200160002060006101000a81548173ffffffffffffffffffffffffffffffffffffffff021916908373ffffffffffffffffffffffffffffffffffffffff160217905550808273ffffffffffffffffffffffffffffffffffffffff1661166783610be5565b73ffffffffffffffffffffffffffffffffffffffff167f8c5be1e5ebec7d5bd14f71427d1e84f3dd0314c0f7b2291e5b200ac8c7c3b92560405160405180910390a45050565b60006116b882611580565b6116f7576040517f08c379a00000000000000000000000000000000000000000000000000000000081526004016116ee90613281565b60405180910390fd5b600061170283610be5565b90508073ffffffffffffffffffffffffffffffffffffffff168473ffffffffffffffffffffffffffffffffffffffff16148061177157508373ffffffffffffffffffffffffffffffffffffffff1661175984610823565b73ffffffffffffffffffffffffffffffffffffffff16145b80611782575061178181856113ee565b5b91505092915050565b8273ffffffffffffffffffffffffffffffffffffffff166117ab82610be5565b73ffffffffffffffffffffffffffffffffffffffff1614611801576040517f08c379a00000000000000000000000000000000000000000000000000000000081526004016117f890613361565b60405180910390fd5b600073ffffffffffffffffffffffffffffffffffffffff168273ffffffffffffffffffffffffffffffffffffffff161415611871576040517f08c379a000000000000000000000000000000000000000000000000000000000815260040161186890613221565b60405180910390fd5b61187c838383611c8f565b6118876000826115f4565b6001600360008573ffffffffffffffffffffffffffffffffffffffff1673ffffffffffffffffffffffffffffffffffffffff16815260200190815260200160002060008282546118d79190613547565b925050819055506001600360008473ffffffffffffffffffffffffffffffffffffffff1673ffffffffffffffffffffffffffffffffffffffff168152602001908152602001600020600082825461192e91906134c0565b92505081905550816002600083815260200190815260200160002060006101000a81548173ffffffffffffffffffffffffffffffffffffffff021916908373ffffffffffffffffffffffffffffffffffffffff160217905550808273ffffffffffffffffffffffffffffffffffffffff168473ffffffffffffffffffffffffffffffffffffffff167fddf252ad1be2c89b69c2b068fc378daa952ba7f163c4a11628f55a4df523b3ef60405160405180910390a4505050565b6119f284848461178b565b6119fe84848484611da3565b611a3d576040517f08c379a0000000000000000000000000000000000000000000000000000000008152600401611a34906131c1565b60405180910390fd5b50505050565b606060405180602001604052806000815250905090565b60606000821415611aa2576040518060400160405280600181526020017f30000000000000000000000000000000000000000000000000000000000000008152509050611c02565b600082905060005b60008214611ad4578080611abd906136ab565b915050600a82611acd9190613516565b9150611aaa565b60008167ffffffffffffffff811115611b16577f4e487b7100000000000000000000000000000000000000000000000000000000600052604160045260246000fd5b6040519080825280601f01601f191660200182016040528015611b485781602001600182028036833780820191505090505b5090505b60008514611bfb57600182611b619190613547565b9150600a85611b7091906136f4565b6030611b7c91906134c0565b60f81b818381518110611bb8577f4e487b7100000000000000000000000000000000000000000000000000000000600052603260045260246000fd5b60200101907effffffffffffffffffffffffffffffffffffffffffffffffffffffffffffff1916908160001a905350600a85611bf49190613516565b9450611b4c565b8093505050505b919050565b611c21828260405180602001604052806000815250611f3a565b5050565b60007f01ffc9a7000000000000000000000000000000000000000000000000000000007bffffffffffffffffffffffffffffffffffffffffffffffffffffffff1916827bffffffffffffffffffffffffffffffffffffffffffffffffffffffff1916149050919050565b611c9a838383611f95565b600073ffffffffffffffffffffffffffffffffffffffff168373ffffffffffffffffffffffffffffffffffffffff161415611cdd57611cd881611f9a565b611d1c565b8173ffffffffffffffffffffffffffffffffffffffff168373ffffffffffffffffffffffffffffffffffffffff1614611d1b57611d1a8382611fe3565b5b5b600073ffffffffffffffffffffffffffffffffffffffff168273ffffffffffffffffffffffffffffffffffffffff161415611d5f57611d5a81612150565b611d9e565b8273ffffffffffffffffffffffffffffffffffffffff168273ffffffffffffffffffffffffffffffffffffffff1614611d9d57611d9c8282612293565b5b5b505050565b6000611dc48473ffffffffffffffffffffffffffffffffffffffff16612312565b15611f2d578373ffffffffffffffffffffffffffffffffffffffff1663150b7a02611ded6115ec565b8786866040518563ffffffff1660e01b8152600401611e0f9493929190613099565b602060405180830381600087803b158015611e2957600080fd5b505af1925050508015611e5a57506040513d601f19601f82011682018060405250810190611e579190612794565b60015b611edd573d8060008114611e8a576040519150601f19603f3d011682016040523d82523d6000602084013e611e8f565b606091505b50600081511415611ed5576040517f08c379a0000000000000000000000000000000000000000000000000000000008152600401611ecc906131c1565b60405180910390fd5b805181602001fd5b63150b7a0260e01b7bffffffffffffffffffffffffffffffffffffffffffffffffffffffff1916817bffffffffffffffffffffffffffffffffffffffffffffffffffffffff191614915050611f32565b600190505b949350505050565b611f448383612325565b611f516000848484611da3565b611f90576040517f08c379a0000000000000000000000000000000000000000000000000000000008152600401611f87906131c1565b60405180910390fd5b505050565b505050565b6008805490506009600083815260200190815260200160002081905550600881908060018154018082558091505060019003906000526020600020016000909190919091505550565b60006001611ff084610c9d565b611ffa9190613547565b90506000600760008481526020019081526020016000205490508181146120df576000600660008673ffffffffffffffffffffffffffffffffffffffff1673ffffffffffffffffffffffffffffffffffffffff168152602001908152602001600020600084815260200190815260200160002054905080600660008773ffffffffffffffffffffffffffffffffffffffff1673ffffffffffffffffffffffffffffffffffffffff168152602001908152602001600020600084815260200190815260200160002081905550816007600083815260200190815260200160002081905550505b6007600084815260200190815260200160002060009055600660008573ffffffffffffffffffffffffffffffffffffffff1673ffffffffffffffffffffffffffffffffffffffff16815260200190815260200160002060008381526020019081526020016000206000905550505050565b600060016008805490506121649190613547565b90506000600960008481526020019081526020016000205490506000600883815481106121ba577f4e487b7100000000000000000000000000000000000000000000000000000000600052603260045260246000fd5b906000526020600020015490508060088381548110612202577f4e487b7100000000000000000000000000000000000000000000000000000000600052603260045260246000fd5b906000526020600020018190555081600960008381526020019081526020016000208190555060096000858152602001908152602001600020600090556008805480612277577f4e487b7100000000000000000000000000000000000000000000000000000000600052603160045260246000fd5b6001900381819060005260206000200160009055905550505050565b600061229e83610c9d565b905081600660008573ffffffffffffffffffffffffffffffffffffffff1673ffffffffffffffffffffffffffffffffffffffff168152602001908152602001600020600083815260200190815260200160002081905550806007600084815260200190815260200160002081905550505050565b600080823b905060008111915050919050565b600073ffffffffffffffffffffffffffffffffffffffff168273ffffffffffffffffffffffffffffffffffffffff161415612395576040517f08c379a000000000000000000000000000000000000000000000000000000000815260040161238c90613321565b60405180910390fd5b61239e81611580565b156123de576040517f08c379a00000000000000000000000000000000000000000000000000000000081526004016123d5906131e1565b60405180910390fd5b6123ea60008383611c8f565b6001600360008473ffffffffffffffffffffffffffffffffffffffff1673ffffffffffffffffffffffffffffffffffffffff168152602001908152602001600020600082825461243a91906134c0565b92505081905550816002600083815260200190815260200160002060006101000a81548173ffffffffffffffffffffffffffffffffffffffff021916908373ffffffffffffffffffffffffffffffffffffffff160217905550808273ffffffffffffffffffffffffffffffffffffffff16600073ffffffffffffffffffffffffffffffffffffffff167fddf252ad1be2c89b69c2b068fc378daa952ba7f163c4a11628f55a4df523b3ef60405160405180910390a45050565b60006125066125018461344d565b61341c565b90508281526020810184848401111561251e57600080fd5b612529848285613637565b509392505050565b600081359050612540816137f2565b92915050565b60008135905061255581613809565b92915050565b60008135905061256a81613820565b92915050565b60008151905061257f81613820565b92915050565b600082601f83011261259657600080fd5b81356125a68482602086016124f3565b91505092915050565b6000813590506125be81613837565b92915050565b6000602082840312156125d657600080fd5b60006125e484828501612531565b91505092915050565b6000806040838503121561260057600080fd5b600061260e85828601612531565b925050602061261f85828601612531565b9150509250929050565b60008060006060848603121561263e57600080fd5b600061264c86828701612531565b935050602061265d86828701612531565b925050604061266e868287016125af565b9150509250925092565b6000806000806080858703121561268e57600080fd5b600061269c87828801612531565b94505060206126ad87828801612531565b93505060406126be878288016125af565b925050606085013567ffffffffffffffff8111156126db57600080fd5b6126e787828801612585565b91505092959194509250565b6000806040838503121561270657600080fd5b600061271485828601612531565b925050602061272585828601612546565b9150509250929050565b6000806040838503121561274257600080fd5b600061275085828601612531565b9250506020612761858286016125af565b9150509250929050565b60006020828403121561277d57600080fd5b600061278b8482850161255b565b91505092915050565b6000602082840312156127a657600080fd5b60006127b484828501612570565b91505092915050565b6000602082840312156127cf57600080fd5b60006127dd848285016125af565b91505092915050565b6127ef8161357b565b82525050565b6127fe8161358d565b82525050565b600061280f8261347d565b6128198185613493565b9350612829818560208601613646565b612832816137e1565b840191505092915050565b612846816135ef565b82525050565b61285581613613565b82525050565b600061286682613488565b61287081856134a4565b9350612880818560208601613646565b612889816137e1565b840191505092915050565b600061289f82613488565b6128a981856134b5565b93506128b9818560208601613646565b80840191505092915050565b60006128d26022836134a4565b91507f596f752063616e206f6e6c79206f776e20757020746f2031302070697261746560008301527f73210000000000000000000000000000000000000000000000000000000000006020830152604082019050919050565b6000612938602b836134a4565b91507f455243373231456e756d657261626c653a206f776e657220696e646578206f7560008301527f74206f6620626f756e64730000000000000000000000000000000000000000006020830152604082019050919050565b600061299e6032836134a4565b91507f4552433732313a207472616e7366657220746f206e6f6e20455243373231526560008301527f63656976657220696d706c656d656e74657200000000000000000000000000006020830152604082019050919050565b6000612a04601c836134a4565b91507f4552433732313a20746f6b656e20616c7265616479206d696e746564000000006000830152602082019050919050565b6000612a446030836134a4565b91507f596f75206d757374206f776e206120706972617465206265666f726520796f7560008301527f2063616e206f776e2061207368697021000000000000000000000000000000006020830152604082019050919050565b6000612aaa6024836134a4565b91507f4552433732313a207472616e7366657220746f20746865207a65726f2061646460008301527f72657373000000000000000000000000000000000000000000000000000000006020830152604082019050919050565b6000612b106019836134a4565b91507f4552433732313a20617070726f766520746f2063616c6c6572000000000000006000830152602082019050919050565b6000612b50603e836134a4565b91507f596f757220706972617465206d757374206265206174206c65617374206c657660008301527f656c203220696e206f7264657220746f2062652061206361707461696e2100006020830152604082019050919050565b6000612bb6602c836134a4565b91507f4552433732313a206f70657261746f7220717565727920666f72206e6f6e657860008301527f697374656e7420746f6b656e00000000000000000000000000000000000000006020830152604082019050919050565b6000612c1c6038836134a4565b91507f4552433732313a20617070726f76652063616c6c6572206973206e6f74206f7760008301527f6e6572206e6f7220617070726f76656420666f7220616c6c00000000000000006020830152604082019050919050565b6000612c82602a836134a4565b91507f4552433732313a2062616c616e636520717565727920666f7220746865207a6560008301527f726f2061646472657373000000000000000000000000000000000000000000006020830152604082019050919050565b6000612ce86029836134a4565b91507f4552433732313a206f776e657220717565727920666f72206e6f6e657869737460008301527f656e7420746f6b656e00000000000000000000000000000000000000000000006020830152604082019050919050565b6000612d4e6026836134a4565b91507f596f7572207069726174652063616e206f6e6c79206361707461696e206f6e6560008301527f20736869702100000000000000000000000000000000000000000000000000006020830152604082019050919050565b6000612db46020836134a4565b91507f4552433732313a206d696e7420746f20746865207a65726f20616464726573736000830152602082019050919050565b6000612df4602c836134a4565b91507f4552433732313a20617070726f76656420717565727920666f72206e6f6e657860008301527f697374656e7420746f6b656e00000000000000000000000000000000000000006020830152604082019050919050565b6000612e5a6029836134a4565b91507f4552433732313a207472616e73666572206f6620746f6b656e2074686174206960008301527f73206e6f74206f776e00000000000000000000000000000000000000000000006020830152604082019050919050565b6000612ec0602f836134a4565b91507f4552433732314d657461646174613a2055524920717565727920666f72206e6f60008301527f6e6578697374656e7420746f6b656e00000000000000000000000000000000006020830152604082019050919050565b6000612f266021836134a4565b91507f4552433732313a20617070726f76616c20746f2063757272656e74206f776e6560008301527f72000000000000000000000000000000000000000000000000000000000000006020830152604082019050919050565b6000612f8c6031836134a4565b91507f4552433732313a207472616e736665722063616c6c6572206973206e6f74206f60008301527f776e6572206e6f7220617070726f7665640000000000000000000000000000006020830152604082019050919050565b6000612ff2602c836134a4565b91507f455243373231456e756d657261626c653a20676c6f62616c20696e646578206f60008301527f7574206f6620626f756e647300000000000000000000000000000000000000006020830152604082019050919050565b613054816135e5565b82525050565b60006130668285612894565b91506130728284612894565b91508190509392505050565b600060208201905061309360008301846127e6565b92915050565b60006080820190506130ae60008301876127e6565b6130bb60208301866127e6565b6130c8604083018561304b565b81810360608301526130da8184612804565b905095945050505050565b60006040820190506130fa60008301856127e6565b613107602083018461304b565b9392505050565b600060208201905061312360008301846127f5565b92915050565b600060208201905061313e600083018461283d565b92915050565b6000602082019050613159600083018461284c565b92915050565b60006020820190508181036000830152613179818461285b565b905092915050565b6000602082019050818103600083015261319a816128c5565b9050919050565b600060208201905081810360008301526131ba8161292b565b9050919050565b600060208201905081810360008301526131da81612991565b9050919050565b600060208201905081810360008301526131fa816129f7565b9050919050565b6000602082019050818103600083015261321a81612a37565b9050919050565b6000602082019050818103600083015261323a81612a9d565b9050919050565b6000602082019050818103600083015261325a81612b03565b9050919050565b6000602082019050818103600083015261327a81612b43565b9050919050565b6000602082019050818103600083015261329a81612ba9565b9050919050565b600060208201905081810360008301526132ba81612c0f565b9050919050565b600060208201905081810360008301526132da81612c75565b9050919050565b600060208201905081810360008301526132fa81612cdb565b9050919050565b6000602082019050818103600083015261331a81612d41565b9050919050565b6000602082019050818103600083015261333a81612da7565b9050919050565b6000602082019050818103600083015261335a81612de7565b9050919050565b6000602082019050818103600083015261337a81612e4d565b9050919050565b6000602082019050818103600083015261339a81612eb3565b9050919050565b600060208201905081810360008301526133ba81612f19565b9050919050565b600060208201905081810360008301526133da81612f7f565b9050919050565b600060208201905081810360008301526133fa81612fe5565b9050919050565b6000602082019050613416600083018461304b565b92915050565b6000604051905081810181811067ffffffffffffffff82111715613443576134426137b2565b5b8060405250919050565b600067ffffffffffffffff821115613468576134676137b2565b5b601f19601f8301169050602081019050919050565b600081519050919050565b600081519050919050565b600082825260208201905092915050565b600082825260208201905092915050565b600081905092915050565b60006134cb826135e5565b91506134d6836135e5565b9250827fffffffffffffffffffffffffffffffffffffffffffffffffffffffffffffffff0382111561350b5761350a613725565b5b828201905092915050565b6000613521826135e5565b915061352c836135e5565b92508261353c5761353b613754565b5b828204905092915050565b6000613552826135e5565b915061355d836135e5565b9250828210156135705761356f613725565b5b828203905092915050565b6000613586826135c5565b9050919050565b60008115159050919050565b60007fffffffff0000000000000000000000000000000000000000000000000000000082169050919050565b600073ffffffffffffffffffffffffffffffffffffffff82169050919050565b6000819050919050565b60006135fa82613601565b9050919050565b600061360c826135c5565b9050919050565b600061361e82613625565b9050919050565b6000613630826135c5565b9050919050565b82818337600083830152505050565b60005b83811015613664578082015181840152602081019050613649565b83811115613673576000848401525b50505050565b6000600282049050600182168061369157607f821691505b602082108114156136a5576136a4613783565b5b50919050565b60006136b6826135e5565b91507fffffffffffffffffffffffffffffffffffffffffffffffffffffffffffffffff8214156136e9576136e8613725565b5b600182019050919050565b60006136ff826135e5565b915061370a836135e5565b92508261371a57613719613754565b5b828206905092915050565b7f4e487b7100000000000000000000000000000000000000000000000000000000600052601160045260246000fd5b7f4e487b7100000000000000000000000000000000000000000000000000000000600052601260045260246000fd5b7f4e487b7100000000000000000000000000000000000000000000000000000000600052602260045260246000fd5b7f4e487b7100000000000000000000000000000000000000000000000000000000600052604160045260246000fd5b6000601f19601f8301169050919050565b6137fb8161357b565b811461380657600080fd5b50565b6138128161358d565b811461381d57600080fd5b50565b61382981613599565b811461383457600080fd5b50565b613840816135e5565b811461384b57600080fd5b5056fea26469706673582212207611aacc6ea0f2ea7705d4da71468e3e985e5e16d3ac8dcdb181c80abfb2341d64736f6c63430008000033",
  "immutableReferences": {},
  "source": "// SPDX-License-Identifier: MIT\npragma solidity ^0.8.0;\n\nimport \"@openzeppelin/contracts/token/ERC721/ERC721.sol\";\nimport \"@openzeppelin/contracts/token/ERC721/extensions/ERC721Enumerable.sol\";\nimport \"./FantomPiratesShip.sol\";\nimport \"./FantomPiratesGold.sol\";\n\n// interface PiratesShip is IERC721Enumerable {\n//   function _safeMint(address to, uint256 tokenId) external;  \n// }\n\ncontract FantomPiratesGame is ERC721Enumerable {\n\n  address public owner = msg.sender;\n\n  uint public next_pirate_id = 1;\n  uint public next_ship_id = 1;\n  uint constant DAY = 1 days;\n  \n  mapping(uint => uint) public level;\n  mapping(uint => uint) public xp;\n  mapping(uint => uint) public quests_log; // To ensure questing once per day: quests_log[pirate_id] = block.timestamp + DAY\n  mapping(uint => uint) public ship; // pirate_id => ship_id;\n\n  FantomPiratesShip public _ships_contract;\n  ERC20 public _gold_contract;\n\n  event PirateCreated(address indexed owner, uint pirate_id);\n  event ShipCreated(address indexed owner, uint ship_id);\n  event Leveled(address indexed owner, uint level, uint id);\n  \n  constructor(address _ship_contract_address) ERC721(\"Fantom Pirates\", \"FP\") {\n    _ships_contract = FantomPiratesShip(_ship_contract_address);\n  }\n\n  function mintPirate() public payable {\n    uint _pirate_id = next_pirate_id;\n    require(balanceOf(msg.sender) < 10, \"You can only own up to 10 pirates!\");\n    level[_pirate_id] = 1;\n    ship[_pirate_id] = 0;\n    _safeMint(msg.sender, _pirate_id);\n    emit PirateCreated(msg.sender, _pirate_id);\n    next_pirate_id++;\n  }\n\n  function mintShip(uint256 _pirate_id) public payable {\n    uint _next_ship_id = next_ship_id;\n    uint256 numberOfPiratesOwned = balanceOf(msg.sender);\n    require(_pirate_id != 0 && numberOfPiratesOwned > 0, \"You must own a pirate before you can own a ship!\");\n    require(ship[_pirate_id] == 0, \"Your pirate can only captain one ship!\");\n    require(level[_pirate_id] > 1, \"Your pirate must be at least level 2 in order to be a captain!\");\n    ship[_pirate_id] = _next_ship_id; // assign pirate a ship\n    _ships_contract.mintShip(msg.sender, _next_ship_id);\n    emit ShipCreated(msg.sender, _next_ship_id);\n    next_ship_id++;\n  }\n\n  function doQuest(uint _pirate_id) public payable {\n    level[_pirate_id] = 2;\n    // quests_log[_pirate_id] = block.timestamp + DAY; // next available quest;\n  }\n\n  // function calculateQuestsCooldown(uint _pirate_id) public \n}\n",
  "sourcePath": "/Users/joshuacotterell/Documents/Blockchain/Projects/FantomPirates/src/blockchain/contracts/FantomPiratesGame.sol",
  "compiler": {
    "name": "solc",
    "version": "0.8.0+commit.c7dfd78e.Emscripten.clang"
  },
  "schemaVersion": "3.3.4",
  "updatedAt": "2021-10-23T15:49:29.014Z",
  "devdoc": {
    "kind": "dev",
    "methods": {
      "approve(address,uint256)": {
        "details": "See {IERC721-approve}."
      },
      "balanceOf(address)": {
        "details": "See {IERC721-balanceOf}."
      },
      "getApproved(uint256)": {
        "details": "See {IERC721-getApproved}."
      },
      "isApprovedForAll(address,address)": {
        "details": "See {IERC721-isApprovedForAll}."
      },
      "name()": {
        "details": "See {IERC721Metadata-name}."
      },
      "ownerOf(uint256)": {
        "details": "See {IERC721-ownerOf}."
      },
      "safeTransferFrom(address,address,uint256)": {
        "details": "See {IERC721-safeTransferFrom}."
      },
      "safeTransferFrom(address,address,uint256,bytes)": {
        "details": "See {IERC721-safeTransferFrom}."
      },
      "setApprovalForAll(address,bool)": {
        "details": "See {IERC721-setApprovalForAll}."
      },
      "supportsInterface(bytes4)": {
        "details": "See {IERC165-supportsInterface}."
      },
      "symbol()": {
        "details": "See {IERC721Metadata-symbol}."
      },
      "tokenByIndex(uint256)": {
        "details": "See {IERC721Enumerable-tokenByIndex}."
      },
      "tokenOfOwnerByIndex(address,uint256)": {
        "details": "See {IERC721Enumerable-tokenOfOwnerByIndex}."
      },
      "tokenURI(uint256)": {
        "details": "See {IERC721Metadata-tokenURI}."
      },
      "totalSupply()": {
        "details": "See {IERC721Enumerable-totalSupply}."
      },
      "transferFrom(address,address,uint256)": {
        "details": "See {IERC721-transferFrom}."
      }
    },
    "version": 1
  },
  "userdoc": {
    "kind": "user",
    "methods": {},
    "version": 1
  }
}