{
  "contractName": "FantomPiratesGame",
  "abi": [
    {
      "inputs": [
        {
          "internalType": "address",
          "name": "_ship_contract_address",
          "type": "address"
        }
      ],
      "stateMutability": "nonpayable",
      "type": "constructor"
    },
    {
      "anonymous": false,
      "inputs": [
        {
          "indexed": true,
          "internalType": "address",
          "name": "owner",
          "type": "address"
        },
        {
          "indexed": true,
          "internalType": "address",
          "name": "approved",
          "type": "address"
        },
        {
          "indexed": true,
          "internalType": "uint256",
          "name": "tokenId",
          "type": "uint256"
        }
      ],
      "name": "Approval",
      "type": "event"
    },
    {
      "anonymous": false,
      "inputs": [
        {
          "indexed": true,
          "internalType": "address",
          "name": "owner",
          "type": "address"
        },
        {
          "indexed": true,
          "internalType": "address",
          "name": "operator",
          "type": "address"
        },
        {
          "indexed": false,
          "internalType": "bool",
          "name": "approved",
          "type": "bool"
        }
      ],
      "name": "ApprovalForAll",
      "type": "event"
    },
    {
      "anonymous": false,
      "inputs": [
        {
          "indexed": true,
          "internalType": "address",
          "name": "owner",
          "type": "address"
        },
        {
          "indexed": false,
          "internalType": "uint256",
          "name": "id",
          "type": "uint256"
        },
        {
          "indexed": false,
          "internalType": "uint256",
          "name": "level",
          "type": "uint256"
        }
      ],
      "name": "Leveled",
      "type": "event"
    },
    {
      "anonymous": false,
      "inputs": [
        {
          "indexed": true,
          "internalType": "address",
          "name": "owner",
          "type": "address"
        },
        {
          "indexed": false,
          "internalType": "uint256",
          "name": "pirate_id",
          "type": "uint256"
        }
      ],
      "name": "PirateCreated",
      "type": "event"
    },
    {
      "anonymous": false,
      "inputs": [
        {
          "indexed": true,
          "internalType": "address",
          "name": "owner",
          "type": "address"
        },
        {
          "indexed": false,
          "internalType": "uint256",
          "name": "ship_id",
          "type": "uint256"
        }
      ],
      "name": "ShipCreated",
      "type": "event"
    },
    {
      "anonymous": false,
      "inputs": [
        {
          "indexed": true,
          "internalType": "address",
          "name": "from",
          "type": "address"
        },
        {
          "indexed": true,
          "internalType": "address",
          "name": "to",
          "type": "address"
        },
        {
          "indexed": true,
          "internalType": "uint256",
          "name": "tokenId",
          "type": "uint256"
        }
      ],
      "name": "Transfer",
      "type": "event"
    },
    {
      "inputs": [],
      "name": "_gold_contract",
      "outputs": [
        {
          "internalType": "contract ERC20",
          "name": "",
          "type": "address"
        }
      ],
      "stateMutability": "view",
      "type": "function"
    },
    {
      "inputs": [],
      "name": "_ships_contract",
      "outputs": [
        {
          "internalType": "contract FantomPiratesShip",
          "name": "",
          "type": "address"
        }
      ],
      "stateMutability": "view",
      "type": "function"
    },
    {
      "inputs": [
        {
          "internalType": "address",
          "name": "to",
          "type": "address"
        },
        {
          "internalType": "uint256",
          "name": "tokenId",
          "type": "uint256"
        }
      ],
      "name": "approve",
      "outputs": [],
      "stateMutability": "nonpayable",
      "type": "function"
    },
    {
      "inputs": [
        {
          "internalType": "address",
          "name": "owner",
          "type": "address"
        }
      ],
      "name": "balanceOf",
      "outputs": [
        {
          "internalType": "uint256",
          "name": "",
          "type": "uint256"
        }
      ],
      "stateMutability": "view",
      "type": "function"
    },
    {
      "inputs": [
        {
          "internalType": "uint256",
          "name": "tokenId",
          "type": "uint256"
        }
      ],
      "name": "getApproved",
      "outputs": [
        {
          "internalType": "address",
          "name": "",
          "type": "address"
        }
      ],
      "stateMutability": "view",
      "type": "function"
    },
    {
      "inputs": [
        {
          "internalType": "uint256",
          "name": "",
          "type": "uint256"
        }
      ],
      "name": "gold",
      "outputs": [
        {
          "internalType": "uint256",
          "name": "",
          "type": "uint256"
        }
      ],
      "stateMutability": "view",
      "type": "function"
    },
    {
      "inputs": [
        {
          "internalType": "address",
          "name": "owner",
          "type": "address"
        },
        {
          "internalType": "address",
          "name": "operator",
          "type": "address"
        }
      ],
      "name": "isApprovedForAll",
      "outputs": [
        {
          "internalType": "bool",
          "name": "",
          "type": "bool"
        }
      ],
      "stateMutability": "view",
      "type": "function"
    },
    {
      "inputs": [
        {
          "internalType": "uint256",
          "name": "",
          "type": "uint256"
        }
      ],
      "name": "level",
      "outputs": [
        {
          "internalType": "uint256",
          "name": "",
          "type": "uint256"
        }
      ],
      "stateMutability": "view",
      "type": "function"
    },
    {
      "inputs": [],
      "name": "name",
      "outputs": [
        {
          "internalType": "string",
          "name": "",
          "type": "string"
        }
      ],
      "stateMutability": "view",
      "type": "function"
    },
    {
      "inputs": [],
      "name": "next_pet_id",
      "outputs": [
        {
          "internalType": "uint256",
          "name": "",
          "type": "uint256"
        }
      ],
      "stateMutability": "view",
      "type": "function"
    },
    {
      "inputs": [],
      "name": "next_pirate_id",
      "outputs": [
        {
          "internalType": "uint256",
          "name": "",
          "type": "uint256"
        }
      ],
      "stateMutability": "view",
      "type": "function"
    },
    {
      "inputs": [],
      "name": "next_ship_id",
      "outputs": [
        {
          "internalType": "uint256",
          "name": "",
          "type": "uint256"
        }
      ],
      "stateMutability": "view",
      "type": "function"
    },
    {
      "inputs": [],
      "name": "owner",
      "outputs": [
        {
          "internalType": "address",
          "name": "",
          "type": "address"
        }
      ],
      "stateMutability": "view",
      "type": "function"
    },
    {
      "inputs": [
        {
          "internalType": "uint256",
          "name": "tokenId",
          "type": "uint256"
        }
      ],
      "name": "ownerOf",
      "outputs": [
        {
          "internalType": "address",
          "name": "",
          "type": "address"
        }
      ],
      "stateMutability": "view",
      "type": "function"
    },
    {
      "inputs": [
        {
          "internalType": "uint256",
          "name": "",
          "type": "uint256"
        }
      ],
      "name": "pet",
      "outputs": [
        {
          "internalType": "uint256",
          "name": "",
          "type": "uint256"
        }
      ],
      "stateMutability": "view",
      "type": "function"
    },
    {
      "inputs": [
        {
          "internalType": "uint256",
          "name": "",
          "type": "uint256"
        }
      ],
      "name": "quests_log",
      "outputs": [
        {
          "internalType": "uint256",
          "name": "",
          "type": "uint256"
        }
      ],
      "stateMutability": "view",
      "type": "function"
    },
    {
      "inputs": [
        {
          "internalType": "address",
          "name": "from",
          "type": "address"
        },
        {
          "internalType": "address",
          "name": "to",
          "type": "address"
        },
        {
          "internalType": "uint256",
          "name": "tokenId",
          "type": "uint256"
        }
      ],
      "name": "safeTransferFrom",
      "outputs": [],
      "stateMutability": "nonpayable",
      "type": "function"
    },
    {
      "inputs": [
        {
          "internalType": "address",
          "name": "from",
          "type": "address"
        },
        {
          "internalType": "address",
          "name": "to",
          "type": "address"
        },
        {
          "internalType": "uint256",
          "name": "tokenId",
          "type": "uint256"
        },
        {
          "internalType": "bytes",
          "name": "_data",
          "type": "bytes"
        }
      ],
      "name": "safeTransferFrom",
      "outputs": [],
      "stateMutability": "nonpayable",
      "type": "function"
    },
    {
      "inputs": [
        {
          "internalType": "address",
          "name": "operator",
          "type": "address"
        },
        {
          "internalType": "bool",
          "name": "approved",
          "type": "bool"
        }
      ],
      "name": "setApprovalForAll",
      "outputs": [],
      "stateMutability": "nonpayable",
      "type": "function"
    },
    {
      "inputs": [
        {
          "internalType": "uint256",
          "name": "",
          "type": "uint256"
        }
      ],
      "name": "ship",
      "outputs": [
        {
          "internalType": "uint256",
          "name": "",
          "type": "uint256"
        }
      ],
      "stateMutability": "view",
      "type": "function"
    },
    {
      "inputs": [
        {
          "internalType": "bytes4",
          "name": "interfaceId",
          "type": "bytes4"
        }
      ],
      "name": "supportsInterface",
      "outputs": [
        {
          "internalType": "bool",
          "name": "",
          "type": "bool"
        }
      ],
      "stateMutability": "view",
      "type": "function"
    },
    {
      "inputs": [],
      "name": "symbol",
      "outputs": [
        {
          "internalType": "string",
          "name": "",
          "type": "string"
        }
      ],
      "stateMutability": "view",
      "type": "function"
    },
    {
      "inputs": [
        {
          "internalType": "uint256",
          "name": "index",
          "type": "uint256"
        }
      ],
      "name": "tokenByIndex",
      "outputs": [
        {
          "internalType": "uint256",
          "name": "",
          "type": "uint256"
        }
      ],
      "stateMutability": "view",
      "type": "function"
    },
    {
      "inputs": [
        {
          "internalType": "address",
          "name": "owner",
          "type": "address"
        },
        {
          "internalType": "uint256",
          "name": "index",
          "type": "uint256"
        }
      ],
      "name": "tokenOfOwnerByIndex",
      "outputs": [
        {
          "internalType": "uint256",
          "name": "",
          "type": "uint256"
        }
      ],
      "stateMutability": "view",
      "type": "function"
    },
    {
      "inputs": [
        {
          "internalType": "uint256",
          "name": "tokenId",
          "type": "uint256"
        }
      ],
      "name": "tokenURI",
      "outputs": [
        {
          "internalType": "string",
          "name": "",
          "type": "string"
        }
      ],
      "stateMutability": "view",
      "type": "function"
    },
    {
      "inputs": [],
      "name": "totalSupply",
      "outputs": [
        {
          "internalType": "uint256",
          "name": "",
          "type": "uint256"
        }
      ],
      "stateMutability": "view",
      "type": "function"
    },
    {
      "inputs": [
        {
          "internalType": "address",
          "name": "from",
          "type": "address"
        },
        {
          "internalType": "address",
          "name": "to",
          "type": "address"
        },
        {
          "internalType": "uint256",
          "name": "tokenId",
          "type": "uint256"
        }
      ],
      "name": "transferFrom",
      "outputs": [],
      "stateMutability": "nonpayable",
      "type": "function"
    },
    {
      "inputs": [
        {
          "internalType": "uint256",
          "name": "",
          "type": "uint256"
        }
      ],
      "name": "xp",
      "outputs": [
        {
          "internalType": "uint256",
          "name": "",
          "type": "uint256"
        }
      ],
      "stateMutability": "view",
      "type": "function"
    },
    {
      "inputs": [],
      "name": "mintPirate",
      "outputs": [],
      "stateMutability": "payable",
      "type": "function"
    },
    {
      "inputs": [
        {
          "internalType": "uint256",
          "name": "_pirate_id",
          "type": "uint256"
        }
      ],
      "name": "mintShip",
      "outputs": [],
      "stateMutability": "payable",
      "type": "function"
    },
    {
      "inputs": [
        {
          "internalType": "uint256",
          "name": "_pirate_id",
          "type": "uint256"
        }
      ],
      "name": "mintPet",
      "outputs": [],
      "stateMutability": "payable",
      "type": "function"
    },
    {
      "inputs": [
        {
          "internalType": "uint256",
          "name": "_pirate_id",
          "type": "uint256"
        }
      ],
      "name": "doQuest",
      "outputs": [],
      "stateMutability": "payable",
      "type": "function"
    },
    {
      "inputs": [
        {
          "internalType": "uint256",
          "name": "_pirate_id",
          "type": "uint256"
        }
      ],
      "name": "levelUp",
      "outputs": [],
      "stateMutability": "payable",
      "type": "function"
    },
    {
      "inputs": [
        {
          "internalType": "uint256",
          "name": "_pirate_level",
          "type": "uint256"
        }
      ],
      "name": "requiredXpForLevel",
      "outputs": [
        {
          "internalType": "uint256",
          "name": "required_xp",
          "type": "uint256"
        }
      ],
      "stateMutability": "pure",
      "type": "function"
    }
  ],
  "bytecode": "0x608060405233600a60006101000a81548173ffffffffffffffffffffffffffffffffffffffff021916908373ffffffffffffffffffffffffffffffffffffffff1602179055506001600b556001600c556001600d553480156200006157600080fd5b506040516200448e3803806200448e833981810160405281019062000087919062000236565b6040518060400160405280600e81526020017f46616e746f6d20506972617465730000000000000000000000000000000000008152506040518060400160405280600281526020017f465000000000000000000000000000000000000000000000000000000000000081525081600090805190602001906200010b9291906200016f565b508060019080519060200190620001249291906200016f565b50505080601460006101000a81548173ffffffffffffffffffffffffffffffffffffffff021916908373ffffffffffffffffffffffffffffffffffffffff1602179055505062000315565b8280546200017d9062000296565b90600052602060002090601f016020900481019282620001a15760008555620001ed565b82601f10620001bc57805160ff1916838001178555620001ed565b82800160010185558215620001ed579182015b82811115620001ec578251825591602001919060010190620001cf565b5b509050620001fc919062000200565b5090565b5b808211156200021b57600081600090555060010162000201565b5090565b6000815190506200023081620002fb565b92915050565b6000602082840312156200024957600080fd5b600062000259848285016200021f565b91505092915050565b60006200026f8262000276565b9050919050565b600073ffffffffffffffffffffffffffffffffffffffff82169050919050565b60006002820490506001821680620002af57607f821691505b60208210811415620002c657620002c5620002cc565b5b50919050565b7f4e487b7100000000000000000000000000000000000000000000000000000000600052602260045260246000fd5b620003068162000262565b81146200031257600080fd5b50565b61416980620003256000396000f3fe6080604052600436106101f95760003560e01c80636604b7fa1161010d578063b88d4fde116100a0578063c0c0a00e1161006f578063c0c0a00e14610790578063c87b56dd146107bb578063cec8603e146107f8578063e985e9c514610802578063efce079e1461083f576101f9565b8063b88d4fde146106e3578063b9c831d11461070c578063bfb3cd5d14610737578063c05d92c914610774576101f9565b806394b69ffa116100dc57806394b69ffa1461061557806395d89b4114610652578063a07d79721461067d578063a22cb465146106ba576101f9565b80636604b7fa1461056657806370a08231146105915780638da5cb5b146105ce57806393407afe146105f9576101f9565b806323b872dd1161019057806342842e0e1161015f57806342842e0e1461046d578063474758a2146104965780634f6ccce7146104c15780634fd0e8f6146104fe5780636352211e14610529576101f9565b806323b872dd1461038d578063244f643b146103b65780632f745c59146103f35780633e3962f414610430576101f9565b8063095ea7b3116101cc578063095ea7b3146102e05780630ce90ec21461030957806318160ddd1461032557806320c69e5614610350576101f9565b806301ffc9a7146101fe57806305c58df21461023b57806306fdde0314610278578063081812fc146102a3575b600080fd5b34801561020a57600080fd5b5061022560048036038101906102209190612d2f565b61085b565b60405161023291906138d0565b60405180910390f35b34801561024757600080fd5b50610262600480360381019061025d9190612d81565b6108d5565b60405161026f9190613c63565b60405180910390f35b34801561028457600080fd5b5061028d6108ed565b60405161029a9190613921565b60405180910390f35b3480156102af57600080fd5b506102ca60048036038101906102c59190612d81565b61097f565b6040516102d79190613840565b60405180910390f35b3480156102ec57600080fd5b5061030760048036038101906103029190612cf3565b610a04565b005b610323600480360381019061031e9190612d81565b610b1c565b005b34801561033157600080fd5b5061033a610c8f565b6040516103479190613c63565b60405180910390f35b34801561035c57600080fd5b5061037760048036038101906103729190612d81565b610c9c565b6040516103849190613c63565b60405180910390f35b34801561039957600080fd5b506103b460048036038101906103af9190612bed565b610cb4565b005b3480156103c257600080fd5b506103dd60048036038101906103d89190612d81565b610d14565b6040516103ea9190613c63565b60405180910390f35b3480156103ff57600080fd5b5061041a60048036038101906104159190612cf3565b610d2c565b6040516104279190613c63565b60405180910390f35b34801561043c57600080fd5b5061045760048036038101906104529190612d81565b610dd1565b6040516104649190613c63565b60405180910390f35b34801561047957600080fd5b50610494600480360381019061048f9190612bed565b610de9565b005b3480156104a257600080fd5b506104ab610e09565b6040516104b89190613906565b60405180910390f35b3480156104cd57600080fd5b506104e860048036038101906104e39190612d81565b610e2f565b6040516104f59190613c63565b60405180910390f35b34801561050a57600080fd5b50610513610ec6565b6040516105209190613c63565b60405180910390f35b34801561053557600080fd5b50610550600480360381019061054b9190612d81565b610ecc565b60405161055d9190613840565b60405180910390f35b34801561057257600080fd5b5061057b610f7e565b6040516105889190613c63565b60405180910390f35b34801561059d57600080fd5b506105b860048036038101906105b39190612b88565b610f84565b6040516105c59190613c63565b60405180910390f35b3480156105da57600080fd5b506105e361103c565b6040516105f09190613840565b60405180910390f35b610613600480360381019061060e9190612d81565b611062565b005b34801561062157600080fd5b5061063c60048036038101906106379190612d81565b6112b2565b6040516106499190613c63565b60405180910390f35b34801561065e57600080fd5b506106676112ca565b6040516106749190613921565b60405180910390f35b34801561068957600080fd5b506106a4600480360381019061069f9190612d81565b61135c565b6040516106b19190613c63565b60405180910390f35b3480156106c657600080fd5b506106e160048036038101906106dc9190612cb7565b611374565b005b3480156106ef57600080fd5b5061070a60048036038101906107059190612c3c565b6114f5565b005b34801561071857600080fd5b50610721611557565b60405161072e91906138eb565b60405180910390f35b34801561074357600080fd5b5061075e60048036038101906107599190612d81565b61157d565b60405161076b9190613c63565b60405180910390f35b61078e60048036038101906107899190612d81565b6115ca565b005b34801561079c57600080fd5b506107a561173d565b6040516107b29190613c63565b60405180910390f35b3480156107c757600080fd5b506107e260048036038101906107dd9190612d81565b611743565b6040516107ef9190613921565b60405180910390f35b6108006117ea565b005b34801561080e57600080fd5b5061082960048036038101906108249190612bb1565b6118fa565b60405161083691906138d0565b60405180910390f35b61085960048036038101906108549190612d81565b61198e565b005b60007f780e9d63000000000000000000000000000000000000000000000000000000007bffffffffffffffffffffffffffffffffffffffffffffffffffffffff1916827bffffffffffffffffffffffffffffffffffffffffffffffffffffffff191614806108ce57506108cd82611a62565b5b9050919050565b600e6020528060005260406000206000915090505481565b6060600080546108fc90613f5e565b80601f016020809104026020016040519081016040528092919081815260200182805461092890613f5e565b80156109755780601f1061094a57610100808354040283529160200191610975565b820191906000526020600020905b81548152906001019060200180831161095857829003601f168201915b5050505050905090565b600061098a82611b44565b6109c9576040517f08c379a00000000000000000000000000000000000000000000000000000000081526004016109c090613b63565b60405180910390fd5b6004600083815260200190815260200160002060009054906101000a900473ffffffffffffffffffffffffffffffffffffffff169050919050565b6000610a0f82610ecc565b90508073ffffffffffffffffffffffffffffffffffffffff168373ffffffffffffffffffffffffffffffffffffffff161415610a80576040517f08c379a0000000000000000000000000000000000000000000000000000000008152600401610a7790613bc3565b60405180910390fd5b8073ffffffffffffffffffffffffffffffffffffffff16610a9f611bb0565b73ffffffffffffffffffffffffffffffffffffffff161480610ace5750610acd81610ac8611bb0565b6118fa565b5b610b0d576040517f08c379a0000000000000000000000000000000000000000000000000000000008152600401610b0490613ac3565b60405180910390fd5b610b178383611bb8565b505050565b610b263382611c71565b610b65576040517f08c379a0000000000000000000000000000000000000000000000000000000008152600401610b5c90613a83565b60405180910390fd5b6000600e60008381526020019081526020016000205490506000610b94600183610b8f9190613d4b565b61157d565b905080600f6000858152602001908152602001600020541015610bec576040517f08c379a0000000000000000000000000000000000000000000000000000000008152600401610be390613a43565b60405180910390fd5b80600f60008581526020019081526020016000206000828254610c0f9190613e2c565b92505081905550600182610c239190613d4b565b600e6000858152602001908152602001600020819055503373ffffffffffffffffffffffffffffffffffffffff167f91a6b71cc6aa45b97e340e84e003ab44a6c33cdf081ab3c4f86e74ef47bf71c28484604051610c82929190613c7e565b60405180910390a2505050565b6000600880549050905090565b60126020528060005260406000206000915090505481565b610cc5610cbf611bb0565b82611c71565b610d04576040517f08c379a0000000000000000000000000000000000000000000000000000000008152600401610cfb90613c03565b60405180910390fd5b610d0f838383611d4f565b505050565b60116020528060005260406000206000915090505481565b6000610d3783610f84565b8210610d78576040517f08c379a0000000000000000000000000000000000000000000000000000000008152600401610d6f90613983565b60405180910390fd5b600660008473ffffffffffffffffffffffffffffffffffffffff1673ffffffffffffffffffffffffffffffffffffffff168152602001908152602001600020600083815260200190815260200160002054905092915050565b60106020528060005260406000206000915090505481565b610e04838383604051806020016040528060008152506114f5565b505050565b601460009054906101000a900473ffffffffffffffffffffffffffffffffffffffff1681565b6000610e39610c8f565b8210610e7a576040517f08c379a0000000000000000000000000000000000000000000000000000000008152600401610e7190613c23565b60405180910390fd5b60088281548110610eb4577f4e487b7100000000000000000000000000000000000000000000000000000000600052603260045260246000fd5b90600052602060002001549050919050565b600b5481565b6000806002600084815260200190815260200160002060009054906101000a900473ffffffffffffffffffffffffffffffffffffffff169050600073ffffffffffffffffffffffffffffffffffffffff168173ffffffffffffffffffffffffffffffffffffffff161415610f75576040517f08c379a0000000000000000000000000000000000000000000000000000000008152600401610f6c90613b03565b60405180910390fd5b80915050919050565b600c5481565b60008073ffffffffffffffffffffffffffffffffffffffff168273ffffffffffffffffffffffffffffffffffffffff161415610ff5576040517f08c379a0000000000000000000000000000000000000000000000000000000008152600401610fec90613ae3565b60405180910390fd5b600360008373ffffffffffffffffffffffffffffffffffffffff1673ffffffffffffffffffffffffffffffffffffffff168152602001908152602001600020549050919050565b600a60009054906101000a900473ffffffffffffffffffffffffffffffffffffffff1681565b6000600c549050600061107433610f84565b9050600083141580156110875750600081115b6110c6576040517f08c379a00000000000000000000000000000000000000000000000000000000081526004016110bd906139e3565b60405180910390fd5b600060116000858152602001908152602001600020541461111c576040517f08c379a000000000000000000000000000000000000000000000000000000000815260040161111390613b23565b60405180910390fd5b6105dc60126000858152602001908152602001600020541015611174576040517f08c379a000000000000000000000000000000000000000000000000000000000815260040161116b90613be3565b60405180910390fd5b601460009054906101000a900473ffffffffffffffffffffffffffffffffffffffff1673ffffffffffffffffffffffffffffffffffffffff1663367f682d33846040518363ffffffff1660e01b81526004016111d19291906138a7565b600060405180830381600087803b1580156111eb57600080fd5b505af11580156111ff573d6000803e3d6000fd5b505050506105dc6012600085815260200190815260200160002060008282546112289190613e2c565b925050819055508160116000858152602001908152602001600020819055503373ffffffffffffffffffffffffffffffffffffffff167f423ae04b472429d194e9eaab6ef6b34f42a353ef907309a5aefdbfdaae19222d8360405161128d9190613c63565b60405180910390a2600c60008154809291906112a890613f90565b9190505550505050565b600f6020528060005260406000206000915090505481565b6060600180546112d990613f5e565b80601f016020809104026020016040519081016040528092919081815260200182805461130590613f5e565b80156113525780601f1061132757610100808354040283529160200191611352565b820191906000526020600020905b81548152906001019060200180831161133557829003601f168201915b5050505050905090565b60136020528060005260406000206000915090505481565b61137c611bb0565b73ffffffffffffffffffffffffffffffffffffffff168273ffffffffffffffffffffffffffffffffffffffff1614156113ea576040517f08c379a00000000000000000000000000000000000000000000000000000000081526004016113e190613a23565b60405180910390fd5b80600560006113f7611bb0565b73ffffffffffffffffffffffffffffffffffffffff1673ffffffffffffffffffffffffffffffffffffffff16815260200190815260200160002060008473ffffffffffffffffffffffffffffffffffffffff1673ffffffffffffffffffffffffffffffffffffffff16815260200190815260200160002060006101000a81548160ff0219169083151502179055508173ffffffffffffffffffffffffffffffffffffffff166114a4611bb0565b73ffffffffffffffffffffffffffffffffffffffff167f17307eab39ab6107e8899845ad3d59bd9653f200f220920489ca2b5937696c31836040516114e991906138d0565b60405180910390a35050565b611506611500611bb0565b83611c71565b611545576040517f08c379a000000000000000000000000000000000000000000000000000000000815260040161153c90613c03565b60405180910390fd5b61155184848484611fab565b50505050565b601560009054906101000a900473ffffffffffffffffffffffffffffffffffffffff1681565b6000806103e890506000600290505b8381116115c05760fa816115a09190613dd2565b826115ab9190613d4b565b915080806115b890613f90565b91505061158c565b5080915050919050565b6000600d54905060006115dc33610f84565b9050600083141580156115ef5750600081115b61162e576040517f08c379a000000000000000000000000000000000000000000000000000000000815260040161162590613c43565b60405180910390fd5b6000601360008581526020019081526020016000205414611684576040517f08c379a000000000000000000000000000000000000000000000000000000000815260040161167b90613943565b60405180910390fd5b610bb8601260008581526020019081526020016000205410156116dc576040517f08c379a00000000000000000000000000000000000000000000000000000000081526004016116d390613be3565b60405180910390fd5b600d60008154809291906116ef90613f90565b9190505550610bb86012600085815260200190815260200160002060008282546117199190613e2c565b92505081905550816011600085815260200190815260200160002081905550505050565b600d5481565b606061174e82611b44565b61178d576040517f08c379a000000000000000000000000000000000000000000000000000000000815260040161178490613ba3565b60405180910390fd5b6000611797612007565b905060008151116117b757604051806020016040528060008152506117e2565b806117c18461201e565b6040516020016117d292919061381c565b6040516020818303038152906040525b915050919050565b6000600b549050600a6117fc33610f84565b1061183c576040517f08c379a000000000000000000000000000000000000000000000000000000000815260040161183390613963565b60405180910390fd5b6000600f6000838152602001908152602001600020819055506001600e6000838152602001908152602001600020819055506000601160008381526020019081526020016000208190555061189133826121cb565b3373ffffffffffffffffffffffffffffffffffffffff167f681489e2a7c535074cf6a8d776661658c4f160233183873f351e974adbc314ce826040516118d79190613c63565b60405180910390a2600b60008154809291906118f290613f90565b919050555050565b6000600560008473ffffffffffffffffffffffffffffffffffffffff1673ffffffffffffffffffffffffffffffffffffffff16815260200190815260200160002060008373ffffffffffffffffffffffffffffffffffffffff1673ffffffffffffffffffffffffffffffffffffffff16815260200190815260200160002060009054906101000a900460ff16905092915050565b601060008281526020019081526020016000205442116119e3576040517f08c379a00000000000000000000000000000000000000000000000000000000081526004016119da90613aa3565b60405180910390fd5b62015180426119f29190613d4b565b601060008381526020019081526020016000208190555060fa600f60008381526020019081526020016000206000828254611a2d9190613d4b565b925050819055506064601260008381526020019081526020016000206000828254611a589190613d4b565b9250508190555050565b60007f80ac58cd000000000000000000000000000000000000000000000000000000007bffffffffffffffffffffffffffffffffffffffffffffffffffffffff1916827bffffffffffffffffffffffffffffffffffffffffffffffffffffffff19161480611b2d57507f5b5e139f000000000000000000000000000000000000000000000000000000007bffffffffffffffffffffffffffffffffffffffffffffffffffffffff1916827bffffffffffffffffffffffffffffffffffffffffffffffffffffffff1916145b80611b3d5750611b3c826121e9565b5b9050919050565b60008073ffffffffffffffffffffffffffffffffffffffff166002600084815260200190815260200160002060009054906101000a900473ffffffffffffffffffffffffffffffffffffffff1673ffffffffffffffffffffffffffffffffffffffff1614159050919050565b600033905090565b816004600083815260200190815260200160002060006101000a81548173ffffffffffffffffffffffffffffffffffffffff021916908373ffffffffffffffffffffffffffffffffffffffff160217905550808273ffffffffffffffffffffffffffffffffffffffff16611c2b83610ecc565b73ffffffffffffffffffffffffffffffffffffffff167f8c5be1e5ebec7d5bd14f71427d1e84f3dd0314c0f7b2291e5b200ac8c7c3b92560405160405180910390a45050565b6000611c7c82611b44565b611cbb576040517f08c379a0000000000000000000000000000000000000000000000000000000008152600401611cb290613a63565b60405180910390fd5b6000611cc683610ecc565b90508073ffffffffffffffffffffffffffffffffffffffff168473ffffffffffffffffffffffffffffffffffffffff161480611d3557508373ffffffffffffffffffffffffffffffffffffffff16611d1d8461097f565b73ffffffffffffffffffffffffffffffffffffffff16145b80611d465750611d4581856118fa565b5b91505092915050565b8273ffffffffffffffffffffffffffffffffffffffff16611d6f82610ecc565b73ffffffffffffffffffffffffffffffffffffffff1614611dc5576040517f08c379a0000000000000000000000000000000000000000000000000000000008152600401611dbc90613b83565b60405180910390fd5b600073ffffffffffffffffffffffffffffffffffffffff168273ffffffffffffffffffffffffffffffffffffffff161415611e35576040517f08c379a0000000000000000000000000000000000000000000000000000000008152600401611e2c90613a03565b60405180910390fd5b611e40838383612253565b611e4b600082611bb8565b6001600360008573ffffffffffffffffffffffffffffffffffffffff1673ffffffffffffffffffffffffffffffffffffffff1681526020019081526020016000206000828254611e9b9190613e2c565b925050819055506001600360008473ffffffffffffffffffffffffffffffffffffffff1673ffffffffffffffffffffffffffffffffffffffff1681526020019081526020016000206000828254611ef29190613d4b565b92505081905550816002600083815260200190815260200160002060006101000a81548173ffffffffffffffffffffffffffffffffffffffff021916908373ffffffffffffffffffffffffffffffffffffffff160217905550808273ffffffffffffffffffffffffffffffffffffffff168473ffffffffffffffffffffffffffffffffffffffff167fddf252ad1be2c89b69c2b068fc378daa952ba7f163c4a11628f55a4df523b3ef60405160405180910390a4505050565b611fb6848484611d4f565b611fc284848484612367565b612001576040517f08c379a0000000000000000000000000000000000000000000000000000000008152600401611ff8906139a3565b60405180910390fd5b50505050565b606060405180602001604052806000815250905090565b60606000821415612066576040518060400160405280600181526020017f300000000000000000000000000000000000000000000000000000000000000081525090506121c6565b600082905060005b6000821461209857808061208190613f90565b915050600a826120919190613da1565b915061206e565b60008167ffffffffffffffff8111156120da577f4e487b7100000000000000000000000000000000000000000000000000000000600052604160045260246000fd5b6040519080825280601f01601f19166020018201604052801561210c5781602001600182028036833780820191505090505b5090505b600085146121bf576001826121259190613e2c565b9150600a856121349190613fd9565b60306121409190613d4b565b60f81b81838151811061217c577f4e487b7100000000000000000000000000000000000000000000000000000000600052603260045260246000fd5b60200101907effffffffffffffffffffffffffffffffffffffffffffffffffffffffffffff1916908160001a905350600a856121b89190613da1565b9450612110565b8093505050505b919050565b6121e58282604051806020016040528060008152506124fe565b5050565b60007f01ffc9a7000000000000000000000000000000000000000000000000000000007bffffffffffffffffffffffffffffffffffffffffffffffffffffffff1916827bffffffffffffffffffffffffffffffffffffffffffffffffffffffff1916149050919050565b61225e838383612559565b600073ffffffffffffffffffffffffffffffffffffffff168373ffffffffffffffffffffffffffffffffffffffff1614156122a15761229c8161255e565b6122e0565b8173ffffffffffffffffffffffffffffffffffffffff168373ffffffffffffffffffffffffffffffffffffffff16146122df576122de83826125a7565b5b5b600073ffffffffffffffffffffffffffffffffffffffff168273ffffffffffffffffffffffffffffffffffffffff1614156123235761231e81612714565b612362565b8273ffffffffffffffffffffffffffffffffffffffff168273ffffffffffffffffffffffffffffffffffffffff1614612361576123608282612857565b5b5b505050565b60006123888473ffffffffffffffffffffffffffffffffffffffff166128d6565b156124f1578373ffffffffffffffffffffffffffffffffffffffff1663150b7a026123b1611bb0565b8786866040518563ffffffff1660e01b81526004016123d3949392919061385b565b602060405180830381600087803b1580156123ed57600080fd5b505af192505050801561241e57506040513d601f19601f8201168201806040525081019061241b9190612d58565b60015b6124a1573d806000811461244e576040519150601f19603f3d011682016040523d82523d6000602084013e612453565b606091505b50600081511415612499576040517f08c379a0000000000000000000000000000000000000000000000000000000008152600401612490906139a3565b60405180910390fd5b805181602001fd5b63150b7a0260e01b7bffffffffffffffffffffffffffffffffffffffffffffffffffffffff1916817bffffffffffffffffffffffffffffffffffffffffffffffffffffffff1916149150506124f6565b600190505b949350505050565b61250883836128e9565b6125156000848484612367565b612554576040517f08c379a000000000000000000000000000000000000000000000000000000000815260040161254b906139a3565b60405180910390fd5b505050565b505050565b6008805490506009600083815260200190815260200160002081905550600881908060018154018082558091505060019003906000526020600020016000909190919091505550565b600060016125b484610f84565b6125be9190613e2c565b90506000600760008481526020019081526020016000205490508181146126a3576000600660008673ffffffffffffffffffffffffffffffffffffffff1673ffffffffffffffffffffffffffffffffffffffff168152602001908152602001600020600084815260200190815260200160002054905080600660008773ffffffffffffffffffffffffffffffffffffffff1673ffffffffffffffffffffffffffffffffffffffff168152602001908152602001600020600084815260200190815260200160002081905550816007600083815260200190815260200160002081905550505b6007600084815260200190815260200160002060009055600660008573ffffffffffffffffffffffffffffffffffffffff1673ffffffffffffffffffffffffffffffffffffffff16815260200190815260200160002060008381526020019081526020016000206000905550505050565b600060016008805490506127289190613e2c565b905060006009600084815260200190815260200160002054905060006008838154811061277e577f4e487b7100000000000000000000000000000000000000000000000000000000600052603260045260246000fd5b9060005260206000200154905080600883815481106127c6577f4e487b7100000000000000000000000000000000000000000000000000000000600052603260045260246000fd5b90600052602060002001819055508160096000838152602001908152602001600020819055506009600085815260200190815260200160002060009055600880548061283b577f4e487b7100000000000000000000000000000000000000000000000000000000600052603160045260246000fd5b6001900381819060005260206000200160009055905550505050565b600061286283610f84565b905081600660008573ffffffffffffffffffffffffffffffffffffffff1673ffffffffffffffffffffffffffffffffffffffff168152602001908152602001600020600083815260200190815260200160002081905550806007600084815260200190815260200160002081905550505050565b600080823b905060008111915050919050565b600073ffffffffffffffffffffffffffffffffffffffff168273ffffffffffffffffffffffffffffffffffffffff161415612959576040517f08c379a000000000000000000000000000000000000000000000000000000000815260040161295090613b43565b60405180910390fd5b61296281611b44565b156129a2576040517f08c379a0000000000000000000000000000000000000000000000000000000008152600401612999906139c3565b60405180910390fd5b6129ae60008383612253565b6001600360008473ffffffffffffffffffffffffffffffffffffffff1673ffffffffffffffffffffffffffffffffffffffff16815260200190815260200160002060008282546129fe9190613d4b565b92505081905550816002600083815260200190815260200160002060006101000a81548173ffffffffffffffffffffffffffffffffffffffff021916908373ffffffffffffffffffffffffffffffffffffffff160217905550808273ffffffffffffffffffffffffffffffffffffffff16600073ffffffffffffffffffffffffffffffffffffffff167fddf252ad1be2c89b69c2b068fc378daa952ba7f163c4a11628f55a4df523b3ef60405160405180910390a45050565b6000612aca612ac584613cd8565b613ca7565b905082815260208101848484011115612ae257600080fd5b612aed848285613f1c565b509392505050565b600081359050612b04816140d7565b92915050565b600081359050612b19816140ee565b92915050565b600081359050612b2e81614105565b92915050565b600081519050612b4381614105565b92915050565b600082601f830112612b5a57600080fd5b8135612b6a848260208601612ab7565b91505092915050565b600081359050612b828161411c565b92915050565b600060208284031215612b9a57600080fd5b6000612ba884828501612af5565b91505092915050565b60008060408385031215612bc457600080fd5b6000612bd285828601612af5565b9250506020612be385828601612af5565b9150509250929050565b600080600060608486031215612c0257600080fd5b6000612c1086828701612af5565b9350506020612c2186828701612af5565b9250506040612c3286828701612b73565b9150509250925092565b60008060008060808587031215612c5257600080fd5b6000612c6087828801612af5565b9450506020612c7187828801612af5565b9350506040612c8287828801612b73565b925050606085013567ffffffffffffffff811115612c9f57600080fd5b612cab87828801612b49565b91505092959194509250565b60008060408385031215612cca57600080fd5b6000612cd885828601612af5565b9250506020612ce985828601612b0a565b9150509250929050565b60008060408385031215612d0657600080fd5b6000612d1485828601612af5565b9250506020612d2585828601612b73565b9150509250929050565b600060208284031215612d4157600080fd5b6000612d4f84828501612b1f565b91505092915050565b600060208284031215612d6a57600080fd5b6000612d7884828501612b34565b91505092915050565b600060208284031215612d9357600080fd5b6000612da184828501612b73565b91505092915050565b612db381613e60565b82525050565b612dc281613e72565b82525050565b6000612dd382613d08565b612ddd8185613d1e565b9350612ded818560208601613f2b565b612df6816140c6565b840191505092915050565b612e0a81613ed4565b82525050565b612e1981613ef8565b82525050565b6000612e2a82613d13565b612e348185613d2f565b9350612e44818560208601613f2b565b612e4d816140c6565b840191505092915050565b6000612e6382613d13565b612e6d8185613d40565b9350612e7d818560208601613f2b565b80840191505092915050565b6000612e96602183613d2f565b91507f596f7572207069726174652063616e206f6e6c79206f776e206f6e652070657460008301527f21000000000000000000000000000000000000000000000000000000000000006020830152604082019050919050565b6000612efc602283613d2f565b91507f596f752063616e206f6e6c79206f776e20757020746f2031302070697261746560008301527f73210000000000000000000000000000000000000000000000000000000000006020830152604082019050919050565b6000612f62602b83613d2f565b91507f455243373231456e756d657261626c653a206f776e657220696e646578206f7560008301527f74206f6620626f756e64730000000000000000000000000000000000000000006020830152604082019050919050565b6000612fc8603283613d2f565b91507f4552433732313a207472616e7366657220746f206e6f6e20455243373231526560008301527f63656976657220696d706c656d656e74657200000000000000000000000000006020830152604082019050919050565b600061302e601c83613d2f565b91507f4552433732313a20746f6b656e20616c7265616479206d696e746564000000006000830152602082019050919050565b600061306e603083613d2f565b91507f596f75206d757374206f776e206120706972617465206265666f726520796f7560008301527f2063616e206f776e2061207368697021000000000000000000000000000000006020830152604082019050919050565b60006130d4602483613d2f565b91507f4552433732313a207472616e7366657220746f20746865207a65726f2061646460008301527f72657373000000000000000000000000000000000000000000000000000000006020830152604082019050919050565b600061313a601983613d2f565b91507f4552433732313a20617070726f766520746f2063616c6c6572000000000000006000830152602082019050919050565b600061317a603883613d2f565b91507f596f7520646f206e6f742068617665207468652072657175697265642058502060008301527f746f206c6576656c2075702074686973207069726174652e00000000000000006020830152604082019050919050565b60006131e0602c83613d2f565b91507f4552433732313a206f70657261746f7220717565727920666f72206e6f6e657860008301527f697374656e7420746f6b656e00000000000000000000000000000000000000006020830152604082019050919050565b6000613246603183613d2f565b91507f596f75206d757374206f776e20746869732070697261746520696e206f72646560008301527f7220746f206c6576656c206974207570210000000000000000000000000000006020830152604082019050919050565b60006132ac602b83613d2f565b91507f596f75206d7573742077616974206120646179206265666f726520796f75722060008301527f6e657874207175657374210000000000000000000000000000000000000000006020830152604082019050919050565b6000613312603883613d2f565b91507f4552433732313a20617070726f76652063616c6c6572206973206e6f74206f7760008301527f6e6572206e6f7220617070726f76656420666f7220616c6c00000000000000006020830152604082019050919050565b6000613378602a83613d2f565b91507f4552433732313a2062616c616e636520717565727920666f7220746865207a6560008301527f726f2061646472657373000000000000000000000000000000000000000000006020830152604082019050919050565b60006133de602983613d2f565b91507f4552433732313a206f776e657220717565727920666f72206e6f6e657869737460008301527f656e7420746f6b656e00000000000000000000000000000000000000000000006020830152604082019050919050565b6000613444602683613d2f565b91507f596f7572207069726174652063616e206f6e6c79206361707461696e206f6e6560008301527f20736869702100000000000000000000000000000000000000000000000000006020830152604082019050919050565b60006134aa602083613d2f565b91507f4552433732313a206d696e7420746f20746865207a65726f20616464726573736000830152602082019050919050565b60006134ea602c83613d2f565b91507f4552433732313a20617070726f76656420717565727920666f72206e6f6e657860008301527f697374656e7420746f6b656e00000000000000000000000000000000000000006020830152604082019050919050565b6000613550602983613d2f565b91507f4552433732313a207472616e73666572206f6620746f6b656e2074686174206960008301527f73206e6f74206f776e00000000000000000000000000000000000000000000006020830152604082019050919050565b60006135b6602f83613d2f565b91507f4552433732314d657461646174613a2055524920717565727920666f72206e6f60008301527f6e6578697374656e7420746f6b656e00000000000000000000000000000000006020830152604082019050919050565b600061361c602183613d2f565b91507f4552433732313a20617070726f76616c20746f2063757272656e74206f776e6560008301527f72000000000000000000000000000000000000000000000000000000000000006020830152604082019050919050565b6000613682603783613d2f565b91507f596f75722070697261746520646f6573206e6f7420686f6c6420656e6f75676860008301527f20676f6c6420746f2062652062757920612073686970210000000000000000006020830152604082019050919050565b60006136e8603183613d2f565b91507f4552433732313a207472616e736665722063616c6c6572206973206e6f74206f60008301527f776e6572206e6f7220617070726f7665640000000000000000000000000000006020830152604082019050919050565b600061374e602c83613d2f565b91507f455243373231456e756d657261626c653a20676c6f62616c20696e646578206f60008301527f7574206f6620626f756e647300000000000000000000000000000000000000006020830152604082019050919050565b60006137b4602f83613d2f565b91507f596f75206d757374206f776e206120706972617465206265666f726520796f7560008301527f2063616e206f776e2061207065742100000000000000000000000000000000006020830152604082019050919050565b61381681613eca565b82525050565b60006138288285612e58565b91506138348284612e58565b91508190509392505050565b60006020820190506138556000830184612daa565b92915050565b60006080820190506138706000830187612daa565b61387d6020830186612daa565b61388a604083018561380d565b818103606083015261389c8184612dc8565b905095945050505050565b60006040820190506138bc6000830185612daa565b6138c9602083018461380d565b9392505050565b60006020820190506138e56000830184612db9565b92915050565b60006020820190506139006000830184612e01565b92915050565b600060208201905061391b6000830184612e10565b92915050565b6000602082019050818103600083015261393b8184612e1f565b905092915050565b6000602082019050818103600083015261395c81612e89565b9050919050565b6000602082019050818103600083015261397c81612eef565b9050919050565b6000602082019050818103600083015261399c81612f55565b9050919050565b600060208201905081810360008301526139bc81612fbb565b9050919050565b600060208201905081810360008301526139dc81613021565b9050919050565b600060208201905081810360008301526139fc81613061565b9050919050565b60006020820190508181036000830152613a1c816130c7565b9050919050565b60006020820190508181036000830152613a3c8161312d565b9050919050565b60006020820190508181036000830152613a5c8161316d565b9050919050565b60006020820190508181036000830152613a7c816131d3565b9050919050565b60006020820190508181036000830152613a9c81613239565b9050919050565b60006020820190508181036000830152613abc8161329f565b9050919050565b60006020820190508181036000830152613adc81613305565b9050919050565b60006020820190508181036000830152613afc8161336b565b9050919050565b60006020820190508181036000830152613b1c816133d1565b9050919050565b60006020820190508181036000830152613b3c81613437565b9050919050565b60006020820190508181036000830152613b5c8161349d565b9050919050565b60006020820190508181036000830152613b7c816134dd565b9050919050565b60006020820190508181036000830152613b9c81613543565b9050919050565b60006020820190508181036000830152613bbc816135a9565b9050919050565b60006020820190508181036000830152613bdc8161360f565b9050919050565b60006020820190508181036000830152613bfc81613675565b9050919050565b60006020820190508181036000830152613c1c816136db565b9050919050565b60006020820190508181036000830152613c3c81613741565b9050919050565b60006020820190508181036000830152613c5c816137a7565b9050919050565b6000602082019050613c78600083018461380d565b92915050565b6000604082019050613c93600083018561380d565b613ca0602083018461380d565b9392505050565b6000604051905081810181811067ffffffffffffffff82111715613cce57613ccd614097565b5b8060405250919050565b600067ffffffffffffffff821115613cf357613cf2614097565b5b601f19601f8301169050602081019050919050565b600081519050919050565b600081519050919050565b600082825260208201905092915050565b600082825260208201905092915050565b600081905092915050565b6000613d5682613eca565b9150613d6183613eca565b9250827fffffffffffffffffffffffffffffffffffffffffffffffffffffffffffffffff03821115613d9657613d9561400a565b5b828201905092915050565b6000613dac82613eca565b9150613db783613eca565b925082613dc757613dc6614039565b5b828204905092915050565b6000613ddd82613eca565b9150613de883613eca565b9250817fffffffffffffffffffffffffffffffffffffffffffffffffffffffffffffffff0483118215151615613e2157613e2061400a565b5b828202905092915050565b6000613e3782613eca565b9150613e4283613eca565b925082821015613e5557613e5461400a565b5b828203905092915050565b6000613e6b82613eaa565b9050919050565b60008115159050919050565b60007fffffffff0000000000000000000000000000000000000000000000000000000082169050919050565b600073ffffffffffffffffffffffffffffffffffffffff82169050919050565b6000819050919050565b6000613edf82613ee6565b9050919050565b6000613ef182613eaa565b9050919050565b6000613f0382613f0a565b9050919050565b6000613f1582613eaa565b9050919050565b82818337600083830152505050565b60005b83811015613f49578082015181840152602081019050613f2e565b83811115613f58576000848401525b50505050565b60006002820490506001821680613f7657607f821691505b60208210811415613f8a57613f89614068565b5b50919050565b6000613f9b82613eca565b91507fffffffffffffffffffffffffffffffffffffffffffffffffffffffffffffffff821415613fce57613fcd61400a565b5b600182019050919050565b6000613fe482613eca565b9150613fef83613eca565b925082613fff57613ffe614039565b5b828206905092915050565b7f4e487b7100000000000000000000000000000000000000000000000000000000600052601160045260246000fd5b7f4e487b7100000000000000000000000000000000000000000000000000000000600052601260045260246000fd5b7f4e487b7100000000000000000000000000000000000000000000000000000000600052602260045260246000fd5b7f4e487b7100000000000000000000000000000000000000000000000000000000600052604160045260246000fd5b6000601f19601f8301169050919050565b6140e081613e60565b81146140eb57600080fd5b50565b6140f781613e72565b811461410257600080fd5b50565b61410e81613e7e565b811461411957600080fd5b50565b61412581613eca565b811461413057600080fd5b5056fea2646970667358221220bf658fb237a504fee6ee725a5ded5be22bfe71c5d9f2ed19fb1727bfa42d85a364736f6c63430008000033",
  "immutableReferences": {},
  "source": "// SPDX-License-Identifier: MIT\npragma solidity ^0.8.0;\n\nimport \"@openzeppelin/contracts/token/ERC721/ERC721.sol\";\nimport \"@openzeppelin/contracts/token/ERC721/extensions/ERC721Enumerable.sol\";\nimport \"./FantomPiratesShip.sol\";\nimport \"./FantomPiratesGold.sol\";\n\ncontract FantomPiratesGame is ERC721Enumerable {\n\n  address public owner = msg.sender;\n\n  uint public next_pirate_id = 1;\n  uint public next_ship_id = 1;\n  uint public next_pet_id = 1;\n\n  uint constant DAY = 1 days;\n\n  uint constant xp_per_quest = 250;\n  uint constant gold_per_quest = 100;\n\n  uint constant gold_for_ship = 1500;\n  uint constant gold_for_pet = 3000;\n  \n  mapping(uint => uint) public level;\n  mapping(uint => uint) public xp;\n  mapping(uint => uint) public quests_log;\n  mapping(uint => uint) public ship;  // pirate_id => ship_id;\n  mapping(uint => uint) public gold;\n  mapping(uint => uint) public pet;   // pirate_id => pet_id;\n\n  FantomPiratesShip public _ships_contract;\n  ERC20 public _gold_contract;\n\n  event PirateCreated(address indexed owner, uint pirate_id);\n  event ShipCreated(address indexed owner, uint ship_id);\n  event Leveled(address indexed owner, uint id, uint level);\n  \n  constructor(address _ship_contract_address) ERC721(\"Fantom Pirates\", \"FP\") {\n    _ships_contract = FantomPiratesShip(_ship_contract_address);\n  }\n\n  function mintPirate() public payable {\n    uint _pirate_id = next_pirate_id;\n    require(balanceOf(msg.sender) < 10, \"You can only own up to 10 pirates!\");\n    xp[_pirate_id] = 0;\n    level[_pirate_id] = 1;\n    ship[_pirate_id] = 0;\n    _safeMint(msg.sender, _pirate_id);\n    emit PirateCreated(msg.sender, _pirate_id);\n    next_pirate_id++;\n  }\n\n  function mintShip(uint256 _pirate_id) public payable {\n    uint _next_ship_id = next_ship_id;\n    uint256 numberOfPiratesOwned = balanceOf(msg.sender);\n    require(_pirate_id != 0 && numberOfPiratesOwned > 0, \"You must own a pirate before you can own a ship!\");\n    require(ship[_pirate_id] == 0, \"Your pirate can only captain one ship!\");\n    require(gold[_pirate_id] >= gold_for_ship, \"Your pirate does not hold enough gold to be buy a ship!\");\n    _ships_contract.mintShip(msg.sender, _next_ship_id);\n    gold[_pirate_id] -= gold_for_ship;\n    ship[_pirate_id] = _next_ship_id;\n    emit ShipCreated(msg.sender, _next_ship_id);\n    next_ship_id++;\n  }\n\n  function mintPet(uint256 _pirate_id) public payable {\n    uint _next_pet_id = next_pet_id;\n    uint256 numberOfPiratesOwned = balanceOf(msg.sender);\n    require(_pirate_id != 0 && numberOfPiratesOwned > 0, \"You must own a pirate before you can own a pet!\");\n    require(pet[_pirate_id] == 0, \"Your pirate can only own one pet!\");\n    require(gold[_pirate_id] >= gold_for_pet, \"Your pirate does not hold enough gold to be buy a ship!\");\n    next_pet_id++;\n    gold[_pirate_id] -= gold_for_pet;\n    ship[_pirate_id] = _next_pet_id;\n  }\n\n  function doQuest(uint _pirate_id) public payable {\n    require(block.timestamp > quests_log[_pirate_id], \"You must wait a day before your next quest!\");\n    quests_log[_pirate_id] = block.timestamp + DAY;\n    xp[_pirate_id] += xp_per_quest;\n    gold[_pirate_id] += gold_per_quest;\n  }\n\n  function levelUp(uint _pirate_id) public payable {\n    require(_isApprovedOrOwner(msg.sender, _pirate_id), \"You must own this pirate in order to level it up!\");\n    uint _pirate_level = level[_pirate_id];\n    uint required_xp = requiredXpForLevel(_pirate_level + 1);\n    require(xp[_pirate_id] >= required_xp, \"You do not have the required XP to level up this pirate.\");\n    xp[_pirate_id] -= required_xp;\n    level[_pirate_id] = _pirate_level + 1;\n    emit Leveled(msg.sender, _pirate_id, _pirate_level);\n  }\n\n  function requiredXpForLevel(uint _pirate_level) public pure returns (uint required_xp) {\n    uint _required_xp = 1000;\n    for (uint i = 2; i<=_pirate_level;i++) {\n      _required_xp += (i * xp_per_quest);\n    }\n    return _required_xp;\n  }\n}\n",
  "sourcePath": "/Users/joshuacotterell/Documents/Blockchain/Projects/FantomPirates/src/blockchain/contracts/FantomPiratesGame.sol",
  "compiler": {
    "name": "solc",
    "version": "0.8.0+commit.c7dfd78e.Emscripten.clang"
  },
  "schemaVersion": "3.3.4",
  "updatedAt": "2021-11-20T23:14:28.122Z",
  "devdoc": {
    "kind": "dev",
    "methods": {
      "approve(address,uint256)": {
        "details": "See {IERC721-approve}."
      },
      "balanceOf(address)": {
        "details": "See {IERC721-balanceOf}."
      },
      "getApproved(uint256)": {
        "details": "See {IERC721-getApproved}."
      },
      "isApprovedForAll(address,address)": {
        "details": "See {IERC721-isApprovedForAll}."
      },
      "name()": {
        "details": "See {IERC721Metadata-name}."
      },
      "ownerOf(uint256)": {
        "details": "See {IERC721-ownerOf}."
      },
      "safeTransferFrom(address,address,uint256)": {
        "details": "See {IERC721-safeTransferFrom}."
      },
      "safeTransferFrom(address,address,uint256,bytes)": {
        "details": "See {IERC721-safeTransferFrom}."
      },
      "setApprovalForAll(address,bool)": {
        "details": "See {IERC721-setApprovalForAll}."
      },
      "supportsInterface(bytes4)": {
        "details": "See {IERC165-supportsInterface}."
      },
      "symbol()": {
        "details": "See {IERC721Metadata-symbol}."
      },
      "tokenByIndex(uint256)": {
        "details": "See {IERC721Enumerable-tokenByIndex}."
      },
      "tokenOfOwnerByIndex(address,uint256)": {
        "details": "See {IERC721Enumerable-tokenOfOwnerByIndex}."
      },
      "tokenURI(uint256)": {
        "details": "See {IERC721Metadata-tokenURI}."
      },
      "totalSupply()": {
        "details": "See {IERC721Enumerable-totalSupply}."
      },
      "transferFrom(address,address,uint256)": {
        "details": "See {IERC721-transferFrom}."
      }
    },
    "version": 1
  },
  "userdoc": {
    "kind": "user",
    "methods": {},
    "version": 1
  }
}