{
  "contractName": "FantomPiratesGame",
  "abi": [
    {
      "inputs": [
        {
          "internalType": "address",
          "name": "_ship_contract_address",
          "type": "address"
        }
      ],
      "stateMutability": "nonpayable",
      "type": "constructor"
    },
    {
      "anonymous": false,
      "inputs": [
        {
          "indexed": true,
          "internalType": "address",
          "name": "owner",
          "type": "address"
        },
        {
          "indexed": true,
          "internalType": "address",
          "name": "approved",
          "type": "address"
        },
        {
          "indexed": true,
          "internalType": "uint256",
          "name": "tokenId",
          "type": "uint256"
        }
      ],
      "name": "Approval",
      "type": "event"
    },
    {
      "anonymous": false,
      "inputs": [
        {
          "indexed": true,
          "internalType": "address",
          "name": "owner",
          "type": "address"
        },
        {
          "indexed": true,
          "internalType": "address",
          "name": "operator",
          "type": "address"
        },
        {
          "indexed": false,
          "internalType": "bool",
          "name": "approved",
          "type": "bool"
        }
      ],
      "name": "ApprovalForAll",
      "type": "event"
    },
    {
      "anonymous": false,
      "inputs": [
        {
          "indexed": true,
          "internalType": "address",
          "name": "owner",
          "type": "address"
        },
        {
          "indexed": false,
          "internalType": "uint256",
          "name": "level",
          "type": "uint256"
        },
        {
          "indexed": false,
          "internalType": "uint256",
          "name": "id",
          "type": "uint256"
        }
      ],
      "name": "Leveled",
      "type": "event"
    },
    {
      "anonymous": false,
      "inputs": [
        {
          "indexed": true,
          "internalType": "address",
          "name": "owner",
          "type": "address"
        },
        {
          "indexed": false,
          "internalType": "uint256",
          "name": "pirate_id",
          "type": "uint256"
        }
      ],
      "name": "PirateCreated",
      "type": "event"
    },
    {
      "anonymous": false,
      "inputs": [
        {
          "indexed": true,
          "internalType": "address",
          "name": "owner",
          "type": "address"
        },
        {
          "indexed": false,
          "internalType": "uint256",
          "name": "ship_id",
          "type": "uint256"
        }
      ],
      "name": "ShipCreated",
      "type": "event"
    },
    {
      "anonymous": false,
      "inputs": [
        {
          "indexed": true,
          "internalType": "address",
          "name": "from",
          "type": "address"
        },
        {
          "indexed": true,
          "internalType": "address",
          "name": "to",
          "type": "address"
        },
        {
          "indexed": true,
          "internalType": "uint256",
          "name": "tokenId",
          "type": "uint256"
        }
      ],
      "name": "Transfer",
      "type": "event"
    },
    {
      "inputs": [],
      "name": "_gold_contract",
      "outputs": [
        {
          "internalType": "contract ERC20",
          "name": "",
          "type": "address"
        }
      ],
      "stateMutability": "view",
      "type": "function",
      "constant": true
    },
    {
      "inputs": [],
      "name": "_ships_contract",
      "outputs": [
        {
          "internalType": "contract FantomPiratesShip",
          "name": "",
          "type": "address"
        }
      ],
      "stateMutability": "view",
      "type": "function",
      "constant": true
    },
    {
      "inputs": [
        {
          "internalType": "address",
          "name": "to",
          "type": "address"
        },
        {
          "internalType": "uint256",
          "name": "tokenId",
          "type": "uint256"
        }
      ],
      "name": "approve",
      "outputs": [],
      "stateMutability": "nonpayable",
      "type": "function"
    },
    {
      "inputs": [
        {
          "internalType": "address",
          "name": "owner",
          "type": "address"
        }
      ],
      "name": "balanceOf",
      "outputs": [
        {
          "internalType": "uint256",
          "name": "",
          "type": "uint256"
        }
      ],
      "stateMutability": "view",
      "type": "function",
      "constant": true
    },
    {
      "inputs": [
        {
          "internalType": "uint256",
          "name": "tokenId",
          "type": "uint256"
        }
      ],
      "name": "getApproved",
      "outputs": [
        {
          "internalType": "address",
          "name": "",
          "type": "address"
        }
      ],
      "stateMutability": "view",
      "type": "function",
      "constant": true
    },
    {
      "inputs": [
        {
          "internalType": "uint256",
          "name": "",
          "type": "uint256"
        }
      ],
      "name": "gold",
      "outputs": [
        {
          "internalType": "uint256",
          "name": "",
          "type": "uint256"
        }
      ],
      "stateMutability": "view",
      "type": "function",
      "constant": true
    },
    {
      "inputs": [
        {
          "internalType": "address",
          "name": "owner",
          "type": "address"
        },
        {
          "internalType": "address",
          "name": "operator",
          "type": "address"
        }
      ],
      "name": "isApprovedForAll",
      "outputs": [
        {
          "internalType": "bool",
          "name": "",
          "type": "bool"
        }
      ],
      "stateMutability": "view",
      "type": "function",
      "constant": true
    },
    {
      "inputs": [
        {
          "internalType": "uint256",
          "name": "",
          "type": "uint256"
        }
      ],
      "name": "level",
      "outputs": [
        {
          "internalType": "uint256",
          "name": "",
          "type": "uint256"
        }
      ],
      "stateMutability": "view",
      "type": "function",
      "constant": true
    },
    {
      "inputs": [],
      "name": "name",
      "outputs": [
        {
          "internalType": "string",
          "name": "",
          "type": "string"
        }
      ],
      "stateMutability": "view",
      "type": "function",
      "constant": true
    },
    {
      "inputs": [],
      "name": "next_pirate_id",
      "outputs": [
        {
          "internalType": "uint256",
          "name": "",
          "type": "uint256"
        }
      ],
      "stateMutability": "view",
      "type": "function",
      "constant": true
    },
    {
      "inputs": [],
      "name": "next_ship_id",
      "outputs": [
        {
          "internalType": "uint256",
          "name": "",
          "type": "uint256"
        }
      ],
      "stateMutability": "view",
      "type": "function",
      "constant": true
    },
    {
      "inputs": [],
      "name": "owner",
      "outputs": [
        {
          "internalType": "address",
          "name": "",
          "type": "address"
        }
      ],
      "stateMutability": "view",
      "type": "function",
      "constant": true
    },
    {
      "inputs": [
        {
          "internalType": "uint256",
          "name": "tokenId",
          "type": "uint256"
        }
      ],
      "name": "ownerOf",
      "outputs": [
        {
          "internalType": "address",
          "name": "",
          "type": "address"
        }
      ],
      "stateMutability": "view",
      "type": "function",
      "constant": true
    },
    {
      "inputs": [
        {
          "internalType": "uint256",
          "name": "",
          "type": "uint256"
        }
      ],
      "name": "quests_log",
      "outputs": [
        {
          "internalType": "uint256",
          "name": "",
          "type": "uint256"
        }
      ],
      "stateMutability": "view",
      "type": "function",
      "constant": true
    },
    {
      "inputs": [
        {
          "internalType": "address",
          "name": "from",
          "type": "address"
        },
        {
          "internalType": "address",
          "name": "to",
          "type": "address"
        },
        {
          "internalType": "uint256",
          "name": "tokenId",
          "type": "uint256"
        }
      ],
      "name": "safeTransferFrom",
      "outputs": [],
      "stateMutability": "nonpayable",
      "type": "function"
    },
    {
      "inputs": [
        {
          "internalType": "address",
          "name": "from",
          "type": "address"
        },
        {
          "internalType": "address",
          "name": "to",
          "type": "address"
        },
        {
          "internalType": "uint256",
          "name": "tokenId",
          "type": "uint256"
        },
        {
          "internalType": "bytes",
          "name": "_data",
          "type": "bytes"
        }
      ],
      "name": "safeTransferFrom",
      "outputs": [],
      "stateMutability": "nonpayable",
      "type": "function"
    },
    {
      "inputs": [
        {
          "internalType": "address",
          "name": "operator",
          "type": "address"
        },
        {
          "internalType": "bool",
          "name": "approved",
          "type": "bool"
        }
      ],
      "name": "setApprovalForAll",
      "outputs": [],
      "stateMutability": "nonpayable",
      "type": "function"
    },
    {
      "inputs": [
        {
          "internalType": "uint256",
          "name": "",
          "type": "uint256"
        }
      ],
      "name": "ship",
      "outputs": [
        {
          "internalType": "uint256",
          "name": "",
          "type": "uint256"
        }
      ],
      "stateMutability": "view",
      "type": "function",
      "constant": true
    },
    {
      "inputs": [
        {
          "internalType": "bytes4",
          "name": "interfaceId",
          "type": "bytes4"
        }
      ],
      "name": "supportsInterface",
      "outputs": [
        {
          "internalType": "bool",
          "name": "",
          "type": "bool"
        }
      ],
      "stateMutability": "view",
      "type": "function",
      "constant": true
    },
    {
      "inputs": [],
      "name": "symbol",
      "outputs": [
        {
          "internalType": "string",
          "name": "",
          "type": "string"
        }
      ],
      "stateMutability": "view",
      "type": "function",
      "constant": true
    },
    {
      "inputs": [
        {
          "internalType": "uint256",
          "name": "index",
          "type": "uint256"
        }
      ],
      "name": "tokenByIndex",
      "outputs": [
        {
          "internalType": "uint256",
          "name": "",
          "type": "uint256"
        }
      ],
      "stateMutability": "view",
      "type": "function",
      "constant": true
    },
    {
      "inputs": [
        {
          "internalType": "address",
          "name": "owner",
          "type": "address"
        },
        {
          "internalType": "uint256",
          "name": "index",
          "type": "uint256"
        }
      ],
      "name": "tokenOfOwnerByIndex",
      "outputs": [
        {
          "internalType": "uint256",
          "name": "",
          "type": "uint256"
        }
      ],
      "stateMutability": "view",
      "type": "function",
      "constant": true
    },
    {
      "inputs": [
        {
          "internalType": "uint256",
          "name": "tokenId",
          "type": "uint256"
        }
      ],
      "name": "tokenURI",
      "outputs": [
        {
          "internalType": "string",
          "name": "",
          "type": "string"
        }
      ],
      "stateMutability": "view",
      "type": "function",
      "constant": true
    },
    {
      "inputs": [],
      "name": "totalSupply",
      "outputs": [
        {
          "internalType": "uint256",
          "name": "",
          "type": "uint256"
        }
      ],
      "stateMutability": "view",
      "type": "function",
      "constant": true
    },
    {
      "inputs": [
        {
          "internalType": "address",
          "name": "from",
          "type": "address"
        },
        {
          "internalType": "address",
          "name": "to",
          "type": "address"
        },
        {
          "internalType": "uint256",
          "name": "tokenId",
          "type": "uint256"
        }
      ],
      "name": "transferFrom",
      "outputs": [],
      "stateMutability": "nonpayable",
      "type": "function"
    },
    {
      "inputs": [
        {
          "internalType": "uint256",
          "name": "",
          "type": "uint256"
        }
      ],
      "name": "xp",
      "outputs": [
        {
          "internalType": "uint256",
          "name": "",
          "type": "uint256"
        }
      ],
      "stateMutability": "view",
      "type": "function",
      "constant": true
    },
    {
      "inputs": [],
      "name": "mintPirate",
      "outputs": [],
      "stateMutability": "payable",
      "type": "function",
      "payable": true
    },
    {
      "inputs": [
        {
          "internalType": "uint256",
          "name": "_pirate_id",
          "type": "uint256"
        }
      ],
      "name": "mintShip",
      "outputs": [],
      "stateMutability": "payable",
      "type": "function",
      "payable": true
    },
    {
      "inputs": [
        {
          "internalType": "uint256",
          "name": "_pirate_id",
          "type": "uint256"
        }
      ],
      "name": "doQuest",
      "outputs": [],
      "stateMutability": "payable",
      "type": "function",
      "payable": true
    },
    {
      "inputs": [
        {
          "internalType": "uint256",
          "name": "_pirate_id",
          "type": "uint256"
        }
      ],
      "name": "levelUp",
      "outputs": [],
      "stateMutability": "payable",
      "type": "function",
      "payable": true
    },
    {
      "inputs": [
        {
          "internalType": "uint256",
          "name": "_pirate_level",
          "type": "uint256"
        }
      ],
      "name": "requiredXpForLevel",
      "outputs": [
        {
          "internalType": "uint256",
          "name": "required_xp",
          "type": "uint256"
        }
      ],
      "stateMutability": "pure",
      "type": "function",
      "constant": true
    }
  ],
  "bytecode": "0x608060405233600a60006101000a81548173ffffffffffffffffffffffffffffffffffffffff021916908373ffffffffffffffffffffffffffffffffffffffff1602179055506001600b556001600c553480156200005c57600080fd5b50604051620040b5380380620040b5833981810160405281019062000082919062000231565b6040518060400160405280600e81526020017f46616e746f6d20506972617465730000000000000000000000000000000000008152506040518060400160405280600281526020017f46500000000000000000000000000000000000000000000000000000000000008152508160009080519060200190620001069291906200016a565b5080600190805190602001906200011f9291906200016a565b50505080601260006101000a81548173ffffffffffffffffffffffffffffffffffffffff021916908373ffffffffffffffffffffffffffffffffffffffff1602179055505062000310565b828054620001789062000291565b90600052602060002090601f0160209004810192826200019c5760008555620001e8565b82601f10620001b757805160ff1916838001178555620001e8565b82800160010185558215620001e8579182015b82811115620001e7578251825591602001919060010190620001ca565b5b509050620001f79190620001fb565b5090565b5b8082111562000216576000816000905550600101620001fc565b5090565b6000815190506200022b81620002f6565b92915050565b6000602082840312156200024457600080fd5b600062000254848285016200021a565b91505092915050565b60006200026a8262000271565b9050919050565b600073ffffffffffffffffffffffffffffffffffffffff82169050919050565b60006002820490506001821680620002aa57607f821691505b60208210811415620002c157620002c0620002c7565b5b50919050565b7f4e487b7100000000000000000000000000000000000000000000000000000000600052602260045260246000fd5b62000301816200025d565b81146200030d57600080fd5b50565b613d9580620003206000396000f3fe6080604052600436106101d85760003560e01c80634fd0e8f611610102578063a22cb46511610095578063c87b56dd11610064578063c87b56dd14610716578063cec8603e14610753578063e985e9c51461075d578063efce079e1461079a576101d8565b8063a22cb4651461065c578063b88d4fde14610685578063b9c831d1146106ae578063bfb3cd5d146106d9576101d8565b80638da5cb5b116100d15780638da5cb5b146105ad57806393407afe146105d857806394b69ffa146105f457806395d89b4114610631576101d8565b80634fd0e8f6146104dd5780636352211e146105085780636604b7fa1461054557806370a0823114610570576101d8565b806320c69e561161017a5780633e3962f4116101495780633e3962f41461040f57806342842e0e1461044c578063474758a2146104755780634f6ccce7146104a0576101d8565b806320c69e561461032f57806323b872dd1461036c578063244f643b146103955780632f745c59146103d2576101d8565b8063081812fc116101b6578063081812fc14610282578063095ea7b3146102bf5780630ce90ec2146102e857806318160ddd14610304576101d8565b806301ffc9a7146101dd57806305c58df21461021a57806306fdde0314610257575b600080fd5b3480156101e957600080fd5b5061020460048036038101906101ff9190612a90565b6107b6565b6040516102119190613565565b60405180910390f35b34801561022657600080fd5b50610241600480360381019061023c9190612ae2565b610830565b60405161024e91906138b8565b60405180910390f35b34801561026357600080fd5b5061026c610848565b60405161027991906135b6565b60405180910390f35b34801561028e57600080fd5b506102a960048036038101906102a49190612ae2565b6108da565b6040516102b691906134d5565b60405180910390f35b3480156102cb57600080fd5b506102e660048036038101906102e19190612a54565b61095f565b005b61030260048036038101906102fd9190612ae2565b610a77565b005b34801561031057600080fd5b50610319610b9a565b60405161032691906138b8565b60405180910390f35b34801561033b57600080fd5b5061035660048036038101906103519190612ae2565b610ba7565b60405161036391906138b8565b60405180910390f35b34801561037857600080fd5b50610393600480360381019061038e919061294e565b610bbf565b005b3480156103a157600080fd5b506103bc60048036038101906103b79190612ae2565b610c1f565b6040516103c991906138b8565b60405180910390f35b3480156103de57600080fd5b506103f960048036038101906103f49190612a54565b610c37565b60405161040691906138b8565b60405180910390f35b34801561041b57600080fd5b5061043660048036038101906104319190612ae2565b610cdc565b60405161044391906138b8565b60405180910390f35b34801561045857600080fd5b50610473600480360381019061046e919061294e565b610cf4565b005b34801561048157600080fd5b5061048a610d14565b604051610497919061359b565b60405180910390f35b3480156104ac57600080fd5b506104c760048036038101906104c29190612ae2565b610d3a565b6040516104d491906138b8565b60405180910390f35b3480156104e957600080fd5b506104f2610dd1565b6040516104ff91906138b8565b60405180910390f35b34801561051457600080fd5b5061052f600480360381019061052a9190612ae2565b610dd7565b60405161053c91906134d5565b60405180910390f35b34801561055157600080fd5b5061055a610e89565b60405161056791906138b8565b60405180910390f35b34801561057c57600080fd5b50610597600480360381019061059291906128e9565b610e8f565b6040516105a491906138b8565b60405180910390f35b3480156105b957600080fd5b506105c2610f47565b6040516105cf91906134d5565b60405180910390f35b6105f260048036038101906105ed9190612ae2565b610f6d565b005b34801561060057600080fd5b5061061b60048036038101906106169190612ae2565b6111bd565b60405161062891906138b8565b60405180910390f35b34801561063d57600080fd5b506106466111d5565b60405161065391906135b6565b60405180910390f35b34801561066857600080fd5b50610683600480360381019061067e9190612a18565b611267565b005b34801561069157600080fd5b506106ac60048036038101906106a7919061299d565b6113e8565b005b3480156106ba57600080fd5b506106c361144a565b6040516106d09190613580565b60405180910390f35b3480156106e557600080fd5b5061070060048036038101906106fb9190612ae2565b611470565b60405161070d91906138b8565b60405180910390f35b34801561072257600080fd5b5061073d60048036038101906107389190612ae2565b6114bd565b60405161074a91906135b6565b60405180910390f35b61075b611564565b005b34801561076957600080fd5b50610784600480360381019061077f9190612912565b61165b565b6040516107919190613565565b60405180910390f35b6107b460048036038101906107af9190612ae2565b6116ef565b005b60007f780e9d63000000000000000000000000000000000000000000000000000000007bffffffffffffffffffffffffffffffffffffffffffffffffffffffff1916827bffffffffffffffffffffffffffffffffffffffffffffffffffffffff191614806108295750610828826117c3565b5b9050919050565b600d6020528060005260406000206000915090505481565b60606000805461085790613b8a565b80601f016020809104026020016040519081016040528092919081815260200182805461088390613b8a565b80156108d05780601f106108a5576101008083540402835291602001916108d0565b820191906000526020600020905b8154815290600101906020018083116108b357829003601f168201915b5050505050905090565b60006108e5826118a5565b610924576040517f08c379a000000000000000000000000000000000000000000000000000000000815260040161091b906137d8565b60405180910390fd5b6004600083815260200190815260200160002060009054906101000a900473ffffffffffffffffffffffffffffffffffffffff169050919050565b600061096a82610dd7565b90508073ffffffffffffffffffffffffffffffffffffffff168373ffffffffffffffffffffffffffffffffffffffff1614156109db576040517f08c379a00000000000000000000000000000000000000000000000000000000081526004016109d290613838565b60405180910390fd5b8073ffffffffffffffffffffffffffffffffffffffff166109fa611911565b73ffffffffffffffffffffffffffffffffffffffff161480610a295750610a2881610a23611911565b61165b565b5b610a68576040517f08c379a0000000000000000000000000000000000000000000000000000000008152600401610a5f90613738565b60405180910390fd5b610a728383611919565b505050565b610a8133826119d2565b610ac0576040517f08c379a0000000000000000000000000000000000000000000000000000000008152600401610ab7906136f8565b60405180910390fd5b6000600d60008381526020019081526020016000205490506000610aef8280610ae890613bbc565b9350611470565b905080600e6000858152602001908152602001600020541015610b47576040517f08c379a0000000000000000000000000000000000000000000000000000000008152600401610b3e906136b8565b60405180910390fd5b80600e60008581526020019081526020016000206000828254610b6a9190613a58565b92505081905550600182610b7e9190613977565b600d600085815260200190815260200160002081905550505050565b6000600880549050905090565b60116020528060005260406000206000915090505481565b610bd0610bca611911565b826119d2565b610c0f576040517f08c379a0000000000000000000000000000000000000000000000000000000008152600401610c0690613878565b60405180910390fd5b610c1a838383611ab0565b505050565b60106020528060005260406000206000915090505481565b6000610c4283610e8f565b8210610c83576040517f08c379a0000000000000000000000000000000000000000000000000000000008152600401610c7a906135f8565b60405180910390fd5b600660008473ffffffffffffffffffffffffffffffffffffffff1673ffffffffffffffffffffffffffffffffffffffff168152602001908152602001600020600083815260200190815260200160002054905092915050565b600f6020528060005260406000206000915090505481565b610d0f838383604051806020016040528060008152506113e8565b505050565b601260009054906101000a900473ffffffffffffffffffffffffffffffffffffffff1681565b6000610d44610b9a565b8210610d85576040517f08c379a0000000000000000000000000000000000000000000000000000000008152600401610d7c90613898565b60405180910390fd5b60088281548110610dbf577f4e487b7100000000000000000000000000000000000000000000000000000000600052603260045260246000fd5b90600052602060002001549050919050565b600b5481565b6000806002600084815260200190815260200160002060009054906101000a900473ffffffffffffffffffffffffffffffffffffffff169050600073ffffffffffffffffffffffffffffffffffffffff168173ffffffffffffffffffffffffffffffffffffffff161415610e80576040517f08c379a0000000000000000000000000000000000000000000000000000000008152600401610e7790613778565b60405180910390fd5b80915050919050565b600c5481565b60008073ffffffffffffffffffffffffffffffffffffffff168273ffffffffffffffffffffffffffffffffffffffff161415610f00576040517f08c379a0000000000000000000000000000000000000000000000000000000008152600401610ef790613758565b60405180910390fd5b600360008373ffffffffffffffffffffffffffffffffffffffff1673ffffffffffffffffffffffffffffffffffffffff168152602001908152602001600020549050919050565b600a60009054906101000a900473ffffffffffffffffffffffffffffffffffffffff1681565b6000600c5490506000610f7f33610e8f565b905060008314158015610f925750600081115b610fd1576040517f08c379a0000000000000000000000000000000000000000000000000000000008152600401610fc890613658565b60405180910390fd5b6000601060008581526020019081526020016000205414611027576040517f08c379a000000000000000000000000000000000000000000000000000000000815260040161101e90613798565b60405180910390fd5b6105dc6011600085815260200190815260200160002054101561107f576040517f08c379a000000000000000000000000000000000000000000000000000000000815260040161107690613858565b60405180910390fd5b601260009054906101000a900473ffffffffffffffffffffffffffffffffffffffff1673ffffffffffffffffffffffffffffffffffffffff1663367f682d33846040518363ffffffff1660e01b81526004016110dc92919061353c565b600060405180830381600087803b1580156110f657600080fd5b505af115801561110a573d6000803e3d6000fd5b50505050600c600081548092919061112190613bbc565b91905055506105dc60116000858152602001908152602001600020600082825461114b9190613a58565b925050819055508160106000858152602001908152602001600020819055503373ffffffffffffffffffffffffffffffffffffffff167f423ae04b472429d194e9eaab6ef6b34f42a353ef907309a5aefdbfdaae19222d836040516111b091906138b8565b60405180910390a2505050565b600e6020528060005260406000206000915090505481565b6060600180546111e490613b8a565b80601f016020809104026020016040519081016040528092919081815260200182805461121090613b8a565b801561125d5780601f106112325761010080835404028352916020019161125d565b820191906000526020600020905b81548152906001019060200180831161124057829003601f168201915b5050505050905090565b61126f611911565b73ffffffffffffffffffffffffffffffffffffffff168273ffffffffffffffffffffffffffffffffffffffff1614156112dd576040517f08c379a00000000000000000000000000000000000000000000000000000000081526004016112d490613698565b60405180910390fd5b80600560006112ea611911565b73ffffffffffffffffffffffffffffffffffffffff1673ffffffffffffffffffffffffffffffffffffffff16815260200190815260200160002060008473ffffffffffffffffffffffffffffffffffffffff1673ffffffffffffffffffffffffffffffffffffffff16815260200190815260200160002060006101000a81548160ff0219169083151502179055508173ffffffffffffffffffffffffffffffffffffffff16611397611911565b73ffffffffffffffffffffffffffffffffffffffff167f17307eab39ab6107e8899845ad3d59bd9653f200f220920489ca2b5937696c31836040516113dc9190613565565b60405180910390a35050565b6113f96113f3611911565b836119d2565b611438576040517f08c379a000000000000000000000000000000000000000000000000000000000815260040161142f90613878565b60405180910390fd5b61144484848484611d0c565b50505050565b601360009054906101000a900473ffffffffffffffffffffffffffffffffffffffff1681565b6000806103e890506000600290505b8381116114b35760fa8161149391906139fe565b8261149e9190613977565b915080806114ab90613bbc565b91505061147f565b5080915050919050565b60606114c8826118a5565b611507576040517f08c379a00000000000000000000000000000000000000000000000000000000081526004016114fe90613818565b60405180910390fd5b6000611511611d68565b90506000815111611531576040518060200160405280600081525061155c565b8061153b84611d7f565b60405160200161154c9291906134b1565b6040516020818303038152906040525b915050919050565b6000600b549050600a61157633610e8f565b106115b6576040517f08c379a00000000000000000000000000000000000000000000000000000000081526004016115ad906135d8565b60405180910390fd5b6001600d600083815260200190815260200160002081905550600060106000838152602001908152602001600020819055506115f23382611f2c565b3373ffffffffffffffffffffffffffffffffffffffff167f681489e2a7c535074cf6a8d776661658c4f160233183873f351e974adbc314ce8260405161163891906138b8565b60405180910390a2600b600081548092919061165390613bbc565b919050555050565b6000600560008473ffffffffffffffffffffffffffffffffffffffff1673ffffffffffffffffffffffffffffffffffffffff16815260200190815260200160002060008373ffffffffffffffffffffffffffffffffffffffff1673ffffffffffffffffffffffffffffffffffffffff16815260200190815260200160002060009054906101000a900460ff16905092915050565b600f6000828152602001908152602001600020544211611744576040517f08c379a000000000000000000000000000000000000000000000000000000000815260040161173b90613718565b60405180910390fd5b62015180426117539190613977565b600f60008381526020019081526020016000208190555060fa600e6000838152602001908152602001600020600082825461178e9190613977565b9250508190555060646011600083815260200190815260200160002060008282546117b99190613977565b9250508190555050565b60007f80ac58cd000000000000000000000000000000000000000000000000000000007bffffffffffffffffffffffffffffffffffffffffffffffffffffffff1916827bffffffffffffffffffffffffffffffffffffffffffffffffffffffff1916148061188e57507f5b5e139f000000000000000000000000000000000000000000000000000000007bffffffffffffffffffffffffffffffffffffffffffffffffffffffff1916827bffffffffffffffffffffffffffffffffffffffffffffffffffffffff1916145b8061189e575061189d82611f4a565b5b9050919050565b60008073ffffffffffffffffffffffffffffffffffffffff166002600084815260200190815260200160002060009054906101000a900473ffffffffffffffffffffffffffffffffffffffff1673ffffffffffffffffffffffffffffffffffffffff1614159050919050565b600033905090565b816004600083815260200190815260200160002060006101000a81548173ffffffffffffffffffffffffffffffffffffffff021916908373ffffffffffffffffffffffffffffffffffffffff160217905550808273ffffffffffffffffffffffffffffffffffffffff1661198c83610dd7565b73ffffffffffffffffffffffffffffffffffffffff167f8c5be1e5ebec7d5bd14f71427d1e84f3dd0314c0f7b2291e5b200ac8c7c3b92560405160405180910390a45050565b60006119dd826118a5565b611a1c576040517f08c379a0000000000000000000000000000000000000000000000000000000008152600401611a13906136d8565b60405180910390fd5b6000611a2783610dd7565b90508073ffffffffffffffffffffffffffffffffffffffff168473ffffffffffffffffffffffffffffffffffffffff161480611a9657508373ffffffffffffffffffffffffffffffffffffffff16611a7e846108da565b73ffffffffffffffffffffffffffffffffffffffff16145b80611aa75750611aa6818561165b565b5b91505092915050565b8273ffffffffffffffffffffffffffffffffffffffff16611ad082610dd7565b73ffffffffffffffffffffffffffffffffffffffff1614611b26576040517f08c379a0000000000000000000000000000000000000000000000000000000008152600401611b1d906137f8565b60405180910390fd5b600073ffffffffffffffffffffffffffffffffffffffff168273ffffffffffffffffffffffffffffffffffffffff161415611b96576040517f08c379a0000000000000000000000000000000000000000000000000000000008152600401611b8d90613678565b60405180910390fd5b611ba1838383611fb4565b611bac600082611919565b6001600360008573ffffffffffffffffffffffffffffffffffffffff1673ffffffffffffffffffffffffffffffffffffffff1681526020019081526020016000206000828254611bfc9190613a58565b925050819055506001600360008473ffffffffffffffffffffffffffffffffffffffff1673ffffffffffffffffffffffffffffffffffffffff1681526020019081526020016000206000828254611c539190613977565b92505081905550816002600083815260200190815260200160002060006101000a81548173ffffffffffffffffffffffffffffffffffffffff021916908373ffffffffffffffffffffffffffffffffffffffff160217905550808273ffffffffffffffffffffffffffffffffffffffff168473ffffffffffffffffffffffffffffffffffffffff167fddf252ad1be2c89b69c2b068fc378daa952ba7f163c4a11628f55a4df523b3ef60405160405180910390a4505050565b611d17848484611ab0565b611d23848484846120c8565b611d62576040517f08c379a0000000000000000000000000000000000000000000000000000000008152600401611d5990613618565b60405180910390fd5b50505050565b606060405180602001604052806000815250905090565b60606000821415611dc7576040518060400160405280600181526020017f30000000000000000000000000000000000000000000000000000000000000008152509050611f27565b600082905060005b60008214611df9578080611de290613bbc565b915050600a82611df291906139cd565b9150611dcf565b60008167ffffffffffffffff811115611e3b577f4e487b7100000000000000000000000000000000000000000000000000000000600052604160045260246000fd5b6040519080825280601f01601f191660200182016040528015611e6d5781602001600182028036833780820191505090505b5090505b60008514611f2057600182611e869190613a58565b9150600a85611e959190613c05565b6030611ea19190613977565b60f81b818381518110611edd577f4e487b7100000000000000000000000000000000000000000000000000000000600052603260045260246000fd5b60200101907effffffffffffffffffffffffffffffffffffffffffffffffffffffffffffff1916908160001a905350600a85611f1991906139cd565b9450611e71565b8093505050505b919050565b611f4682826040518060200160405280600081525061225f565b5050565b60007f01ffc9a7000000000000000000000000000000000000000000000000000000007bffffffffffffffffffffffffffffffffffffffffffffffffffffffff1916827bffffffffffffffffffffffffffffffffffffffffffffffffffffffff1916149050919050565b611fbf8383836122ba565b600073ffffffffffffffffffffffffffffffffffffffff168373ffffffffffffffffffffffffffffffffffffffff16141561200257611ffd816122bf565b612041565b8173ffffffffffffffffffffffffffffffffffffffff168373ffffffffffffffffffffffffffffffffffffffff16146120405761203f8382612308565b5b5b600073ffffffffffffffffffffffffffffffffffffffff168273ffffffffffffffffffffffffffffffffffffffff1614156120845761207f81612475565b6120c3565b8273ffffffffffffffffffffffffffffffffffffffff168273ffffffffffffffffffffffffffffffffffffffff16146120c2576120c182826125b8565b5b5b505050565b60006120e98473ffffffffffffffffffffffffffffffffffffffff16612637565b15612252578373ffffffffffffffffffffffffffffffffffffffff1663150b7a02612112611911565b8786866040518563ffffffff1660e01b815260040161213494939291906134f0565b602060405180830381600087803b15801561214e57600080fd5b505af192505050801561217f57506040513d601f19601f8201168201806040525081019061217c9190612ab9565b60015b612202573d80600081146121af576040519150601f19603f3d011682016040523d82523d6000602084013e6121b4565b606091505b506000815114156121fa576040517f08c379a00000000000000000000000000000000000000000000000000000000081526004016121f190613618565b60405180910390fd5b805181602001fd5b63150b7a0260e01b7bffffffffffffffffffffffffffffffffffffffffffffffffffffffff1916817bffffffffffffffffffffffffffffffffffffffffffffffffffffffff191614915050612257565b600190505b949350505050565b612269838361264a565b61227660008484846120c8565b6122b5576040517f08c379a00000000000000000000000000000000000000000000000000000000081526004016122ac90613618565b60405180910390fd5b505050565b505050565b6008805490506009600083815260200190815260200160002081905550600881908060018154018082558091505060019003906000526020600020016000909190919091505550565b6000600161231584610e8f565b61231f9190613a58565b9050600060076000848152602001908152602001600020549050818114612404576000600660008673ffffffffffffffffffffffffffffffffffffffff1673ffffffffffffffffffffffffffffffffffffffff168152602001908152602001600020600084815260200190815260200160002054905080600660008773ffffffffffffffffffffffffffffffffffffffff1673ffffffffffffffffffffffffffffffffffffffff168152602001908152602001600020600084815260200190815260200160002081905550816007600083815260200190815260200160002081905550505b6007600084815260200190815260200160002060009055600660008573ffffffffffffffffffffffffffffffffffffffff1673ffffffffffffffffffffffffffffffffffffffff16815260200190815260200160002060008381526020019081526020016000206000905550505050565b600060016008805490506124899190613a58565b90506000600960008481526020019081526020016000205490506000600883815481106124df577f4e487b7100000000000000000000000000000000000000000000000000000000600052603260045260246000fd5b906000526020600020015490508060088381548110612527577f4e487b7100000000000000000000000000000000000000000000000000000000600052603260045260246000fd5b90600052602060002001819055508160096000838152602001908152602001600020819055506009600085815260200190815260200160002060009055600880548061259c577f4e487b7100000000000000000000000000000000000000000000000000000000600052603160045260246000fd5b6001900381819060005260206000200160009055905550505050565b60006125c383610e8f565b905081600660008573ffffffffffffffffffffffffffffffffffffffff1673ffffffffffffffffffffffffffffffffffffffff168152602001908152602001600020600083815260200190815260200160002081905550806007600084815260200190815260200160002081905550505050565b600080823b905060008111915050919050565b600073ffffffffffffffffffffffffffffffffffffffff168273ffffffffffffffffffffffffffffffffffffffff1614156126ba576040517f08c379a00000000000000000000000000000000000000000000000000000000081526004016126b1906137b8565b60405180910390fd5b6126c3816118a5565b15612703576040517f08c379a00000000000000000000000000000000000000000000000000000000081526004016126fa90613638565b60405180910390fd5b61270f60008383611fb4565b6001600360008473ffffffffffffffffffffffffffffffffffffffff1673ffffffffffffffffffffffffffffffffffffffff168152602001908152602001600020600082825461275f9190613977565b92505081905550816002600083815260200190815260200160002060006101000a81548173ffffffffffffffffffffffffffffffffffffffff021916908373ffffffffffffffffffffffffffffffffffffffff160217905550808273ffffffffffffffffffffffffffffffffffffffff16600073ffffffffffffffffffffffffffffffffffffffff167fddf252ad1be2c89b69c2b068fc378daa952ba7f163c4a11628f55a4df523b3ef60405160405180910390a45050565b600061282b61282684613904565b6138d3565b90508281526020810184848401111561284357600080fd5b61284e848285613b48565b509392505050565b60008135905061286581613d03565b92915050565b60008135905061287a81613d1a565b92915050565b60008135905061288f81613d31565b92915050565b6000815190506128a481613d31565b92915050565b600082601f8301126128bb57600080fd5b81356128cb848260208601612818565b91505092915050565b6000813590506128e381613d48565b92915050565b6000602082840312156128fb57600080fd5b600061290984828501612856565b91505092915050565b6000806040838503121561292557600080fd5b600061293385828601612856565b925050602061294485828601612856565b9150509250929050565b60008060006060848603121561296357600080fd5b600061297186828701612856565b935050602061298286828701612856565b9250506040612993868287016128d4565b9150509250925092565b600080600080608085870312156129b357600080fd5b60006129c187828801612856565b94505060206129d287828801612856565b93505060406129e3878288016128d4565b925050606085013567ffffffffffffffff811115612a0057600080fd5b612a0c878288016128aa565b91505092959194509250565b60008060408385031215612a2b57600080fd5b6000612a3985828601612856565b9250506020612a4a8582860161286b565b9150509250929050565b60008060408385031215612a6757600080fd5b6000612a7585828601612856565b9250506020612a86858286016128d4565b9150509250929050565b600060208284031215612aa257600080fd5b6000612ab084828501612880565b91505092915050565b600060208284031215612acb57600080fd5b6000612ad984828501612895565b91505092915050565b600060208284031215612af457600080fd5b6000612b02848285016128d4565b91505092915050565b612b1481613a8c565b82525050565b612b2381613a9e565b82525050565b6000612b3482613934565b612b3e818561394a565b9350612b4e818560208601613b57565b612b5781613cf2565b840191505092915050565b612b6b81613b00565b82525050565b612b7a81613b24565b82525050565b6000612b8b8261393f565b612b95818561395b565b9350612ba5818560208601613b57565b612bae81613cf2565b840191505092915050565b6000612bc48261393f565b612bce818561396c565b9350612bde818560208601613b57565b80840191505092915050565b6000612bf760228361395b565b91507f596f752063616e206f6e6c79206f776e20757020746f2031302070697261746560008301527f73210000000000000000000000000000000000000000000000000000000000006020830152604082019050919050565b6000612c5d602b8361395b565b91507f455243373231456e756d657261626c653a206f776e657220696e646578206f7560008301527f74206f6620626f756e64730000000000000000000000000000000000000000006020830152604082019050919050565b6000612cc360328361395b565b91507f4552433732313a207472616e7366657220746f206e6f6e20455243373231526560008301527f63656976657220696d706c656d656e74657200000000000000000000000000006020830152604082019050919050565b6000612d29601c8361395b565b91507f4552433732313a20746f6b656e20616c7265616479206d696e746564000000006000830152602082019050919050565b6000612d6960308361395b565b91507f596f75206d757374206f776e206120706972617465206265666f726520796f7560008301527f2063616e206f776e2061207368697021000000000000000000000000000000006020830152604082019050919050565b6000612dcf60248361395b565b91507f4552433732313a207472616e7366657220746f20746865207a65726f2061646460008301527f72657373000000000000000000000000000000000000000000000000000000006020830152604082019050919050565b6000612e3560198361395b565b91507f4552433732313a20617070726f766520746f2063616c6c6572000000000000006000830152602082019050919050565b6000612e7560388361395b565b91507f596f7520646f206e6f742068617665207468652072657175697265642058502060008301527f746f206c6576656c2075702074686973207069726174652e00000000000000006020830152604082019050919050565b6000612edb602c8361395b565b91507f4552433732313a206f70657261746f7220717565727920666f72206e6f6e657860008301527f697374656e7420746f6b656e00000000000000000000000000000000000000006020830152604082019050919050565b6000612f4160318361395b565b91507f596f75206d757374206f776e20746869732070697261746520696e206f72646560008301527f7220746f206c6576656c206974207570210000000000000000000000000000006020830152604082019050919050565b6000612fa7602b8361395b565b91507f596f75206d7573742077616974206120646179206265666f726520796f75722060008301527f6e657874207175657374210000000000000000000000000000000000000000006020830152604082019050919050565b600061300d60388361395b565b91507f4552433732313a20617070726f76652063616c6c6572206973206e6f74206f7760008301527f6e6572206e6f7220617070726f76656420666f7220616c6c00000000000000006020830152604082019050919050565b6000613073602a8361395b565b91507f4552433732313a2062616c616e636520717565727920666f7220746865207a6560008301527f726f2061646472657373000000000000000000000000000000000000000000006020830152604082019050919050565b60006130d960298361395b565b91507f4552433732313a206f776e657220717565727920666f72206e6f6e657869737460008301527f656e7420746f6b656e00000000000000000000000000000000000000000000006020830152604082019050919050565b600061313f60268361395b565b91507f596f7572207069726174652063616e206f6e6c79206361707461696e206f6e6560008301527f20736869702100000000000000000000000000000000000000000000000000006020830152604082019050919050565b60006131a560208361395b565b91507f4552433732313a206d696e7420746f20746865207a65726f20616464726573736000830152602082019050919050565b60006131e5602c8361395b565b91507f4552433732313a20617070726f76656420717565727920666f72206e6f6e657860008301527f697374656e7420746f6b656e00000000000000000000000000000000000000006020830152604082019050919050565b600061324b60298361395b565b91507f4552433732313a207472616e73666572206f6620746f6b656e2074686174206960008301527f73206e6f74206f776e00000000000000000000000000000000000000000000006020830152604082019050919050565b60006132b1602f8361395b565b91507f4552433732314d657461646174613a2055524920717565727920666f72206e6f60008301527f6e6578697374656e7420746f6b656e00000000000000000000000000000000006020830152604082019050919050565b600061331760218361395b565b91507f4552433732313a20617070726f76616c20746f2063757272656e74206f776e6560008301527f72000000000000000000000000000000000000000000000000000000000000006020830152604082019050919050565b600061337d60378361395b565b91507f596f75722070697261746520646f6573206e6f7420686f6c6420656e6f75676860008301527f20676f6c6420746f2062652062757920612073686970210000000000000000006020830152604082019050919050565b60006133e360318361395b565b91507f4552433732313a207472616e736665722063616c6c6572206973206e6f74206f60008301527f776e6572206e6f7220617070726f7665640000000000000000000000000000006020830152604082019050919050565b6000613449602c8361395b565b91507f455243373231456e756d657261626c653a20676c6f62616c20696e646578206f60008301527f7574206f6620626f756e647300000000000000000000000000000000000000006020830152604082019050919050565b6134ab81613af6565b82525050565b60006134bd8285612bb9565b91506134c98284612bb9565b91508190509392505050565b60006020820190506134ea6000830184612b0b565b92915050565b60006080820190506135056000830187612b0b565b6135126020830186612b0b565b61351f60408301856134a2565b81810360608301526135318184612b29565b905095945050505050565b60006040820190506135516000830185612b0b565b61355e60208301846134a2565b9392505050565b600060208201905061357a6000830184612b1a565b92915050565b60006020820190506135956000830184612b62565b92915050565b60006020820190506135b06000830184612b71565b92915050565b600060208201905081810360008301526135d08184612b80565b905092915050565b600060208201905081810360008301526135f181612bea565b9050919050565b6000602082019050818103600083015261361181612c50565b9050919050565b6000602082019050818103600083015261363181612cb6565b9050919050565b6000602082019050818103600083015261365181612d1c565b9050919050565b6000602082019050818103600083015261367181612d5c565b9050919050565b6000602082019050818103600083015261369181612dc2565b9050919050565b600060208201905081810360008301526136b181612e28565b9050919050565b600060208201905081810360008301526136d181612e68565b9050919050565b600060208201905081810360008301526136f181612ece565b9050919050565b6000602082019050818103600083015261371181612f34565b9050919050565b6000602082019050818103600083015261373181612f9a565b9050919050565b6000602082019050818103600083015261375181613000565b9050919050565b6000602082019050818103600083015261377181613066565b9050919050565b60006020820190508181036000830152613791816130cc565b9050919050565b600060208201905081810360008301526137b181613132565b9050919050565b600060208201905081810360008301526137d181613198565b9050919050565b600060208201905081810360008301526137f1816131d8565b9050919050565b600060208201905081810360008301526138118161323e565b9050919050565b60006020820190508181036000830152613831816132a4565b9050919050565b600060208201905081810360008301526138518161330a565b9050919050565b6000602082019050818103600083015261387181613370565b9050919050565b60006020820190508181036000830152613891816133d6565b9050919050565b600060208201905081810360008301526138b18161343c565b9050919050565b60006020820190506138cd60008301846134a2565b92915050565b6000604051905081810181811067ffffffffffffffff821117156138fa576138f9613cc3565b5b8060405250919050565b600067ffffffffffffffff82111561391f5761391e613cc3565b5b601f19601f8301169050602081019050919050565b600081519050919050565b600081519050919050565b600082825260208201905092915050565b600082825260208201905092915050565b600081905092915050565b600061398282613af6565b915061398d83613af6565b9250827fffffffffffffffffffffffffffffffffffffffffffffffffffffffffffffffff038211156139c2576139c1613c36565b5b828201905092915050565b60006139d882613af6565b91506139e383613af6565b9250826139f3576139f2613c65565b5b828204905092915050565b6000613a0982613af6565b9150613a1483613af6565b9250817fffffffffffffffffffffffffffffffffffffffffffffffffffffffffffffffff0483118215151615613a4d57613a4c613c36565b5b828202905092915050565b6000613a6382613af6565b9150613a6e83613af6565b925082821015613a8157613a80613c36565b5b828203905092915050565b6000613a9782613ad6565b9050919050565b60008115159050919050565b60007fffffffff0000000000000000000000000000000000000000000000000000000082169050919050565b600073ffffffffffffffffffffffffffffffffffffffff82169050919050565b6000819050919050565b6000613b0b82613b12565b9050919050565b6000613b1d82613ad6565b9050919050565b6000613b2f82613b36565b9050919050565b6000613b4182613ad6565b9050919050565b82818337600083830152505050565b60005b83811015613b75578082015181840152602081019050613b5a565b83811115613b84576000848401525b50505050565b60006002820490506001821680613ba257607f821691505b60208210811415613bb657613bb5613c94565b5b50919050565b6000613bc782613af6565b91507fffffffffffffffffffffffffffffffffffffffffffffffffffffffffffffffff821415613bfa57613bf9613c36565b5b600182019050919050565b6000613c1082613af6565b9150613c1b83613af6565b925082613c2b57613c2a613c65565b5b828206905092915050565b7f4e487b7100000000000000000000000000000000000000000000000000000000600052601160045260246000fd5b7f4e487b7100000000000000000000000000000000000000000000000000000000600052601260045260246000fd5b7f4e487b7100000000000000000000000000000000000000000000000000000000600052602260045260246000fd5b7f4e487b7100000000000000000000000000000000000000000000000000000000600052604160045260246000fd5b6000601f19601f8301169050919050565b613d0c81613a8c565b8114613d1757600080fd5b50565b613d2381613a9e565b8114613d2e57600080fd5b50565b613d3a81613aaa565b8114613d4557600080fd5b50565b613d5181613af6565b8114613d5c57600080fd5b5056fea26469706673582212208a9f0cc7e2ff78ddbab98732bbc0f2d1f2e0e6a64024549986b23f26e7a0540664736f6c63430008000033",
  "immutableReferences": {},
  "source": "// SPDX-License-Identifier: MIT\npragma solidity ^0.8.0;\n\nimport \"@openzeppelin/contracts/token/ERC721/ERC721.sol\";\nimport \"@openzeppelin/contracts/token/ERC721/extensions/ERC721Enumerable.sol\";\nimport \"./FantomPiratesShip.sol\";\nimport \"./FantomPiratesGold.sol\";\n\ncontract FantomPiratesGame is ERC721Enumerable {\n\n  address public owner = msg.sender;\n\n  uint public next_pirate_id = 1;\n  uint public next_ship_id = 1;\n  uint constant DAY = 1 days;\n\n  uint constant xp_per_quest = 250;\n  uint constant gold_per_quest = 100;\n\n  uint constant gold_for_ship = 1500;\n  \n  mapping(uint => uint) public level;\n  mapping(uint => uint) public xp;\n  mapping(uint => uint) public quests_log;\n  mapping(uint => uint) public ship; // pirate_id => ship_id;\n  mapping(uint => uint) public gold;\n\n  FantomPiratesShip public _ships_contract;\n  ERC20 public _gold_contract;\n\n  event PirateCreated(address indexed owner, uint pirate_id);\n  event ShipCreated(address indexed owner, uint ship_id);\n  event Leveled(address indexed owner, uint level, uint id);\n  \n  constructor(address _ship_contract_address) ERC721(\"Fantom Pirates\", \"FP\") {\n    _ships_contract = FantomPiratesShip(_ship_contract_address);\n  }\n\n  function mintPirate() public payable {\n    uint _pirate_id = next_pirate_id;\n    require(balanceOf(msg.sender) < 10, \"You can only own up to 10 pirates!\");\n    level[_pirate_id] = 1;\n    ship[_pirate_id] = 0;\n    _safeMint(msg.sender, _pirate_id);\n    emit PirateCreated(msg.sender, _pirate_id);\n    next_pirate_id++;\n  }\n\n  function mintShip(uint256 _pirate_id) public payable {\n    uint _next_ship_id = next_ship_id;\n    uint256 numberOfPiratesOwned = balanceOf(msg.sender);\n    require(_pirate_id != 0 && numberOfPiratesOwned > 0, \"You must own a pirate before you can own a ship!\");\n    require(ship[_pirate_id] == 0, \"Your pirate can only captain one ship!\");\n    require(gold[_pirate_id] >= gold_for_ship, \"Your pirate does not hold enough gold to be buy a ship!\");\n    _ships_contract.mintShip(msg.sender, _next_ship_id);\n    next_ship_id++;\n    gold[_pirate_id] -= gold_for_ship;\n    ship[_pirate_id] = _next_ship_id;\n    emit ShipCreated(msg.sender, _next_ship_id);\n  }\n\n  function doQuest(uint _pirate_id) public payable {\n    require(block.timestamp > quests_log[_pirate_id], \"You must wait a day before your next quest!\");\n    quests_log[_pirate_id] = block.timestamp + DAY;\n    xp[_pirate_id] += xp_per_quest;\n    gold[_pirate_id] += gold_per_quest;\n  }\n\n  function levelUp(uint _pirate_id) public payable {\n    require(_isApprovedOrOwner(msg.sender, _pirate_id), \"You must own this pirate in order to level it up!\");\n    uint _pirate_level = level[_pirate_id];\n    uint required_xp = requiredXpForLevel(_pirate_level++);\n    require(xp[_pirate_id] >= required_xp, \"You do not have the required XP to level up this pirate.\");\n    xp[_pirate_id] -= required_xp;\n    level[_pirate_id] = _pirate_level + 1;\n    // emit Leveled(msg.sender, _pirate_level, _pirate_id);\n  }\n\n  function requiredXpForLevel(uint _pirate_level) public pure returns (uint required_xp) {\n    uint _required_xp = 1000;\n    for (uint i = 2; i<=_pirate_level;i++) {\n      _required_xp += (i * xp_per_quest);\n    }\n    return _required_xp;\n  } \n}\n",
  "sourcePath": "/Users/joshuacotterell/Documents/Blockchain/Projects/FantomPirates/src/blockchain/contracts/FantomPiratesGame.sol",
  "compiler": {
    "name": "solc",
    "version": "0.8.0+commit.c7dfd78e.Emscripten.clang"
  },
  "schemaVersion": "3.3.4",
  "updatedAt": "2021-10-27T16:37:37.209Z",
  "networkType": "ethereum",
  "devdoc": {
    "kind": "dev",
    "methods": {
      "approve(address,uint256)": {
        "details": "See {IERC721-approve}."
      },
      "balanceOf(address)": {
        "details": "See {IERC721-balanceOf}."
      },
      "getApproved(uint256)": {
        "details": "See {IERC721-getApproved}."
      },
      "isApprovedForAll(address,address)": {
        "details": "See {IERC721-isApprovedForAll}."
      },
      "name()": {
        "details": "See {IERC721Metadata-name}."
      },
      "ownerOf(uint256)": {
        "details": "See {IERC721-ownerOf}."
      },
      "safeTransferFrom(address,address,uint256)": {
        "details": "See {IERC721-safeTransferFrom}."
      },
      "safeTransferFrom(address,address,uint256,bytes)": {
        "details": "See {IERC721-safeTransferFrom}."
      },
      "setApprovalForAll(address,bool)": {
        "details": "See {IERC721-setApprovalForAll}."
      },
      "supportsInterface(bytes4)": {
        "details": "See {IERC165-supportsInterface}."
      },
      "symbol()": {
        "details": "See {IERC721Metadata-symbol}."
      },
      "tokenByIndex(uint256)": {
        "details": "See {IERC721Enumerable-tokenByIndex}."
      },
      "tokenOfOwnerByIndex(address,uint256)": {
        "details": "See {IERC721Enumerable-tokenOfOwnerByIndex}."
      },
      "tokenURI(uint256)": {
        "details": "See {IERC721Metadata-tokenURI}."
      },
      "totalSupply()": {
        "details": "See {IERC721Enumerable-totalSupply}."
      },
      "transferFrom(address,address,uint256)": {
        "details": "See {IERC721-transferFrom}."
      }
    },
    "version": 1
  },
  "userdoc": {
    "kind": "user",
    "methods": {},
    "version": 1
  }
}