{
  "contractName": "FantomPiratesGameItems",
  "abi": [
    {
      "inputs": [],
      "stateMutability": "nonpayable",
      "type": "constructor"
    },
    {
      "anonymous": false,
      "inputs": [
        {
          "indexed": true,
          "internalType": "address",
          "name": "account",
          "type": "address"
        },
        {
          "indexed": true,
          "internalType": "address",
          "name": "operator",
          "type": "address"
        },
        {
          "indexed": false,
          "internalType": "bool",
          "name": "approved",
          "type": "bool"
        }
      ],
      "name": "ApprovalForAll",
      "type": "event"
    },
    {
      "anonymous": false,
      "inputs": [
        {
          "indexed": true,
          "internalType": "address",
          "name": "operator",
          "type": "address"
        },
        {
          "indexed": true,
          "internalType": "address",
          "name": "from",
          "type": "address"
        },
        {
          "indexed": true,
          "internalType": "address",
          "name": "to",
          "type": "address"
        },
        {
          "indexed": false,
          "internalType": "uint256[]",
          "name": "ids",
          "type": "uint256[]"
        },
        {
          "indexed": false,
          "internalType": "uint256[]",
          "name": "values",
          "type": "uint256[]"
        }
      ],
      "name": "TransferBatch",
      "type": "event"
    },
    {
      "anonymous": false,
      "inputs": [
        {
          "indexed": true,
          "internalType": "address",
          "name": "operator",
          "type": "address"
        },
        {
          "indexed": true,
          "internalType": "address",
          "name": "from",
          "type": "address"
        },
        {
          "indexed": true,
          "internalType": "address",
          "name": "to",
          "type": "address"
        },
        {
          "indexed": false,
          "internalType": "uint256",
          "name": "id",
          "type": "uint256"
        },
        {
          "indexed": false,
          "internalType": "uint256",
          "name": "value",
          "type": "uint256"
        }
      ],
      "name": "TransferSingle",
      "type": "event"
    },
    {
      "anonymous": false,
      "inputs": [
        {
          "indexed": false,
          "internalType": "string",
          "name": "value",
          "type": "string"
        },
        {
          "indexed": true,
          "internalType": "uint256",
          "name": "id",
          "type": "uint256"
        }
      ],
      "name": "URI",
      "type": "event"
    },
    {
      "inputs": [],
      "name": "GOLD",
      "outputs": [
        {
          "internalType": "uint256",
          "name": "",
          "type": "uint256"
        }
      ],
      "stateMutability": "view",
      "type": "function",
      "constant": true
    },
    {
      "inputs": [],
      "name": "PET",
      "outputs": [
        {
          "internalType": "uint256",
          "name": "",
          "type": "uint256"
        }
      ],
      "stateMutability": "view",
      "type": "function",
      "constant": true
    },
    {
      "inputs": [],
      "name": "PIRATE",
      "outputs": [
        {
          "internalType": "uint256",
          "name": "",
          "type": "uint256"
        }
      ],
      "stateMutability": "view",
      "type": "function",
      "constant": true
    },
    {
      "inputs": [],
      "name": "SHIELD",
      "outputs": [
        {
          "internalType": "uint256",
          "name": "",
          "type": "uint256"
        }
      ],
      "stateMutability": "view",
      "type": "function",
      "constant": true
    },
    {
      "inputs": [],
      "name": "SHIP",
      "outputs": [
        {
          "internalType": "uint256",
          "name": "",
          "type": "uint256"
        }
      ],
      "stateMutability": "view",
      "type": "function",
      "constant": true
    },
    {
      "inputs": [],
      "name": "SHIP_PART",
      "outputs": [
        {
          "internalType": "uint256",
          "name": "",
          "type": "uint256"
        }
      ],
      "stateMutability": "view",
      "type": "function",
      "constant": true
    },
    {
      "inputs": [],
      "name": "SWORD",
      "outputs": [
        {
          "internalType": "uint256",
          "name": "",
          "type": "uint256"
        }
      ],
      "stateMutability": "view",
      "type": "function",
      "constant": true
    },
    {
      "inputs": [
        {
          "internalType": "address",
          "name": "account",
          "type": "address"
        },
        {
          "internalType": "uint256",
          "name": "id",
          "type": "uint256"
        }
      ],
      "name": "balanceOf",
      "outputs": [
        {
          "internalType": "uint256",
          "name": "",
          "type": "uint256"
        }
      ],
      "stateMutability": "view",
      "type": "function",
      "constant": true
    },
    {
      "inputs": [
        {
          "internalType": "address[]",
          "name": "accounts",
          "type": "address[]"
        },
        {
          "internalType": "uint256[]",
          "name": "ids",
          "type": "uint256[]"
        }
      ],
      "name": "balanceOfBatch",
      "outputs": [
        {
          "internalType": "uint256[]",
          "name": "",
          "type": "uint256[]"
        }
      ],
      "stateMutability": "view",
      "type": "function",
      "constant": true
    },
    {
      "inputs": [
        {
          "internalType": "address",
          "name": "account",
          "type": "address"
        },
        {
          "internalType": "address",
          "name": "operator",
          "type": "address"
        }
      ],
      "name": "isApprovedForAll",
      "outputs": [
        {
          "internalType": "bool",
          "name": "",
          "type": "bool"
        }
      ],
      "stateMutability": "view",
      "type": "function",
      "constant": true
    },
    {
      "inputs": [],
      "name": "owner",
      "outputs": [
        {
          "internalType": "address",
          "name": "",
          "type": "address"
        }
      ],
      "stateMutability": "view",
      "type": "function",
      "constant": true
    },
    {
      "inputs": [
        {
          "internalType": "address",
          "name": "from",
          "type": "address"
        },
        {
          "internalType": "address",
          "name": "to",
          "type": "address"
        },
        {
          "internalType": "uint256[]",
          "name": "ids",
          "type": "uint256[]"
        },
        {
          "internalType": "uint256[]",
          "name": "amounts",
          "type": "uint256[]"
        },
        {
          "internalType": "bytes",
          "name": "data",
          "type": "bytes"
        }
      ],
      "name": "safeBatchTransferFrom",
      "outputs": [],
      "stateMutability": "nonpayable",
      "type": "function"
    },
    {
      "inputs": [
        {
          "internalType": "address",
          "name": "from",
          "type": "address"
        },
        {
          "internalType": "address",
          "name": "to",
          "type": "address"
        },
        {
          "internalType": "uint256",
          "name": "id",
          "type": "uint256"
        },
        {
          "internalType": "uint256",
          "name": "amount",
          "type": "uint256"
        },
        {
          "internalType": "bytes",
          "name": "data",
          "type": "bytes"
        }
      ],
      "name": "safeTransferFrom",
      "outputs": [],
      "stateMutability": "nonpayable",
      "type": "function"
    },
    {
      "inputs": [
        {
          "internalType": "address",
          "name": "operator",
          "type": "address"
        },
        {
          "internalType": "bool",
          "name": "approved",
          "type": "bool"
        }
      ],
      "name": "setApprovalForAll",
      "outputs": [],
      "stateMutability": "nonpayable",
      "type": "function"
    },
    {
      "inputs": [
        {
          "internalType": "bytes4",
          "name": "interfaceId",
          "type": "bytes4"
        }
      ],
      "name": "supportsInterface",
      "outputs": [
        {
          "internalType": "bool",
          "name": "",
          "type": "bool"
        }
      ],
      "stateMutability": "view",
      "type": "function",
      "constant": true
    },
    {
      "inputs": [
        {
          "internalType": "uint256",
          "name": "",
          "type": "uint256"
        }
      ],
      "name": "uri",
      "outputs": [
        {
          "internalType": "string",
          "name": "",
          "type": "string"
        }
      ],
      "stateMutability": "view",
      "type": "function",
      "constant": true
    }
  ],
  "bytecode": "0x608060405233600360006101000a81548173ffffffffffffffffffffffffffffffffffffffff021916908373ffffffffffffffffffffffffffffffffffffffff1602179055503480156200005257600080fd5b50604051806020016040528060008152506200007481620001b260201b60201c565b506200009e33600064e8d4a5100060405180602001604052806000815250620001ce60201b60201c565b620000cc33600169d3c21bcecceda100000060405180602001604052806000815250620001ce60201b60201c565b620000f8336002670de0b6b3a764000060405180602001604052806000815250620001ce60201b60201c565b62000124336003670de0b6b3a764000060405180602001604052806000815250620001ce60201b60201c565b62000150336004670de0b6b3a764000060405180602001604052806000815250620001ce60201b60201c565b6200017c336005670de0b6b3a764000060405180602001604052806000815250620001ce60201b60201c565b620001ac3360066b033b2e3c9fd0803ce800000060405180602001604052806000815250620001ce60201b60201c565b62000d1e565b8060029080519060200190620001ca9291906200066f565b5050565b600073ffffffffffffffffffffffffffffffffffffffff168473ffffffffffffffffffffffffffffffffffffffff16141562000241576040517f08c379a0000000000000000000000000000000000000000000000000000000008152600401620002389062000a0a565b60405180910390fd5b6000620002536200039360201b60201c565b90506200028c816000876200026e886200039b60201b60201c565b6200027f886200039b60201b60201c565b876200046460201b60201c565b8260008086815260200190815260200160002060008773ffffffffffffffffffffffffffffffffffffffff1673ffffffffffffffffffffffffffffffffffffffff1681526020019081526020016000206000828254620002ed919062000a91565b925050819055508473ffffffffffffffffffffffffffffffffffffffff16600073ffffffffffffffffffffffffffffffffffffffff168273ffffffffffffffffffffffffffffffffffffffff167fc3d58168c5ae7397731d063d5bbf3d657854427343f4c083240f7aacaa2d0f6287876040516200036d92919062000a2c565b60405180910390a46200038c816000878787876200046c60201b60201c565b5050505050565b600033905090565b60606000600167ffffffffffffffff811115620003e1577f4e487b7100000000000000000000000000000000000000000000000000000000600052604160045260246000fd5b604051908082528060200260200182016040528015620004105781602001602082028036833780820191505090505b50905082816000815181106200044f577f4e487b7100000000000000000000000000000000000000000000000000000000600052603260045260246000fd5b60200260200101818152505080915050919050565b505050505050565b620004988473ffffffffffffffffffffffffffffffffffffffff166200065c60201b62000ac81760201c565b1562000654578373ffffffffffffffffffffffffffffffffffffffff1663f23a6e6187878686866040518663ffffffff1660e01b8152600401620004e19594939291906200093e565b602060405180830381600087803b158015620004fc57600080fd5b505af19250505080156200053057506040513d601f19601f820116820180604052508101906200052d919062000736565b60015b620005c8576200053f62000c40565b806200054c57506200058b565b806040517f08c379a0000000000000000000000000000000000000000000000000000000008152600401620005829190620009a2565b60405180910390fd5b6040517f08c379a0000000000000000000000000000000000000000000000000000000008152600401620005bf90620009c6565b60405180910390fd5b63f23a6e6160e01b7bffffffffffffffffffffffffffffffffffffffffffffffffffffffff1916817bffffffffffffffffffffffffffffffffffffffffffffffffffffffff19161462000652576040517f08c379a00000000000000000000000000000000000000000000000000000000081526004016200064990620009e8565b60405180910390fd5b505b505050505050565b600080823b905060008111915050919050565b8280546200067d9062000b8e565b90600052602060002090601f016020900481019282620006a15760008555620006ed565b82601f10620006bc57805160ff1916838001178555620006ed565b82800160010185558215620006ed579182015b82811115620006ec578251825591602001919060010190620006cf565b5b509050620006fc919062000700565b5090565b5b808211156200071b57600081600090555060010162000701565b5090565b600081519050620007308162000d04565b92915050565b6000602082840312156200074957600080fd5b600062000759848285016200071f565b91505092915050565b6200076d8162000aee565b82525050565b6000620007808262000a59565b6200078c818562000a6f565b93506200079e81856020860162000b58565b620007a98162000c22565b840191505092915050565b6000620007c18262000a64565b620007cd818562000a80565b9350620007df81856020860162000b58565b620007ea8162000c22565b840191505092915050565b60006200080460348362000a80565b91507f455243313135353a207472616e7366657220746f206e6f6e204552433131353560008301527f526563656976657220696d706c656d656e7465720000000000000000000000006020830152604082019050919050565b60006200086c60288362000a80565b91507f455243313135353a204552433131353552656365697665722072656a6563746560008301527f6420746f6b656e730000000000000000000000000000000000000000000000006020830152604082019050919050565b6000620008d460218362000a80565b91507f455243313135353a206d696e7420746f20746865207a65726f2061646472657360008301527f73000000000000000000000000000000000000000000000000000000000000006020830152604082019050919050565b620009388162000b4e565b82525050565b600060a08201905062000955600083018862000762565b62000964602083018762000762565b6200097360408301866200092d565b6200098260608301856200092d565b818103608083015262000996818462000773565b90509695505050505050565b60006020820190508181036000830152620009be8184620007b4565b905092915050565b60006020820190508181036000830152620009e181620007f5565b9050919050565b6000602082019050818103600083015262000a03816200085d565b9050919050565b6000602082019050818103600083015262000a2581620008c5565b9050919050565b600060408201905062000a4360008301856200092d565b62000a5260208301846200092d565b9392505050565b600081519050919050565b600081519050919050565b600082825260208201905092915050565b600082825260208201905092915050565b600062000a9e8262000b4e565b915062000aab8362000b4e565b9250827fffffffffffffffffffffffffffffffffffffffffffffffffffffffffffffffff0382111562000ae35762000ae262000bc4565b5b828201905092915050565b600062000afb8262000b2e565b9050919050565b60007fffffffff0000000000000000000000000000000000000000000000000000000082169050919050565b600073ffffffffffffffffffffffffffffffffffffffff82169050919050565b6000819050919050565b60005b8381101562000b7857808201518184015260208101905062000b5b565b8381111562000b88576000848401525b50505050565b6000600282049050600182168062000ba757607f821691505b6020821081141562000bbe5762000bbd62000bf3565b5b50919050565b7f4e487b7100000000000000000000000000000000000000000000000000000000600052601160045260246000fd5b7f4e487b7100000000000000000000000000000000000000000000000000000000600052602260045260246000fd5b6000601f19601f8301169050919050565b60008160e01c9050919050565b600060443d101562000c525762000d01565b60046000803e62000c6560005162000c33565b6308c379a0811462000c78575062000d01565b60405160043d036004823e80513d602482011167ffffffffffffffff8211171562000ca65750505062000d01565b808201805167ffffffffffffffff81111562000cc757505050505062000d01565b8060208301013d850181111562000ce45750505050505062000d01565b62000cef8262000c22565b60208401016040528296505050505050505b90565b62000d0f8162000b02565b811462000d1b57600080fd5b50565b61273e8062000d2e6000396000f3fe608060405234801561001057600080fd5b50600436106100ff5760003560e01c80635b2725ed11610097578063ba82934011610066578063ba829340146102b0578063e985e9c5146102ce578063ecf000c3146102fe578063f242432a1461031c576100ff565b80635b2725ed1461023a5780638da5cb5b14610258578063a15a877914610276578063a22cb46514610294576100ff565b80632eb2c2d6116100d35780632eb2c2d6146101b25780633e4bee38146101ce5780634509872e146101ec5780634e1273f41461020a576100ff565b8062fdd58e1461010457806301ffc9a7146101345780630e89341c1461016457806313dc989f14610194575b600080fd5b61011e60048036038101906101199190611960565b610338565b60405161012b9190612256565b60405180910390f35b61014e60048036038101906101499190611a08565b610401565b60405161015b91906120d9565b60405180910390f35b61017e60048036038101906101799190611a5a565b6104e3565b60405161018b91906120f4565b60405180910390f35b61019c610577565b6040516101a99190612256565b60405180910390f35b6101cc60048036038101906101c791906117d6565b61057c565b005b6101d661061d565b6040516101e39190612256565b60405180910390f35b6101f4610622565b6040516102019190612256565b60405180910390f35b610224600480360381019061021f919061199c565b610627565b6040516102319190612080565b60405180910390f35b6102426107d8565b60405161024f9190612256565b60405180910390f35b6102606107dd565b60405161026d9190611fa3565b60405180910390f35b61027e610803565b60405161028b9190612256565b60405180910390f35b6102ae60048036038101906102a99190611924565b610808565b005b6102b8610989565b6040516102c59190612256565b60405180910390f35b6102e860048036038101906102e3919061179a565b61098e565b6040516102f591906120d9565b60405180910390f35b610306610a22565b6040516103139190612256565b60405180910390f35b61033660048036038101906103319190611895565b610a27565b005b60008073ffffffffffffffffffffffffffffffffffffffff168373ffffffffffffffffffffffffffffffffffffffff1614156103a9576040517f08c379a00000000000000000000000000000000000000000000000000000000081526004016103a090612156565b60405180910390fd5b60008083815260200190815260200160002060008473ffffffffffffffffffffffffffffffffffffffff1673ffffffffffffffffffffffffffffffffffffffff16815260200190815260200160002054905092915050565b60007fd9b67a26000000000000000000000000000000000000000000000000000000007bffffffffffffffffffffffffffffffffffffffffffffffffffffffff1916827bffffffffffffffffffffffffffffffffffffffffffffffffffffffff191614806104cc57507f0e89341c000000000000000000000000000000000000000000000000000000007bffffffffffffffffffffffffffffffffffffffffffffffffffffffff1916827bffffffffffffffffffffffffffffffffffffffffffffffffffffffff1916145b806104dc57506104db82610adb565b5b9050919050565b6060600280546104f2906124d0565b80601f016020809104026020016040519081016040528092919081815260200182805461051e906124d0565b801561056b5780601f106105405761010080835404028352916020019161056b565b820191906000526020600020905b81548152906001019060200180831161054e57829003601f168201915b50505050509050919050565b600381565b610584610b45565b73ffffffffffffffffffffffffffffffffffffffff168573ffffffffffffffffffffffffffffffffffffffff1614806105ca57506105c9856105c4610b45565b61098e565b5b610609576040517f08c379a0000000000000000000000000000000000000000000000000000000008152600401610600906121b6565b60405180910390fd5b6106168585858585610b4d565b5050505050565b600181565b600581565b6060815183511461066d576040517f08c379a000000000000000000000000000000000000000000000000000000000815260040161066490612216565b60405180910390fd5b6000835167ffffffffffffffff8111156106b0577f4e487b7100000000000000000000000000000000000000000000000000000000600052604160045260246000fd5b6040519080825280602002602001820160405280156106de5781602001602082028036833780820191505090505b50905060005b84518110156107cd57610777858281518110610729577f4e487b7100000000000000000000000000000000000000000000000000000000600052603260045260246000fd5b602002602001015185838151811061076a577f4e487b7100000000000000000000000000000000000000000000000000000000600052603260045260246000fd5b6020026020010151610338565b8282815181106107b0577f4e487b7100000000000000000000000000000000000000000000000000000000600052603260045260246000fd5b602002602001018181525050806107c690612502565b90506106e4565b508091505092915050565b600481565b600360009054906101000a900473ffffffffffffffffffffffffffffffffffffffff1681565b600681565b8173ffffffffffffffffffffffffffffffffffffffff16610827610b45565b73ffffffffffffffffffffffffffffffffffffffff16141561087e576040517f08c379a0000000000000000000000000000000000000000000000000000000008152600401610875906121f6565b60405180910390fd5b806001600061088b610b45565b73ffffffffffffffffffffffffffffffffffffffff1673ffffffffffffffffffffffffffffffffffffffff16815260200190815260200160002060008473ffffffffffffffffffffffffffffffffffffffff1673ffffffffffffffffffffffffffffffffffffffff16815260200190815260200160002060006101000a81548160ff0219169083151502179055508173ffffffffffffffffffffffffffffffffffffffff16610938610b45565b73ffffffffffffffffffffffffffffffffffffffff167f17307eab39ab6107e8899845ad3d59bd9653f200f220920489ca2b5937696c318360405161097d91906120d9565b60405180910390a35050565b600281565b6000600160008473ffffffffffffffffffffffffffffffffffffffff1673ffffffffffffffffffffffffffffffffffffffff16815260200190815260200160002060008373ffffffffffffffffffffffffffffffffffffffff1673ffffffffffffffffffffffffffffffffffffffff16815260200190815260200160002060009054906101000a900460ff16905092915050565b600081565b610a2f610b45565b73ffffffffffffffffffffffffffffffffffffffff168573ffffffffffffffffffffffffffffffffffffffff161480610a755750610a7485610a6f610b45565b61098e565b5b610ab4576040517f08c379a0000000000000000000000000000000000000000000000000000000008152600401610aab90612176565b60405180910390fd5b610ac18585858585610ead565b5050505050565b600080823b905060008111915050919050565b60007f01ffc9a7000000000000000000000000000000000000000000000000000000007bffffffffffffffffffffffffffffffffffffffffffffffffffffffff1916827bffffffffffffffffffffffffffffffffffffffffffffffffffffffff1916149050919050565b600033905090565b8151835114610b91576040517f08c379a0000000000000000000000000000000000000000000000000000000008152600401610b8890612236565b60405180910390fd5b600073ffffffffffffffffffffffffffffffffffffffff168473ffffffffffffffffffffffffffffffffffffffff161415610c01576040517f08c379a0000000000000000000000000000000000000000000000000000000008152600401610bf890612196565b60405180910390fd5b6000610c0b610b45565b9050610c1b81878787878761112f565b60005b8451811015610e18576000858281518110610c62577f4e487b7100000000000000000000000000000000000000000000000000000000600052603260045260246000fd5b602002602001015190506000858381518110610ca7577f4e487b7100000000000000000000000000000000000000000000000000000000600052603260045260246000fd5b60200260200101519050600080600084815260200190815260200160002060008b73ffffffffffffffffffffffffffffffffffffffff1673ffffffffffffffffffffffffffffffffffffffff16815260200190815260200160002054905081811015610d48576040517f08c379a0000000000000000000000000000000000000000000000000000000008152600401610d3f906121d6565b60405180910390fd5b81810360008085815260200190815260200160002060008c73ffffffffffffffffffffffffffffffffffffffff1673ffffffffffffffffffffffffffffffffffffffff168152602001908152602001600020819055508160008085815260200190815260200160002060008b73ffffffffffffffffffffffffffffffffffffffff1673ffffffffffffffffffffffffffffffffffffffff1681526020019081526020016000206000828254610dfd91906123c4565b9250508190555050505080610e1190612502565b9050610c1e565b508473ffffffffffffffffffffffffffffffffffffffff168673ffffffffffffffffffffffffffffffffffffffff168273ffffffffffffffffffffffffffffffffffffffff167f4a39dc06d4c0dbc64b70af90fd698a233a518aa5d07e595d983b8c0526c8f7fb8787604051610e8f9291906120a2565b60405180910390a4610ea5818787878787611137565b505050505050565b600073ffffffffffffffffffffffffffffffffffffffff168473ffffffffffffffffffffffffffffffffffffffff161415610f1d576040517f08c379a0000000000000000000000000000000000000000000000000000000008152600401610f1490612196565b60405180910390fd5b6000610f27610b45565b9050610f47818787610f3888611307565b610f4188611307565b8761112f565b600080600086815260200190815260200160002060008873ffffffffffffffffffffffffffffffffffffffff1673ffffffffffffffffffffffffffffffffffffffff16815260200190815260200160002054905083811015610fde576040517f08c379a0000000000000000000000000000000000000000000000000000000008152600401610fd5906121d6565b60405180910390fd5b83810360008087815260200190815260200160002060008973ffffffffffffffffffffffffffffffffffffffff1673ffffffffffffffffffffffffffffffffffffffff168152602001908152602001600020819055508360008087815260200190815260200160002060008873ffffffffffffffffffffffffffffffffffffffff1673ffffffffffffffffffffffffffffffffffffffff168152602001908152602001600020600082825461109391906123c4565b925050819055508573ffffffffffffffffffffffffffffffffffffffff168773ffffffffffffffffffffffffffffffffffffffff168373ffffffffffffffffffffffffffffffffffffffff167fc3d58168c5ae7397731d063d5bbf3d657854427343f4c083240f7aacaa2d0f628888604051611110929190612271565b60405180910390a46111268288888888886113cd565b50505050505050565b505050505050565b6111568473ffffffffffffffffffffffffffffffffffffffff16610ac8565b156112ff578373ffffffffffffffffffffffffffffffffffffffff1663bc197c8187878686866040518663ffffffff1660e01b815260040161119c959493929190611fbe565b602060405180830381600087803b1580156111b657600080fd5b505af19250505080156111e757506040513d601f19601f820116820180604052508101906111e49190611a31565b60015b611276576111f36125f6565b806111fe575061123b565b806040517f08c379a000000000000000000000000000000000000000000000000000000000815260040161123291906120f4565b60405180910390fd5b6040517f08c379a000000000000000000000000000000000000000000000000000000000815260040161126d90612116565b60405180910390fd5b63bc197c8160e01b7bffffffffffffffffffffffffffffffffffffffffffffffffffffffff1916817bffffffffffffffffffffffffffffffffffffffffffffffffffffffff1916146112fd576040517f08c379a00000000000000000000000000000000000000000000000000000000081526004016112f490612136565b60405180910390fd5b505b505050505050565b60606000600167ffffffffffffffff81111561134c577f4e487b7100000000000000000000000000000000000000000000000000000000600052604160045260246000fd5b60405190808252806020026020018201604052801561137a5781602001602082028036833780820191505090505b50905082816000815181106113b8577f4e487b7100000000000000000000000000000000000000000000000000000000600052603260045260246000fd5b60200260200101818152505080915050919050565b6113ec8473ffffffffffffffffffffffffffffffffffffffff16610ac8565b15611595578373ffffffffffffffffffffffffffffffffffffffff1663f23a6e6187878686866040518663ffffffff1660e01b8152600401611432959493929190612026565b602060405180830381600087803b15801561144c57600080fd5b505af192505050801561147d57506040513d601f19601f8201168201806040525081019061147a9190611a31565b60015b61150c576114896125f6565b8061149457506114d1565b806040517f08c379a00000000000000000000000000000000000000000000000000000000081526004016114c891906120f4565b60405180910390fd5b6040517f08c379a000000000000000000000000000000000000000000000000000000000815260040161150390612116565b60405180910390fd5b63f23a6e6160e01b7bffffffffffffffffffffffffffffffffffffffffffffffffffffffff1916817bffffffffffffffffffffffffffffffffffffffffffffffffffffffff191614611593576040517f08c379a000000000000000000000000000000000000000000000000000000000815260040161158a90612136565b60405180910390fd5b505b505050505050565b60006115b06115ab846122cb565b61229a565b905080838252602082019050828560208602820111156115cf57600080fd5b60005b858110156115ff57816115e588826116b3565b8452602084019350602083019250506001810190506115d2565b5050509392505050565b600061161c611617846122f7565b61229a565b9050808382526020820190508285602086028201111561163b57600080fd5b60005b8581101561166b57816116518882611785565b84526020840193506020830192505060018101905061163e565b5050509392505050565b600061168861168384612323565b61229a565b9050828152602081018484840111156116a057600080fd5b6116ab84828561248e565b509392505050565b6000813590506116c2816126ac565b92915050565b600082601f8301126116d957600080fd5b81356116e984826020860161159d565b91505092915050565b600082601f83011261170357600080fd5b8135611713848260208601611609565b91505092915050565b60008135905061172b816126c3565b92915050565b600081359050611740816126da565b92915050565b600081519050611755816126da565b92915050565b600082601f83011261176c57600080fd5b813561177c848260208601611675565b91505092915050565b600081359050611794816126f1565b92915050565b600080604083850312156117ad57600080fd5b60006117bb858286016116b3565b92505060206117cc858286016116b3565b9150509250929050565b600080600080600060a086880312156117ee57600080fd5b60006117fc888289016116b3565b955050602061180d888289016116b3565b945050604086013567ffffffffffffffff81111561182a57600080fd5b611836888289016116f2565b935050606086013567ffffffffffffffff81111561185357600080fd5b61185f888289016116f2565b925050608086013567ffffffffffffffff81111561187c57600080fd5b6118888882890161175b565b9150509295509295909350565b600080600080600060a086880312156118ad57600080fd5b60006118bb888289016116b3565b95505060206118cc888289016116b3565b94505060406118dd88828901611785565b93505060606118ee88828901611785565b925050608086013567ffffffffffffffff81111561190b57600080fd5b6119178882890161175b565b9150509295509295909350565b6000806040838503121561193757600080fd5b6000611945858286016116b3565b92505060206119568582860161171c565b9150509250929050565b6000806040838503121561197357600080fd5b6000611981858286016116b3565b925050602061199285828601611785565b9150509250929050565b600080604083850312156119af57600080fd5b600083013567ffffffffffffffff8111156119c957600080fd5b6119d5858286016116c8565b925050602083013567ffffffffffffffff8111156119f257600080fd5b6119fe858286016116f2565b9150509250929050565b600060208284031215611a1a57600080fd5b6000611a2884828501611731565b91505092915050565b600060208284031215611a4357600080fd5b6000611a5184828501611746565b91505092915050565b600060208284031215611a6c57600080fd5b6000611a7a84828501611785565b91505092915050565b6000611a8f8383611f85565b60208301905092915050565b611aa48161241a565b82525050565b6000611ab582612363565b611abf8185612391565b9350611aca83612353565b8060005b83811015611afb578151611ae28882611a83565b9750611aed83612384565b925050600181019050611ace565b5085935050505092915050565b611b118161242c565b82525050565b6000611b228261236e565b611b2c81856123a2565b9350611b3c81856020860161249d565b611b45816125d8565b840191505092915050565b6000611b5b82612379565b611b6581856123b3565b9350611b7581856020860161249d565b611b7e816125d8565b840191505092915050565b6000611b966034836123b3565b91507f455243313135353a207472616e7366657220746f206e6f6e204552433131353560008301527f526563656976657220696d706c656d656e7465720000000000000000000000006020830152604082019050919050565b6000611bfc6028836123b3565b91507f455243313135353a204552433131353552656365697665722072656a6563746560008301527f6420746f6b656e730000000000000000000000000000000000000000000000006020830152604082019050919050565b6000611c62602b836123b3565b91507f455243313135353a2062616c616e636520717565727920666f7220746865207a60008301527f65726f20616464726573730000000000000000000000000000000000000000006020830152604082019050919050565b6000611cc86029836123b3565b91507f455243313135353a2063616c6c6572206973206e6f74206f776e6572206e6f7260008301527f20617070726f76656400000000000000000000000000000000000000000000006020830152604082019050919050565b6000611d2e6025836123b3565b91507f455243313135353a207472616e7366657220746f20746865207a65726f20616460008301527f64726573730000000000000000000000000000000000000000000000000000006020830152604082019050919050565b6000611d946032836123b3565b91507f455243313135353a207472616e736665722063616c6c6572206973206e6f742060008301527f6f776e6572206e6f7220617070726f76656400000000000000000000000000006020830152604082019050919050565b6000611dfa602a836123b3565b91507f455243313135353a20696e73756666696369656e742062616c616e636520666f60008301527f72207472616e73666572000000000000000000000000000000000000000000006020830152604082019050919050565b6000611e606029836123b3565b91507f455243313135353a2073657474696e6720617070726f76616c2073746174757360008301527f20666f722073656c6600000000000000000000000000000000000000000000006020830152604082019050919050565b6000611ec66029836123b3565b91507f455243313135353a206163636f756e747320616e6420696473206c656e67746860008301527f206d69736d6174636800000000000000000000000000000000000000000000006020830152604082019050919050565b6000611f2c6028836123b3565b91507f455243313135353a2069647320616e6420616d6f756e7473206c656e6774682060008301527f6d69736d617463680000000000000000000000000000000000000000000000006020830152604082019050919050565b611f8e81612484565b82525050565b611f9d81612484565b82525050565b6000602082019050611fb86000830184611a9b565b92915050565b600060a082019050611fd36000830188611a9b565b611fe06020830187611a9b565b8181036040830152611ff28186611aaa565b905081810360608301526120068185611aaa565b9050818103608083015261201a8184611b17565b90509695505050505050565b600060a08201905061203b6000830188611a9b565b6120486020830187611a9b565b6120556040830186611f94565b6120626060830185611f94565b81810360808301526120748184611b17565b90509695505050505050565b6000602082019050818103600083015261209a8184611aaa565b905092915050565b600060408201905081810360008301526120bc8185611aaa565b905081810360208301526120d08184611aaa565b90509392505050565b60006020820190506120ee6000830184611b08565b92915050565b6000602082019050818103600083015261210e8184611b50565b905092915050565b6000602082019050818103600083015261212f81611b89565b9050919050565b6000602082019050818103600083015261214f81611bef565b9050919050565b6000602082019050818103600083015261216f81611c55565b9050919050565b6000602082019050818103600083015261218f81611cbb565b9050919050565b600060208201905081810360008301526121af81611d21565b9050919050565b600060208201905081810360008301526121cf81611d87565b9050919050565b600060208201905081810360008301526121ef81611ded565b9050919050565b6000602082019050818103600083015261220f81611e53565b9050919050565b6000602082019050818103600083015261222f81611eb9565b9050919050565b6000602082019050818103600083015261224f81611f1f565b9050919050565b600060208201905061226b6000830184611f94565b92915050565b60006040820190506122866000830185611f94565b6122936020830184611f94565b9392505050565b6000604051905081810181811067ffffffffffffffff821117156122c1576122c06125a9565b5b8060405250919050565b600067ffffffffffffffff8211156122e6576122e56125a9565b5b602082029050602081019050919050565b600067ffffffffffffffff821115612312576123116125a9565b5b602082029050602081019050919050565b600067ffffffffffffffff82111561233e5761233d6125a9565b5b601f19601f8301169050602081019050919050565b6000819050602082019050919050565b600081519050919050565b600081519050919050565b600081519050919050565b6000602082019050919050565b600082825260208201905092915050565b600082825260208201905092915050565b600082825260208201905092915050565b60006123cf82612484565b91506123da83612484565b9250827fffffffffffffffffffffffffffffffffffffffffffffffffffffffffffffffff0382111561240f5761240e61254b565b5b828201905092915050565b600061242582612464565b9050919050565b60008115159050919050565b60007fffffffff0000000000000000000000000000000000000000000000000000000082169050919050565b600073ffffffffffffffffffffffffffffffffffffffff82169050919050565b6000819050919050565b82818337600083830152505050565b60005b838110156124bb5780820151818401526020810190506124a0565b838111156124ca576000848401525b50505050565b600060028204905060018216806124e857607f821691505b602082108114156124fc576124fb61257a565b5b50919050565b600061250d82612484565b91507fffffffffffffffffffffffffffffffffffffffffffffffffffffffffffffffff8214156125405761253f61254b565b5b600182019050919050565b7f4e487b7100000000000000000000000000000000000000000000000000000000600052601160045260246000fd5b7f4e487b7100000000000000000000000000000000000000000000000000000000600052602260045260246000fd5b7f4e487b7100000000000000000000000000000000000000000000000000000000600052604160045260246000fd5b6000601f19601f8301169050919050565b60008160e01c9050919050565b600060443d1015612606576126a9565b60046000803e6126176000516125e9565b6308c379a0811461262857506126a9565b60405160043d036004823e80513d602482011167ffffffffffffffff82111715612654575050506126a9565b808201805167ffffffffffffffff8111156126735750505050506126a9565b8060208301013d850181111561268e575050505050506126a9565b612697826125d8565b60208401016040528296505050505050505b90565b6126b58161241a565b81146126c057600080fd5b50565b6126cc8161242c565b81146126d757600080fd5b50565b6126e381612438565b81146126ee57600080fd5b50565b6126fa81612484565b811461270557600080fd5b5056fea2646970667358221220a8e6fa5239c09ab7b14cf31ad67667bd0908d4121a3932e461ed8e75b5303e9c64736f6c63430008000033",
  "immutableReferences": {},
  "source": "// SPDX-License-Identifier: MIT\npragma solidity ^0.8.0;\n\nimport \"@openzeppelin/contracts/token/ERC1155/ERC1155.sol\";\n\ncontract FantomPiratesGameItems is ERC1155 {\n\n  address public owner = msg.sender;\n\n  uint256 public constant PIRATE = 0;\n  uint256 public constant GOLD = 1;\n  uint256 public constant SHIP = 2;\n  uint256 public constant SWORD = 3;\n  uint256 public constant SHIELD = 4;\n  uint256 public constant PET = 5;\n  uint256 public constant SHIP_PART = 6;\n\n  constructor() ERC1155(\"\") {\n\t\t_mint(msg.sender, PIRATE, 10**12, \"\");\n\t\t_mint(msg.sender, GOLD, 10**24, \"\");\n    _mint(msg.sender, SHIP, 10**18, \"\");\n    _mint(msg.sender, SWORD, 10**18, \"\");\n    _mint(msg.sender, SHIELD, 10**18, \"\");\n    _mint(msg.sender, PET, 10**18, \"\");\n    _mint(msg.sender, SHIP_PART, 10**27, \"\");\n  }\n}\n",
  "sourcePath": "/Users/joshuacotterell/Documents/Blockchain/Projects/FantomPirates/src/blockchain/contracts/FantomPiratesGameItems.sol",
  "compiler": {
    "name": "solc",
    "version": "0.8.0+commit.c7dfd78e.Emscripten.clang"
  },
  "schemaVersion": "3.3.4",
  "updatedAt": "2021-10-20T22:52:55.829Z",
  "networkType": "ethereum",
  "devdoc": {
    "kind": "dev",
    "methods": {
      "balanceOf(address,uint256)": {
        "details": "See {IERC1155-balanceOf}. Requirements: - `account` cannot be the zero address."
      },
      "balanceOfBatch(address[],uint256[])": {
        "details": "See {IERC1155-balanceOfBatch}. Requirements: - `accounts` and `ids` must have the same length."
      },
      "isApprovedForAll(address,address)": {
        "details": "See {IERC1155-isApprovedForAll}."
      },
      "safeBatchTransferFrom(address,address,uint256[],uint256[],bytes)": {
        "details": "See {IERC1155-safeBatchTransferFrom}."
      },
      "safeTransferFrom(address,address,uint256,uint256,bytes)": {
        "details": "See {IERC1155-safeTransferFrom}."
      },
      "setApprovalForAll(address,bool)": {
        "details": "See {IERC1155-setApprovalForAll}."
      },
      "supportsInterface(bytes4)": {
        "details": "See {IERC165-supportsInterface}."
      },
      "uri(uint256)": {
        "details": "See {IERC1155MetadataURI-uri}. This implementation returns the same URI for *all* token types. It relies on the token type ID substitution mechanism https://eips.ethereum.org/EIPS/eip-1155#metadata[defined in the EIP]. Clients calling this function must replace the `\\{id\\}` substring with the actual token type ID."
      }
    },
    "version": 1
  },
  "userdoc": {
    "kind": "user",
    "methods": {},
    "version": 1
  }
}