{
  "contractName": "FantomPiratesGame",
  "abi": [
    {
      "inputs": [
        {
          "internalType": "address",
          "name": "_ship_contract_address",
          "type": "address"
        }
      ],
      "stateMutability": "nonpayable",
      "type": "constructor"
    },
    {
      "anonymous": false,
      "inputs": [
        {
          "indexed": true,
          "internalType": "address",
          "name": "owner",
          "type": "address"
        },
        {
          "indexed": true,
          "internalType": "address",
          "name": "approved",
          "type": "address"
        },
        {
          "indexed": true,
          "internalType": "uint256",
          "name": "tokenId",
          "type": "uint256"
        }
      ],
      "name": "Approval",
      "type": "event"
    },
    {
      "anonymous": false,
      "inputs": [
        {
          "indexed": true,
          "internalType": "address",
          "name": "owner",
          "type": "address"
        },
        {
          "indexed": true,
          "internalType": "address",
          "name": "operator",
          "type": "address"
        },
        {
          "indexed": false,
          "internalType": "bool",
          "name": "approved",
          "type": "bool"
        }
      ],
      "name": "ApprovalForAll",
      "type": "event"
    },
    {
      "anonymous": false,
      "inputs": [
        {
          "indexed": true,
          "internalType": "address",
          "name": "owner",
          "type": "address"
        },
        {
          "indexed": false,
          "internalType": "uint256",
          "name": "level",
          "type": "uint256"
        },
        {
          "indexed": false,
          "internalType": "uint256",
          "name": "id",
          "type": "uint256"
        }
      ],
      "name": "Leveled",
      "type": "event"
    },
    {
      "anonymous": false,
      "inputs": [
        {
          "indexed": true,
          "internalType": "address",
          "name": "owner",
          "type": "address"
        },
        {
          "indexed": false,
          "internalType": "uint256",
          "name": "pirate_id",
          "type": "uint256"
        }
      ],
      "name": "PirateCreated",
      "type": "event"
    },
    {
      "anonymous": false,
      "inputs": [
        {
          "indexed": true,
          "internalType": "address",
          "name": "owner",
          "type": "address"
        },
        {
          "indexed": false,
          "internalType": "uint256",
          "name": "ship_id",
          "type": "uint256"
        }
      ],
      "name": "ShipCreated",
      "type": "event"
    },
    {
      "anonymous": false,
      "inputs": [
        {
          "indexed": true,
          "internalType": "address",
          "name": "from",
          "type": "address"
        },
        {
          "indexed": true,
          "internalType": "address",
          "name": "to",
          "type": "address"
        },
        {
          "indexed": true,
          "internalType": "uint256",
          "name": "tokenId",
          "type": "uint256"
        }
      ],
      "name": "Transfer",
      "type": "event"
    },
    {
      "inputs": [],
      "name": "_gold_contract",
      "outputs": [
        {
          "internalType": "contract ERC20",
          "name": "",
          "type": "address"
        }
      ],
      "stateMutability": "view",
      "type": "function",
      "constant": true
    },
    {
      "inputs": [],
      "name": "_ships_contract",
      "outputs": [
        {
          "internalType": "contract FantomPiratesShip",
          "name": "",
          "type": "address"
        }
      ],
      "stateMutability": "view",
      "type": "function",
      "constant": true
    },
    {
      "inputs": [
        {
          "internalType": "address",
          "name": "to",
          "type": "address"
        },
        {
          "internalType": "uint256",
          "name": "tokenId",
          "type": "uint256"
        }
      ],
      "name": "approve",
      "outputs": [],
      "stateMutability": "nonpayable",
      "type": "function"
    },
    {
      "inputs": [
        {
          "internalType": "address",
          "name": "owner",
          "type": "address"
        }
      ],
      "name": "balanceOf",
      "outputs": [
        {
          "internalType": "uint256",
          "name": "",
          "type": "uint256"
        }
      ],
      "stateMutability": "view",
      "type": "function",
      "constant": true
    },
    {
      "inputs": [
        {
          "internalType": "uint256",
          "name": "tokenId",
          "type": "uint256"
        }
      ],
      "name": "getApproved",
      "outputs": [
        {
          "internalType": "address",
          "name": "",
          "type": "address"
        }
      ],
      "stateMutability": "view",
      "type": "function",
      "constant": true
    },
    {
      "inputs": [
        {
          "internalType": "address",
          "name": "owner",
          "type": "address"
        },
        {
          "internalType": "address",
          "name": "operator",
          "type": "address"
        }
      ],
      "name": "isApprovedForAll",
      "outputs": [
        {
          "internalType": "bool",
          "name": "",
          "type": "bool"
        }
      ],
      "stateMutability": "view",
      "type": "function",
      "constant": true
    },
    {
      "inputs": [
        {
          "internalType": "uint256",
          "name": "",
          "type": "uint256"
        }
      ],
      "name": "level",
      "outputs": [
        {
          "internalType": "uint256",
          "name": "",
          "type": "uint256"
        }
      ],
      "stateMutability": "view",
      "type": "function",
      "constant": true
    },
    {
      "inputs": [],
      "name": "name",
      "outputs": [
        {
          "internalType": "string",
          "name": "",
          "type": "string"
        }
      ],
      "stateMutability": "view",
      "type": "function",
      "constant": true
    },
    {
      "inputs": [],
      "name": "next_pirate_id",
      "outputs": [
        {
          "internalType": "uint256",
          "name": "",
          "type": "uint256"
        }
      ],
      "stateMutability": "view",
      "type": "function",
      "constant": true
    },
    {
      "inputs": [],
      "name": "next_ship_id",
      "outputs": [
        {
          "internalType": "uint256",
          "name": "",
          "type": "uint256"
        }
      ],
      "stateMutability": "view",
      "type": "function",
      "constant": true
    },
    {
      "inputs": [],
      "name": "owner",
      "outputs": [
        {
          "internalType": "address",
          "name": "",
          "type": "address"
        }
      ],
      "stateMutability": "view",
      "type": "function",
      "constant": true
    },
    {
      "inputs": [
        {
          "internalType": "uint256",
          "name": "tokenId",
          "type": "uint256"
        }
      ],
      "name": "ownerOf",
      "outputs": [
        {
          "internalType": "address",
          "name": "",
          "type": "address"
        }
      ],
      "stateMutability": "view",
      "type": "function",
      "constant": true
    },
    {
      "inputs": [
        {
          "internalType": "uint256",
          "name": "",
          "type": "uint256"
        }
      ],
      "name": "quests_log",
      "outputs": [
        {
          "internalType": "uint256",
          "name": "",
          "type": "uint256"
        }
      ],
      "stateMutability": "view",
      "type": "function",
      "constant": true
    },
    {
      "inputs": [
        {
          "internalType": "address",
          "name": "from",
          "type": "address"
        },
        {
          "internalType": "address",
          "name": "to",
          "type": "address"
        },
        {
          "internalType": "uint256",
          "name": "tokenId",
          "type": "uint256"
        }
      ],
      "name": "safeTransferFrom",
      "outputs": [],
      "stateMutability": "nonpayable",
      "type": "function"
    },
    {
      "inputs": [
        {
          "internalType": "address",
          "name": "from",
          "type": "address"
        },
        {
          "internalType": "address",
          "name": "to",
          "type": "address"
        },
        {
          "internalType": "uint256",
          "name": "tokenId",
          "type": "uint256"
        },
        {
          "internalType": "bytes",
          "name": "_data",
          "type": "bytes"
        }
      ],
      "name": "safeTransferFrom",
      "outputs": [],
      "stateMutability": "nonpayable",
      "type": "function"
    },
    {
      "inputs": [
        {
          "internalType": "address",
          "name": "operator",
          "type": "address"
        },
        {
          "internalType": "bool",
          "name": "approved",
          "type": "bool"
        }
      ],
      "name": "setApprovalForAll",
      "outputs": [],
      "stateMutability": "nonpayable",
      "type": "function"
    },
    {
      "inputs": [
        {
          "internalType": "uint256",
          "name": "",
          "type": "uint256"
        }
      ],
      "name": "ship",
      "outputs": [
        {
          "internalType": "uint256",
          "name": "",
          "type": "uint256"
        }
      ],
      "stateMutability": "view",
      "type": "function",
      "constant": true
    },
    {
      "inputs": [
        {
          "internalType": "bytes4",
          "name": "interfaceId",
          "type": "bytes4"
        }
      ],
      "name": "supportsInterface",
      "outputs": [
        {
          "internalType": "bool",
          "name": "",
          "type": "bool"
        }
      ],
      "stateMutability": "view",
      "type": "function",
      "constant": true
    },
    {
      "inputs": [],
      "name": "symbol",
      "outputs": [
        {
          "internalType": "string",
          "name": "",
          "type": "string"
        }
      ],
      "stateMutability": "view",
      "type": "function",
      "constant": true
    },
    {
      "inputs": [
        {
          "internalType": "uint256",
          "name": "index",
          "type": "uint256"
        }
      ],
      "name": "tokenByIndex",
      "outputs": [
        {
          "internalType": "uint256",
          "name": "",
          "type": "uint256"
        }
      ],
      "stateMutability": "view",
      "type": "function",
      "constant": true
    },
    {
      "inputs": [
        {
          "internalType": "address",
          "name": "owner",
          "type": "address"
        },
        {
          "internalType": "uint256",
          "name": "index",
          "type": "uint256"
        }
      ],
      "name": "tokenOfOwnerByIndex",
      "outputs": [
        {
          "internalType": "uint256",
          "name": "",
          "type": "uint256"
        }
      ],
      "stateMutability": "view",
      "type": "function",
      "constant": true
    },
    {
      "inputs": [
        {
          "internalType": "uint256",
          "name": "tokenId",
          "type": "uint256"
        }
      ],
      "name": "tokenURI",
      "outputs": [
        {
          "internalType": "string",
          "name": "",
          "type": "string"
        }
      ],
      "stateMutability": "view",
      "type": "function",
      "constant": true
    },
    {
      "inputs": [],
      "name": "totalSupply",
      "outputs": [
        {
          "internalType": "uint256",
          "name": "",
          "type": "uint256"
        }
      ],
      "stateMutability": "view",
      "type": "function",
      "constant": true
    },
    {
      "inputs": [
        {
          "internalType": "address",
          "name": "from",
          "type": "address"
        },
        {
          "internalType": "address",
          "name": "to",
          "type": "address"
        },
        {
          "internalType": "uint256",
          "name": "tokenId",
          "type": "uint256"
        }
      ],
      "name": "transferFrom",
      "outputs": [],
      "stateMutability": "nonpayable",
      "type": "function"
    },
    {
      "inputs": [
        {
          "internalType": "uint256",
          "name": "",
          "type": "uint256"
        }
      ],
      "name": "xp",
      "outputs": [
        {
          "internalType": "uint256",
          "name": "",
          "type": "uint256"
        }
      ],
      "stateMutability": "view",
      "type": "function",
      "constant": true
    },
    {
      "inputs": [],
      "name": "mintPirate",
      "outputs": [],
      "stateMutability": "payable",
      "type": "function",
      "payable": true
    },
    {
      "inputs": [
        {
          "internalType": "uint256",
          "name": "_pirate_id",
          "type": "uint256"
        }
      ],
      "name": "mintShip",
      "outputs": [],
      "stateMutability": "payable",
      "type": "function",
      "payable": true
    },
    {
      "inputs": [
        {
          "internalType": "uint256",
          "name": "_pirate_id",
          "type": "uint256"
        }
      ],
      "name": "doQuest",
      "outputs": [],
      "stateMutability": "payable",
      "type": "function",
      "payable": true
    },
    {
      "inputs": [
        {
          "internalType": "uint256",
          "name": "_pirate_id",
          "type": "uint256"
        }
      ],
      "name": "levelUp",
      "outputs": [],
      "stateMutability": "payable",
      "type": "function",
      "payable": true
    },
    {
      "inputs": [
        {
          "internalType": "uint256",
          "name": "_pirate_level",
          "type": "uint256"
        }
      ],
      "name": "requiredXpForLevel",
      "outputs": [
        {
          "internalType": "uint256",
          "name": "required_xp",
          "type": "uint256"
        }
      ],
      "stateMutability": "pure",
      "type": "function",
      "constant": true
    }
  ],
  "bytecode": "0x608060405233600a60006101000a81548173ffffffffffffffffffffffffffffffffffffffff021916908373ffffffffffffffffffffffffffffffffffffffff1602179055506001600b556001600c553480156200005c57600080fd5b506040516200401538038062004015833981810160405281019062000082919062000231565b6040518060400160405280600e81526020017f46616e746f6d20506972617465730000000000000000000000000000000000008152506040518060400160405280600281526020017f46500000000000000000000000000000000000000000000000000000000000008152508160009080519060200190620001069291906200016a565b5080600190805190602001906200011f9291906200016a565b50505080601160006101000a81548173ffffffffffffffffffffffffffffffffffffffff021916908373ffffffffffffffffffffffffffffffffffffffff1602179055505062000310565b828054620001789062000291565b90600052602060002090601f0160209004810192826200019c5760008555620001e8565b82601f10620001b757805160ff1916838001178555620001e8565b82800160010185558215620001e8579182015b82811115620001e7578251825591602001919060010190620001ca565b5b509050620001f79190620001fb565b5090565b5b8082111562000216576000816000905550600101620001fc565b5090565b6000815190506200022b81620002f6565b92915050565b6000602082840312156200024457600080fd5b600062000254848285016200021a565b91505092915050565b60006200026a8262000271565b9050919050565b600073ffffffffffffffffffffffffffffffffffffffff82169050919050565b60006002820490506001821680620002aa57607f821691505b60208210811415620002c157620002c0620002c7565b5b50919050565b7f4e487b7100000000000000000000000000000000000000000000000000000000600052602260045260246000fd5b62000301816200025d565b81146200030d57600080fd5b50565b613cf580620003206000396000f3fe6080604052600436106101cd5760003560e01c80636352211e116100f7578063a22cb46511610095578063c87b56dd11610064578063c87b56dd146106ce578063cec8603e1461070b578063e985e9c514610715578063efce079e14610752576101cd565b8063a22cb46514610614578063b88d4fde1461063d578063b9c831d114610666578063bfb3cd5d14610691576101cd565b80638da5cb5b116100d15780638da5cb5b1461056557806393407afe1461059057806394b69ffa146105ac57806395d89b41146105e9576101cd565b80636352211e146104c05780636604b7fa146104fd57806370a0823114610528576101cd565b806323b872dd1161016f57806342842e0e1161013e57806342842e0e14610404578063474758a21461042d5780634f6ccce7146104585780634fd0e8f614610495576101cd565b806323b872dd14610324578063244f643b1461034d5780632f745c591461038a5780633e3962f4146103c7576101cd565b8063081812fc116101ab578063081812fc14610277578063095ea7b3146102b45780630ce90ec2146102dd57806318160ddd146102f9576101cd565b806301ffc9a7146101d257806305c58df21461020f57806306fdde031461024c575b600080fd5b3480156101de57600080fd5b506101f960048036038101906101f491906129f0565b61076e565b60405161020691906134c5565b60405180910390f35b34801561021b57600080fd5b5061023660048036038101906102319190612a42565b6107e8565b6040516102439190613818565b60405180910390f35b34801561025857600080fd5b50610261610800565b60405161026e9190613516565b60405180910390f35b34801561028357600080fd5b5061029e60048036038101906102999190612a42565b610892565b6040516102ab9190613435565b60405180910390f35b3480156102c057600080fd5b506102db60048036038101906102d691906129b4565b610917565b005b6102f760048036038101906102f29190612a42565b610a2f565b005b34801561030557600080fd5b5061030e610b52565b60405161031b9190613818565b60405180910390f35b34801561033057600080fd5b5061034b600480360381019061034691906128ae565b610b5f565b005b34801561035957600080fd5b50610374600480360381019061036f9190612a42565b610bbf565b6040516103819190613818565b60405180910390f35b34801561039657600080fd5b506103b160048036038101906103ac91906129b4565b610bd7565b6040516103be9190613818565b60405180910390f35b3480156103d357600080fd5b506103ee60048036038101906103e99190612a42565b610c7c565b6040516103fb9190613818565b60405180910390f35b34801561041057600080fd5b5061042b600480360381019061042691906128ae565b610c94565b005b34801561043957600080fd5b50610442610cb4565b60405161044f91906134fb565b60405180910390f35b34801561046457600080fd5b5061047f600480360381019061047a9190612a42565b610cda565b60405161048c9190613818565b60405180910390f35b3480156104a157600080fd5b506104aa610d71565b6040516104b79190613818565b60405180910390f35b3480156104cc57600080fd5b506104e760048036038101906104e29190612a42565b610d77565b6040516104f49190613435565b60405180910390f35b34801561050957600080fd5b50610512610e29565b60405161051f9190613818565b60405180910390f35b34801561053457600080fd5b5061054f600480360381019061054a9190612849565b610e2f565b60405161055c9190613818565b60405180910390f35b34801561057157600080fd5b5061057a610ee7565b6040516105879190613435565b60405180910390f35b6105aa60048036038101906105a59190612a42565b610f0d565b005b3480156105b857600080fd5b506105d360048036038101906105ce9190612a42565b61112f565b6040516105e09190613818565b60405180910390f35b3480156105f557600080fd5b506105fe611147565b60405161060b9190613516565b60405180910390f35b34801561062057600080fd5b5061063b60048036038101906106369190612978565b6111d9565b005b34801561064957600080fd5b50610664600480360381019061065f91906128fd565b61135a565b005b34801561067257600080fd5b5061067b6113bc565b60405161068891906134e0565b60405180910390f35b34801561069d57600080fd5b506106b860048036038101906106b39190612a42565b6113e2565b6040516106c59190613818565b60405180910390f35b3480156106da57600080fd5b506106f560048036038101906106f09190612a42565b61142f565b6040516107029190613516565b60405180910390f35b6107136114d6565b005b34801561072157600080fd5b5061073c60048036038101906107379190612872565b6115cd565b60405161074991906134c5565b60405180910390f35b61076c60048036038101906107679190612a42565b611661565b005b60007f780e9d63000000000000000000000000000000000000000000000000000000007bffffffffffffffffffffffffffffffffffffffffffffffffffffffff1916827bffffffffffffffffffffffffffffffffffffffffffffffffffffffff191614806107e157506107e082611723565b5b9050919050565b600d6020528060005260406000206000915090505481565b60606000805461080f90613aea565b80601f016020809104026020016040519081016040528092919081815260200182805461083b90613aea565b80156108885780601f1061085d57610100808354040283529160200191610888565b820191906000526020600020905b81548152906001019060200180831161086b57829003601f168201915b5050505050905090565b600061089d82611805565b6108dc576040517f08c379a00000000000000000000000000000000000000000000000000000000081526004016108d390613758565b60405180910390fd5b6004600083815260200190815260200160002060009054906101000a900473ffffffffffffffffffffffffffffffffffffffff169050919050565b600061092282610d77565b90508073ffffffffffffffffffffffffffffffffffffffff168373ffffffffffffffffffffffffffffffffffffffff161415610993576040517f08c379a000000000000000000000000000000000000000000000000000000000815260040161098a906137b8565b60405180910390fd5b8073ffffffffffffffffffffffffffffffffffffffff166109b2611871565b73ffffffffffffffffffffffffffffffffffffffff1614806109e157506109e0816109db611871565b6115cd565b5b610a20576040517f08c379a0000000000000000000000000000000000000000000000000000000008152600401610a17906136b8565b60405180910390fd5b610a2a8383611879565b505050565b610a393382611932565b610a78576040517f08c379a0000000000000000000000000000000000000000000000000000000008152600401610a6f90613678565b60405180910390fd5b6000600d60008381526020019081526020016000205490506000610aa78280610aa090613b1c565b93506113e2565b905080600e6000858152602001908152602001600020541015610aff576040517f08c379a0000000000000000000000000000000000000000000000000000000008152600401610af690613638565b60405180910390fd5b80600e60008581526020019081526020016000206000828254610b2291906139b8565b92505081905550600182610b3691906138d7565b600d600085815260200190815260200160002081905550505050565b6000600880549050905090565b610b70610b6a611871565b82611932565b610baf576040517f08c379a0000000000000000000000000000000000000000000000000000000008152600401610ba6906137d8565b60405180910390fd5b610bba838383611a10565b505050565b60106020528060005260406000206000915090505481565b6000610be283610e2f565b8210610c23576040517f08c379a0000000000000000000000000000000000000000000000000000000008152600401610c1a90613558565b60405180910390fd5b600660008473ffffffffffffffffffffffffffffffffffffffff1673ffffffffffffffffffffffffffffffffffffffff168152602001908152602001600020600083815260200190815260200160002054905092915050565b600f6020528060005260406000206000915090505481565b610caf8383836040518060200160405280600081525061135a565b505050565b601160009054906101000a900473ffffffffffffffffffffffffffffffffffffffff1681565b6000610ce4610b52565b8210610d25576040517f08c379a0000000000000000000000000000000000000000000000000000000008152600401610d1c906137f8565b60405180910390fd5b60088281548110610d5f577f4e487b7100000000000000000000000000000000000000000000000000000000600052603260045260246000fd5b90600052602060002001549050919050565b600b5481565b6000806002600084815260200190815260200160002060009054906101000a900473ffffffffffffffffffffffffffffffffffffffff169050600073ffffffffffffffffffffffffffffffffffffffff168173ffffffffffffffffffffffffffffffffffffffff161415610e20576040517f08c379a0000000000000000000000000000000000000000000000000000000008152600401610e17906136f8565b60405180910390fd5b80915050919050565b600c5481565b60008073ffffffffffffffffffffffffffffffffffffffff168273ffffffffffffffffffffffffffffffffffffffff161415610ea0576040517f08c379a0000000000000000000000000000000000000000000000000000000008152600401610e97906136d8565b60405180910390fd5b600360008373ffffffffffffffffffffffffffffffffffffffff1673ffffffffffffffffffffffffffffffffffffffff168152602001908152602001600020549050919050565b600a60009054906101000a900473ffffffffffffffffffffffffffffffffffffffff1681565b6000600c5490506000610f1f33610e2f565b905060008314158015610f325750600081115b610f71576040517f08c379a0000000000000000000000000000000000000000000000000000000008152600401610f68906135b8565b60405180910390fd5b6000601060008581526020019081526020016000205414610fc7576040517f08c379a0000000000000000000000000000000000000000000000000000000008152600401610fbe90613718565b60405180910390fd5b6001600d6000858152602001908152602001600020541161101d576040517f08c379a000000000000000000000000000000000000000000000000000000000815260040161101490613618565b60405180910390fd5b601160009054906101000a900473ffffffffffffffffffffffffffffffffffffffff1673ffffffffffffffffffffffffffffffffffffffff1663367f682d33846040518363ffffffff1660e01b815260040161107a92919061349c565b600060405180830381600087803b15801561109457600080fd5b505af11580156110a8573d6000803e3d6000fd5b505050508160106000858152602001908152602001600020819055503373ffffffffffffffffffffffffffffffffffffffff167f423ae04b472429d194e9eaab6ef6b34f42a353ef907309a5aefdbfdaae19222d8360405161110a9190613818565b60405180910390a2600c600081548092919061112590613b1c565b9190505550505050565b600e6020528060005260406000206000915090505481565b60606001805461115690613aea565b80601f016020809104026020016040519081016040528092919081815260200182805461118290613aea565b80156111cf5780601f106111a4576101008083540402835291602001916111cf565b820191906000526020600020905b8154815290600101906020018083116111b257829003601f168201915b5050505050905090565b6111e1611871565b73ffffffffffffffffffffffffffffffffffffffff168273ffffffffffffffffffffffffffffffffffffffff16141561124f576040517f08c379a0000000000000000000000000000000000000000000000000000000008152600401611246906135f8565b60405180910390fd5b806005600061125c611871565b73ffffffffffffffffffffffffffffffffffffffff1673ffffffffffffffffffffffffffffffffffffffff16815260200190815260200160002060008473ffffffffffffffffffffffffffffffffffffffff1673ffffffffffffffffffffffffffffffffffffffff16815260200190815260200160002060006101000a81548160ff0219169083151502179055508173ffffffffffffffffffffffffffffffffffffffff16611309611871565b73ffffffffffffffffffffffffffffffffffffffff167f17307eab39ab6107e8899845ad3d59bd9653f200f220920489ca2b5937696c318360405161134e91906134c5565b60405180910390a35050565b61136b611365611871565b83611932565b6113aa576040517f08c379a00000000000000000000000000000000000000000000000000000000081526004016113a1906137d8565b60405180910390fd5b6113b684848484611c6c565b50505050565b601260009054906101000a900473ffffffffffffffffffffffffffffffffffffffff1681565b6000806103e890506000600290505b8381116114255760fa81611405919061395e565b8261141091906138d7565b9150808061141d90613b1c565b9150506113f1565b5080915050919050565b606061143a82611805565b611479576040517f08c379a000000000000000000000000000000000000000000000000000000000815260040161147090613798565b60405180910390fd5b6000611483611cc8565b905060008151116114a357604051806020016040528060008152506114ce565b806114ad84611cdf565b6040516020016114be929190613411565b6040516020818303038152906040525b915050919050565b6000600b549050600a6114e833610e2f565b10611528576040517f08c379a000000000000000000000000000000000000000000000000000000000815260040161151f90613538565b60405180910390fd5b6001600d600083815260200190815260200160002081905550600060106000838152602001908152602001600020819055506115643382611e8c565b3373ffffffffffffffffffffffffffffffffffffffff167f681489e2a7c535074cf6a8d776661658c4f160233183873f351e974adbc314ce826040516115aa9190613818565b60405180910390a2600b60008154809291906115c590613b1c565b919050555050565b6000600560008473ffffffffffffffffffffffffffffffffffffffff1673ffffffffffffffffffffffffffffffffffffffff16815260200190815260200160002060008373ffffffffffffffffffffffffffffffffffffffff1673ffffffffffffffffffffffffffffffffffffffff16815260200190815260200160002060009054906101000a900460ff16905092915050565b600f60008281526020019081526020016000205442116116b6576040517f08c379a00000000000000000000000000000000000000000000000000000000081526004016116ad90613698565b60405180910390fd5b62015180426116c591906138d7565b600f60008381526020019081526020016000208190555060fa600e6000838152602001908152602001600020600082825461170091906138d7565b925050819055506002600d60008381526020019081526020016000208190555050565b60007f80ac58cd000000000000000000000000000000000000000000000000000000007bffffffffffffffffffffffffffffffffffffffffffffffffffffffff1916827bffffffffffffffffffffffffffffffffffffffffffffffffffffffff191614806117ee57507f5b5e139f000000000000000000000000000000000000000000000000000000007bffffffffffffffffffffffffffffffffffffffffffffffffffffffff1916827bffffffffffffffffffffffffffffffffffffffffffffffffffffffff1916145b806117fe57506117fd82611eaa565b5b9050919050565b60008073ffffffffffffffffffffffffffffffffffffffff166002600084815260200190815260200160002060009054906101000a900473ffffffffffffffffffffffffffffffffffffffff1673ffffffffffffffffffffffffffffffffffffffff1614159050919050565b600033905090565b816004600083815260200190815260200160002060006101000a81548173ffffffffffffffffffffffffffffffffffffffff021916908373ffffffffffffffffffffffffffffffffffffffff160217905550808273ffffffffffffffffffffffffffffffffffffffff166118ec83610d77565b73ffffffffffffffffffffffffffffffffffffffff167f8c5be1e5ebec7d5bd14f71427d1e84f3dd0314c0f7b2291e5b200ac8c7c3b92560405160405180910390a45050565b600061193d82611805565b61197c576040517f08c379a000000000000000000000000000000000000000000000000000000000815260040161197390613658565b60405180910390fd5b600061198783610d77565b90508073ffffffffffffffffffffffffffffffffffffffff168473ffffffffffffffffffffffffffffffffffffffff1614806119f657508373ffffffffffffffffffffffffffffffffffffffff166119de84610892565b73ffffffffffffffffffffffffffffffffffffffff16145b80611a075750611a0681856115cd565b5b91505092915050565b8273ffffffffffffffffffffffffffffffffffffffff16611a3082610d77565b73ffffffffffffffffffffffffffffffffffffffff1614611a86576040517f08c379a0000000000000000000000000000000000000000000000000000000008152600401611a7d90613778565b60405180910390fd5b600073ffffffffffffffffffffffffffffffffffffffff168273ffffffffffffffffffffffffffffffffffffffff161415611af6576040517f08c379a0000000000000000000000000000000000000000000000000000000008152600401611aed906135d8565b60405180910390fd5b611b01838383611f14565b611b0c600082611879565b6001600360008573ffffffffffffffffffffffffffffffffffffffff1673ffffffffffffffffffffffffffffffffffffffff1681526020019081526020016000206000828254611b5c91906139b8565b925050819055506001600360008473ffffffffffffffffffffffffffffffffffffffff1673ffffffffffffffffffffffffffffffffffffffff1681526020019081526020016000206000828254611bb391906138d7565b92505081905550816002600083815260200190815260200160002060006101000a81548173ffffffffffffffffffffffffffffffffffffffff021916908373ffffffffffffffffffffffffffffffffffffffff160217905550808273ffffffffffffffffffffffffffffffffffffffff168473ffffffffffffffffffffffffffffffffffffffff167fddf252ad1be2c89b69c2b068fc378daa952ba7f163c4a11628f55a4df523b3ef60405160405180910390a4505050565b611c77848484611a10565b611c8384848484612028565b611cc2576040517f08c379a0000000000000000000000000000000000000000000000000000000008152600401611cb990613578565b60405180910390fd5b50505050565b606060405180602001604052806000815250905090565b60606000821415611d27576040518060400160405280600181526020017f30000000000000000000000000000000000000000000000000000000000000008152509050611e87565b600082905060005b60008214611d59578080611d4290613b1c565b915050600a82611d52919061392d565b9150611d2f565b60008167ffffffffffffffff811115611d9b577f4e487b7100000000000000000000000000000000000000000000000000000000600052604160045260246000fd5b6040519080825280601f01601f191660200182016040528015611dcd5781602001600182028036833780820191505090505b5090505b60008514611e8057600182611de691906139b8565b9150600a85611df59190613b65565b6030611e0191906138d7565b60f81b818381518110611e3d577f4e487b7100000000000000000000000000000000000000000000000000000000600052603260045260246000fd5b60200101907effffffffffffffffffffffffffffffffffffffffffffffffffffffffffffff1916908160001a905350600a85611e79919061392d565b9450611dd1565b8093505050505b919050565b611ea68282604051806020016040528060008152506121bf565b5050565b60007f01ffc9a7000000000000000000000000000000000000000000000000000000007bffffffffffffffffffffffffffffffffffffffffffffffffffffffff1916827bffffffffffffffffffffffffffffffffffffffffffffffffffffffff1916149050919050565b611f1f83838361221a565b600073ffffffffffffffffffffffffffffffffffffffff168373ffffffffffffffffffffffffffffffffffffffff161415611f6257611f5d8161221f565b611fa1565b8173ffffffffffffffffffffffffffffffffffffffff168373ffffffffffffffffffffffffffffffffffffffff1614611fa057611f9f8382612268565b5b5b600073ffffffffffffffffffffffffffffffffffffffff168273ffffffffffffffffffffffffffffffffffffffff161415611fe457611fdf816123d5565b612023565b8273ffffffffffffffffffffffffffffffffffffffff168273ffffffffffffffffffffffffffffffffffffffff1614612022576120218282612518565b5b5b505050565b60006120498473ffffffffffffffffffffffffffffffffffffffff16612597565b156121b2578373ffffffffffffffffffffffffffffffffffffffff1663150b7a02612072611871565b8786866040518563ffffffff1660e01b81526004016120949493929190613450565b602060405180830381600087803b1580156120ae57600080fd5b505af19250505080156120df57506040513d601f19601f820116820180604052508101906120dc9190612a19565b60015b612162573d806000811461210f576040519150601f19603f3d011682016040523d82523d6000602084013e612114565b606091505b5060008151141561215a576040517f08c379a000000000000000000000000000000000000000000000000000000000815260040161215190613578565b60405180910390fd5b805181602001fd5b63150b7a0260e01b7bffffffffffffffffffffffffffffffffffffffffffffffffffffffff1916817bffffffffffffffffffffffffffffffffffffffffffffffffffffffff1916149150506121b7565b600190505b949350505050565b6121c983836125aa565b6121d66000848484612028565b612215576040517f08c379a000000000000000000000000000000000000000000000000000000000815260040161220c90613578565b60405180910390fd5b505050565b505050565b6008805490506009600083815260200190815260200160002081905550600881908060018154018082558091505060019003906000526020600020016000909190919091505550565b6000600161227584610e2f565b61227f91906139b8565b9050600060076000848152602001908152602001600020549050818114612364576000600660008673ffffffffffffffffffffffffffffffffffffffff1673ffffffffffffffffffffffffffffffffffffffff168152602001908152602001600020600084815260200190815260200160002054905080600660008773ffffffffffffffffffffffffffffffffffffffff1673ffffffffffffffffffffffffffffffffffffffff168152602001908152602001600020600084815260200190815260200160002081905550816007600083815260200190815260200160002081905550505b6007600084815260200190815260200160002060009055600660008573ffffffffffffffffffffffffffffffffffffffff1673ffffffffffffffffffffffffffffffffffffffff16815260200190815260200160002060008381526020019081526020016000206000905550505050565b600060016008805490506123e991906139b8565b905060006009600084815260200190815260200160002054905060006008838154811061243f577f4e487b7100000000000000000000000000000000000000000000000000000000600052603260045260246000fd5b906000526020600020015490508060088381548110612487577f4e487b7100000000000000000000000000000000000000000000000000000000600052603260045260246000fd5b9060005260206000200181905550816009600083815260200190815260200160002081905550600960008581526020019081526020016000206000905560088054806124fc577f4e487b7100000000000000000000000000000000000000000000000000000000600052603160045260246000fd5b6001900381819060005260206000200160009055905550505050565b600061252383610e2f565b905081600660008573ffffffffffffffffffffffffffffffffffffffff1673ffffffffffffffffffffffffffffffffffffffff168152602001908152602001600020600083815260200190815260200160002081905550806007600084815260200190815260200160002081905550505050565b600080823b905060008111915050919050565b600073ffffffffffffffffffffffffffffffffffffffff168273ffffffffffffffffffffffffffffffffffffffff16141561261a576040517f08c379a000000000000000000000000000000000000000000000000000000000815260040161261190613738565b60405180910390fd5b61262381611805565b15612663576040517f08c379a000000000000000000000000000000000000000000000000000000000815260040161265a90613598565b60405180910390fd5b61266f60008383611f14565b6001600360008473ffffffffffffffffffffffffffffffffffffffff1673ffffffffffffffffffffffffffffffffffffffff16815260200190815260200160002060008282546126bf91906138d7565b92505081905550816002600083815260200190815260200160002060006101000a81548173ffffffffffffffffffffffffffffffffffffffff021916908373ffffffffffffffffffffffffffffffffffffffff160217905550808273ffffffffffffffffffffffffffffffffffffffff16600073ffffffffffffffffffffffffffffffffffffffff167fddf252ad1be2c89b69c2b068fc378daa952ba7f163c4a11628f55a4df523b3ef60405160405180910390a45050565b600061278b61278684613864565b613833565b9050828152602081018484840111156127a357600080fd5b6127ae848285613aa8565b509392505050565b6000813590506127c581613c63565b92915050565b6000813590506127da81613c7a565b92915050565b6000813590506127ef81613c91565b92915050565b60008151905061280481613c91565b92915050565b600082601f83011261281b57600080fd5b813561282b848260208601612778565b91505092915050565b60008135905061284381613ca8565b92915050565b60006020828403121561285b57600080fd5b6000612869848285016127b6565b91505092915050565b6000806040838503121561288557600080fd5b6000612893858286016127b6565b92505060206128a4858286016127b6565b9150509250929050565b6000806000606084860312156128c357600080fd5b60006128d1868287016127b6565b93505060206128e2868287016127b6565b92505060406128f386828701612834565b9150509250925092565b6000806000806080858703121561291357600080fd5b6000612921878288016127b6565b9450506020612932878288016127b6565b935050604061294387828801612834565b925050606085013567ffffffffffffffff81111561296057600080fd5b61296c8782880161280a565b91505092959194509250565b6000806040838503121561298b57600080fd5b6000612999858286016127b6565b92505060206129aa858286016127cb565b9150509250929050565b600080604083850312156129c757600080fd5b60006129d5858286016127b6565b92505060206129e685828601612834565b9150509250929050565b600060208284031215612a0257600080fd5b6000612a10848285016127e0565b91505092915050565b600060208284031215612a2b57600080fd5b6000612a39848285016127f5565b91505092915050565b600060208284031215612a5457600080fd5b6000612a6284828501612834565b91505092915050565b612a74816139ec565b82525050565b612a83816139fe565b82525050565b6000612a9482613894565b612a9e81856138aa565b9350612aae818560208601613ab7565b612ab781613c52565b840191505092915050565b612acb81613a60565b82525050565b612ada81613a84565b82525050565b6000612aeb8261389f565b612af581856138bb565b9350612b05818560208601613ab7565b612b0e81613c52565b840191505092915050565b6000612b248261389f565b612b2e81856138cc565b9350612b3e818560208601613ab7565b80840191505092915050565b6000612b576022836138bb565b91507f596f752063616e206f6e6c79206f776e20757020746f2031302070697261746560008301527f73210000000000000000000000000000000000000000000000000000000000006020830152604082019050919050565b6000612bbd602b836138bb565b91507f455243373231456e756d657261626c653a206f776e657220696e646578206f7560008301527f74206f6620626f756e64730000000000000000000000000000000000000000006020830152604082019050919050565b6000612c236032836138bb565b91507f4552433732313a207472616e7366657220746f206e6f6e20455243373231526560008301527f63656976657220696d706c656d656e74657200000000000000000000000000006020830152604082019050919050565b6000612c89601c836138bb565b91507f4552433732313a20746f6b656e20616c7265616479206d696e746564000000006000830152602082019050919050565b6000612cc96030836138bb565b91507f596f75206d757374206f776e206120706972617465206265666f726520796f7560008301527f2063616e206f776e2061207368697021000000000000000000000000000000006020830152604082019050919050565b6000612d2f6024836138bb565b91507f4552433732313a207472616e7366657220746f20746865207a65726f2061646460008301527f72657373000000000000000000000000000000000000000000000000000000006020830152604082019050919050565b6000612d956019836138bb565b91507f4552433732313a20617070726f766520746f2063616c6c6572000000000000006000830152602082019050919050565b6000612dd5603e836138bb565b91507f596f757220706972617465206d757374206265206174206c65617374206c657660008301527f656c203220696e206f7264657220746f2062652061206361707461696e2100006020830152604082019050919050565b6000612e3b6038836138bb565b91507f596f7520646f206e6f742068617665207468652072657175697265642058502060008301527f746f206c6576656c2075702074686973207069726174652e00000000000000006020830152604082019050919050565b6000612ea1602c836138bb565b91507f4552433732313a206f70657261746f7220717565727920666f72206e6f6e657860008301527f697374656e7420746f6b656e00000000000000000000000000000000000000006020830152604082019050919050565b6000612f076031836138bb565b91507f596f75206d757374206f776e20746869732070697261746520696e206f72646560008301527f7220746f206c6576656c206974207570210000000000000000000000000000006020830152604082019050919050565b6000612f6d602b836138bb565b91507f596f75206d7573742077616974206120646179206265666f726520796f75722060008301527f6e657874207175657374210000000000000000000000000000000000000000006020830152604082019050919050565b6000612fd36038836138bb565b91507f4552433732313a20617070726f76652063616c6c6572206973206e6f74206f7760008301527f6e6572206e6f7220617070726f76656420666f7220616c6c00000000000000006020830152604082019050919050565b6000613039602a836138bb565b91507f4552433732313a2062616c616e636520717565727920666f7220746865207a6560008301527f726f2061646472657373000000000000000000000000000000000000000000006020830152604082019050919050565b600061309f6029836138bb565b91507f4552433732313a206f776e657220717565727920666f72206e6f6e657869737460008301527f656e7420746f6b656e00000000000000000000000000000000000000000000006020830152604082019050919050565b60006131056026836138bb565b91507f596f7572207069726174652063616e206f6e6c79206361707461696e206f6e6560008301527f20736869702100000000000000000000000000000000000000000000000000006020830152604082019050919050565b600061316b6020836138bb565b91507f4552433732313a206d696e7420746f20746865207a65726f20616464726573736000830152602082019050919050565b60006131ab602c836138bb565b91507f4552433732313a20617070726f76656420717565727920666f72206e6f6e657860008301527f697374656e7420746f6b656e00000000000000000000000000000000000000006020830152604082019050919050565b60006132116029836138bb565b91507f4552433732313a207472616e73666572206f6620746f6b656e2074686174206960008301527f73206e6f74206f776e00000000000000000000000000000000000000000000006020830152604082019050919050565b6000613277602f836138bb565b91507f4552433732314d657461646174613a2055524920717565727920666f72206e6f60008301527f6e6578697374656e7420746f6b656e00000000000000000000000000000000006020830152604082019050919050565b60006132dd6021836138bb565b91507f4552433732313a20617070726f76616c20746f2063757272656e74206f776e6560008301527f72000000000000000000000000000000000000000000000000000000000000006020830152604082019050919050565b60006133436031836138bb565b91507f4552433732313a207472616e736665722063616c6c6572206973206e6f74206f60008301527f776e6572206e6f7220617070726f7665640000000000000000000000000000006020830152604082019050919050565b60006133a9602c836138bb565b91507f455243373231456e756d657261626c653a20676c6f62616c20696e646578206f60008301527f7574206f6620626f756e647300000000000000000000000000000000000000006020830152604082019050919050565b61340b81613a56565b82525050565b600061341d8285612b19565b91506134298284612b19565b91508190509392505050565b600060208201905061344a6000830184612a6b565b92915050565b60006080820190506134656000830187612a6b565b6134726020830186612a6b565b61347f6040830185613402565b81810360608301526134918184612a89565b905095945050505050565b60006040820190506134b16000830185612a6b565b6134be6020830184613402565b9392505050565b60006020820190506134da6000830184612a7a565b92915050565b60006020820190506134f56000830184612ac2565b92915050565b60006020820190506135106000830184612ad1565b92915050565b600060208201905081810360008301526135308184612ae0565b905092915050565b6000602082019050818103600083015261355181612b4a565b9050919050565b6000602082019050818103600083015261357181612bb0565b9050919050565b6000602082019050818103600083015261359181612c16565b9050919050565b600060208201905081810360008301526135b181612c7c565b9050919050565b600060208201905081810360008301526135d181612cbc565b9050919050565b600060208201905081810360008301526135f181612d22565b9050919050565b6000602082019050818103600083015261361181612d88565b9050919050565b6000602082019050818103600083015261363181612dc8565b9050919050565b6000602082019050818103600083015261365181612e2e565b9050919050565b6000602082019050818103600083015261367181612e94565b9050919050565b6000602082019050818103600083015261369181612efa565b9050919050565b600060208201905081810360008301526136b181612f60565b9050919050565b600060208201905081810360008301526136d181612fc6565b9050919050565b600060208201905081810360008301526136f18161302c565b9050919050565b6000602082019050818103600083015261371181613092565b9050919050565b60006020820190508181036000830152613731816130f8565b9050919050565b600060208201905081810360008301526137518161315e565b9050919050565b600060208201905081810360008301526137718161319e565b9050919050565b6000602082019050818103600083015261379181613204565b9050919050565b600060208201905081810360008301526137b18161326a565b9050919050565b600060208201905081810360008301526137d1816132d0565b9050919050565b600060208201905081810360008301526137f181613336565b9050919050565b600060208201905081810360008301526138118161339c565b9050919050565b600060208201905061382d6000830184613402565b92915050565b6000604051905081810181811067ffffffffffffffff8211171561385a57613859613c23565b5b8060405250919050565b600067ffffffffffffffff82111561387f5761387e613c23565b5b601f19601f8301169050602081019050919050565b600081519050919050565b600081519050919050565b600082825260208201905092915050565b600082825260208201905092915050565b600081905092915050565b60006138e282613a56565b91506138ed83613a56565b9250827fffffffffffffffffffffffffffffffffffffffffffffffffffffffffffffffff0382111561392257613921613b96565b5b828201905092915050565b600061393882613a56565b915061394383613a56565b92508261395357613952613bc5565b5b828204905092915050565b600061396982613a56565b915061397483613a56565b9250817fffffffffffffffffffffffffffffffffffffffffffffffffffffffffffffffff04831182151516156139ad576139ac613b96565b5b828202905092915050565b60006139c382613a56565b91506139ce83613a56565b9250828210156139e1576139e0613b96565b5b828203905092915050565b60006139f782613a36565b9050919050565b60008115159050919050565b60007fffffffff0000000000000000000000000000000000000000000000000000000082169050919050565b600073ffffffffffffffffffffffffffffffffffffffff82169050919050565b6000819050919050565b6000613a6b82613a72565b9050919050565b6000613a7d82613a36565b9050919050565b6000613a8f82613a96565b9050919050565b6000613aa182613a36565b9050919050565b82818337600083830152505050565b60005b83811015613ad5578082015181840152602081019050613aba565b83811115613ae4576000848401525b50505050565b60006002820490506001821680613b0257607f821691505b60208210811415613b1657613b15613bf4565b5b50919050565b6000613b2782613a56565b91507fffffffffffffffffffffffffffffffffffffffffffffffffffffffffffffffff821415613b5a57613b59613b96565b5b600182019050919050565b6000613b7082613a56565b9150613b7b83613a56565b925082613b8b57613b8a613bc5565b5b828206905092915050565b7f4e487b7100000000000000000000000000000000000000000000000000000000600052601160045260246000fd5b7f4e487b7100000000000000000000000000000000000000000000000000000000600052601260045260246000fd5b7f4e487b7100000000000000000000000000000000000000000000000000000000600052602260045260246000fd5b7f4e487b7100000000000000000000000000000000000000000000000000000000600052604160045260246000fd5b6000601f19601f8301169050919050565b613c6c816139ec565b8114613c7757600080fd5b50565b613c83816139fe565b8114613c8e57600080fd5b50565b613c9a81613a0a565b8114613ca557600080fd5b50565b613cb181613a56565b8114613cbc57600080fd5b5056fea264697066735822122031c7154e459bb8ded91cc392a7a81344d743f2f0bad4a7a80ac34cb0445c4a0664736f6c63430008000033",
  "immutableReferences": {},
  "source": "// SPDX-License-Identifier: MIT\npragma solidity ^0.8.0;\n\nimport \"@openzeppelin/contracts/token/ERC721/ERC721.sol\";\nimport \"@openzeppelin/contracts/token/ERC721/extensions/ERC721Enumerable.sol\";\nimport \"./FantomPiratesShip.sol\";\nimport \"./FantomPiratesGold.sol\";\n\ncontract FantomPiratesGame is ERC721Enumerable {\n\n  address public owner = msg.sender;\n\n  uint public next_pirate_id = 1;\n  uint public next_ship_id = 1;\n  uint constant DAY = 1 days;\n\n  uint constant xp_per_day = 250;\n  \n  mapping(uint => uint) public level;\n  mapping(uint => uint) public xp;\n  mapping(uint => uint) public quests_log;\n  mapping(uint => uint) public ship; // pirate_id => ship_id;\n\n  FantomPiratesShip public _ships_contract;\n  ERC20 public _gold_contract;\n\n  event PirateCreated(address indexed owner, uint pirate_id);\n  event ShipCreated(address indexed owner, uint ship_id);\n  event Leveled(address indexed owner, uint level, uint id);\n  \n  constructor(address _ship_contract_address) ERC721(\"Fantom Pirates\", \"FP\") {\n    _ships_contract = FantomPiratesShip(_ship_contract_address);\n  }\n\n  function mintPirate() public payable {\n    uint _pirate_id = next_pirate_id;\n    require(balanceOf(msg.sender) < 10, \"You can only own up to 10 pirates!\");\n    level[_pirate_id] = 1;\n    ship[_pirate_id] = 0;\n    _safeMint(msg.sender, _pirate_id);\n    emit PirateCreated(msg.sender, _pirate_id);\n    next_pirate_id++;\n  }\n\n  function mintShip(uint256 _pirate_id) public payable {\n    uint _next_ship_id = next_ship_id;\n    uint256 numberOfPiratesOwned = balanceOf(msg.sender);\n    require(_pirate_id != 0 && numberOfPiratesOwned > 0, \"You must own a pirate before you can own a ship!\");\n    require(ship[_pirate_id] == 0, \"Your pirate can only captain one ship!\");\n    require(level[_pirate_id] > 1, \"Your pirate must be at least level 2 in order to be a captain!\");\n    _ships_contract.mintShip(msg.sender, _next_ship_id);\n    ship[_pirate_id] = _next_ship_id; // assign pirate a ship\n    emit ShipCreated(msg.sender, _next_ship_id);\n    next_ship_id++;\n  }\n\n  function doQuest(uint _pirate_id) public payable {\n    require(block.timestamp > quests_log[_pirate_id], \"You must wait a day before your next quest!\");\n    quests_log[_pirate_id] = block.timestamp + DAY; // next available quest;\n    xp[_pirate_id] += xp_per_day;\n    level[_pirate_id] = 2;\n  }\n\n  function levelUp(uint _pirate_id) public payable {\n    require(_isApprovedOrOwner(msg.sender, _pirate_id), \"You must own this pirate in order to level it up!\");\n    uint _pirate_level = level[_pirate_id];\n    uint required_xp = requiredXpForLevel(_pirate_level++);\n    require(xp[_pirate_id] >= required_xp, \"You do not have the required XP to level up this pirate.\");\n    xp[_pirate_id] -= required_xp;\n    level[_pirate_id] = _pirate_level + 1;\n    // emit Leveled(msg.sender, _pirate_level, _pirate_id);\n  }\n\n  function requiredXpForLevel(uint _pirate_level) public pure returns (uint required_xp) {\n    uint _required_xp = 1000;\n    for (uint i = 2; i<=_pirate_level;i++) {\n      _required_xp += (i * xp_per_day);\n    }\n    return _required_xp;\n  } \n}\n",
  "sourcePath": "/Users/joshuacotterell/Documents/Blockchain/Projects/FantomPirates/src/blockchain/contracts/FantomPiratesGame.sol",
  "compiler": {
    "name": "solc",
    "version": "0.8.0+commit.c7dfd78e.Emscripten.clang"
  },
  "schemaVersion": "3.3.4",
  "updatedAt": "2021-10-27T14:47:01.327Z",
  "networkType": "ethereum",
  "devdoc": {
    "kind": "dev",
    "methods": {
      "approve(address,uint256)": {
        "details": "See {IERC721-approve}."
      },
      "balanceOf(address)": {
        "details": "See {IERC721-balanceOf}."
      },
      "getApproved(uint256)": {
        "details": "See {IERC721-getApproved}."
      },
      "isApprovedForAll(address,address)": {
        "details": "See {IERC721-isApprovedForAll}."
      },
      "name()": {
        "details": "See {IERC721Metadata-name}."
      },
      "ownerOf(uint256)": {
        "details": "See {IERC721-ownerOf}."
      },
      "safeTransferFrom(address,address,uint256)": {
        "details": "See {IERC721-safeTransferFrom}."
      },
      "safeTransferFrom(address,address,uint256,bytes)": {
        "details": "See {IERC721-safeTransferFrom}."
      },
      "setApprovalForAll(address,bool)": {
        "details": "See {IERC721-setApprovalForAll}."
      },
      "supportsInterface(bytes4)": {
        "details": "See {IERC165-supportsInterface}."
      },
      "symbol()": {
        "details": "See {IERC721Metadata-symbol}."
      },
      "tokenByIndex(uint256)": {
        "details": "See {IERC721Enumerable-tokenByIndex}."
      },
      "tokenOfOwnerByIndex(address,uint256)": {
        "details": "See {IERC721Enumerable-tokenOfOwnerByIndex}."
      },
      "tokenURI(uint256)": {
        "details": "See {IERC721Metadata-tokenURI}."
      },
      "totalSupply()": {
        "details": "See {IERC721Enumerable-totalSupply}."
      },
      "transferFrom(address,address,uint256)": {
        "details": "See {IERC721-transferFrom}."
      }
    },
    "version": 1
  },
  "userdoc": {
    "kind": "user",
    "methods": {},
    "version": 1
  }
}