{
  "contractName": "FantomPiratesGame",
  "abi": [
    {
      "inputs": [
        {
          "internalType": "address",
          "name": "_gameItemsAddress",
          "type": "address"
        }
      ],
      "stateMutability": "nonpayable",
      "type": "constructor"
    },
    {
      "inputs": [],
      "name": "gameItems",
      "outputs": [
        {
          "internalType": "contract FantomPiratesGameItems",
          "name": "",
          "type": "address"
        }
      ],
      "stateMutability": "view",
      "type": "function",
      "constant": true
    },
    {
      "inputs": [
        {
          "internalType": "address",
          "name": "",
          "type": "address"
        },
        {
          "internalType": "address",
          "name": "",
          "type": "address"
        },
        {
          "internalType": "uint256[]",
          "name": "",
          "type": "uint256[]"
        },
        {
          "internalType": "uint256[]",
          "name": "",
          "type": "uint256[]"
        },
        {
          "internalType": "bytes",
          "name": "",
          "type": "bytes"
        }
      ],
      "name": "onERC1155BatchReceived",
      "outputs": [
        {
          "internalType": "bytes4",
          "name": "",
          "type": "bytes4"
        }
      ],
      "stateMutability": "nonpayable",
      "type": "function"
    },
    {
      "inputs": [
        {
          "internalType": "address",
          "name": "",
          "type": "address"
        },
        {
          "internalType": "address",
          "name": "",
          "type": "address"
        },
        {
          "internalType": "uint256",
          "name": "",
          "type": "uint256"
        },
        {
          "internalType": "uint256",
          "name": "",
          "type": "uint256"
        },
        {
          "internalType": "bytes",
          "name": "",
          "type": "bytes"
        }
      ],
      "name": "onERC1155Received",
      "outputs": [
        {
          "internalType": "bytes4",
          "name": "",
          "type": "bytes4"
        }
      ],
      "stateMutability": "nonpayable",
      "type": "function"
    },
    {
      "inputs": [],
      "name": "owner",
      "outputs": [
        {
          "internalType": "address",
          "name": "",
          "type": "address"
        }
      ],
      "stateMutability": "view",
      "type": "function",
      "constant": true
    },
    {
      "inputs": [
        {
          "internalType": "bytes4",
          "name": "interfaceId",
          "type": "bytes4"
        }
      ],
      "name": "supportsInterface",
      "outputs": [
        {
          "internalType": "bool",
          "name": "",
          "type": "bool"
        }
      ],
      "stateMutability": "view",
      "type": "function",
      "constant": true
    },
    {
      "inputs": [],
      "name": "mintPirate",
      "outputs": [],
      "stateMutability": "payable",
      "type": "function",
      "payable": true
    }
  ],
  "bytecode": "0x6080604052336000806101000a81548173ffffffffffffffffffffffffffffffffffffffff021916908373ffffffffffffffffffffffffffffffffffffffff16021790555034801561005057600080fd5b50604051610d4d380380610d4d833981810160405281019061007291906100ce565b80600160006101000a81548173ffffffffffffffffffffffffffffffffffffffff021916908373ffffffffffffffffffffffffffffffffffffffff16021790555050610140565b6000815190506100c881610129565b92915050565b6000602082840312156100e057600080fd5b60006100ee848285016100b9565b91505092915050565b600061010282610109565b9050919050565b600073ffffffffffffffffffffffffffffffffffffffff82169050919050565b610132816100f7565b811461013d57600080fd5b50565b610bfe8061014f6000396000f3fe6080604052600436106100555760003560e01c806301ffc9a71461005a5780638da5cb5b14610097578063bc197c81146100c2578063cec8603e146100ff578063d507609314610109578063f23a6e6114610134575b600080fd5b34801561006657600080fd5b50610081600480360381019061007c91906107b3565b610171565b60405161008e919061097b565b60405180910390f35b3480156100a357600080fd5b506100ac6101eb565b6040516100b991906108df565b60405180910390f35b3480156100ce57600080fd5b506100e960048036038101906100e49190610665565b61020f565b6040516100f69190610996565b60405180910390f35b610107610224565b005b34801561011557600080fd5b5061011e61046e565b60405161012b91906109b1565b60405180910390f35b34801561014057600080fd5b5061015b60048036038101906101569190610724565b610494565b6040516101689190610996565b60405180910390f35b60007f4e2312e0000000000000000000000000000000000000000000000000000000007bffffffffffffffffffffffffffffffffffffffffffffffffffffffff1916827bffffffffffffffffffffffffffffffffffffffffffffffffffffffff191614806101e457506101e3826104a9565b5b9050919050565b60008054906101000a900473ffffffffffffffffffffffffffffffffffffffff1681565b600063bc197c8160e01b905095945050505050565b6000600160009054906101000a900473ffffffffffffffffffffffffffffffffffffffff1673ffffffffffffffffffffffffffffffffffffffff1663ecf000c36040518163ffffffff1660e01b815260040160206040518083038186803b15801561028e57600080fd5b505afa1580156102a2573d6000803e3d6000fd5b505050506040513d601f19601f820116820180604052508101906102c691906107dc565b9050600a600160009054906101000a900473ffffffffffffffffffffffffffffffffffffffff1673ffffffffffffffffffffffffffffffffffffffff1662fdd58e33846040518363ffffffff1660e01b8152600401610326929190610952565b60206040518083038186803b15801561033e57600080fd5b505afa158015610352573d6000803e3d6000fd5b505050506040513d601f19601f8201168201806040525081019061037691906107dc565b11156103b7576040517f08c379a00000000000000000000000000000000000000000000000000000000081526004016103ae906109cc565b60405180910390fd5b600160009054906101000a900473ffffffffffffffffffffffffffffffffffffffff1673ffffffffffffffffffffffffffffffffffffffff1663f242432a60008054906101000a900473ffffffffffffffffffffffffffffffffffffffff16338460016040518563ffffffff1660e01b815260040161043994939291906108fa565b600060405180830381600087803b15801561045357600080fd5b505af1158015610467573d6000803e3d6000fd5b5050505050565b600160009054906101000a900473ffffffffffffffffffffffffffffffffffffffff1681565b600063f23a6e6160e01b905095945050505050565b60007f01ffc9a7000000000000000000000000000000000000000000000000000000007bffffffffffffffffffffffffffffffffffffffffffffffffffffffff1916827bffffffffffffffffffffffffffffffffffffffffffffffffffffffff1916149050919050565b600061052661052184610a1d565b6109ec565b9050808382526020820190508285602086028201111561054557600080fd5b60005b85811015610575578161055b888261063b565b845260208401935060208301925050600181019050610548565b5050509392505050565b600061059261058d84610a49565b6109ec565b9050828152602081018484840111156105aa57600080fd5b6105b5848285610b45565b509392505050565b6000813590506105cc81610b83565b92915050565b600082601f8301126105e357600080fd5b81356105f3848260208601610513565b91505092915050565b60008135905061060b81610b9a565b92915050565b600082601f83011261062257600080fd5b813561063284826020860161057f565b91505092915050565b60008135905061064a81610bb1565b92915050565b60008151905061065f81610bb1565b92915050565b600080600080600060a0868803121561067d57600080fd5b600061068b888289016105bd565b955050602061069c888289016105bd565b945050604086013567ffffffffffffffff8111156106b957600080fd5b6106c5888289016105d2565b935050606086013567ffffffffffffffff8111156106e257600080fd5b6106ee888289016105d2565b925050608086013567ffffffffffffffff81111561070b57600080fd5b61071788828901610611565b9150509295509295909350565b600080600080600060a0868803121561073c57600080fd5b600061074a888289016105bd565b955050602061075b888289016105bd565b945050604061076c8882890161063b565b935050606061077d8882890161063b565b925050608086013567ffffffffffffffff81111561079a57600080fd5b6107a688828901610611565b9150509295509295909350565b6000602082840312156107c557600080fd5b60006107d3848285016105fc565b91505092915050565b6000602082840312156107ee57600080fd5b60006107fc84828501610650565b91505092915050565b61080e81610a9b565b82525050565b61081d81610aad565b82525050565b61082c81610ab9565b82525050565b61083b81610b0f565b82525050565b61084a81610b33565b82525050565b600061085d602383610a8a565b91507f596f752063616e206f6e6c79206861766520757020746f20313020706972617460008301527f65732100000000000000000000000000000000000000000000000000000000006020830152604082019050919050565b60006108c3600083610a79565b9150600082019050919050565b6108d981610b05565b82525050565b60006020820190506108f46000830184610805565b92915050565b600060a08201905061090f6000830187610805565b61091c6020830186610805565b61092960408301856108d0565b6109366060830184610841565b8181036080830152610947816108b6565b905095945050505050565b60006040820190506109676000830185610805565b61097460208301846108d0565b9392505050565b60006020820190506109906000830184610814565b92915050565b60006020820190506109ab6000830184610823565b92915050565b60006020820190506109c66000830184610832565b92915050565b600060208201905081810360008301526109e581610850565b9050919050565b6000604051905081810181811067ffffffffffffffff82111715610a1357610a12610b54565b5b8060405250919050565b600067ffffffffffffffff821115610a3857610a37610b54565b5b602082029050602081019050919050565b600067ffffffffffffffff821115610a6457610a63610b54565b5b601f19601f8301169050602081019050919050565b600082825260208201905092915050565b600082825260208201905092915050565b6000610aa682610ae5565b9050919050565b60008115159050919050565b60007fffffffff0000000000000000000000000000000000000000000000000000000082169050919050565b600073ffffffffffffffffffffffffffffffffffffffff82169050919050565b6000819050919050565b6000610b1a82610b21565b9050919050565b6000610b2c82610ae5565b9050919050565b6000610b3e82610b05565b9050919050565b82818337600083830152505050565b7f4e487b7100000000000000000000000000000000000000000000000000000000600052604160045260246000fd5b610b8c81610a9b565b8114610b9757600080fd5b50565b610ba381610ab9565b8114610bae57600080fd5b50565b610bba81610b05565b8114610bc557600080fd5b5056fea2646970667358221220371df0c2d4e3690b3d23bd78a5eaf491f918611da09e3ce998126e0651feef8864736f6c63430008000033",
  "immutableReferences": {},
  "source": "// SPDX-License-Identifier: MIT\npragma solidity ^0.8.0;\n\nimport \"@openzeppelin/contracts/token/ERC1155/utils/ERC1155Holder.sol\";\nimport \"./FantomPiratesGameItems.sol\";\n\ncontract FantomPiratesGame is ERC1155Holder {\n\n  address public owner = msg.sender;\n  FantomPiratesGameItems public gameItems;\n\n  constructor(address _gameItemsAddress) {\n    gameItems = FantomPiratesGameItems(_gameItemsAddress);\n  }\n\n  function mintPirate() public payable {\n    uint256 _pirateId = gameItems.PIRATE();\n    require(gameItems.balanceOf(msg.sender, _pirateId) <= 10, \"You can only have up to 10 pirates!\");\n    gameItems.safeTransferFrom(\n        owner,\n        msg.sender,\n        _pirateId,\n        1,\n        \"\"\n    );\n  }\n}\n",
  "sourcePath": "/Users/joshuacotterell/Documents/Blockchain/Projects/FantomPirates/src/blockchain/contracts/FantomPiratesGame.sol",
  "compiler": {
    "name": "solc",
    "version": "0.8.0+commit.c7dfd78e.Emscripten.clang"
  },
  "schemaVersion": "3.3.4",
  "updatedAt": "2021-10-20T22:52:55.863Z",
  "networkType": "ethereum",
  "devdoc": {
    "kind": "dev",
    "methods": {
      "supportsInterface(bytes4)": {
        "details": "See {IERC165-supportsInterface}."
      }
    },
    "version": 1
  },
  "userdoc": {
    "kind": "user",
    "methods": {},
    "version": 1
  }
}